:100000000C94C7060C940E070C940E070C940E0764
:100010000C940E070C940E070C940E070C940E070C
:100020000C940E070C940E070C946B300C943F311B
:100030000C9440270C940E070C940E070C940E079A
:100040000C940E070C940E070C940E070C940E07DC
:100050000C940E070C9497270C940E070C940E0723
:100060000C940E070C940E070C940E070C940E07BC
:100070000C940E070C940E070C940E070C940E07AC
:100080000C940E070C940E070C940E070C940E079C
:100090000C940E070C940E070C940E070C940E078C
:1000A0000C940E070C940E070C940E073804C00332
:1000B0001B039E022102B8016301BE000000000183
:1000C000BFFFFF0101D5FFFF0201EA80FF0801BF6A
:1000D000FFFF0901D5FFFF0A01EA80FF1001BFFF02
:1000E000FF1101D5FFFF1201EA80FF1801BFFFFFDA
:1000F0001901D5FFFF1A01EA80FF2001BFFFFF2190
:1001000001D5FFFF2201EA80FF2801BFFFFF29017F
:10011000D5FFFF2A01EA80FF3001BFFFFF3101D583
:10012000FFFF3201EA80FF3801BFFFFF3901D5FF31
:10013000FF3A01EA80FF04010000FF050100FFFF14
:1001400006011CFFFF07012BFFFF0C010000FF0D44
:100150000100FFFF0E011CFFFF0F012BFFFFFF003F
:10016000000000000400007F080400007F1004006D
:10017000007F180400007F040400FFFF0C0400FF50
:10018000FF140400FFFF1C0400FFFF200400FFFF1A
:10019000280400FFFF300400FFFF380400FFFF24A5
:1001A0000400007F2C0400007F340400007F3C0426
:1001B00000007FFF00000000010200007F04030038
:1001C000007F080100FFFF090600007F0F0100FF0C
:1001D000FF110200007F140300007F180100FFFFE1
:1001E000190600007F1F0100FFFF210200007F248D
:1001F0000300007F280100FFFF290600007F2F0178
:1002000000FFFF310200007F340300007F3801004F
:10021000FFFF390600007F3F0100FFFFFF000000E5
:1002200000100200007F130100007F150100007F15
:10023000170100007F190100007F1B0100007F1CD7
:100240000100FFFF1E0100007F200100FFFF2201CF
:1002500000007F240200007F270100007F280200A9
:10026000007F2B0100007F2D0100007F2F01000087
:100270007F310100007F330100007F340100FFFF68
:10028000360100007F380100FFFF3A0100007F3C8B
:100290000200007F3F0100007FFF0000000000051A
:1002A00000007F050100FFFF060200007F0801003B
:1002B000FFFF090600007F0F0100FFFF1002000092
:1002C0007F120100FFFF130500007F180500007F6B
:1002D0001D0100FFFF1E0200007F200100FFFF2123
:1002E0000600007F270100FFFF280200007F2A018F
:1002F00000FFFF2B0500007F300500007F35010067
:10030000FFFF360200007F380100FFFF39060000C2
:100310007F3F0100FFFFFF00000000000200007FA0
:10032000030100007F050100007F070100007F0836
:100330000100FFFF0A0100007F0C0200007F0F0197
:1003400000007F110100007F130100007F140100F5
:10035000FFFF160100007F180200007F1B01000054
:100360007F1D0100007F1F0100007F200100FFFFB3
:10037000220100007F240200007F270100007F2966
:100380000100007F2B0100007F2C0100FFFF2E01E8
:1003900000007F300200007F330100007F35010044
:1003A000007F370100007F380100FFFF3A010000A5
:1003B0007F3C0200007F3F0100007FFF0000000043
:1003C000000100FFFF010600007F080300007F0B13
:1003D0000100FFFF0C0400007F100600007F1601E3
:1003E00000FFFF170100007F180200007F1A0100C4
:1003F000FFFF1B0500007F200500007F250100FF97
:10040000FF260200007F280100007F290100FFFF76
:100410002A0600007F300400007F340100FFFF3512
:100420000300007F380100FFFF390600007F3F0115
:1004300000FFFFFF00000000000100007F0101003D
:10044000FFFF030100007F050200007F090100009B
:100450007F0B0100007F0D0100007F0E0100FFFFF8
:10046000110100007F130200007F160100007F19B8
:100470000100007F1B0100007F1C0100FFFF1E0127
:1004800000007F210200007F240100007F26010080
:10049000007F290100007F2A0100FFFF2C010000DE
:1004A0007F2E0200007F300100007F320100007FBC
:1004B000340100007F360100007F370100FFFF3864
:1004C0000100FFFF3A0100007F3C0200007F3F0176
:1004D00000007FFF000000005F5D605D615D1850FF
:1004E000000001000100C35C6A5C6B5C6C5C6D5CCD
:1004F0006E5C6F5C705C715C655C665C675C685CC4
:10050000695C6A5C6B5C6C5C605C615C625C635CDB
:10051000645C655C665C675C5B5C5C5C5D5C5E5CF3
:100520005F5C605C615C625C565C575C585C595C0B
:100530005A5C5B5C5C5C5D5C515C525C535C545C23
:10054000555C565C575C585C4C5C4D5C4E5C4F5C3B
:10055000505C515C525C535C475C485C495C4A5C53
:100560004B5C4C5C4D5C4E5C0100010001000100E5
:1005700000000100010001006B5C6D5C6F5C705C51
:10058000725C745C765C0000665C685C6A5C6B5CE8
:100590006D5C6F5C705C725C615C635C645C665C2F
:1005A000685C6A5C6B5C6D5C5C5C5E5C5F5C615C47
:1005B000635C645C665C685C575C585C5A5C5C5C61
:1005C0005E5C5F5C615C635C525C535C555C575C79
:1005D000585C5A5C5C5C5E5C4C5C4E5C505C525C93
:1005E000535C555C575C585C475C495C4B5C4C5CAD
:1005F0004E5C505C525C535C010001000100010044
:100600000000010001000100635C645C655C665CE5
:10061000675C685C695C6A5C5F5C605C615C625CD6
:10062000635C645C655C665C5B5C5C5C5D5C5E5CE6
:100630005F5C605C615C625C575C585C595C5A5CF6
:100640005B5C5C5C5D5C5E5C535C545C555C565C06
:10065000575C585C595C5A5C4F5C505C515C525C16
:10066000535C545C555C565C4B5C4C5C4D5C4E5C26
:100670004F5C505C515C525C475C485C495C4A5C36
:100680004B5C4C5C4D5C4E5C0100010001000100C4
:100690000000010001000100635C645C665C685C52
:1006A0006A5C6B5C6D5C6F5C5F5C615C635C645C32
:1006B000665C685C6A5C6B5C5C5C5E5C5F5C615C3D
:1006C000635C645C665C685C575C585C5A5C5C5C50
:1006D0005E5C5F5C615C635C535C555C575C585C62
:1006E0005A5C5C5C5E5C5F5C505C525C535C555C6D
:1006F000575C585C5A5C5C5C4B5C4C5C4E5C505C80
:10070000525C535C555C575C475C495C4B5C4C5C91
:100710004E5C505C525C535C010001000100010022
:1007200000000100010001000000000000000000C6
:1007300000000000000000000000000000000000B9
:1007400000000000000000006F5C705C715C725C77
:10075000735C745C755C765C675C685C695C6A5C45
:100760006B5C6C5C6D5C6E5C5F5C605C615C625C75
:10077000635C645C655C665C575C585C595C5A5CA5
:100780005B5C5C5C5D5C5E5C4F5C505C515C525CD5
:10079000535C545C555C565C475C485C495C4A5C05
:1007A0004B5C4C5C4D5C4E5C0100010001000100A3
:1007B00000000100010001000000605C625C0000BC
:1007C000655C675C695C00005F5C615C635C645CE9
:1007D000665C685C6A5C6B5C0000545C565C0000A4
:1007E000595C5B5C5D5C0000535C555C575C585C1D
:1007F0005A5C5C5C5E5C5F5C0000485C4A5C0000CC
:100800004D5C4F5C515C0000475C495C4B5C4C5C50
:100810004E5C505C525C535C00003C5C3E5C0000F3
:10082000415C435C455C00003B5C3D5C3F5C405C84
:10083000425C445C465C475C010001000100010031
:100840000000010001000100575C585C595C5A5CD3
:100850000000000000000000535C545C555C565CD6
:10086000735C745C755C765C4F5C505C515C525C94
:100870006F5C705C715C725C4B5C4C5C4D5C4E5CA4
:100880006B5C6C5C6D5C6E5C475C485C495C4A5CB4
:10089000675C685C695C6A5C435C445C455C465CC4
:1008A000635C645C655C665C3F5C405C415C425CD4
:1008B0005F5C605C615C625C3B5C3C5C3D5C3E5CE4
:1008C0005B5C5C5C5D5C5E5C010001000100010042
:1008D0000000010001000100000000000000000015
:1008E0000000000000000000000000000000000008
:1008F00000000000000000000000000000000000F8
:1009000000000000000000000000000000000000E7
:1009100000000000000000000000000000000000D7
:1009200000000000000000000000000000000000C7
:1009300000000000000000000000000000000000B7
:1009400000000000000000000000000000000000A7
:100950000000000000000000010001000100010093
:100960000000010001000100625D6A5D725D00002F
:10097000C45CC65CC85CCA5C635D6B5D735D000093
:10098000C55CC75CC95CCB5C645D6C5D745D00007C
:100990000000000000000000655D6D5D755D0000F9
:1009A0000000000000000000665D6E5D765D0000E6
:1009B0000000000000000000675D6F5D775D0000D3
:1009C0000000000000000000685D705D785D0000C0
:1009D0000000000000000000695D715D795D0000AD
:1009E00000000000000000001E0F0500047F3F1FF4
:1009F000643214643214783C1E1E140A0522232526
:100A00002628292A2C2D2F3032333536383A3B3DD3
:100A10003E4042434547494A4C4E50515355575921
:100A20005A5C5E6062646668696B6D6F717375773E
:100A3000797B7D7F81838587898A8C8E909294963D
:100A4000989A9C9E9FA1A3A5A7A8AAACAEAFB1B34C
:100A5000B4B6B8B9BBBCBEBFC1C2C3C5C6C7C9CA9C
:100A6000CBCCCDCED0D1D2D2D3D4D5D6D7D7D8D95E
:100A7000D9DADADBDBDBDCDCDCDCDCDDDDDDDDDCBC
:100A8000DCDCDCDCDBDBDBDADAD9D9D8D7D7D6D5CE
:100A9000D4D3D2D2D1D0CECDCCCBCAC9C7C6C5C390
:100AA000C2C1BFBEBCBBB9B8B6B4B3B1AFAEACAADD
:100AB000A8A7A5A3A19F9E9C9A98969492908E8C8D
:100AC0008A89878583817F7D7B79777573716F6D67
:100AD0006B6968666462605E5C5A59575553515041
:100AE0004E4C4A4947454342403E3D3B3A383635F5
:100AF0003332302F2D2C2A292826252322FFAA7FA6
:100B0000554000010203040506070F0E0D0C0B0AE9
:100B1000090810111213141516171F1E1D1C1B1A7D
:100B2000191820212223242526272F2E2D2C2B2A6D
:100B3000292830313233343536373F3E3D3C3B3A5D
:100B40003938000101010101010101010202020223
:100B50000202020202030303030303030304040467
:100B60000404040405050505050606060606070730
:100B700007070708080808090909090A0A0A0B0BE8
:100B80000B0C0C0C0D0D0D0E0E0E0F0F0F10101187
:100B9000111112121313141415151616171718180D
:100BA00019191A1A1B1B1C1D1D1E1E1F2020212275
:100BB00022232424252626272829292A2B2C2D2DBB
:100BC0002E2F30313232333435363738393A3B3CD8
:100BD0003D3E3F404142434445464748494A4C4DCB
:100BE0004E4F50515354555658595A5B5D5E5F6194
:100BF0006264656668696B6C6D6F70727375777827
:100C00007A7B7D7E8082838587888A8C8E8F919384
:100C10009596989A9C9EA0A2A3A5A7A9ABADAFB1AB
:100C2000B3B5B7BABCBEC0C2C4C6C9CBCDCFD1D490
:100C3000D6D8DBDDDFE2E4E7E9EBEEF0F3F5F8FA36
:100C4000FDFF140346006500750069006C006C0030
:100C500065003600340000000C03790079006E0056
:100C60006D00740000000403090409029F000401E0
:100C700000A0FA090400000103010100092111018B
:100C800000012240000705810308000A0904010051
:100C900001030000000921110100012232000705B3
:100CA000820320000A080B0202010100000904026D
:100CB00000000101000009240100010900010309ED
:100CC00004030002010300000724010001410006A3
:100CD0002402010100062402020200092403010388
:100CE00001020100092403020401010100090504B5
:100CF00002400005000005250101010905830240AD
:100D0000000500000525010103120110010000008B
:100D100008D804D8E801000102000105010980A1FA
:100D200001850319012AB700150126B70095017541
:100D3000108100C0050C0901A101850419012AA038
:100D400002150126A002950175108100C005010958
:100D500006A101050719E029E71500250195087589
:100D60000181029501750881010507190029FF1508
:100D70000026FF0095067508810005081901290560
:100D8000950575019102950175039101C00011242B
:100D90001FBECFEFDAE0DEBFCDBF04B603FE27C033
:100DA00080916D0690916E06A0916F06B0917006CD
:100DB0008730904BA740B04BD1F410926D06109243
:100DC0006E0610926F061092700614BE84B7877F6D
:100DD00084BF0FB6F894A8958091600088618093D5
:100DE0006000109260000FBEE0E0F8E3099511E0AA
:100DF000A0E0B1E0E0E3F9E602C005900D92A63F65
:100E0000B107D9F726E0A6EFB1E001C01D92AD36DB
:100E1000B207E1F70E94522D0C9457340C94000055
:100E2000FC01DB0112968C91882309F469C0EF550F
:100E3000FD45EB31F10508F064C0E75AFB4C0C941A
:100E400047338091F8010E9477238091A7048F7720
:100E50008093A7048091A804887F8093A80480E0F1
:100E60000895809105010E9477238091A7048068EE
:100E7000EFCF809104010E9477238091A7048F77A0
:100E80008093A7048091A804887F8160E6CF1092A8
:100E9000F801E5CF81E08093F801E1CF82E0FBCF5C
:100EA00083E0F9CF84E0F7CF85E0F5CF86E0F3CF9C
:100EB00087E0F1CF10920501D2CF81E08093050148
:100EC000CECF82E0FBCF83E0F9CF84E0F7CF85E09F
:100ED000F5CF86E0F3CF87E0F1CF10920401BFCFCA
:100EE00081E080930401BBCF82E0FBCF83E0F9CFA8
:100EF00084E0F7CF85E0F5CF86E0F3CF87E0F1CF50
:100F000081E00895811115C02091A604822F8F7071
:100F1000207F662341F0815F982F9F70922B9093E2
:100F2000A60481E008958F5F8F70822B8093A604C2
:100F3000F8CF8130D9F48091A704982F9F7766234A
:100F400069F080789F3721F485678093A704E9CF03
:100F50009D30D8F39D509F77892BF7CF933720F49E
:100F6000935F9F778078F8CF8F67EFCF8230C9F695
:100F70008AEA611101C089EA0E948E1DD2CFE6EA99
:100F8000F4E08081807F82608083E7EAF4E0808102
:100F90008078856780838CEA90E09093D403809377
:100FA000D30340E06FEF80E00C946E12CF92DF929B
:100FB000EF92FF926B017C0140E00E946223682F58
:100FC00080E00E94381641E0C701B6010E9462230A
:100FD000682F81E00E94381642E0C701B6010E94E6
:100FE0006223682F82E00E94381643E0C701B601F1
:100FF0000E946223682F83E00E94381644E0C701F4
:10100000B6010E946223682F84E00E94381645E0F2
:10101000C701B6010E946223682F85E00E9438163E
:1010200046E0C701B6010E946223682F86E00E9455
:10103000381648E0C701B6010E946223682F87E096
:101040000E943816C701B601FF90EF90DF90CF9055
:10105000089581E008950C94100708950C942D08CC
:101060001F93CF93DF9300D000D00F92CDB7DEB7A0
:1010700049835A836B8330910B0489819A813111A2
:101080001DC06623B9F02223A9F00E947D24182FE9
:10109000682F89819A810E94282469817A81812F11
:1010A0000F900F900F900F900F90DF91CF911F91A5
:1010B0000C94FB080E945524182FEFCF0E947D242A
:1010C00069817A81EDCFFC01262F408151816281B7
:1010D000738184810C943008CF93DF93EC0160E03E
:1010E0000E946308BE01DF91CF910C942E080E94EC
:1010F000EE0A0C94130B0C94160B08950E94F71F24
:101100000E947D082FEF84E39CE0215080409040B6
:10111000E1F700C000000C94BB270F931F93CF93FF
:10112000DF938C0161E00E946308EC01B8010E942A
:101130002B08882309F441C0B801CE010E94410C5C
:101140008823D9F1B801CE010E948A198823A9F118
:10115000B801CE010E94DC19882379F1B801CE01D3
:101160000E94FF1A882349F1B801CE010E9423177B
:10117000882319F1F8018281882361F0CB35FDE5E0
:10118000DF0721F170F4C115ECE5DE07A1F0CF3DDA
:10119000DC45C9F0C801DF91CF911F910F910C94EC
:1011A0002908CC358DE5D807A1F0CD35DD4591F77F
:1011B0000E942425EFCF0E947E0880E0DF91CF912E
:1011C0001F910F9108950E949026F7CF0E942D2520
:1011D000E1CF0E943025DECF08950C94EC0881E029
:1011E00008950C94EF08CF93C82F0E94ED088C2F20
:1011F000CF910C94F108E72FF0E099E0899FE00D82
:10120000F11D112483E0EE0FFF1F8A95E1F7E60F31
:10121000F11DEE0FFF1FE852FB4F85919491089549
:10122000CF93DF930E94FB080E94FC09EC0181151B
:1012300022E59207E8F5811531E5930708F0ACC087
:10124000883E910510F5803E910570F5883A91052C
:1012500070F4853A910508F078C08130910521F14C
:10126000009711F1049700F5D0E0C0E01DC08F3B5E
:101270009105D0F7C85AD0E0CC0FDD1FCE5CDE4F11
:101280000990D881C02DD4640FC0811540E5940722
:1012900008F066C0C11580E4D80708F05EC0CE0132
:1012A0009A9581159F4100F7CE01DF91CF91089566
:1012B000811536E5930718F5811545E5940708F083
:1012C00083C0C11584E5D80708F079C09C2F969596
:1012D00096959E0123703327C115D34508F461C04C
:1012E000C1E0D0E002C0CC0FDD1F2A95E2F730E26A
:1012F000939FC0011124C82BD92BDA68D5CFC11513
:101300008AE5D80778F4C11599E5D90708F066C0D1
:10131000C11528E5D20708F4A7CFDC2FCC27C06F72
:10132000D06AC2CFCE0190568115904208F09CCF72
:101330008D2F8F710E94930A90E0982F882788271D
:101340009F719C012C2BE90147C0C55AD0E0C05ABF
:10135000DE4FC881D0E0D064A7CFDF70D06AA4CFC1
:10136000E4E096958795EA95E1F783702C2F269512
:101370002695237040E2249F90011124382B8C2F56
:101380008370C1E0D0E002C0CC0FDD1F8A95E2F788
:10139000C22BD32BDC6888CFD82FCC27C16FD06A63
:1013A00083CFC1E0D0E002C0CC0FDD1F2A95E2F769
:1013B00020E2929FC0011124C82BD92BEBCFDC2F48
:1013C000CC27C46FD06A70CF0E94930AC82FD0E098
:1013D000DC2FCC27CC27DF71D06266CF8C2F8F70AB
:1013E0000E94930A34E0D695C7953A95E1F7CF70FD
:1013F0009C2FEC01D06958CF82389105B1F1B0F43F
:101400008133910509F475C048F48932910509F4D6
:1014100069C08A32910509F473C008958533910536
:1014200009F459C08933910501F10895833E91056E
:10143000A9F138F4803E9105F9F0823E910549F119
:101440000895863E9105A9F1873E9105C9F1843E34
:10145000910519F52091930421FF1FC080919204FA
:1014600084FD14C087EE90E00895209192042370CB
:10147000A1F080EE90E008952091920420FD47C0F5
:101480003091930430FF09C024FF44C090E080E015
:1014900004C02091920422FDF7CF08952091920478
:1014A00022FD3BC03091930430FDE3CF24FFF5CF04
:1014B000EDCF2091920423FFF0CF24FDE7CFD2CFD0
:1014C0002091920423FD2CC03091930431FFEECF84
:1014D00084EE90E008952091920425FFDECF89E20A
:1014E00090E008952091920425FFD7CF85E390E006
:1014F00008952091920426FFD0CF8AE290E00895CB
:101500002091920426FFC9CF81E390E0089589E3FA
:1015100090E0089583EE90E0089582EE90E00895C3
:1015200086EE90E008959091920492FF06C0282FD5
:1015300028712830F9F4877F846093FF06C0282F34
:1015400028712831F1F4877E84612091930420FF73
:1015500006C0382F38713830D9F4877F816021FF79
:1015600006C0282F28712831D1F4877E816194FD2F
:10157000877E0895282F24712430F9F68B7F8860A8
:10158000DCCF282F2471243101F78B7E8861DDCFD9
:10159000382F3171313019F78E7F8860E0CF282FD6
:1015A0002171213121F78E7E8861E1CF0C94E525F0
:1015B0000E94630B8FE39CE90197F1F700C00000E4
:1015C0000E94630B80E00E94180B80FF04C00E9401
:1015D000D60A0C94BB2708950C94D80A0E94EB25D8
:1015E000811102C00E9490260E94F62580938604F5
:1015F0000E94FE2590939304809392040E94EC0A2B
:101600000E94FA25682F70E090E080E00E94172386
:1016100060917104709172048091730490917404CC
:101620000C944F2308950C94120B08950C94150BF1
:10163000E82FF0E0E356FB4F80810895089580EA9B
:101640008A95F1F7089500C008950C941F0BF89443
:10165000E82FE295EF70F0E031A1282F2F7081E0A4
:1016600090E001C0880F2A95EAF7982F9095932370
:1016700091A392A1892B82A378940895CF93DF93AD
:10168000CBE6D1E089910E94270B81E0C437D807CF
:10169000C9F7C3E6D1E089910E94270B81E0CB36E0
:1016A000D807C9F7E4E9F4E0ADE9B4E011921D927E
:1016B00084E0ED39F807D1F789E00E94DA0BDF9179
:1016C000CF910C947708CF92DF92EF92FF920F9315
:1016D0001F93CF93DF93CBE6D1E004E914E0D12C44
:1016E000EE24E394F12C8991F894E82FE295EF70C1
:1016F000F0E021A18F70A70102C0440F551F8A9509
:10170000E2F7CA01922F982B91A392A18095892389
:1017100082A378940E94230BE3E6F1E030E020E01E
:10172000C12C4191A42FA295AF70B0E090968C91FE
:1017300090E04F7002C0959587954A95E2F780FD3D
:1017400035C08E2D022E01C0880F0A94EAF7C82AF0
:101750002F5F3F4F2830310521F7FE0131978081FF
:101760000E94270B0E94250BF8018081C81601F109
:10177000C08281E0D82A0F5F1F4FF1E0C437DF0736
:1017800009F0B1CF2D2D49E06DE974E084E994E0D2
:101790000E94DB0B0E947B088D2DDF91CF911F9162
:1017A0000F91FF90EF90DF90CF90089580E0CFCF22
:1017B00080E0E0CF0895FF920F931F93CF93DF93C4
:1017C000F82E092F162FD72FC42F222349F081E09E
:1017D0008093FB010E9470279093FA018093F90196
:1017E0008091FB018823A1F08091F9019091FA0189
:1017F0000E948827069760F0EF2DF02FA12FBD2FB4
:10180000CE0FDF2FD11DEC17FD0741F41092FB0125
:10181000DF91CF911F910F91FF90089581918D934A
:10182000F2CF84E08093A6048FE78093A704809191
:10183000A804807880648093A804E0E0F2E08FEF51
:101840008193DF01A95BBF4F1C9292E0E834F90756
:10185000B9F71092FF011092FE011092FD01109253
:10186000FC0108959091A604292F2F7095959595C8
:10187000959595959F523CE0239F900D1124890FDB
:101880000895EF92FF921F93CF93DF93FB018F3A5E
:101890002CE5920708F085C08F394CE5940708F0D5
:1018A00099C180395CE5950750F583382CE592079E
:1018B00008F04CC181384CE5940760F487375CE54B
:1018C000950708F02BC18F322CE5920708F0DFC096
:1018D000D1E01DC181384CE5940709F42CC1823850
:1018E0009C45B1F78281882309F4FBC08091A6044E
:1018F000982F9F70993008F0F4C09F5F25C18D39F3
:101900002CE59207A0F582394CE5940708F03BC11D
:1019100080395CE5950709F424C181399C45C1F6FD
:101920008281882309F4DDC02091A604822F859549
:1019300085958595859586300CF0D3C091E0980FFC
:101940009295907F9595959595959595392F32958A
:10195000307F2F70232B2093A60418160CF0C1C0E3
:1019600097FFBFC08295807F922F9F70E0C08D3916
:101970004CE5940709F415C18E399C4509F0A8CFB0
:101980008281882309F4ADC08091A704982F9F77A6
:101990009F3709F4A6C0933708F01AC1935F9F7769
:1019A000FEC0853B2CE5920709F472C1C8F5813B66
:1019B0005CE5950709F43EC1D8F48F3A4CE59407ED
:1019C00009F41AC1803B9C4509F082CF82818823AB
:1019D00009F487C02091A704322F331F3327331F08
:1019E0009091A804892F8770880F832B8F5F15C172
:1019F0006091A7043091A8042281833BECE59E0707
:101A000009F43AC108F42CC121112FE7862F881F51
:101A10008827881F632F6770660F682B42E41BC1FD
:101A2000883B2CE5920709F446C180F4863B5CE5CF
:101A3000950709F42DC1873B9C4509F049CF828168
:101A4000811137C18FEF8093FE014BC08A3B4CE57B
:101A5000940709F466C108F44FC18B3B9C4509F01B
:101A600037CFD2816091A704862F881F8827881FCF
:101A70006091A8046770660F682BDD2309F461C1CB
:101A80004FEF5FE183E795E00E9441282AC0109163
:101A9000A704212F221F2227221FC091A804C7704C
:101AA000CC0FC22B1F77D28121ED280F30E0A90186
:101AB00040505E4F7A01DD23C1F00E94320CD82FD6
:101AC000212F482F6C2F83E795E00E942128F701F2
:101AD000E85BFF4F80818F5F8083F70180818F3FBC
:101AE00011F0D0E014C0D083FCCFFA014081E85B54
:101AF000FF4F8081815080838111F3CF212F6C2F84
:101B000083E795E00E9431288FEFF70180838D2FC6
:101B1000DF91CF911F91FF90EF90089522812223B2
:101B200001F38757982F9F708091A604807F892B9F
:101B30008093A604D6CF8281882399F28091A6044F
:101B4000982F9F7071F2915F9F70F0CF22812223B6
:101B500041F28958982F9295907F8091A6048F70BA
:101B6000E6CF8281882309F4BCCF8091A604982F08
:101B700095959595959595959B3F0CF4B2CF915F72
:101B80009295907FECCF2281222309F4AACF82592B
:101B90009CE0899F902D11249F778091A7048078E5
:101BA00015C08281882309F49CCF8091A704982FC7
:101BB0009F7709F496CF80789F3721F485678093CB
:101BC000A7048FCF9D30D8F39D509F77892BF7CFF7
:101BD0008F67F5CF2281222309F483CF8F5990910B
:101BE000A70480FB97F99093A7048695877090913E
:101BF000A804987F892B7DC08281882309F471CF46
:101C00002091A704322F331F3327331F9091A8044C
:101C1000892F8770880F832B815F382F3F7080FB5F
:101C200027F92093A704832F8695987F982B90936C
:101C3000A80457CF8281882309F453CF6091A70469
:101C4000862F881F8827881F6091A8046770660FF9
:101C5000682B20E04BE783E795E00E94112841CFF5
:101C600021112FE7862F881F8827881F632F677011
:101C7000660F682B40E4EFCF21112FE7862F881FD6
:101C80008827881F632F6770660F682B41E4E3CFB6
:101C9000828120E081112FE76091A704862F881FA1
:101CA0008827881F6091A8046770660F682B43E43B
:101CB000D2CF81E0C8CE8281882309F412CF9091DF
:101CC000A804292F2695269526952F7081E0820F4E
:101CD0008F70880F880F880F9778892B8093A804BE
:101CE000982F987709F0FDCE220F220F220F8778C8
:101CF000822B8093A804F5CE8281882309F4F1CE4B
:101D00008091A804982F987709F4EBCE982F969598
:101D100096959695915F9F70990F990F990F877877
:101D200069CFD2816091A704862F881F8827881FDA
:101D30006091A8046770660F682B40E050EED111E7
:101D4000A1CE50E040E083E795E00E944128DFCE3D
:101D500083E795E00E94432A8091FC019091FD0168
:101D60000E9488272091A8042695269526952F70F5
:101D70002817190609F0A0F50E9470279093FD011D
:101D80008093FC018091FE01882351F16091A704AA
:101D9000862F881F8827881F6091A8046770660FA8
:101DA000682B2091FF0141E083E795E00E94112814
:101DB0008091FE019091FF0187FF0DC0482F5527AC
:101DC00041950CF45095941715062CF41092FF01D0
:101DD0001092FE010895890F87FD03C08093FF01D3
:101DE00008958FE7FBCFEF92FF920F931F93CF934E
:101DF000DF93EB01E82FD11110C0442321F0F0E074
:101E0000EE5BF44FE4916E2F7E2F8E2FDF91CF91FA
:101E10001F910F91FF90EF9008950D2F10E0282F44
:101E200030E0442329F02E5B344FF901249130E057
:101E3000F6E0CF9FC0011124EFEFF0E0BF010E9458
:101E4000FD32AB018C2F90E0880F991FA5E5A49F70
:101E5000B001A59F700D1124861B970B982F990F29
:101E6000980FBF01601B710B629FD001639FB00D83
:101E7000729FB00D11248B2F9D9FB0011124672FED
:101E80007727EF01C61BD70BBE01629FE001639F5E
:101E9000D00D729FD00D11247F01E91AF108E09E48
:101EA000B001E19E700DF09E700D1124672F772711
:101EB000E61BF70BE29F8001E39F100DF29F100DD0
:101EC0001124E12F722F4230510599F048F4411549
:101ED000510569F04130510581F0EB2F8D2F07C07E
:101EE0004430510569F080F046305105B1F76E2F4E
:101EF0008DCFE22F7B2F812FFACFE22F7D2FF7CFCF
:101F0000EB2F822F712FF3CF7B2F822FED2FEFCF6F
:101F100041E00C94F30E08950C94880FCF93DF9357
:101F2000762FE901682F842F0E948C0F79836883B4
:101F30008A83DF91CF910895493708F048E70C94E0
:101F40008E0F8091AA04982F9E7F61F48170826029
:101F50008093AA048091AD04893718F088E78093B4
:101F6000AD0408958635B0F381708465F1CF88E0C3
:101F700090E00C94F833CF92DF92EF92FF926B01D6
:101F80007C010E94A10FB701A60188E090E0FF90BC
:101F9000EF90DF90CF900C941634EAEAF4E083E0FF
:101FA000808311828FEF828388E78383148260812C
:101FB0007181828193810C94BB0F8091AA0480FF70
:101FC00002C08695089580E008959091AE04933004
:101FD00018F49F5F9093AE04882351F06091AA0497
:101FE0007091AB048091AC049091AD040C94BB0F44
:101FF000089581E00C94E50F9091AE04992319F0B7
:1020000091509093AE04882351F06091AA0470918E
:10201000AB048091AC049091AD040C94BB0F089577
:1020200081E00C94FC0F21E030E002C0220F331F4E
:102030008A95E2F78091E0039091E1032823392308
:1020400081E0232B09F480E0089570E00C94F017F0
:102050006F927F928F929F92AF92BF92CF92DF92B8
:10206000EF92FF920F931F93CF93DF93CDB7DEB71D
:10207000C05CD1090FB6F894DEBF0FBECDBF709023
:102080000A019091AA0490FF47C0C090D303D0905A
:10209000D403C114D10409F052C0E2E0FBE09E0178
:1020A0002F5F3F4FBE016F537F4FC901A4914A2F4D
:1020B00050E0DA01AA0FBB1FA40FB51FA155BB4FFB
:1020C000CD90DD90EC90D901CD92DD92ED929D0105
:1020D00031966A177B0751F720910901672DB3E00C
:1020E0002B9F800D911D11240E942510C054DF4F9D
:1020F0000FB6F894DEBF0FBECDBFDF91CF911F9119
:102100000F91FF90EF90DF90CF90BF90AF909F9096
:102110008F907F906F90089580910B0120910C011A
:1021200033E0839FF0011124E155FB4F821708F043
:10213000ACCF1182108212828F5F3396F7CF90FF5F
:10214000ACCFF12CE12C43E0642E8E2D0E941310B5
:10215000882309F43CC0F701EE0FFF1FEC0DFD1DB5
:10216000A590B490A114B10409F497CF45E050E0D4
:10217000B501CE0101960E94DA3309810F3F39F192
:102180008A81800F9927991F8134910514F080E48A
:1021900090E04C01880C991C880D991DDC01A1551B
:1021A000BB4F4D01069D8001112401551B4F0815A1
:1021B000190520F0B5E0AB0EB11CD8CF98014D81C8
:1021C0006C818B810E949C0F0D5F1F4FF0CF2FEF12
:1021D000E21AF20A39E0E316F10409F0B6CF5DCF56
:1021E0009091AA0490FF14C090910B0120910C01D2
:1021F00033E0939FF0011124E155FB4F921710F04B
:102200000C9428108183608342839F5F3396F6CFBE
:102210000895CF93DF9300D00F92CDB7DEB79091A2
:10222000AA0490FF0AC09E012F5F3F4F0E949C0F9F
:102230004B8169818A810E94F0100F900F900F905E
:10224000DF91CF910895CF93DF93EC01EC81F0E023
:10225000E350F64F4491EAEAF4E0628181810E9402
:1022600009118C818F5F8C83DF91CF910895CF937B
:10227000DF93EC01EAEAF4E0438162818C810E9401
:1022800009118C818F5F8C83DF91CF9108950F931B
:102290001F93CF93DF9300D00F92CDB7DEB78C01A1
:1022A0008091900281110AC09E012F5F3F4F48E745
:1022B0006FEF0E949C0F8A8180939002F8016481E5
:1022C000613069F08091900240E0662361F040E067
:1022D000623011F44091900280E060E004C06091AF
:1022E000900240E080E00E94F010F801848190E0CC
:1022F000019663E070E00E94113384830F900F9089
:102300000F90DF91CF911F910F910895AF92BF92DF
:10231000CF92DF92EF92FF920F931F93CF93DF93B1
:1023200000D00F92CDB7DEB7182FF62E042FE22E75
:102330009091AA0490FF29C0E92FE695AE2FB0E056
:10234000AC58BE4F8C918093DE039E7F923059F53E
:102350009E012F5F3F4F812F0E949C0F4B8169810F
:102360008A810E94F0101093AB04F092AC040093A9
:10237000AD04EE2051F06091AA047091AB048091FD
:10238000AC049091AD040E94BB0F0F900F900F9082
:10239000DF91CF911F910F91FF90EF90DF90CF9041
:1023A000BF90AF900895823019F40091AD04DBCF57
:1023B000863019F41091AB04D6CF8930D9F3893126
:1023C00091F6E9518E2F8170D82EE695F0E0E3501A
:1023D000F54FA590B490C12CBB2460910D01C61699
:1023E00018F00E942810BFCF2C2D30E0A29EC00113
:1023F000A39E900DB29E900D112470E00E94FD32BC
:10240000812FD11013C0860F40910B01420F532F23
:10241000511D9A01220F331F240F351F21553B4FA9
:10242000402F6F2D0E949C0FC394D7CF861BECCFFB
:10243000EAEAF4E09181282F4381628188E0890FE4
:102440000C94861181E00C941812EAEAF4E0918170
:10245000282F4381628188EF890F0C94861181E0D7
:102460000C942512EAEAF4E0628128E0620F08F495
:102470006FEF282F438181810C94861181E00C94A9
:102480003212EAEAF4E0628128E0621B08F460E0BC
:10249000282F438181810C94861181E00C94411294
:1024A000EAEAF4E0438128E0420F08F44FEF282FD6
:1024B000628181810C94861181E00C945012EAEAC9
:1024C000F4E0438128E0421B08F440E0282F6281B9
:1024D00081810C94861181E00C945F1221E00C94B0
:1024E000861120E00C948611EF92FF921F93CF93F8
:1024F000DF93EC0110E0EE24EA94F12C60910D01E1
:10250000161770F00E9428109A818C8190FF27C0C6
:102510008F5F8C83DF91CF911F91FF90EF90089593
:1025200020910B01422F410F5527551FCA019A01D7
:10253000220F331F280F391F21553B4F70E0C70171
:102540000E941133962F8C814091AD046091AC04B0
:10255000199F800D11240E949C0F1F5FCFCF8150C7
:10256000D8CFBF92CF92DF92EF92FF920F931F933B
:10257000CF93DF93FC0182810FEF80FF01E010E039
:1025800080910D011817C0F00E94281080919202CE
:10259000013009F051C0811102C080910D018150BC
:1025A00080939202DF91CF911F910F91FF90EF9056
:1025B000DF90CF90BF900895C0910B01C12ED12C18
:1025C000CC0DDD2DD11DCE01880F991FC80FD91F4D
:1025D000C155DB4F198218821A8234E0E32EF12CA8
:1025E000B12C809192028B0D813404F18F73082EEF
:1025F000000C990BC816D90691F48091AD048E9DFC
:10260000A0018F9D500D11245595479555954795DF
:102610009E016091AC048091AB040E949C0FB00EAF
:10262000F1E0EF1AF108E9F61F5FAACF87FFDFCFCD
:1026300090910D01890FDBCF90E0019660910D0123
:1026400070E00E941133ACCF0F931F93CF93DF93B1
:1026500080910B0190910C0123E0829FF0011124E5
:10266000E155FB4F891740F1C0E0D3E060910D01C7
:10267000C61740F10E942810209107018091910215
:10268000820F8093910290910801920F909308011C
:10269000191654F4082E000C990B40910D0141506D
:1026A000550B841795071CF0219520930701DF91A6
:1026B000CF911F910F9108951182108212828F5F26
:1026C0003396D0CF0C2F10E070E0C8010E94113378
:1026D00020910B01820F482F50E020919102022E91
:1026E000000C330B02171307BCF020910801022ED7
:1026F000000C330B201731077CF08D9F90011124C3
:1027000021553B4F4091AD046091AC048091AB04E6
:102710000E949C0FCF5FAACFFA01EE0FFF1FE40FBC
:10272000F51FE155FB4F118210821282F3CF8F9279
:102730009F92AF92BF92CF92DF92EF92FF920F9350
:102740001F93CF93DF93EC014C81042F10E098018D
:10275000D8010E9455339B01AC010E946B334B01A1
:102760005C01E0E2F0E0E01BF10BA5E5B0E0AC01BC
:102770009B010E946B336B017C019F01DF010E9472
:102780004D339B01AC010E9476339B01AC01280DB7
:10279000391D4A1D5B1DC701B6010E942533F22E6B
:1027A000822F90E039E23F1560F143E0249F9001D1
:1027B000112435952795122F109500E085E5E82E18
:1027C000EF1880910D01081758F10E9428109C8184
:1027D00081E0992319F0903219F48FEF809306016C
:1027E00080910601890F8C83DF91CF911F910F910A
:1027F000FF90EF90DF90CF90BF90AF909F908F9021
:10280000089525E530E0B901681B790B9B01220F83
:10281000331F260F371F37FFCCCF2F5F3F4FC9CF56
:102820008E2D01FD8F2D20910B01622F600F7727D8
:10283000771F9B01220F331F260F371F21553B4F58
:10284000412F6091AC040E949C0F0F5FBACF0F9391
:102850001F93CF93DF93EC0110E000E090910D0106
:102860009017110609F06CF40E9428108C8190E0FA
:102870000196817099278C83DF91CF911F910F91E1
:10288000089520910B01A801420F511D9A01220FBA
:10289000331F240F351F21553B4F4C816091AC04F1
:1028A0008091AB0496959017110651F04CF044239B
:1028B00049F04091AD040E949C0F0F5F1F4FCECF97
:1028C0004423B9F340E0F7CF4F925F926F927F922B
:1028D0008F929F92AF92BF92CF92DF92EF92FF9230
:1028E0000F931F93CF93DF93FC016280448081E0BC
:1028F0008483EDEFF9E07490ECE7FAE0E491812C49
:1029000075E0972EF2E0CF2EDD24D394AA24AA946A
:10291000B12C55245A94E7190E2F10E080910D0127
:10292000881690F0DF91CF911F910F91FF90EF905B
:10293000DF90CF90BF90AF909F908F907F906F90DF
:102940005F904F900C942810E82CF12C82E08615B3
:1029500068F09E9CF0019F9CF00D1124ED56FD4FF8
:102960008091AB0480838091AC048183411023C0AB
:102970009E9CF0019F9CF00D1124ED56FD4F13829B
:10298000128220910B01C701820F911D9C01220F21
:10299000331F280F391F21553B4F9E9CF0019F9CF0
:1029A000F00D1124ED56FD4F4281618180810E941E
:1029B0009C0F8394B3CF9E9CE0019F9CD00D11246B
:1029C000CD56DD4F8B818823E9F081508B83859D27
:1029D000C00111246C8170E00E94FD32FB01FF27D1
:1029E000E350F64F8491E82FE719E59DC0011124CB
:1029F000B8010E94FD328091AD04689FB00111249E
:102A00007A83BFCF0E94CA332091AD042695215806
:102A10002C9DA0012D9D500D1124452F5527841765
:102A200095070CF0AECF82E0861588F40E94CA3379
:102A3000B5010E94113388830E94CA332091AC04EF
:102A40002695622F70E00E941133280F29839E9CE7
:102A5000F0019F9CF00D1124ED56FD4F12828091E4
:102A6000AD04893C58F088EC9E9CF0019F9CF00DD1
:102A70001124ED56FD4F8483838383CF8431A0F7E7
:102A800084E1F2CFEAEAF4E080818E7F8083608186
:102A90007181828193810E94BB0F1092DF032FEF1F
:102AA00080E792E0215080409040E1F700C00000B4
:102AB0000C942810EAEAF4E080818E7F80831092E3
:102AC000DF032FEF80E792E0215080409040E1F754
:102AD00000C000000C9428101092DF038091DC03EA
:102AE00081110AC081E08093DC038091AA04817087
:102AF0008093DB030C945A1508956091AA0466959F
:102B000070E04BE050E08EE091E00E94E333892BCF
:102B100019F481E08093DF030E9470279093D6031D
:102B20008093D50308959091AA0490FF35C09170C9
:102B3000811128C092609093AA04662351F060919D
:102B4000AA047091AB048091AC049091AD040E94F2
:102B5000BB0F6091AA04669570E04BE050E08EE0F8
:102B600091E00E94E333892BA1F01092DF0381E012
:102B70008093D8034091AD046091AC048091AB0484
:102B80000C9471128B3210F09465D5CF880F982B6E
:102B9000D2CF0E947D15EBCF0895682F9091AA04A3
:102BA000969581E0890F8B3208F081E00C949315A3
:102BB00081E00C94CD15682F9091AA0496958FEF23
:102BC000890F09F48AE20C94931581E00C94DB15CB
:102BD00061E00C949315EAEAF4E0808181608083DF
:102BE00086950C94E8158091AA0480FD0C944215FA
:102BF0000C94EB1560E00C9493158091DD0381112A
:102C00002EC00E94EB25811104C00E9490260E94D4
:102C1000CD0F0E94B70F6093AA047093AB0480930A
:102C2000AC049093AD046E7F61F40E94CD0F0E94BE
:102C3000B70F6093AA047093AB048093AC04909395
:102C4000AD040E94A10F1092DF038091AA0480FFBF
:102C500003C086950E94FA1581E08093DD030895F4
:102C6000EAEAF4E080818160808386950C94FA150D
:102C700021E030E0A90102C0440F551F8A95E2F718
:102C8000CA012091E0033091E103662379F0822BA1
:102C9000932B9093E1038093E0038091DF038111F4
:102CA0000AC08091AA0486950C94FA158095909597
:102CB00082239323EECF08951092DC038091DB03EF
:102CC00081110E9430160C947D150F931F93CF93A2
:102CD000DF938091DF03882309F496C08091DE039F
:102CE000E091AA04E695E81BE093D703823091F5C2
:102CF000F0E0E750F64FE491CE2FD0E003E211E18F
:102D00008091D803882361F01092D8030E94702725
:102D10009093D6038093D5031092DA031092D903CF
:102D20000E947027E091D503F091D6038E1B9F0B74
:102D30008F3F9F4708F068C0EC0FFD1FF093D6034C
:102D4000E093D50385ED93E0F801DF91CF911F91DA
:102D50000F910994863049F4F0E0EA50F64FE4917F
:102D6000CE2FD0E007E311E1CBCF893051F4E695C7
:102D7000F0E0ED50F64FE491CE2FD0E004E712E101
:102D8000BFCF8F3051F4E695F0E0E051F64FE4917B
:102D9000CE2FD0E001EB12E1B3CF853149F4F0E062
:102DA000E351F64FE491CE2FD0E004E213E1A8CF37
:102DB000C8E2D0E007E913E1883109F4A1CF8332FA
:102DC00039F4EBEEF9E0C591D49107E411E198CF25
:102DD000C4EFD1E007E214E1843209F491CFC0EDF1
:102DE000D7E00BE81FE0853209F08ACF8E2F63E031
:102DF0000E94F132E92FF0E0E851F64FE491CE2F36
:102E0000D0E004E614E17CCFDF91CF911F910F91C8
:102E10000895FA01811101C0FB010994CF93DF935A
:102E2000C82FD62F0E94DD0F8C1740F00E94DD0FB7
:102E30008D1720F4DF91CF910C94D8158C2FDF9152
:102E4000CF910C94E8151F93CF93DF93EC01FB0116
:102E50001281112309F4C2C00E9433258272CD3C35
:102E6000FCE5DF0709F4A0C008F044C0C73CECE56E
:102E7000DE0709F485C0F0F4C43C9CE5D90709F4E9
:102E800075C048F4C33CDC4509F46CC0812FDF9168
:102E9000CF911F910895C53C9CE5D90709F46BC0FB
:102EA0004FE252E162E272E1C63CDC4579F70E94F2
:102EB00009175AC0CA3CFCE5DF0709F46BC068F487
:102EC000C83CECE5DE0709F460C04EE352E16DE476
:102ED00072E1C93CDC4559F3D9CFCB3C9CE5D9071D
:102EE00009F45DC040E150E169EF7FE0CC3CDC4596
:102EF000F1F2CCCFC23DFCE5DF0709F464C098F4E1
:102F0000CF3C9CE5D90709F458C008F452C0C03D35
:102F1000FCE5DF0709F454C0C13DDC4509F0B6CF3C
:102F20006EE089E01CC0C53D9CE5D90709F451C09D
:102F300058F4C33DFCE5DF0709F448C0C43DDC4557
:102F400009F0A4CF88E136C0C63D9CE5D90709F455
:102F500043C06AE285E2CE35DD4509F097CF0E9495
:102F60000E1702C00E94F31510E090CF45EE55E118
:102F700068ED75E19CCF48ED55E165EE75E197CFC1
:102F800042E252E16FE272E192CF4DE452E16EE330
:102F900072E18DCF4BE652E16CE572E188CF4CE5F2
:102FA00052E16BE672E183CF49EF5FE060E170E1EF
:102FB0007ECF81E00E94E815D7CF65E082E0CFCFD9
:102FC00068E086E0CCCF64E18FE0C9CF67E185E1BE
:102FD000C6CF62E289E1C3CF83E2ECCF11E056CFE6
:102FE000809A41B34E7F51B35160EFB7F8949B0183
:102FF000220F331F260F371F280F391F28173907B5
:1030000041F4EFBF8FE594E00197F1F700C00000B5
:103010000895DC016D91CD0178E051BB000000C046
:1030200067FF41BB660F000000C000C000C041BB8D
:1030300000C07A9591F7E2CF0C948207AF92BF92CD
:10304000CF92DF92EF92FF920F931F93CF93DF9374
:10305000A2EBB1E02FEA31E088EEA82E83E0B82E93
:1030600065EB71E041E050E00D91802F82958F700B
:1030700090E0FC01C1A10F707A01002E01C0EE0C9E
:103080000A94EAF7FE2DF095CF23FC01C1A3C2A15B
:10309000CE29C2A3E90119919E01E12FE295EF70BB
:1030A000F0E0F1A01F706A01012E01C0CC0C0A945F
:1030B000EAF7EC2CE094EF20E1A2F2A0FC28F2A2C7
:1030C000EC0188A190E002C0959587950A95E2F7FA
:1030D0008170E0A1F0E002C0F595E7951A95E2F75E
:1030E00090E0E0FD92E0892BF50181935F016A1782
:1030F0007B0709F0B9CFDF91CF911F910F91FF901E
:10310000EF90DF90CF90BF90AF9008956F927F9235
:103110008F929F92AF92BF92CF92DF92EF92FF92E7
:103120000F931F93CF93DF9308EE13E082EBC82E2B
:1031300081E0D82E9FEAE92E91E0F92E25EE822E2D
:1031400023E0922EC2EED3E0712C612C34E0A32E4A
:10315000B12CD801EC91EE0FEE0FED938D01D6015D
:103160002D916D01A22FA295AF70B0E090968C9139
:1031700090E02F7002C0959587952A95E2F78170AF
:103180009927D7014D917D01A42FA295AF70B0E092
:1031900090962C9130E04F7002C0359527954A9556
:1031A000E2F7A9014170552720FF02C042E050E03C
:1031B000842BE82BD8011197EC93EF70F0E0E156E7
:1031C000FE4F8081F4019081890F808320E084305C
:1031D00044F088818F5F888360E0872D0E941C18EF
:1031E00021E0D4018C918D3F44F488818150888303
:1031F00061E0872D0E941C1821E0F4018081082ED7
:10320000000C990BB5010E941133D4018D934D012F
:10321000622A73942196B3E07B129BCF862DDF91B7
:10322000CF911F910F91FF90EF90DF90CF90BF90C3
:10323000AF909F908F907F906F9008950F931F9302
:10324000CF93DF93C42FD22FFC0182818823C9F052
:103250004093ED030E9470279093EC038093EB035F
:1032600080E28C0F883008F050C0C77081E001C048
:10327000880FCA95EAF7DF91CF911F910F910C94B7
:10328000961D1091ED03141335C08091EB039091BE
:10329000EC030E948827883C910560F5C0E2CD0FC1
:1032A0001D17B9F080E2810F883040F4177081E07B
:1032B00001C0880F1A95EAF70E949D1DC83048F496
:1032C00081E09D2F977001C0880F9A95EAF70E94C0
:1032D000961D802F0E948E1DC830B8F4D77081E0F3
:1032E00001C0880FDA95EAF7DF91CF911F910F9116
:1032F0000C949D1D80E28C0F883038F4C77081E0FB
:1033000001C0880FCA95EAF7EFCFDF91CF911F91E7
:103310000F9108950F939C01CB01243F4CE5340796
:1033200059F1A8F4293DFCE53F0701F12A3D4CE5A0
:103330003407D1F1283D3C4591F406E221EE41EEFF
:1033400068ED7CE50E941E1980E00F910895263FEC
:10335000FCE53F07E9F0B0F0273F3C45F9F0FC0100
:103360008281882339F11092ED03EFCF07E225EE39
:1033700045EE69ED7CE5E6CF06E221EE40EE64EF36
:103380007CE5E0CF07E225EE44EE65EF7CE5DACFA1
:1033900006E221EE42EE66EF7CE5D4CF07E225EEB1
:1033A00046EE67EF7CE5CECF08E221E045EE6AED20
:1033B0007CE5C8CF81E0C9CFCF93DF93EC01FB015F
:1033C0008281882309F419C1C230FCE5DF07C0F10E
:1033D000C6319CE5D90730F09E012B5F3C45293072
:1033E000310570F50E94FE2590939304809392041A
:1033F000C031ECE5DE0709F4CFC008F05BC0C8308F
:103400008CE5D80709F4B6C088F5C430ECE5DE07D2
:1034100009F4A8C0C0F4C2308CE5D80709F49CC0F8
:10342000809192048260C330DC4509F498C0809199
:103430009204909193040E940C260E94F71F80E052
:10344000DF91CF910895809192048061C630ECE5C0
:10345000DE0709F484C0809192048860C730DC459F
:1034600008F47DC080919204806279C0CC308CE5F4
:10347000D80709F489C070F4809192048C60CA3036
:10348000ECE5DE0709F46BC008F478C08091920483
:103490008E7F65C0CE308CE5D80709F479C0809165
:1034A00092048B7FCF30DC4508F459C080919204A0
:1034B0008F7E55C0CC3FECE5DE0709F457C030F5F0
:1034C000C3318CE5D80709F46FC078F4C131ECE55D
:1034D000DE0709F465C0C231DC4509F0A8CF0E94BF
:1034E000F71F809192048F773AC0C5318CE5D807D9
:1034F00009F462C008F476C0809193048160CB3FE8
:10350000DC4509F094CF8093930491CFC115FDE57C
:10351000DF0709F44DC088F4809193048D7FCE3F7E
:103520009CE5D90781F3809193048E7FCF3FDC45E2
:1035300050F3809193048360E6CFC230FDE5DF074E
:1035400009F459C008F444C080E0C330DD4509F0F7
:103550006ECF0E9492266BCF8091920481608093FF
:10356000920465CF809192048460F9CF8091930496
:103570008260C9CF809192048064F1CF0E94F71FCE
:10358000809192048068EBCF809192048D7FE7CF89
:1035900080919204877FE3CF809192048F7DDFCF6B
:1035A000809192048F7BDBCF80919204837FD7CF71
:1035B000809193048C7FA7CF8091920482FB9927FE
:1035C00090F921E0922790FB82F990FB83F9C7CF15
:1035D00080919304982F909591708E7F892B90FB0A
:1035E00081F991CF0E94F71F90919204892F97FB48
:1035F00087F98058B4CF81E0ACCF81E021CFCF9361
:10360000DF93EB0186319C4511F50E9433259A81A9
:10361000992399F08A7A91E009F490E09093EE036F
:10362000811109C089E20E94ED240E94762580E084
:10363000DF91CF91089585E3F6CF8091EE0381115C
:1036400004C089E20E94F424F0CF85E3FBCF81E03F
:10365000EFCF9093F4038093F3030895E091F30385
:10366000F091F403309721F00190F081E02D09945E
:1036700080E00895E091F303F091F403309721F096
:103680000280F381E02D099408952091F103309197
:10369000F2032817390771F09093F2038093F10336
:1036A000E091F303F091F403309721F00680F78165
:1036B000E02D099408952091EF033091F00328172D
:1036C000390771F09093F0038093EF03E091F303D7
:1036D000F091F403309721F00084F185E02D0994F6
:1036E00008950E947C2760930704709308048093D8
:1036F000090490930A046093030470930404809374
:1037000005049093060408950E947C2760930704A3
:10371000709308048093090490930A046093FF0354
:10372000709300048093010490930204089585B778
:10373000806885BF85B7806885BF0895089508951E
:103740000C949E1B0C94BF070E94971B83EE95E27E
:103750000E94DF270E949F1B0C94A01B81E008950C
:103760000C94AE1B089508950E94B21B0C94B31BD9
:103770000E9467270E943E0B0E94FD150E941E18A2
:103780000C94A21BAF92BF92CF92DF92EF92FF9266
:103790000F931F93CF93DF93CDB7DEB72A970FB662
:1037A000F894DEBF0FBECDBF0E94630B81110E9453
:1037B000711B86EFA82E83E0B82E10E000E0C02E2B
:1037C000802F0E94180BE82EF501F1905F01F8168A
:1037D00009F455C08091860481FD0E941E0B8F2D37
:1037E0008E25D12CFF24F394982F9F2109F442C0F9
:1037F0000E94B01B882399F0DE82CF82EF2081E007
:1038000009F480E088870E9470278160782F9A876A
:1038100089874E815F8168858A850E94671CF801CF
:10382000EA50FC4F8081F826F0820E9465160E94C3
:10383000861881110E94841B0E94A80E0E942E1BD4
:103840009091F503891791F10E942E1B8093F50347
:103850002A960FB6F894DEBF0FBECDBFDF91CF9191
:103860001F910F91FF90EF90DF90CF90BF90AF909E
:103870000C94F308D394FF0CF8E0DF12B5CF0F5F80
:103880001F4F0930110509F09ACF8FEF89838A8382
:103890001B820E9470278160782F9D838C834981D1
:1038A0005A816B818D810E94671CBFCF2A960FB60B
:1038B000F894DEBF0FBECDBFDF91CF911F910F9166
:1038C000FF90EF90DF90CF90BF90AF900895DF9280
:1038D000EF92FF920F931F93CF93DF93CDB7DEB795
:1038E0002B970FB6F894DEBF0FBECDBF7A878B87BC
:1038F000F42E052F162FE72ED82E61110E94532586
:103900001E821D827E2DEC82DD824F2D502F612F75
:103910008D2D9E812B960FB6F894DEBF0FBECDBFC6
:10392000DF91CF911F910F91FF90EF90DF900C945A
:103930006D22FC01808191810C94BF24CF93C82F0C
:10394000882309F483C08238C1F40E942E1B81FDB4
:103950007DC089E30E94ED240E9476252FEF81EE41
:1039600094E0215080409040E1F700C0000089E3DE
:103970000E94F424CF910C9476258338A1F40E9400
:103980002E1B80FD63C083E50E94ED240E947625F6
:103990002FEF81EE94E0215080409040E1F700C08D
:1039A000000083E5E5CF8438A1F40E942E1B82FD40
:1039B0004DC087E40E94ED240E9476252FEF81EE12
:1039C00094E0215080409040E1F700C0000087E47F
:1039D000CFCF8CEF8C0F813A90F46C2F809119012E
:1039E00090911A010E94A926882329F08C2F0E9409
:1039F000F4240E9476258C2F0E94ED24BBCF80E218
:103A00008C0F883048F4C77081E001C0880FCA95D8
:103A1000EAF70E943625AECFEBE5EC0FE33040F439
:103A2000F0E0ED51FE4F808190E0CF910C94451B6A
:103A3000C85AC73158F4EC2FF0E0EE0FFF1FEB54DB
:103A4000FE4F80819181CF910C945B1BCF910895A3
:103A5000882309F44BC0823871F40E942E1B81FF29
:103A600045C089E30E94ED240E94762589E30E94E7
:103A7000F4240C947625833859F40E942E1B80FF81
:103A800035C083E50E94ED240E94762583E5EFCFC3
:103A9000843859F40E942E1B82FF28C087E40E94BC
:103AA000ED240E94762587E4E2CF9CEF980F913AAF
:103AB000F0F290E2980F983050F4877091E001C0D6
:103AC000990F8A95EAF7892F0E943C25D2CF9BE572
:103AD000980F933020F490E080E00C94451B885AB6
:103AE000873120F490E080E00C945B1B08951F93D5
:103AF000CF93DF93182FEB010E949E1C209731F487
:103B0000812FDF91CF911F910C94281D8FE99FE0A9
:103B10000197F1F700C000002197F0CF6AE070E054
:103B2000893311F460E570E00C94771D882321F04F
:103B30000E9436250C9476250895882321F00E9452
:103B40003C250C9476250895BF92CF92DF92EF9298
:103B5000FF920F931F93CF93DF936C01D62FC72F44
:103B6000FC011281058102950F700E940B25E82E41
:103B70008823A1F0E12E112389F08C2F807F8034DF
:103B800029F080E28D0FE12C883040F082E00E9425
:103B9000C7250E940B2591E0E82EE926BC2EB294A1
:103BA0009FE0B922FBE0FB1598F1EB2DF0E0EC581B
:103BB000FB4C0C9447330C2F0F70C07F11F0029513
:103BC000007F1123A9F0002359F080E28D0F883087
:103BD00010F0D11109C0802F0E9436250E94762551
:103BE0008D2F0E949E1C14C0802F0E944625F6CF68
:103BF0008D2F0E94281D002359F080E28D0F883000
:103C000010F0D1112BC0802F0E943C250E947625F8
:103C1000EB2DE850FF0B349720F40E942E1B0E94DE
:103C2000F308EE2009F488C10E94072580FD84C1B5
:103C3000F60112820E9401250E948C23C6010E9477
:103C4000BD1F0E940125DF91CF911F910F91FF9021
:103C5000EF90DF90CF90BF900C94AD23802F0E9407
:103C60004C25D4CF2C2F2F70F22EC07FC03219F0EC
:103C7000F29480EFF822DD2369F0D13049F111236D
:103C800091F1002351F1F601858180FFA9CF8F705A
:103C9000858323C0112381F0011106C00E9459259C
:103CA0008F290E94961DB4CF0130C1F70E9459257B
:103CB0008F290E945F25ACCF011106C00E946C25A0
:103CC0008F2D0E949D1DA4CF013009F4A1CFF6CF06
:103CD000112329F0063008F09BCF8F2DE2CF05305D
:103CE00008F096CFEDCF002359F3D93309F01CC16A
:103CF000FFEF27EE33E0F15020403040E1F700C005
:103D000000008D2F0E94281D83CF8C2F86958695CD
:103D1000837069F0813009F07BCF8D2F9C2F9370D9
:103D2000111102C090E080E00E945B1B71CF8D2FCB
:103D30009C2F9370111102C090E080E00E94451BFF
:103D400067CF8C2F837009F041C0111161CF4D2FC7
:103D5000429546954770440F440F0D2F0F7010E0A9
:103D600030E020E0042E04C0000F111F221F331F7B
:103D70000A94D2F760E070E0CB01D4FF0FC06FE08F
:103D800070E080E090E004C0660F771F881F991FE5
:103D90004A95D2F76095709580959095C695C69591
:103DA000C370602B712B822B932BC23049F058F4D7
:103DB000C13019F00E942B232BCF0E94192328CF4A
:103DC0000E943D2325CF0E94172322CF86951123E1
:103DD00011F08C2F8170882309F41ACF4D2F429552
:103DE00046954770440F440F0D2F0F7010E030E0E0
:103DF00020E0042E04C0000F111F221F331F0A945D
:103E0000D2F760E070E0CB01D4FF0FC06FE070E04C
:103E100080E090E004C0660F771F881F991F4A95C5
:103E2000D2F76095709580959095C695C695C370AC
:103E3000602B712B822B932BC23049F058F4C13088
:103E400019F00E940324E4CE0E94F123E1CE0E94E7
:103E50001524DECE0E945123DBCECF70112329F032
:103E60008C2F0E948C238D2F1CCF8D2F0E949D1D87
:103E70008C2F0E94AD23CCCED23F89F160F4D03F8D
:103E8000C9F0D13F29F1112309F442C00111A8CE94
:103E90008C2F8F7121C0D33F39F1D43FA1F711236B
:103EA00069F1CF718C2F0E948C2363E08C2F0E94CC
:103EB000AC25AECE112341F0053008F0A9CE8C2FF1
:103EC0008F710E94D023A4CE063008F0A1CEF7CF88
:103ED0008C2F8F71112369F20E948C2399CE8C2F25
:103EE0008F711123C9F3C5CF112329F08C2F8F7146
:103EF0000E9477238DCE0E945D238ACE81E00E94AE
:103F0000C725023008F484CE82E00E94C72580CE07
:103F1000002379F0D93341F49FEFE7EEF3E09150BD
:103F2000E040F040E1F7EBCE8FE39CE90197F1F739
:103F3000E6CE8C2F8F719DCFDF91CF911F910F9186
:103F4000FF90EF90DF90CF90BF9008950F931F9355
:103F5000CF93DF93EC01688179818A810E94C92423
:103F60008C010E9427240E941623B801CE01DF9104
:103F7000CF911F910F910C94A41DCF93DF93EC016F
:103F80008B819C81892B29F08881998189238F3F9E
:103F900059F4DF91CF910895CE010E94A61FCE0162
:103FA000DF91CF910C946C08CE010E948D08811195
:103FB000F3CF0E940B25882361F38A81882349F37C
:103FC00082E0DF91CF910C94C72590E080E00E94C1
:103FD000451B90E080E00E945B1B0E9453250E94DD
:103FE00056250C9476250E94FB240C94E51F0E9414
:103FF00043250C94F31FE92FE295EF70E250EE3069
:1040000070F4F0E0E058FB4C0C944733803F19F01B
:1040100020F4883E20F481E00895843FE1F380E0BD
:104020000895883EC0F3813FD1F7F5CF93FB8827F1
:1040300080F908950E94BF240C94FB1FCF93DF9357
:1040400000D000D00F92CDB7DEB70F900F900F9039
:104050000F900F90DF91CF910895CF93DF9300D011
:1040600000D000D0CDB7DEB726960FB6F894DEBFED
:104070000FBECDBFDF91CF9108951F93CF93DF93F4
:10408000C0910C0416E080910D048C1304C0DF91E4
:10409000CF911F910895D0E01C9FF0011D9FF00D5E
:1040A0001124E25FFB4F40815181628173818481E1
:1040B00095810E942D202196C770E5CF40913E0446
:1040C00050913F04609140047091410480914204FA
:1040D000909143040C942D201F93CF93DF938091F4
:1040E0004304807FA9F480914004882389F0809163
:1040F0000C04C0910D0460913E0470913F04A091A6
:104100004104B0914204D62FD72316E0C81304C04F
:10411000DF91CF911F91089590E0109711F0DF3F4C
:1041200019F401968770F2CF189F9001199F300DF6
:104130001124F901E25FFB4F41814713F2CF408127
:104140004613EFCF42814111ECCF438154814A1B8A
:104150005B0B483C510528F7809143048F708061C8
:1041600080934304F901ED5EFB4F80818F70806185
:1041700080838EE394E00E94BD1FDF91CF911F9159
:104180000C943D20AF92BF92CF92DF92EF92FF92BC
:104190000F931F93CF93DF93CDB7DEB761970FB621
:1041A000F894DEBF0FBECDBF8C0185E0F801DE01C3
:1041B0001D9601900D928A95E1F7F8014081518199
:1041C000E2808EE3C82E84E0D82E60914104709185
:1041D00042046115710509F461C190913E0420917A
:1041E0003F04892F82238F3F09F458C1A380B480F4
:1041F000F0904004F501E61BF70BFF2009F4FCC02A
:1042000080914304382F307FE83CF10508F0B2C0BC
:10421000311179C0FE2C251323C0941321C0E11065
:104220001FC08F708061809343040E945E20C6018E
:104230000E94BD1F80914304F80185838F2D6196F4
:104240000FB6F894DEBF0FBECDBFDF91CF911F91A7
:104250000F91FF90EF90DF90CF90BF90AF900895B7
:10426000AB2829F0842F85238F3F09F033C180E0EC
:10427000F82FF170DF2E80FF3CC080910C0420915C
:104280000D0436E0821315C04D875E878D859E85AF
:104290000E94BF24292F22952F702230F0F0243065
:1042A00018F59F70F1F0F8019581907FD1F4D12C31
:1042B0001EC090E0389FF001399FF00D1124E25F9D
:1042C000FB4F6181651306C06081641303C0628186
:1042D0006E110FC001968770D5CF9F7011F08823A3
:1042E00031F3805E883018F3C8010E94BD1FFD2C99
:1042F000A5CFEE2009F4A2CF809143048160809382
:104300004304F12C9BCF251306C0941304C0F8017D
:10431000EE2009F48DC04D875E878D859E850E94B5
:104320001A20882319F1EE2009F18091430480328C
:1043300070F020913E0430913F0438872F83198616
:10434000BB86AA868C87CE0107960E94BD1F86E099
:10435000F801AEE3B4E001900D928A95E1F70E9476
:104360006C200E945E20FF24F39468CFC8010E9455
:10437000BD1FF9CF311113C07A2DB98AA88A6E2DCD
:1043800089890E941E208EE394E00E94BD1F86E072
:10439000F60111928A95E9F70E945E20B2CF2513AB
:1043A0000FC094130DC0E1100BC0F8018583C80144
:1043B0000E94BD1F86E0F60111928A95E9F73ECF73
:1043C0004D875E878D859E850E941A20882371F215
:1043D000EE2061F280914304803208F4B8CF20913E
:1043E0003E0430913F043A8329831B82BD82AC8214
:1043F0008E83CE010196A9CFE83CF10508F041C0BB
:10440000FE2CEE2009F4B2CF25132AC0941328C045
:104410008091430480FD1BC0982F907FC1F0F8016C
:104420008583903F31F0982F907F905F8F70892B1C
:104430008583C8010E94BD1F86E0F801AEE3B4E0A9
:1044400001900D928A95E1F70E945E20F7CE86E0FA
:10445000F801AEE3B4E001900D928A95E1F7EECE5B
:104460004D875E878D859E850E941A2081116FCFB2
:1044700080914304816080934304C8010E94BD1F62
:10448000DDCE7A2DB98AA88A6E2D89890E941E20D8
:1044900086E0F60111928A95E9F7D6CFEE2009F46D
:1044A00065CF4D875E878D859E850E941A20F82EE8
:1044B000882309F45BCF86E0F801AEE3B4E0019015
:1044C0000D928A95E1F78EE394E00E94991C0E9478
:1044D0006C20BACF81E08E25CBCE1F93CF93DF9394
:1044E000CDB7DEB72C970FB6F894DEBF0FBECDBFA9
:1044F0004F83588769877A878B879C87CE01079679
:104500000E94C220882369F08A859B85892B39F017
:104510004F815885842F85238F3F09F071C016E0A5
:104520005FC086E0FE013796DE01119601900D9284
:104530008A95E1F78A859B85892B89F38F819885F8
:1045400089238F3F61F320910D0430E0C90101966A
:104550008770992740910C044817190671F40E943E
:10456000F71F10920D0410920C0486E0EEE3F4E0C5
:10457000DF011D928A95E9F7D2CF96E0929FD00194
:10458000939FB00D1124A25FBB4FFE0131960190A5
:104590000D929A95E1F780930D040E943D20BFCFC4
:1045A000819FC0011124825F9B4F0E94C2208823FB
:1045B000E9F0E0910C041E9FF0011124E25FFB4F33
:1045C0004081518162817381848195810E942D2077
:1045D00080910C0490E001968770992780930C04D9
:1045E00080910C0490910D048913DACF2C960FB6AC
:1045F000F894DEBF0FBECDBFDF91CF911F9108951C
:1046000069857A858B859C850E942D2088CF0895A9
:104610000C9407230E94082360937504709376041A
:1046200080937704909378040C94E51F08950C947C
:104630000A230F931F930091750410917604209123
:10464000770430917804602B712B822B932B1F9170
:104650000F910C940A230F931F93009175041091EE
:1046600076042091770430917804602371238223AB
:1046700093231F910F910C940A230F931F93009182
:1046800075041091760420917704309178046027A6
:104690007127822793271F910F910C940A230C9462
:1046A000D6070E944F236093710470937204809325
:1046B0007304909374040C94E51F60E070E0CB01E8
:1046C0000C945123611571058105910529F481E050
:1046D000442361F080E00895DC01CB0104C0B6956D
:1046E000A795979587954A95D2F7817008950F936E
:1046F0001F9341E050E060E070E08A019B0104C03C
:10470000000F111F221F331F8A95D2F7C901B8016C
:104710001F910F910C9451230F931F9341E050E090
:1047200060E070E004C0440F551F661F771F8A9534
:10473000D2F78091710490917204A0917304B091AA
:1047400074048A019B01082B192B2A2B3B2BC901CE
:10475000B8011F910F910C9451230F931F9341E0C7
:1047600050E060E070E004C0440F551F661F771FE3
:104770008A95D2F7CB01BA01609570958095909596
:1047800000917104109172042091730430917404AB
:1047900060237123822393231F910F910C94512343
:1047A0000F931F9341E050E060E070E004C0440FBD
:1047B000551F661F771F8A95D2F7809171049091DB
:1047C0007204A0917304B09174048A019B010827BC
:1047D00019272A273B27C901B8011F910F910C9473
:1047E00051230F931F930091710410917204209133
:1047F000730430917404602B712B822B932B1F91C7
:104800000F910C9451230F931F93009171041091F9
:104810007204209173043091740460237123822305
:1048200093231F910F910C9451230F931F93009189
:104830007104109172042091730430917404602704
:104840007127822793271F910F910C94512308956C
:10485000990F990F990F890F982F977041E001C018
:10486000440F9A95EAF786958695869595E0899FF7
:10487000F0011124EC5BFB4F30E020E070E051913F
:10488000DF011197CB01022E02C0969587950A94FD
:10489000E2F7817081958527842385278C932F5F8C
:1048A0003F4F2530310559F70895990F990F990F0A
:1048B000890F982F977086958695869525E0829F1B
:1048C000F0011124EC5BFB4F50E040E080E02191CF
:1048D00030E0092E02C0369527950A94E2F7217040
:1048E0003327042E01C0220F0A94EAF7822B4F5F70
:1048F0005F4F4530510559F70895BF92CF92DF922F
:10490000EF92FF920F931F93CF93DF938C01C09090
:104910007104D0907204E0907304F090740480915C
:10492000750490917604A0917704B0917804C82A18
:10493000D92AEA2AFB2ACFE1D0E0BC2ED701C60152
:104940000C2E04C0B695A795979587950A94D2F733
:1049500080FD0EC0219788F7B12C8B2DDF91CF9170
:104960001F910F91FF90EF90DF90CF90BF9008952F
:10497000B8018C2F0E941009019761F3EECFCF93FD
:10498000DF93EC010E947D24BE01DF91CF910C9456
:1049900010091F93CF93DF93EB0190910B049923A0
:1049A00031F0CB01DF91CF911F910C94BF2488236C
:1049B00079F0CB010E947D24182F682FCE010E9430
:1049C0002824BE01812FDF91CF911F910C941009F3
:1049D000CB010E945524182FF4CF682F8091190124
:1049E00090911A010C94DF26682F80911901909103
:1049F0001A010C94E1268091190190911A010C94EE
:104A0000E326809179048595859585950895809113
:104A100079048770089590917904977081E009F482
:104A200080E008959091930492FB222720F92817A3
:104A300051F080FB92F990939304809192049091AD
:104A400093040C940C2608958091930482FB88278C
:104A500080F991E089270C94122581E00C941225AD
:104A600080E00C941225809185040895909185042E
:104A7000892B8093850408958095909185049823CF
:104A8000909385040895109285040895909184046C
:104A9000892B8093840408958095909184049823B1
:104AA00090938404089510928404089510928304CE
:104AB000089580917A04089508950C945C2590914E
:104AC000930492FD08C090917A04981721F0809386
:104AD0007A040C945D25089580917A04882329F046
:104AE00010927A0480E00C945D250895E0911901FC
:104AF000F0911A01809185048083E0911901F09171
:104B00001A01808190918404892B8083E09119019E
:104B1000F0911A01808190918304892B8083909178
:104B20007A04992381F0E0911901F0911A018081B2
:104B3000892B80838091190190911A010E949726F8
:104B400081110E946C258091190190911A010C9499
:104B50003A1B08950C94A9259091930492FD10C0DE
:104B600098E0899F90011124622B609379040E9440
:104B70008C23809179048595859585950C94AA253B
:104B80000C948C231092790480E00C94AA259091C7
:104B900079048095892380937904282F277039F42C
:104BA000282F082E000C330B9217130621F4909136
:104BB000930492FF07C08595859585950E94AD2346
:104BC0000C94C225089580E008956FEF7FEF90E088
:104BD00080E00C94223490E080E00E94FE3321E0DB
:104BE0008A3E9E4F09F020E0822F089582E090E0F7
:104BF0000C94F03383E090E00C94F033CF9384E096
:104C000090E00E94F033C82F82E290E00E94F033DF
:104C1000982F8C2FCF910895CF93C92F682F84E0C0
:104C200090E00E9404346C2F82E290E0CF910C94CB
:104C30000434AB01BC018FE090E00C941634AB015E
:104C4000BC0183E190E00C94163460E070E0CB018D
:104C50000C941F2660E070E0CB010E9419260C9492
:104C600025266AEE7EEF90E080E00E94223460E02C
:104C700082E090E00E94043460E083E090E00E94D3
:104C800004341092750410927604109277041092F6
:104C9000780460E084E090E00E94043460E082E206
:104CA00090E00E94043460E085E090E00E940434CB
:104CB00060E086E090E00E9404346FEF87E090E0CF
:104CC0000E94043440E050E0BA0188E090E00E9485
:104CD000163460E08DE090E00E94043440E050E043
:104CE000BA0188E190E00E94163460E087E190E02C
:104CF0000E94043440E050E0BA018CE190E00E9450
:104D0000163470E060E080E290E00E94223440E0DF
:104D100050E0BA0188E190E00E9416340C942A26F3
:104D20000C943126682F8EE090E00C9404349C01A2
:104D30002E5F3F4FAC01485F5F4F80E0241735077F
:104D400009F40895F90191919F019923B9F38F5FB7
:104D5000F5CF662349F0FC0132960896219126177B
:104D600029F0E817F907D1F780E0089581E0089568
:104D70009C01FC0132969FEF80E04191461751F073
:104D80009F3F19F4411101C0982F8F5F8630A9F71A
:104D90009F3F09F40895290F311D97FD3A95F901B8
:104DA00062830895FC01329608962191261303C070
:104DB000DF0111971C92E817F907B9F708950C94D1
:104DC000B8260C94D226029626E0FC0111922A9570
:104DD000E9F70895089508950C94EB2680916406F0
:104DE000843059F10E94EC2680E00E94F3080E9472
:104DF0006C151092870488E190E020E40FB6F894D7
:104E0000A895809360000FBE2093600083B7817FD8
:104E1000846083BF83B7816083BF7894889583B7AC
:104E20008E7F83BF0FB6F894A8958091600088614B
:104E300080936000109260000FBE08950895CF9394
:104E40000E94EA260E94630B0E941E27C0E08C2F5E
:104E50000E94180B811105C0CF5FC930C1F7CF91F7
:104E6000089581E0FCCF08950C9433270E94F71F2A
:104E70000E942E1B0E94F3080E945C160C9434279B
:104E80001F921FB61F9211248F939F93AF93BF93CE
:104E900080918704811113C080916F0590917005F6
:104EA000A0917105B09172054196A11DB11D80932D
:104EB0006F0590937005A0937105B0937205BF9133
:104EC000AF919F918F911F901FBE1F90189582E008
:104ED00084BD93E095BD9AEF97BD80936E000895D1
:104EE0002FB7F89480916F0590917005A09171058E
:104EF000B09172052FBF08952FB7F89460916F0598
:104F00007091700580917105909172052FBF089581
:104F10009C014FB7F89480916F0590917005A09116
:104F20007105B09172054FBF821B930B0895789461
:104F30001F921FB61F9211248F939F93AF93BF931D
:104F400080916F0590917005A0917105B0917205E7
:104F50000196A11DB11D80936F0590937005A093DC
:104F60007105B0937205BF91AF919F918F911F9082
:104F70001FBE1F90189581E08093E00080E280932F
:104F8000D8001092C9008FE19EE40197F1F700C0AC
:104F9000000087E090EBDC0180936D0690936E0635
:104FA000A0936F06B093700688E19CE00FB6F8946A
:104FB000A895809360000FBE90936000FFCF909300
:104FC000F7018093F6010895881F8827881F0895A8
:104FD00091E0883F08F490E0892F0895982F907F02
:104FE000903BE9F040F49039D1F0903AC1F090381C
:104FF000B1F080E00895903D19F020F4903CC9F79D
:1050000082E00895903E59F0903F99F7815F8F308C
:1050100080F7E82FF0E0EA51FE4F8081089583E0A9
:1050200008950F93022F0F77242F2F776F70462F3D
:10503000406BDC01ED91FC9163E070E009950F910C
:1050400008950F93022F0F77242F2F776F70462F1D
:105050004069DC01ED91FC9163E070E009950F91EE
:1050600008950F93022F0F77242F2F776F70462FFD
:105070004068DC01ED91FC9163E070E009950F91CF
:1050800008950F931F93411520E2520744F49A01AB
:10509000305E4115504E2CF430E020E002C02FEF7E
:1050A0003FE38901000F012F001F110B11952F778E
:1050B0006F70462F406EDC01ED91FC9163E070E073
:1050C00009951F910F910895FC01738362830895E0
:1050D000FC01758F648F0895CF93DF93EC011DA2BF
:1050E0001FA21EA2BC01685D7F4F40EC88519F4FFC
:1050F0000E94772A1B821A821D821C821F821E82B6
:10510000198618861B861A861D861C861F861E8693
:10511000198A188A1B8A1A8A1D8A1C8A1F8A1E8A63
:10512000198E188E1B8E1A8E1D8E1C8E1F8E1E8E33
:1051300019A218A2DF91CF910895EF92FF920F93D9
:105140001F93CF93DF93EA018A01060F111D885147
:105150009F4F7C01C017D10739F4DF91CF911F9188
:105160000F91FF90EF9008956991C7010E947E2AE8
:10517000F1CFFC01718360830895FC0171A360A3EA
:105180000895AF92BF92CF92DF92EF92FF920F936A
:105190001F93CF93DF9300D00F92CDB7DEB77C0182
:1051A0006B01142FB22EA02EDC0195968C91959751
:1051B0008430A9F55A96ED91FC913097E9F1CB0135
:1051C000019763E070E00E94FD32CB01880F991FC8
:1051D000860F971F4983BA820B834C2D481B9E0173
:1051E0002F5F3F4FBC01C7010995D7015E96ED9136
:1051F000FC91309731F00A2D2B2D412FB601C701BC
:1052000009950F900F900F90DF91CF911F910F9103
:10521000FF90EF90DF90CF90BF90AF9008956230F5
:10522000710509F455C06330710599F0613071055D
:1052300009F481C0D12CC12CD7015C96ED91FC9171
:10524000309799F20A2D2B2D412FB601C7010995F0
:10525000CCCF842F807F803A11F148F48038D1F090
:10526000803951F7D7011496ED91FC910AC0803E28
:10527000D9F0803FF1F0803BF9F6D7011296ED911D
:10528000FC913097C9F2123FE9F02A2D4B2D612F86
:105290006F701BC0D7011696ED91FC91F2CFD7012C
:1052A0001896ED91FC91EDCFD7011A96ED91FC91F6
:1052B000E8CF423F09F6D7011C96ED91FC9130975B
:1052C00009F4BACF2A2D4B2D62EFC70109958DCF76
:1052D000842F807F803DB1F0803FC9F0803C09F091
:1052E000ABCFD7011E96ED91FC91309709F4A4CF76
:1052F000812F8D7F4B2D612F6F70813F89F0C7010A
:10530000099573CFD7015096ED91FC91EECF433FB5
:1053100051F4D7015296ED91FC91309709F48CCF5E
:105320004B2D612FECCF413F09F086CFD70154962A
:10533000ED91FC91F2CF842F0E94E827882359F049
:10534000D7015696ED91FC91309709F475CF612FF6
:10535000C70109954ACF163F09F06ECFD70158967D
:10536000ED91FC91F1CFFF920F931F93CF93DF93B9
:10537000EC01162F862F0E94E827882391F0FDA0CC
:1053800081E08DA300E020E0412F61E070E0CE01DC
:105390000E94C128FDA2DF91CF911F910F91FF9034
:1053A0000895812F0E94E4274DA1882309F443C06A
:1053B000443029F01AA381E090E09FA38EA3812FAF
:1053C0000E94EE27813051F08823A9F0823089F0C5
:1053D000833079F01DA21FA21EA2DDCF8DA300E0B5
:1053E00020E0412F61E070E0CE010E94C1281DA2A3
:1053F000D2CF8DA3D0CF103FB1F0173F59F72EA1D8
:105400003FA1C90163E070E00E94FD32FE01E80F98
:10541000F91F12A3B9016F5F7F4F7FA36EA30CA189
:105420002BA14AA1E1CF84E08DA31AA381E090E0F3
:105430009FA38EA3B0CF442309F4ADCF2EA13FA1EB
:10544000C90163E070E00E94FD32FE01E80FF91F20
:1054500012A3B9016F5F7F4F7FA36EA381309105C7
:1054600069F0029709F097CF0CA12BA14AA1CE01B8
:105470000E94C1288DA18430C9F68DCF00E0423052
:1054800009F089CFF2CFCF92DF92EF92FF920F9384
:105490001F93CF93DF93EC01E8A1F9A1309709F0B6
:1054A00009956E0188EEC80ED11CC6010E94AD2A76
:1054B00010E000E0E82EF12C0E151F0548F0DF91FA
:1054C000CF911F910F91FF90EF90DF90CF900895B3
:1054D00060E0C6010E94C12A682FCE010E94B32954
:1054E00061E0C6010E94D12A0F5F1F4FE5CFFC018A
:1054F0004283748363831182108208951F93CF9334
:10550000DF93EC01162F0E94E82A482F298130E012
:10551000C90101966A8170E00E94113358815817C1
:10552000190641F4842F0E94EB2A80E0DF91CF918D
:105530001F9108958B819C81280F391FF9011083D9
:10554000898190E001966A8170E00E94113389831D
:10555000842F0E94EB2A81E0E9CFCF93DF93EC0107
:105560000E94E82A99812881921740F0C92FC21B16
:105570000E94EB2A8C2FDF91CF910895CA819C0F56
:10558000F5CFFC018081860F9927991F628170E019
:105590000E94113323813481280F391FF901808142
:1055A00008951F93CF93DF93EC01162F0E94E82AF2
:1055B000282F8881810F9927991F6A8170E00E94A6
:1055C00011338883822FDF91CF911F910C94EB2AA6
:1055D0008FB7F89408958FBF0895089508950F9395
:1055E0001F93CF93DF9300D000D000D00F92CDB7A0
:1055F000DEB78C01CE0101960E944D2D81110BC0AA
:1056000027960FB6F894DEBF0FBECDBFDF91CF91C6
:105610001F910F9108958A810E94EE279A819D83A0
:105620009B819E839C819F8381110AC089818430E4
:1056300079F0873069F0863069F08530D9F681E0FD
:10564000AE014B5F5F4F682FC8010E949D28D2CFEB
:1056500083E0F6CF82E0F4CFDF92EF92FF920F93D8
:105660001F93CF93DF9300D000D0CDB7DEB77B017F
:10567000142FD22E4A832B830C83842F0E94EE2773
:10568000811129C082E0E816F10401F183E0E816F7
:10569000F10439F0EA94EF2869F485E0173F21F42A
:1056A00004C087E0073F09F084E08983CE010196BA
:1056B0000E94482D0F900F900F900F90DF91CF9187
:1056C0001F910F91FF90EF90DF90089587EFD81210
:1056D000EBCF86E0EACF12951F701983E7CF0E94C7
:1056E000110C83E795E00E946C286CE27BE283E773
:1056F00095E00E94B9286FEE7AE283E795E00E9478
:10570000BD286DEE7AE283E795E00E9468286EEE90
:105710007AE283E795E00C9464289B01409164064B
:105720004430C1F4FC0191819F709093E90050E0F6
:1057300040E064E070E0C9010E94112E81110BC0AD
:105740009091E80095FD07C09091E8009E779093B6
:10575000E800089582E0089520916406243091F4D1
:10576000FC0181818F708093E9009091F30080911A
:10577000F200892B49F08091E8008E778093E80051
:105780000C94BF2F82E0089580E00895FC01809181
:105790006406843059F491819F709093E900809160
:1057A000E80080FF03C0CF010C94AC2B08959B014F
:1057B00040916406443011F080E00895FC01968128
:1057C0009F709093E9008091E80082FFF5CF80916F
:1057D000E80085FFF1CF50E040E064E070E0C901EF
:1057E0000E94602E8091E80085FD05C08091E80050
:1057F0008B778093E80081E008958091900408956C
:105800000895CF93DF9300D00F92CDB7DEB790917C
:105810006406943019F589837B836A8382E08093E0
:10582000E9008FEF9091E800815095FD06C095ED5D
:105830009A95F1F700008111F5CF8091E80085FF7E
:105840000DC050E040E063E070E0CE0101960E94A0
:10585000112E8091E8008E778093E8000F900F90D2
:105860000F90DF91CF910895BC0184E00C94012C3E
:10587000BC0183E00C94012CCF93DF93EC0181E019
:105880008093E9008FEF9091E800815095FD06C06C
:1058900095ED9A95F1F700008111F5CF8091E80020
:1058A00085FF14C050E040E068E070E0CE010E9447
:1058B000112E8091E8008E778093E80088E0FE0149
:1058C000A8E8B4E001900D928A95E1F7DF91CF91BD
:1058D000089580916306811109C00E94F02F0E94F3
:1058E0004D308091E20084608093E2000895109230
:1058F0006306089508950895089542E061EC81E0FB
:105900000E946C2F42E261EC82E00E946C2F42E325
:1059100061E883E00E946C2F42E361E884E00C942C
:105920006C2F80916606833009F45FC030F48130BB
:10593000C1F1823009F49BC008958A3009F487C010
:105940008B3009F46DC0893009F04EC08091650636
:10595000813209F049C08091690690916A060297E8
:1059600008F042C08091E800877F8093E800809132
:10597000E80082FF35C09091F3008091F200029719
:1059800029F48091F1008B7F813021F48091F10026
:10599000809390048091E8008B778093E8000C94CA
:1059A000A02F80916506813AF9F48091E800877F05
:1059B0008093E8008091690690916A06892B61F4D2
:1059C00068E088E894E070E00E94AF2E8091E800E3
:1059D0008B778093E800089560E090E080E0F3CF5B
:1059E000809164068111C3CF089580916506813A44
:1059F000D9F78091690690916A06892BA9F7809161
:105A0000E800877F8093E8008091E80080FFFCCF6A
:105A1000809131018093F1008091E8008E77BDCFB5
:105A200080916506813201F78091690690916A063E
:105A3000892BD1F68091E800877F8093E8000E944F
:105A4000A02F80916706809331010C94F71F8091FD
:105A50006506813249F68091E800877F8093E800EF
:105A60000E94A02F809168068093910408958091F0
:105A70006506813A09F0B8CF8091E800877F80936E
:105A8000E8008091E80080FFFCCF80919104C2CFB4
:105A9000BC018BE191E00C948D2BBC018BE191E07A
:105AA0000C94D72B0E946F2B84B7877F84BF0FB6CF
:105AB000F894A895809160008861809360001092AE
:105AC00060000FBE80E890E00FB6F894809361000C
:105AD000909361000FBE0E94A41B0E94F02F0E94B1
