:100000000C94E2030C9429040C9429040C94290404
:100010000C9429040C9429040C9429040C942904AC
:100020000C9429040C9429040C9411320C94E5329C
:100030000C9484280C9429040C9429040C9429040D
:100040000C9429040C9429040C9429040C9429047C
:100050000C9429040C94DB280C9429040C94290496
:100060000C9429040C9429040C9429040C9429045C
:100070000C9429040C9429040C9429040C9429044C
:100080000C9429040C9429040C9429040C9429043C
:100090000C9429040C9429040C9429040C9429042C
:1000A0000C9429040C9429040C94290400000000E9
:1000B0000000000000000000000000000000000040
:1000C0000000000000000000000000000000000030
:1000D0000000000000000000000000000000000020
:1000E0000000000000000000000000000000000010
:10033000000000002A2B2800000000000000000040
:100340000000000000000029000000002C1E3420E6
:10035000212224342627252E362D3738271E1F200C
:100360002122232425263333362E37381F04050651
:100370000708090A0B0C0D0E0F1011121314151695
:100380001718191A1B1C1D2F3130232D3504050693
:100390000708090A0B0C0D0E0F1011121314151675
:1003A0001718191A1B1C1D2F3130354C0000000086
:1003B000000000000000000000000000000000003D
:1003C000000000000000000000000000000000002D
:1003D0007E0F00D4FFFFFFC7000000781E0F05004E
:1003E000047F3F1F643214643214783C1E1E140ACA
:1003F000052223252628292A2C2D2F303233353665
:10040000383A3B3D3E4042434547494A4C4E5051A5
:10041000535557595A5C5E6062646668696B6D6FCC
:1004200071737577797B7D7F81838587898A8C8ECF
:1004300090929496989A9C9E9FA1A3A5A7A8AAACD7
:10044000AEAFB1B3B4B6B8B9BBBCBEBFC1C2C3C511
:10045000C6C7C9CACBCCCDCED0D1D2D2D3D4D5D6B3
:10046000D7D7D8D9D9DADADBDBDBDCDCDCDCDCDDE6
:10047000DDDDDDDCDCDCDCDCDBDBDBDADAD9D9D8CA
:10048000D7D7D6D5D4D3D2D2D1D0CECDCCCBCAC962
:10049000C7C6C5C3C2C1BFBEBCBBB9B8B6B4B3B191
:1004A000AFAEACAAA8A7A5A3A19F9E9C9A9896942C
:1004B00092908E8C8A89878583817F7D7B79777501
:1004C00073716F6D6B6968666462605E5C5A5957E0
:1004D000555351504E4C4A4947454342403E3D3B9F
:1004E0003A3836353332302F2D2C2A292826252329
:1004F00022FFAA7F554000010203040506070F0EE4
:100500000D0C0B0A090810111213141516171F1ED3
:100510001D1C1B1A191820212223242526272F2EC3
:100520002D2C2B2A292830313233343536373F3EB3
:100530003D3C3B3A39380001010101010101010153
:100540000202020202020202020303030303030384
:100550000304040404040404050505050506060651
:100560000606070707070708080808090909090A0E
:100570000A0A0B0B0B0C0C0C0D0D0D0E0E0E0F0FB3
:100580000F10101111111212131314141515161641
:100590001717181819191A1A1B1B1C1D1D1E1E1FB0
:1005A0002020212222232424252626272829292AFF
:1005B0002B2C2D2D2E2F3031323233343536373827
:1005C000393A3B3C3D3E3F40414243444546474823
:1005D000494A4C4D4E4F50515354555658595A5BF9
:1005E0005D5E5F616264656668696B6C6D6F707299
:1005F000737577787A7B7D7E8082838587888A8C05
:100600008E8F91939596989A9C9EA0A2A3A5A7A938
:10061000ABADAFB1B3B5B7BABCBEC0C2C4C6C9CB2F
:10062000CDCFD1D4D6D8DBDDDFE2E4E7E9EBEEF0E5
:10063000F3F5F8FAFDFF1403460065007500690044
:100640006C006C0065003600340000000C0379007B
:1006500079006E006D0074000000040309040902B3
:10066000BF00050100A0FA09040000010301010018
:100670000921110100012240000705810308000A39
:1006800009040100020300000009211101000122F8
:100690002200070582032000010705030320000153
:1006A00009040200010300000009211101000122D8
:1006B00032000705840320000A080B030201010031
:1006C00000090403000001010000092401000109E0
:1006D00000010409040400020103000007240100D2
:1006E0000141000624020101000624020202000961
:1006F0002403010301020100092403020401010192
:100700000009050602400005000005250101010958
:1007100005850240000500000525010103120110B6
:100720000100000008D804D8E80100010200010619
:1007300060FF0961A1010962150026FF009520757F
:100740000881020963150026FF00952075089102B3
:10075000C005010980A101850319012AB70015010F
:1007600026B700950175108100C0050C0901A10193
:10077000850419012AA002150126A0029501751011
:100780008100C005010906A101050719E029E71547
:100790000025019508750181029501750881010503
:1007A00007190029FF150026FF009506750881002E
:1007B0000508190129059505750191029501750333
:1007C0009101C00011241FBECFEFDAE0DEBFCDBF24
:1007D00004B603FE27C08091820690918306A09103
:1007E0008406B09185068730904BA740B04BD1F47A
:1007F000109282061092830610928406109285064B
:1008000014BE84B7877F84BF0FB6F894A8958091F3
:100810006000886180936000109260000FBEE0E08D
:10082000F8E3099512E0A0E0B1E0EAE7FCE602C0D7
:1008300005900D92A430B107D9F726E0A4E0B2E00C
:1008400001C01D92A238B207E1F70E94CB2E0C9492
:1008500004360C940000DF92EF92FF920F931F93E7
:10086000CF93DF9300D000D000D0CDB7DEB7811199
:100870003CC0DD24D394162F1D2509E0812F99E07B
:100880000E94C125612F79E00E9499197C0119838A
:100890000A838CE2E8168CE5F80690F4C7010E9402
:1008A000F70481E026960FB6F894DEBF0FBECDBFE9
:1008B000DF91CF911F910F91FF90EF90DF900895FE
:1008C000DB82BE016F5F7F4FC7010E944A0A8FE340
:1008D0009CE90197F1F700C000001B82BE016F5F29
:1008E0007F4FC7010E944A0ADCCF8130B9F413E080
:1008F000611112E009E0812F99E00E94C125612F6A
:1009000079E00E9499197C0119830A839CE2E91617
:100910009CE5F90618F281E08B83D3CF823009F091
:10092000C0CF15E0662331F314E0E4CFCF93DF931B
:100930009C013A9521153F4168F5EC01CC27D17017
:10094000DC01AA27B270AC01442754709C01222715
:10095000387094FF11C080E1CD2B09F480E0AB2BFF
:1009600009F08062452B09F08064232B09F0806830
:10097000FB01DF91CF91099481E0CD2B09F480E058
:10098000AB2B09F08260452B09F08460232B81F3A7
:100990008860EECFDF91CF910895CF93DF93EC0184
:1009A000805E9109089720F06EE271E2209711F4C1
:1009B0006FED7EE1CE010E9496048C2FDF91CF91E6
:1009C0000C94E71DCF93DF93EC010E94711ECE01C2
:1009D000805E9109089720F065E371E2209711F499
:1009E00066EE7EE1CE01DF91CF910C949604CF9319
:1009F000DF93EC010E94CD048FE39CE90197F1F7AE
:100A000000C00000CE01DF91CF910C94E20481E0A0
:100A1000089581E008950C94090508950C940D053E
:100A20001F93CF93DF9300D000D00F92CDB7DEB7E6
:100A300049835A836B833091190489819A813111DA
:100A40001DC06623B9F02223A9F00E94C125182FEA
:100A5000682F89819A810E946C2569817A81812F12
:100A60000F900F900F900F900F90DF91CF911F91EB
:100A70000C9499190E949925182FEFCF0E94C12537
:100A800069817A81EDCFFC01262F408151816281FD
:100A9000738184810C941005CF93DF93EC0160E0A7
:100AA0000E944305BE01DF91CF910C940E058F92F9
:100AB0009F92AF92BF92CF92DF92EF92FF920F93ED
:100AC0001F936B017C0181E090E0A0E0B0E04C015D
:100AD0005D0104C0880C991CAA1CBB1C4A95D2F766
:100AE000B501A4014C015D0104C0880C991CAA1C2D
:100AF000BB1C2A95D2F7482959296A297B2904C0A9
:100B0000880F991FAA1FBB1F0A95D2F78A019B0164
:100B10000C211D212E213F21041715072607370719
:100B200089F48C299D29AE29BF29BC01CD011F91D3
:100B30000F91FF90EF90DF90CF90BF90AF909F907C
:100B40008F90089580959095A095B0958C219D21CA
:100B5000AE21BF21EACF0F93382F262F6091840456
:100B6000709185048091860490918704042F432F0F
:100B70000E9457050F910C94AA240E94F7080C9428
:100B80001C090C941F0908950E944E210E94C30560
:100B90002FEF84E39CE0215080409040E1F700C0BB
:100BA00000000C94FF280F931F93CF93DF938C01C9
:100BB00061E00E944305EC01B8010E947F17882381
:100BC00009F448C0B801CE010E940B05882309F43E
:100BD00041C0B801CE010E944A0A8823D9F1B80168
:100BE000CE010E94D01A8823A9F1B801CE010E943B
:100BF000221B882379F1B801CE010E94451C88236D
:100C000049F1B801CE010E942D15882319F1F80190
:100C10008281882361F0CA35FDE5DF0721F170F498
:100C2000C115ECE5DE07A1F0CE3DDC45C9F0C801F9
:100C3000DF91CF911F910F910C940705CB358DE576
:100C4000D807A1F0CC35DD4591F70E946826EFCF9B
:100C50000E94C40580E0DF91CF911F910F9108950C
:100C60000E94D427F7CF0E947126E1CF0E947426FC
:100C7000DECFDF92EF92FF920F931F93CF93DF931C
:100C8000E82FF0E0E45DFC4FD490282F26952695C0
:100C9000269530E0F901E453FC4F0491877010E091
:100CA000082E02C0159507950A94E2F701701127E6
:100CB000F901E454FC4FE490F12C082E02C0F594A5
:100CC000E7940A94E2F791E0E922FF24F901E45560
:100CD000FC4FC491D0E002C0D595C7958A95E2F744
:100CE000C170DD270115110519F081EE0E94E71D85
:100CF000E114F10419F086EE0E94E71D8D2D0E948B
:100D0000D71EEF2819F086EE0E94711E012B19F0F4
:100D100081EE0E94711ECD2B51F08CE2DF91CF91BC
:100D20001F910F91FF90EF90DF900C94D71EDF91F1
:100D3000CF911F910F91FF90EF90DF900895EF9268
:100D4000FF920F931F93CF93DF93EC01162F0AE0CE
:100D50008881882309F454C0813009F04EC089810C
:100D6000813099F47E0122E0E20EF11C8A810E941A
:100D7000D71EE7012196812F815050F3EFE9FFE064
:100D80003197F1F700C00000F7CF823041F47E01C7
:100D900082E0E80EF11C8A810E94E71DEACF8330D1
:100DA00041F47E01E2E0EE0EF11C8A810E94711E88
:100DB000E0CF843011F02196DDCF2A81229690E099
:100DC00080E0AE014F5F5F4F2053330B2A30310577
:100DD00048F0019778F2EFE9FFE03197F1F700C0B2
:100DE0000000F7CF089FB001099F700D1124C901C1
:100DF000860F971F2981EA01E4CF0E943906BACFF6
:100E0000DF91CF911F910F91FF90EF90089560E0D7
:100E10000C949F0608950C940A0781E008950C94A1
:100E20000D07CF93C82F0E940B078C2FCF910C94E6
:100E30000F07CF93DF930E9499190E940508EC01D8
:100E4000811522E59207E8F5811531E5930708F051
:100E5000ACC0883E910510F5803E910570F5883A4A
:100E6000910570F4853A910508F078C081309105BC
:100E700021F1009711F1049700F5D0E0C0E01DC00A
:100E80008F3B9105D0F7C85AD0E0CC0FDD1FC05D75
:100E9000DE4F0990D881C02DD4640FC0811540E584
:100EA000940708F066C0C11580E4D80708F05EC05A
:100EB000CE019A9581159F4100F7CE01DF91CF9128
:100EC0000895811536E5930718F5811545E59407D2
:100ED00008F083C0C11584E5D80708F079C09C2FBD
:100EE000969596959E0123703327C115D34508F436
:100EF00061C0C1E0D0E002C0CC0FDD1F2A95E2F74F
:100F000030E2939FC0011124C82BD92BDA68D5CFCA
:100F1000C1158AE5D80778F4C11599E5D90708F015
:100F200066C0C11528E5D20708F4A7CFDC2FCC276F
:100F3000C06FD06AC2CFCE0190568115904208F0A2
:100F40009CCF8D2F8F710E949C0890E0982F88274E
:100F500088279F719C012C2BE90147C0C55AD0E01E
:100F6000C25ADE4FC881D0E0D064A7CFDF70D06A0C
:100F7000A4CFE4E096958795EA95E1F783702C2F4E
:100F800026952695237040E2249F90011124382B4A
:100F90008C2F8370C1E0D0E002C0CC0FDD1F8A959A
:100FA000E2F7C22BD32BDC6888CFD82FCC27C16FB8
:100FB000D06A83CFC1E0D0E002C0CC0FDD1F2A95FC
:100FC000E2F720E2929FC0011124C82BD92BEBCF6E
:100FD000DC2FCC27C46FD06A70CF0E949C08C82F2A
:100FE000D0E0DC2FCC27CC27DF71D06266CF8C2FEE
:100FF0008F700E949C0834E0D695C7953A95E1F72A
:10100000CF709C2FEC01D06958CF82389105B1F197
:10101000B0F48133910509F475C048F48932910523
:1010200009F469C08A32910509F473C008958533C3
:10103000910509F459C08933910501F10895833E62
:101040009105A9F138F4803E9105F9F0823E9105B1
:1010500049F10895863E9105A9F1873E9105C9F1B0
:10106000843E910519F52091A60421FF1FC08091AF
:10107000A50484FD14C087EE90E008952091A50496
:101080002370A1F080EE90E008952091A50420FD4A
:1010900047C03091A60430FF09C024FF44C090E04F
:1010A00080E004C02091A50422FDF7CF089520918F
:1010B000A50422FD3BC03091A60430FDE3CF24FF00
:1010C000F5CFEDCF2091A50423FFF0CF24FDE7CF8E
:1010D000D2CF2091A50423FD2CC03091A60431FF6E
:1010E000EECF84EE90E008952091A50425FFDECF99
:1010F00089E290E008952091A50425FFD7CF85E3EC
:1011000090E008952091A50426FFD0CF8AE290E0D8
:1011100008952091A50426FFC9CF81E390E00895AA
:1011200089E390E0089583EE90E0089582EE90E0E8
:10113000089586EE90E008959091A50492FF06C070
:10114000282F28712830F9F4877F846093FF06C028
:10115000282F28712831F1F4877E84612091A6041C
:1011600020FF06C0382F38713830D9F4877F81606E
:1011700021FF06C0282F28712831D1F4877E816194
:1011800094FD877E0895282F24712430F9F68B7FF3
:101190008860DCCF282F2471243101F78B7E886191
:1011A000DDCF382F3171313019F78E7F8860E0CF75
:1011B000282F2171213121F78E7E8861E1CF0C9497
:1011C00059170E946C098FE39CE90197F1F700C061
:1011D00000000E946C0980E00E94210980FF04C089
:1011E0000E94DF080C94FF2808950C94E1080E94E7
:1011F0002F27811102C00E94D4270E943A27809392
:1012000099040E9442279093A6048093A5040E940B
:10121000F5080E943E27682F70E090E080E00E9471
:101220006E2460918404709185048091860490916D
:1012300087040C94A82408950C941B0908950C9419
:101240001E09E82FF0E0EF54FB4F808108950895C8
:1012500080EA8A95F1F7089500C008950C94280952
:10126000F894E82FE295EF70F0E031A1282F2F706D
:1012700081E090E001C0880F2A95EAF7982F9095B9
:10128000932391A392A1892B82A378940895CF935D
:10129000DF93C9E6D1E089910E94300981E0C3372C
:1012A000D807C9F7C1E6D1E089910E94300981E0F1
:1012B000C936D807C9F7E7EAF4E0A1EBB4E0119228
:1012C0001D9284E0E13BF807D1F78AE00E94E30930
:1012D000DF91CF910C94BD05CF92DF92EF92FF92F8
:1012E0000F931F93CF93DF93C9E6D1E007EA14E091
:1012F000D12CEE24E394F12C8991F894E82FE29517
:10130000EF70F0E021A18F70A70102C0440F551FBC
:101310008A95E2F7CA01922F982B91A392A180950A
:10132000892382A378940E942C09E1E6F1E030E061
:1013300020E0C12C4191A42FA295AF70B0E090960F
:101340008C9190E04F7002C0959587954A95E2F791
:1013500080FD35C08E2D022E01C0880F0A94EAF759
:10136000C82A2F5F3F4F2830310521F7FE01319702
:1013700080810E9430090E942E09F8018081C816E0
:1013800001F1C08281E0D82A0F5F1F4FF1E0C3371F
:10139000DF0709F0B1CF2D2D4AE061EB74E087EA59
:1013A00094E00E94E4090E94C1058D2DDF91CF9148
:1013B0001F910F91FF90EF90DF90CF90089580E004
:1013C000CFCF80E0E0CF0895FF920F931F93CF938C
:1013D000DF93F82E092F162FD72FC42F222349F081
:1013E00081E0809308020E94B428909307028093C2
:1013F0000602809108028823A1F080910602909154
:1014000007020E94CC28069760F0EF2DF02FA12F45
:10141000BD2FCE0FDF2FD11DEC17FD0741F4109229
:101420000802DF91CF911F910F91FF900895819154
:101430008D93F2CF84E08093BB048FE78093BC044C
:101440008091BD04807880648093BD04EDE0F2E07B
:101450008FEF8193DF01A95BBF4F1C9292E0E535CE
:10146000F907B9F710920C0210920B0210920A02BF
:101470001092090208959091BB04292F2F70959521
:101480009595959595959F523CE0239F900D11243D
:10149000890F0895EF92FF921F93CF93DF93FB0183
:1014A0008E3A2CE5920708F085C08E394CE59407FA
:1014B00008F099C180395CE5950750F583382CE533
:1014C000920708F04CC181384CE5940760F48737E7
:1014D0005CE5950708F02BC18F322CE5920708F0E8
:1014E000DFC0D1E01DC181384CE5940709F42CC15F
:1014F00082389C45B1F78281882309F4FBC0809132
:10150000BB04982F9F70993008F0F4C09F5F25C1ED
:101510008C392CE59207A0F582394CE5940708F048
:101520003BC180395CE5950709F424C181399C45AC
:10153000C1F68281882309F4DDC02091BB04822F8B
:10154000859585958595859586300CF0D3C091E07D
:10155000980F9295907F9595959595959595392F9E
:101560003295307F2F70232B2093BB0418160CF07C
:10157000C1C097FFBFC08295807F922F9F70E0C04F
:101580008C394CE5940709F415C18D399C4509F057
:10159000A8CF8281882309F4ADC08091BC04982F24
:1015A0009F779F3709F4A6C0933708F01AC1935F5D
:1015B0009F77FEC0843B2CE5920709F472C1C8F501
:1015C000803B5CE5950709F43EC1D8F48E3A4CE5C2
:1015D000940709F41AC18F3A9C4509F082CF8281A1
:1015E000882309F487C02091BC04322F331F33278E
:1015F000331F9091BD04892F8770880F832B8F5FD5
:1016000015C16091BC043091BD042281823BECE5A0
:101610009E0709F43AC108F42CC121112FE7862F47
:10162000881F8827881F632F6770660F682B42E426
:101630001BC1873B2CE5920709F446C180F4853B2A
:101640005CE5950709F42DC1863B9C4509F049CF1F
:101650008281811137C18FEF80930B024BC0893B90
:101660004CE5940709F466C108F44FC18A3B9C45D8
:1016700009F037CFD2816091BC04862F881F88275C
:10168000881F6091BD046770660F682BDD2309F425
:1016900061C14FEF5FE188E895E00E9485292AC08B
:1016A0001091BC04212F221F2227221FC091BD04AC
:1016B000C770CC0FC22B1F77D28121ED280F30E0ED
:1016C000A901435F5D4F7A01DD23C1F00E943B0A0F
:1016D000D82F212F482F6C2F88E895E00E9465298C
:1016E000F701E85BFF4F80818F5F8083F701808186
:1016F0008F3F11F0D0E014C0D083FCCFFA014081BD
:10170000E85BFF4F8081815080838111F3CF212FCF
:101710006C2F88E895E00E9475298FEFF701808390
:101720008D2FDF91CF911F91FF90EF90089522812F
:10173000222301F38757982F9F708091BB04807FED
:10174000892B8093BB04D6CF8281882399F2809124
:10175000BB04982F9F7071F2915F9F70F0CF228130
:10176000222341F28958982F9295907F8091BB0453
:101770008F70E6CF8281882309F4BCCF8091BB04AF
:10178000982F95959595959595959B3F0CF4B2CF8F
:10179000915F9295907FECCF2281222309F4AACF0A
:1017A00082599EE0899F902D11249F778091BC04DF
:1017B000807815C08281882309F49CCF8091BC0475
:1017C000982F9F7709F496CF80789F3721F485670B
:1017D0008093BC048FCF9D30D8F39D509F77892B89
:1017E000F7CF8F67F5CF2281222309F483CF8E595B
:1017F0009091BC0480FB97F99093BC048695877008
:101800009091BD04987F892B7DC08281882309F443
:1018100071CF2091BC04322F331F3327331F909197
:10182000BD04892F8770880F832B815F382F3F700D
:1018300080FB27F92093BC04832F8695987F982BF3
:101840009093BD0457CF8281882309F453CF6091D0
:10185000BC04862F881F8827881F6091BD0467708D
:10186000660F682B20E04BE788E895E00E94552939
:1018700041CF21112FE7862F881F8827881F632FCC
:101880006770660F682B40E4EFCF21112FE7862F9A
:10189000881F8827881F632F6770660F682B41E4B5
:1018A000E3CF828120E081112FE76091BC04862F75
:1018B000881F8827881F6091BD046770660F682B9A
:1018C00043E4D2CF81E0C8CE8281882309F412CFCD
:1018D0009091BD04292F2695269526952F7081E09D
:1018E000820F8F70880F880F880F9778892B8093CD
:1018F000BD04982F987709F0FDCE220F220F220FFA
:101900008778822B8093BD04F5CE8281882309F4E9
:10191000F1CE8091BD04982F987709F4EBCE982FE3
:10192000969596959695915F9F70990F990F990F3F
:10193000877869CFD2816091BC04862F881F882761
:10194000881F6091BD046770660F682B40E050EE01
:10195000D111A1CE50E040E088E895E00E948529B1
:10196000DFCE88E895E00E94872B80910902909154
:101970000A020E94CC282091BD0426952695269522
:101980002F702817190609F0A0F50E94B42890932B
:101990000A028093090280910B02882351F1609121
:1019A000BC04862F881F8827881F6091BD0467703C
:1019B000660F682B20910C0241E088E895E00E94B8
:1019C000552980910B0290910C0287FF0DC0482F82
:1019D000552741950CF45095941715062CF4109248
:1019E0000C0210920B020895890F87FD03C08093AB
:1019F0000C0208958FE7FBCFEF92FF920F931F9396
:101A0000CF93DF93EB01E82FD11110C0442321F0D5
:101A1000F0E0EA5CFA4FE4916E2F7E2F8E2FDF917B
:101A2000CF911F910F91FF90EF9008950D2F10E02F
:101A3000282F30E0442329F02A5C3A4FF901249101
:101A400030E0F6E0CF9FC0011124EFEFF0E0BF01DE
:101A50000E94A334AB018C2F90E0880F991FA5E55D
:101A6000A49FB001A59F700D1124861B970B982F82
:101A7000990F980FBF01601B710B629FD001639F8C
:101A8000B00D729FB00D11248B2F9D9FB0011124BA
:101A9000672F7727EF01C61BD70BBE01629FE001BE
:101AA000639FD00D729FD00D11247F01E91AF108B8
:101AB000E09EB001E19E700DF09E700D1124672F25
:101AC0007727E61BF70BE29F8001E39F100DF29F43
:101AD000100D1124E12F722F4230510599F048F476
:101AE0004115510569F04130510581F0EB2F8D2FE3
:101AF00007C04430510569F080F046305105B1F718
:101B00006E2F8DCFE22F7B2F812FFACFE22F7D2FEB
:101B1000F7CFEB2F822F712FF3CF7B2F822FED2F5B
:101B2000EFCF41E00C94FC0C08950C94910DCF93F1
:101B3000DF93762FE901682F842F0E94950D79831A
:101B400068838A83DF91CF910895493708F048E789
:101B50000C94970D8091BF04982F9E7F61F4817043
:101B600082608093BF048091C204893718F088E7AF
:101B70008093C20408958635B0F381708465F1CFF7
:101B800088E090E00C94A535CF92DF92EF92FF921F
:101B90006B017C010E94AA0DB701A60188E090E0CC
:101BA000FF90EF90DF90CF900C94C3356091BF040D
:101BB0007091C0048091C1049091C2040C94C40D32
:101BC000EFEBF4E083E0808311828FEF828388E77C
:101BD0008383148260817181828193810C94C40D0E
:101BE0008091BF0480FF02C08695089580E008952B
:101BF0009091C304933018F49F5F9093C30488239B
:101C000051F06091BF047091C0048091C104909123
:101C1000C2040C94C40D089581E00C94F80D9091C9
:101C2000C304992319F091509093C304882351F071
:101C30006091BF047091C0048091C1049091C2046E
:101C40000C94C40D089581E00C940F0E8091C30490
:101C500008958093C304662351F06091BF0470918E
:101C6000C0048091C1049091C2040C94C40D0895E5
:101C700060E00C94290E8091C00408958091C10405
:101C800008958091C204089521E030E002C0220F3F
:101C9000331F8A95E2F78091ED039091EE0328239C
:101CA000392381E0232B09F480E0089570E00C943F
:101CB000FA156F927F928F929F92AF92BF92CF92BE
:101CC000DF92EF92FF920F931F93CF93DF93CDB7E5
:101CD000DEB7C05CD1090FB6F894DEBF0FBECDBF32
:101CE000709008019091BF0490FF47C0C090E0033E
:101CF000D090E103C114D10409F052C0E6EFF4E042
:101D00009E012F5F3F4FBE016F537F4FC901A491CA
:101D10004A2F50E0DA01AA0FBB1FA40FB51FAC5326
:101D2000BB4FCD90DD90EC90D901CD92DD92ED923C
:101D30009D0131966A177B0751F720910701672DA6
:101D4000B3E02B9F800D911D11240E94560EC054AC
:101D5000DF4F0FB6F894DEBF0FBECDBFDF91CF913E
:101D60001F910F91FF90EF90DF90CF90BF90AF90B9
:101D70009F908F907F906F9008958091090120919E
:101D80000A0133E0839FF0011124EC53FB4F8217CB
:101D900008F0ACCF1182108212828F5F3396F7CF9A
:101DA00090FFACCFF12CE12C43E0642E8E2D0E94ED
:101DB000440E882309F43CC0F701EE0FFF1FEC0D21
:101DC000FD1DA590B490A114B10409F497CF45E08E
:101DD00050E0B501CE0101960E94873509810F3F81
:101DE00039F18A81800F9927991F8134910514F068
:101DF00080E490E04C01880C991C880D991DDC0151
:101E0000AC53BB4F4D01069D800111240C531B4F59
:101E10000815190520F0B5E0AB0EB11CD8CF98011C
:101E20004D816C818B810E94A50D0D5F1F4FF0CFFE
:101E30002FEFE21AF20A39E0E316F10409F0B6CF07
:101E40005DCF9091BF0490FF14C090910901209143
:101E50000A0133E0939FF0011124EC53FB4F9217DA
:101E600010F00C94590E8183608342839F5F3396F8
:101E7000F6CF0895CF93DF9300D00F92CDB7DEB7A2
:101E80009091BF0490FF0AC09E012F5F3F4F0E94B8
:101E9000A50D4B8169818A810E94210F0F900F90BF
:101EA0000F90DF91CF910895CF93DF93EC01EC81F8
:101EB000F0E0EF50FC4F4491EFEBF4E06281818160
:101EC0000E943A0F8C818F5F8C83DF91CF910895B0
:101ED000CF93DF93EC01EFEBF4E0438162818C81DF
:101EE0000E943A0F8C818F5F8C83DF91CF91089590
:101EF0000F931F93CF93DF9300D00F92CDB7DEB730
:101F00008C0180919D0281110AC09E012F5F3F4F7D
:101F100048E76FEF0E94A50D8A8180939D02F8012A
:101F20006481613069F080919D0240E0662361F038
:101F300040E0623011F440919D0280E060E004C016
:101F400060919D0240E080E00E94210FF8018481B1
:101F500090E0019663E070E00E94B73484830F90B4
:101F60000F900F90DF91CF911F910F910895AF9235
:101F7000BF92CF92DF92EF92FF920F931F93CF9376
:101F8000DF9300D00F92CDB7DEB7182FF62E042FB7
:101F9000E22E9091BF0490FF29C0E92FE695AE2F65
:101FA000B0E0AD58BE4F8C918093EB039E7F923092
:101FB00059F59E012F5F3F4F812F0E94A50D4B8148
:101FC00069818A810E94210F1093C004F092C1049C
:101FD0000093C204EE2051F06091BF047091C004E0
:101FE0008091C1049091C2040E94C40D0F900F9083
:101FF0000F90DF91CF911F910F91FF90EF90DF90A5
:10200000CF90BF90AF900895823019F40091C20430
:10201000DBCF863019F41091C004D6CF8930D9F3C4
:10202000893191F6E9518E2F8170D82EE695F0E036
:10203000EF50FB4FA590B490C12CBB2460910B01D5
:10204000C61618F00E94590EBFCF2C2D30E0A29E6C
:10205000C001A39E900DB29E900D112470E00E94CD
:10206000A334812FD11013C0860F40910901420F74
:10207000532F511D9A01220F331F240F351F2C534C
:102080003B4F402F6F2D0E94A50DC394D7CF861BC9
:10209000ECCFEFEBF4E09181282F4381628188E05F
:1020A000890F0C94B70F81E00C944910EFEBF4E02A
:1020B0009181282F4381628188EF890F0C94B70F9B
:1020C00081E00C945610EFEBF4E0628128E0620F9F
:1020D00008F46FEF282F438181810C94B70F81E0C2
:1020E0000C946310EFEBF4E0628128E0621B08F4CB
:1020F00060E0282F438181810C94B70F81E00C941C
:102100007210EFEBF4E0438128E0420F08F44FEF48
:10211000282F628181810C94B70F81E00C9481108B
:10212000EFEBF4E0438128E0421B08F440E0282F65
:10213000628181810C94B70F81E00C94901020E0B3
:102140000C94B70FEF92FF921F93CF93DF93EC01A4
:1021500010E0EE24EA94F12C60910B01161770F058
:102160000E94590E9A818C8190FF27C08F5F8C83CB
:10217000DF91CF911F91FF90EF9008952091090179
:10218000422F410F5527551FCA019A01220F331FB5
:10219000280F391F2C533B4F70E0C7010E94B73402
:1021A000962F8C814091C2046091C104199F800DCB
:1021B00011240E94A50D1F5FCFCF8150D8CFBF92B1
:1021C000CF92DF92EF92FF920F931F93CF93DF9303
:1021D000FC0182810FEF80FF01E010E080910B0194
:1021E0001817C0F00E94590E80919F02013009F02B
:1021F00051C0811102C080910B01815080939F02D8
:10220000DF91CF911F910F91FF90EF90DF90CF90D2
:10221000BF900895C0910901C12ED12CCC0DDD2DA8
:10222000D11DCE01880F991FC80FD91FCC53DB4F8A
:10223000198218821A8234E0E32EF12CB12C80919D
:102240009F028B0D813404F18F73082E000C990BC3
:10225000C816D90691F48091C2048E9DA0018F9D6D
:10226000500D112455954795559547959E016091C0
:10227000C1048091C0040E94A50DB00EF1E0EF1AD8
:10228000F108E9F61F5FAACF87FFDFCF90910B011E
:10229000890FDBCF90E0019660910B0170E00E9406
:1022A000B734ACCF0F931F93CF93DF938091090185
:1022B00090910A0123E0829FF0011124EC53FB4F1F
:1022C000891740F1C0E0D3E060910B01C61740F1DF
:1022D0000E94590E2091050180919E02820F8093E9
:1022E0009E0290910601920F90930601191654F4E4
:1022F000082E000C990B40910B014150550B84178F
:1023000095071CF0219520930501DF91CF911F9136
:102310000F9108951182108212828F5F3396D0CF71
:102320000C2F10E070E0C8010E94B7342091090121
:10233000820F482F50E020919E02022E000C330B9A
:1023400002171307BCF020910601022E000C330B7C
:10235000201731077CF08D9F900111242C533B4FA7
:102360004091C2046091C1048091C0040E94A50DF7
:10237000CF5FAACFFA01EE0FFF1FE40FF51FEC535A
:10238000FB4F118210821282F3CF8F929F92AF92F5
:10239000BF92CF92DF92EF92FF920F931F93CF9352
:1023A000DF93EC014C81042F10E09801D8010E94CA
:1023B00002359B01AC010E9418354B015C01E0E243
:1023C000F0E0E01BF10BA5E5B0E0AC019B010E9441
:1023D00018356B017C019F01DF010E94FA349B01DB
:1023E000AC010E9423359B01AC01280D391D4A1D0B
:1023F0005B1DC701B6010E94CB34F22E822F90E004
:1024000039E23F1560F143E0249F90011124359596
:102410002795122F109500E085E5E82EEF188091A2
:102420000B01081758F10E94590E9C8181E09923F5
:1024300019F0903219F48FEF809304018091040118
:10244000890F8C83DF91CF911F910F91FF90EF90B7
:10245000DF90CF90BF90AF909F908F90089525E52B
:1024600030E0B901681B790B9B01220F331F260F47
:10247000371F37FFCCCF2F5F3F4FC9CF8E2D01FDC8
:102480008F2D20910901622F600F7727771F9B0105
:10249000220F331F260F371F2C533B4F412F6091C4
:1024A000C1040E94A50D0F5FBACF0F931F93CF9366
:1024B000DF93EC0110E000E090910B019017110602
:1024C00009F06CF40E94590E8C8190E001968170A5
:1024D00099278C83DF91CF911F910F9108952091BF
:1024E0000901A801420F511D9A01220F331F240F29
:1024F000351F2C533B4F4C816091C1048091C00427
:1025000096959017110651F04CF0442349F04091F4
:10251000C2040E94A50D0F5F1F4FCECF4423B9F315
:1025200040E0F7CF4F925F926F927F928F929F928F
:10253000AF92BF92CF92DF92EF92FF920F931F93D1
:10254000CF93DF93FC016280448081E08483E1EFDC
:10255000F3E07490E0E7F4E0E491812C75E0972ECD
:10256000F2E0CF2EDD24D394AA24AA94B12C5524D2
:102570005A94E7190E2F10E080910B01881690F005
:10258000DF91CF911F910F91FF90EF90DF90CF904F
:10259000BF90AF909F908F907F906F905F904F9083
:1025A0000C94590EE82CF12C82E0861568F09E9C64
:1025B000F0019F9CF00D1124E056FD4F8091C00466
:1025C00080838091C1048183411023C09E9CF001CF
:1025D0009F9CF00D1124E056FD4F13821282209132
:1025E0000901C701820F911D9C01220F331F280F83
:1025F000391F2C533B4F9E9CF0019F9CF00D1124E2
:10260000E056FD4F4281618180810E94A50D839437
:10261000B3CF9E9CE0019F9CD00D1124C056DD4F8E
:102620008B818823E9F081508B83859DC001112423
:102630006C8170E00E94A334FB01FF27EF50FC4F38
:102640008491E82FE719E59DC0011124B8010E948B
:10265000A3348091C204689FB00111247A83BFCF54
:102660000E9477352091C204269521582C9DA00107
:102670002D9D500D1124452F5527841795070CF0DB
:10268000AECF82E0861588F40E947735B5010E94AE
:10269000B73488830E9477352091C1042695622F34
:1026A00070E00E94B734280F29839E9CF0019F9C04
:1026B000F00D1124E056FD4F12828091C204893C36
:1026C00058F088EC9E9CF0019F9CF00D1124E05680
:1026D000FD4F8483838383CF8431A0F784E1F2CFDD
:1026E000EFEBF4E080818E7F808360817181828155
:1026F00093810E94C40D1092EC032FEF80E792E0CB
:10270000215080409040E1F700C000000C94590E29
:10271000EFEBF4E080818E7F80831092EC032FEF4B
:1027200080E792E0215080409040E1F700C0000037
:102730000C94590E1092EC038091E90381110AC0A8
:1027400081E08093E9038091BF0481708093E80366
:102750000C94881308956091BF04669570E04BE077
:1027600050E08CE091E00E949035892B19F481E0D3
:102770008093EC030E94B4289093E3038093E203D8
:1027800008959091BF0490FF35C09170811128C0C9
:1027900092609093BF04662351F06091BF047091E2
:1027A000C0048091C1049091C2040E94C40D609144
:1027B000BF04669570E04BE050E08CE091E00E9431
:1027C0009035892BA1F01092EC0381E08093E50312
:1027D0004091C2046091C1048091C0040C949F1088
:1027E0008B3210F09465D5CF880F982BD2CF0E94F2
:1027F000AB13EBCF0895682F9091BF04969581E0BD
:10280000890F8B3208F081E00C94C11381E00C94A5
:10281000FB13682F9091BF0496958FEF890F09F4F1
:102820008AE20C94C11381E00C94091461E00C94C9
:10283000C113EFEBF4E080818160808386950C9476
:1028400016148091BF0480FD0C9470130C9419141D
:1028500060E00C94C1138091EA0381112EC00E94A4
:102860002F27811104C00E94D4270E94E00D0E94EE
:10287000C00D6093BF047093C0048093C104909313
:10288000C2046E7F61F40E94E00D0E94C00D60934F
:10289000BF047093C0048093C1049093C2040E944B
:1028A000AA0D1092EC038091BF0480FF03C08695AF
:1028B0000E94281481E08093EA030895EFEBF4E08E
:1028C00080818160808386950C9428141092E9039E
:1028D0008091E80381110E945E140C94AB130F9356
:1028E0001F93CF93DF938091EC03882309F496C064
:1028F0008091EB03E091BF04E695E81BE093E403CD
:10290000823091F5F0E0E351FC4FE491CE2FD0E01E
:1029100004E51FE08091E503882361F01092E50350
:102920000E94B4289093E3038093E2031092E7039C
:102930001092E6030E94B428E091E203F091E303D1
:102940008E1B9F0B8F3F9F4708F068C0EC0FFD1F49
:10295000F093E303E093E20382EE93E0F801DF916A
:10296000CF911F910F910994863049F4F0E0E65120
:10297000FC4FE491CE2FD0E008E61FE0CBCF8930AA
:1029800051F4E695F0E0E951FC4FE491CE2FD0E010
:1029900002EA10E1BFCF8F3051F4E695F0E0EC5140
:1029A000FC4FE491CE2FD0E00FED10E1B3CF853195
:1029B00049F4F0E0EF51FC4FE491CE2FD0E002E576
:1029C00011E1A8CFC8E2D0E005EC11E1883109F4AB
:1029D000A1CF833239F4EFEDF3E0C591D49108E74C
:1029E0001FE098CFC4EFD1E005E512E1843209F48D
:1029F00091CFC0EDD7E004E91DE0853209F08ACF20
:102A00008E2F63E00E949734E92FF0E0E452FC4FF0
:102A1000E491CE2FD0E002E912E17CCFDF91CF919B
:102A20001F910F910895FA01811101C0FB010994D2
:102A3000CF93DF93C82FD62F0E94F00D8C1740F054
:102A40000E94F00D8D1720F4DF91CF910C940614A5
:102A50008C2FDF91CF910C9416141F93CF93DF939B
:102A6000EC01FB011281112309F4C2C00E947726F8
:102A70008272CC3CFCE5DF0709F4A0C008F044C03A
:102A8000C63CECE5DE0709F485C0F0F4C33C9CE5E8
:102A9000D90709F475C048F4C23CDC4509F46CC0A0
:102AA000812FDF91CF911F910895C43C9CE5D907F8
:102AB00009F46BC040E650E163E570E1C53CDC45DC
:102AC00079F70E9413155AC0C93CFCE5DF0709F4E9
:102AD0006BC068F4C73CECE5DE0709F460C04FE664
:102AE00050E16EE770E1C83CDC4559F3D9CFCA3CF0
:102AF0009CE5D90709F45DC043E25EE06CE07EE04E
:102B0000CB3CDC45F1F2CCCFC13DFCE5DF0709F45D
:102B100064C098F4CE3C9CE5D90709F458C008F489
:102B200052C0CF3CFCE5DF0709F454C0C03DDC4592
:102B300009F0B6CF6EE089E01CC0C43D9CE5D90722
:102B400009F451C058F4C23DFCE5DF0709F448C060
:102B5000C33DDC4509F0A4CF88E136C0C53D9CE506
:102B6000D90709F443C06AE285E2CD35DD4509F0B5
:102B700097CF0E94181502C00E94211410E090CF38
:102B800043E154E166E074E19CCF46E054E163E147
:102B900074E197CF43E550E160E670E192CF4EE7F4
:102BA00050E16FE670E18DCF4CE950E16DE870E1E6
:102BB00088CF4DE850E16CE970E183CF4CE05EE0F6
:102BC00063E27EE07ECF81E00E941614D7CF65E0FD
:102BD00082E0CFCF68E086E0CCCF64E18FE0C9CF60
:102BE00067E185E1C6CF62E289E1C3CF83E2ECCF42
:102BF00011E056CF809A41B34E7F51B35160EFB789
:102C0000F8949B01220F331F260F371F280F391FFF
:102C10002817390741F4EFBF8FE594E00197F1F7EA
:102C200000C000000895DC016D91CD0178E051BB3A
:102C3000000000C067FF41BB660F000000C000C07D
:102C400000C041BB00C07A9591F7E2CF0C942B04F1
:102C5000AF92BF92CF92DF92EF92FF920F931F93AA
:102C6000CF93DF93A1EBB1E02EEA31E085EFA82E00
:102C700083E0B82E64EB71E041E050E00D91802FCD
:102C800082958F7090E0FC01C1A10F707A01002E37
:102C900001C0EE0C0A94EAF7FE2DF095CF23FC015B
:102CA000C1A3C2A1CE29C2A3E90119919E01E12FBE
:102CB000E295EF70F0E0F1A01F706A01012E01C0F3
:102CC000CC0C0A94EAF7EC2CE094EF20E1A2F2A0FD
:102CD000FC28F2A2EC0188A190E002C095958795AE
:102CE0000A95E2F78170E0A1F0E002C0F595E79562
:102CF0001A95E2F790E0E0FD92E0892BF5018193CF
:102D00005F016A177B0709F0B9CFDF91CF911F915F
:102D10000F91FF90EF90DF90CF90BF90AF9008950C
:102D20006F927F928F929F92AF92BF92CF92DF92DB
:102D3000EF92FF920F931F93CF93DF9305EF13E072
:102D400081EBC82E81E0D82E9EEAE92E91E0F92E83
:102D500022EF822E23E0922ECFEED3E0712C612C55
:102D600034E0A32EB12CD801EC91EE0FEE0FED93D1
:102D70008D01D6012D916D01A22FA295AF70B0E00B
:102D800090968C9190E02F7002C0959587952A952A
:102D9000E2F781709927D7014D917D01A42FA2956B
:102DA000AF70B0E090962C9130E04F7002C0359536
:102DB00027954A95E2F7A9014170552720FF02C0E7
:102DC00042E050E0842BE82BD8011197EC93EF7090
:102DD000F0E0E256FE4F8081F4019081890F8083FC
:102DE00020E0843044F088818F5F888360E0872D05
:102DF0000E94261621E0D4018C918D3F44F48881F5
:102E00008150888361E0872D0E94261621E0F4011D
:102E10008081082E000C990BB5010E94B734D401B3
:102E20008D934D01622A73942196B3E07B129BCF60
:102E3000862DDF91CF911F910F91FF90EF90DF9042
:102E4000CF90BF90AF909F908F907F906F9008959C
:102E500083E290E00E949D35813289F484E290E023
:102E60000E949D35813159F485E290E00E949D35A4
:102E700091E0803209F090E0892F8170089580E020
:102E8000FCCFCF93C82F6FEF811161E283E290E016
:102E90000E94B1356FEFC11161E184E290E00E94C0
:102EA000B1356FEFC11160E285E290E0CF910C94F3
:102EB000B13580E00E9441170C942927089586E2DD
:102EC00090E00E949D35682F70E090E080E00895CA
:102ED00086E290E00C94B1350E945E170E9428179C
:102EE00081110CC060E070E0CB010E9468170E9465
:102EF00011190E94FD1981E00C9441170895CF9398
:102F0000FB01C281CC2309F19C0122513F452031B4
:102F1000310520F582510E940D1AC0E08C2FCF910F
:102F2000089581E00E94D02443E062E081E00E94A5
:102F3000AB05F3CF81E00E94F12443E062E081E041
:102F40000E94AB05EBCF82E0F6CF8031FFE59F0713
:102F500089F381319F45B9F3C1E0E0CF8031EFE5DE
:102F60009E07F9F281319F45C9F682E0DBCF2FEF52
:102F7000FC0120830895CF93DF93EC018881813891
:102F8000A9F028F4803871F0DF91CF91089582384C
:102F900081F08338C9F70E943B0E89830E943E0E60
:102FA0008A83F2CF0E94410E8983EECF0E94F00DFA
:102FB000FBCF0E94260EF8CFCF93DF93EC018881E0
:102FC0008138E1F028F4803869F0DF91CF910895DD
:102FD000823811F18338C9F70E94410E482F6A8167
:102FE000898108C0D9810E943E0EC82F0E943B0EE5
:102FF0004D2F6C2FDF91CF910C949F1089810E94EF
:1030000028148981811104C0DF91CF910C94881319
:10301000DF91CF910C945E148981DF91CF910C9454
:10302000380EEF92FF920F931F93CF93DF93EC0133
:10303000062FDC01ED91CD01E150E33108F0ADC088
:10304000F0E0EA5FF94C0C94ED34198289E08A8350
:10305000602FCE01DF91CF911F910F91FF90EF90E4
:103060000C94AC2D8981823069F0833071F081300D
:10307000D9F40E94C0280E94F3346A837B838C8336
:103080009D83E6CF0E945F17F6CF7E01B2E0EB0E84
:10309000F11C10E0812F0E942109F70181937F012B
:1030A0001F5F1A30B9F7D4CF602FCE010E94B71737
:1030B000CFCF89818230C1F76A817B818C819D81EC
:1030C0000E94F3340E946817C3CF4B816A818981C3
:1030D0000E94E3189827892798279D838C83B8CF6F
:1030E0002C813D813227232732274B816A818981B8
:1030F0000E94FC18ADCF0E941119AACF0E94DC17C4
:10310000A7CF0E94BB17A4CF0E94D60DA1CF0E94CB
:10311000A61989839DCF0E94A819982789279827E7
:103120009A83898395CF6B8170E089819A81AE0102
:103130004C5F5F4F9827892798270E94AB1988CF4B
:103140006B8170E089819A81AE014C5F5F4F982757
:10315000892798270E94D2197BCF0E94FD1978CF2A
:103160000E94D018D6CF6B8170E089819A81AE0120
:103170004C5F5F4F9827892798270E94491968CF8D
:103180006B8170E089819A81AE014C5F5F4F982717
:10319000892798270E946F195BCF8FEF888358CFBC
:1031A00084E0089590E1699FB001112450E0440F3C
:1031B000551F640F751F90EA899F600D711D1124C2
:1031C000CB01879608950F931F93CF93DF930E94AF
:1031D000D2188C010E949D35C82FD0E0DC2FCC275F
:1031E000C80101960E949D359E01282BC901DF91DF
:1031F000CF911F910F9108950F931F93CF93DF935A
:10320000122F032F0E94D218EC01602F0E94B135BB
:10321000612FCE010196DF91CF911F910F910C94F8
:10322000B135AF92BF92CF92DF92EF92FF921F9390
:10323000CF93DF938CEAC82E80E0D82ED0E07601C1
:10324000C0E014C0F50125913491412F6C2F8D2FD2
:103250000E94FC1882E0A80EB11C1F5F183091F785
:1032600080E1E80EF11CCF5FCA3019F0570110E081
:10327000E9CFDF5F80EAC80ED11CD43001F7DF91BF
:10328000CF911F91FF90EF90DF90CF90BF90AF90C4
:103290000895EF92FF920F931F93CF93DF93EC016A
:1032A0008A017C01E60EF71ECE018796CE15DF055A
:1032B00039F4DF91CF911F910F91FF90EF90089516
:1032C000C03822E0D20740F40E949D35F801808387
:1032D0000F5F1F4F2196E8CFF8011082F9CFCF92F0
:1032E000DF92EF92FF920F931F93CF93DF937C01B6
:1032F0006A018C01060F171FEC01CE018796C017DB
:10330000D10749F4DF91CF911F910F91FF90EF907A
:10331000DF90CF900895C03822E0D20740F4FE013C
:10332000EE19FF09EC0DFD1D60810E94B13521965B
:10333000E4CF462F843038F47A3028F4683018F41B
:10334000672F0C94E31890E080E0089580E10895E1
:1033500089E591E00895EF92FF920F931F93CF9329
:10336000DF93EC018A017C01E60EF71ECE01895540
:103370009D4FCE15DF0539F4DF91CF911F910F914D
:10338000FF90EF900895C93521E0D20740F40E94E4
:103390009D35F80180830F5F1F4F2196E7CFF8011D
:1033A0001082F9CFCF92DF92EF92FF920F931F938B
:1033B000CF93DF937C016A018C01060F171FEC018C
:1033C000CE0189559D4FC017D10749F4DF91CF91A8
:1033D0001F910F91FF90EF90DF90CF900895C93526
:1033E00021E0D20740F4FE01EE19FF09EC0DFD1DAE
:1033F00060810E94B1352196E3CFCF93DF93C7EA76
:10340000D2E060E0CE010E94B1352196C11584E082
:10341000D807B9F7DF91CF910895DF92EF92FF922D
:103420000F931F93CF93DF9300D000D0CDB7DEB7BB
:10343000F82E8FE08F1540F08FEF93E00E949D35BE
:1034400007EA12E08823C1F00F900F900F900F90C1
:10345000DF91CF911F910F91FF90EF90DF90089532
:10346000011584E0180781F3C8010E949D35811180
:1034700001C0FA940F5F1F4FF110F2CF19821A8228
:103480001B821C82DD24D39478018FEFE81AF80A9E
:10349000C8010E949D3589831A828823A9F29FEF73
:1034A000980F933078F48A83D9820E5F1F4FC7013B
:1034B0000E949D358B83882339F2CE0101960E94AC
:1034C0000707E2CF8701F9CF0F931F93CF93DF93C5
:1034D000C42FD22FFC0182818823C9F04093FA03C4
:1034E0000E94B4289093F9038093F80380E28C0F34
:1034F000883008F050C0C77081E001C0880FCA95BD
:10350000EAF7DF91CF911F910F910C94DF1E10917C
:10351000FA03141335C08091F8039091F9030E94C7
:10352000CC28883C910560F5C0E2CD0F1D17B9F09D
:1035300080E2810F883040F4177081E001C0880F6D
:103540001A95EAF70E94E61EC83048F481E09D2FE4
:10355000977001C0880F9A95EAF70E94DF1E802FAE
:103560000E94D71EC830B8F4D77081E001C0880F20
:10357000DA95EAF7DF91CF911F910F910C94E61E37
:1035800080E28C0F883038F4C77081E001C0880F6A
:10359000CA95EAF7EFCFDF91CF911F910F91089570
:1035A0000F939C01CB01233F4CE5340759F1A8F45C
:1035B000283DFCE53F0701F1293D4CE53407D1F1F9
:1035C000273D3C4591F406E221EE41EE67ED7CE5B6
:1035D0000E94641A80E00F910895253FFCE53F07A3
:1035E000E9F0B0F0263F3C45F9F0FC0182818823E8
:1035F00039F11092FA03EFCF07E225EE45EE68EDC0
:103600007CE5E6CF06E221EE40EE63EF7CE5E0CF1D
:1036100007E225EE44EE64EF7CE5DACF06E221EE28
:1036200042EE65EF7CE5D4CF07E225EE46EE66EF8D
:103630007CE5CECF08E221E045EE69ED7CE5C8CF20
:1036400081E0C9CFCF93DF93EC01FB018281882316
:1036500009F419C1C230FCE5DF07C0F1C6319CE5B1
:10366000D90730F09E012A5F3C452930310570F5BD
:103670000E9442279093A6048093A504C031ECE5F4
:10368000DE0709F4CFC008F05BC0C8308CE5D8076E
:1036900009F4B6C088F5C430ECE5DE0709F4A8C02B
:1036A000C0F4C2308CE5D80709F49CC08091A50411
:1036B0008260C330DC4509F498C08091A5049091E4
:1036C000A6040E9450270E944E2180E0DF91CF91F6
:1036D00008958091A5048061C630ECE5DE0709F409
:1036E00084C08091A5048860C730DC4508F47DC0A3
:1036F0008091A504806279C0CC308CE5D80709F4AC
:1037000089C070F48091A5048C60CA30ECE5DE07B6
:1037100009F46BC008F478C08091A5048E7F65C061
:10372000CE308CE5D80709F479C08091A5048B7F51
:10373000CF30DC4508F459C08091A5048F7E55C078
:10374000CB3FECE5DE0709F457C030F5C3318CE51B
:10375000D80709F46FC078F4C131ECE5DE0709F44D
:1037600065C0C231DC4509F0A8CF0E944E2180918E
:10377000A5048F773AC0C5318CE5D80709F462C03B
:1037800008F476C08091A6048160CA3FDC4509F048
:1037900094CF8093A60491CFCF3FFCE5DF0709F4D7
:1037A0004DC088F48091A6048D7FCD3F9CE5D9075C
:1037B00081F38091A6048E7FCE3FDC4550F380914B
:1037C000A6048360E6CFC130FDE5DF0709F459C0E8
:1037D00008F444C080E0C230DD4509F06ECF0E949D
:1037E000D6276BCF8091A50481608093A50465CF17
:1037F0008091A5048460F9CF8091A6048260C9CF2E
:103800008091A5048064F1CF0E944E218091A5048F
:103810008068EBCF8091A5048D7FE7CF8091A504D0
:10382000877FE3CF8091A5048F7DDFCF8091A504B2
:103830008F7BDBCF8091A504837FD7CF8091A604B7
:103840008C7FA7CF8091A50482FB992790F921E076
:10385000922790FB82F990FB83F9C7CF8091A60451
:10386000982F909591708E7F892B90FB81F991CF45
:103870000E944E219091A504892F97FB87F98058CB
:10388000B4CF81E0ACCF81E021CFCF93DF93EB01C8
:1038900086319C4511F50E9477269A81992399F0EB
:1038A0008A7A91E009F490E09093FB03811109C0BA
:1038B00089E20E9431260E94BA2680E0DF91CF91F2
:1038C000089585E3F6CF8091FB03811104C089E25E
:1038D0000E943826F0CF85E3FBCF81E0EFCF9093B5
:1038E0000104809300040895E0910004F091010424
:1038F000309721F00190F081E02D099480E0089547
:10390000E0910004F0910104309721F00280F381EE
:10391000E02D099408952091FE033091FF032817AC
:10392000390771F09093FF038093FE03E091000448
:10393000F0910104309721F00680F781E02D099481
:1039400008952091FC033091FD032817390771F089
:103950009093FD038093FC03E0910004F091010437
:10396000309721F00084F185E02D099408950E949C
:10397000C0286093150470931604809317049093E5
:1039800018046093110470931204809313049093AD
:10399000140408950E94C0286093150470931604BF
:1039A000809317049093180460930D0470930E0491
:1039B00080930F0490931004089585B7806885BFA5
:1039C00085B7806885BF0895089508950C94E41C18
:1039D00008950C94E81C0E94DD1C87E297E20E9487
:1039E00023290E94E51C0C94E61C81E008950C94A8
:1039F000F51C089508950E94F91C0C94FA1C0E946D
:103A0000AB280E9447090E946C170E942B140E9449
:103A100028160C94E91CAF92BF92CF92DF92EF92DE
:103A2000FF920F931F93CF93DF93CDB7DEB72A9703
:103A30000FB6F894DEBF0FBECDBF0E946C09811196
:103A40000E94B71C83E0A82E84E0B82E10E000E0AE
:103A5000C02E802F0E942109E82EF501F1905F0110
:103A6000F81609F455C08091990481FD0E94270938
:103A70008F2D8E25D12CFF24F394982F9F2109F4AC
:103A800042C00E94F71C882399F0DE82CF82EF208B
:103A900081E009F480E088870E94B4288160782F53
:103AA0009A8789874E815F8168858A850E94B01DCB
:103AB000F801ED5FFB4F8081F826F0820E946F14C1
:103AC0000E94901681110E94CA1C0E94B10C0E9493
:103AD000741C90910204891791F10E94741C8093C8
:103AE00002042A960FB6F894DEBF0FBECDBFDF9159
:103AF000CF911F910F91FF90EF90DF90CF90BF90EB
:103B0000AF900C941107D394FF0CF8E0DF12B5CFFF
:103B10000F5F1F4F0A30110509F09ACF8FEF89838D
:103B20008A831B820E94B4288160782F9D838C83B6
:103B300049815A816B818D810E94B01DBFCF2A9629
:103B40000FB6F894DEBF0FBECDBFDF91CF911F91AE
:103B50000F91FF90EF90DF90CF90BF90AF900895BE
:103B6000DF92EF92FF920F931F93CF93DF93CDB726
:103B7000DEB72B970FB6F894DEBF0FBECDBF7A87A6
:103B80008B87F42E052F162FE72ED82E61110E9459
:103B900097261E821D827E2DEC82DD824F2D502FB6
:103BA000612F8D2D9E812B960FB6F894DEBF0FBE30
:103BB000CDBFDF91CF911F910F91FF90EF90DF90DC
:103BC0000C94C423FC01808191810C940326CF9333
:103BD000C82F882309F483C08238C1F40E94741C62
:103BE00081FD7DC089E30E9431260E94BA262FEF15
:103BF00081EE94E0215080409040E1F700C0000049
:103C000089E30E943826CF910C94BA268338A1F418
:103C10000E94741C80FD63C083E50E9431260E94CF
:103C2000BA262FEF81EE94E0215080409040E1F7DA
:103C300000C0000083E5E5CF8438A1F40E94741C25
:103C400082FD4DC087E40E9431260E94BA262FEFE4
:103C500081EE94E0215080409040E1F700C00000E8
:103C600087E4CFCF8CEF8C0F813A90F46C2F80914A
:103C70001701909118010E94ED27882329F08C2FBD
:103C80000E9438260E94BA268C2F0E943126BBCF74
:103C900080E28C0F883048F4C77081E001C0880F43
:103CA000CA95EAF70E947A26AECFEBE5EC0FE33037
:103CB00040F4F0E0EE51FE4F808190E0CF910C9403
:103CC0008B1CC85AC73158F4EC2FF0E0EE0FFF1FE1
:103CD000EC54FE4F80819181CF910C94A11CCF9127
:103CE0000895882309F44BC0823871F40E94741C33
:103CF00081FF45C089E30E9431260E94BA2689E3EC
:103D00000E9438260C94BA26833859F40E94741CF9
:103D100080FF35C083E50E9431260E94BA2683E5E4
:103D2000EFCF843859F40E94741C82FF28C087E4C6
:103D30000E9431260E94BA2687E4E2CF9CEF980FBA
:103D4000913AF0F290E2980F983050F4877091E039
:103D500001C0990F8A95EAF7892F0E948026D2CF59
:103D60009BE5980F933020F490E080E00C948B1C3E
:103D7000885A873120F490E080E00C94A11C0895CB
:103D80001F93CF93DF93182FEB010E94E71D20971D
:103D900031F4812FDF91CF911F910C94711E8FE927
:103DA0009FE00197F1F700C000002197F0CF6AE093
:103DB00070E0893311F460E570E00C94C01E882334
:103DC00021F00E947A260C94BA260895882321F0C7
:103DD0000E9480260C94BA260895BF92CF92DF925B
:103DE000EF92FF920F931F93CF93DF936C01D62F27
:103DF000C72FFC011281058102950F700E944F268A
:103E0000E82E8823A1F0E12E112389F08C2F807FEA
:103E1000803429F080E28D0FE12C883040F082E080
:103E20000E940B270E944F2691E0E82EE926BC2E27
:103E3000B2949FE0B922FBE0FB1598F1EB2DF0E086
:103E4000E75EF94C0C94ED340C2F0F70C07F11F02D
:103E50000295007F1123A9F0002359F080E28D0F15
:103E6000883010F0D11109C0802F0E947A260E945C
:103E7000BA268D2F0E94E71D14C0802F0E948A262B
:103E8000F6CF8D2F0E94711E002359F080E28D0F16
:103E9000883010F0D1112BC0802F0E9480260E9404
:103EA000BA26EB2DE850FF0B349720F40E94741CC7
:103EB0000E941107EE2009F488C10E944B2680FD64
:103EC00084C1F60112820E9445260E94D024C601B8
:103ED0000E9406210E944526DF91CF911F910F91EC
:103EE000FF90EF90DF90CF90BF900C94F124802F43
:103EF0000E949026D4CF2C2F2F70F22EC07FC0327C
:103F000019F0F29480EFF822DD2369F0D13049F105
:103F1000112391F1002351F1F601858180FFA9CF92
:103F20008F70858323C0112381F0011106C00E9488
:103F30009D268F290E94DF1EB4CF0130C1F70E9459
:103F40009D268F290E94A326ACCF011106C00E9496
:103F5000B0268F2D0E94E61EA4CF013009F4A1CF18
:103F6000F6CF112329F0063008F09BCF8F2DE2CF3A
:103F7000053008F096CFEDCF002359F3D93309F07F
:103F80001CC1FFEF27EE33E0F15020403040E1F755
:103F900000C000008D2F0E94711E83CF8C2F86954C
:103FA0008695837069F0813009F07BCF8D2F9C2F2F
:103FB0009370111102C090E080E00E94A11C71CFAB
:103FC0008D2F9C2F9370111102C090E080E00E9411
:103FD0008B1C67CF8C2F837009F041C0111161CF0A
:103FE0004D2F429546954770440F440F0D2F0F708B
:103FF00010E030E020E0042E04C0000F111F221F4B
:10400000331F0A94D2F760E070E0CB01D4FF0FC0F9
:104010006FE070E080E090E004C0660F771F881FBB
:10402000991F4A95D2F76095709580959095C695A1
:10403000C695C370602B712B822B932BC23049F035
:1040400058F4C13019F00E9482242BCF0E947024B2
:1040500028CF0E94942425CF0E946E2422CF8695DB
:10406000112311F08C2F8170882309F41ACF4D2F62
:10407000429546954770440F440F0D2F0F7010E086
:1040800030E020E0042E04C0000F111F221F331F58
:104090000A94D2F760E070E0CB01D4FF0FC06FE06C
:1040A00070E080E090E004C0660F771F881F991FC2
:1040B0004A95D2F76095709580959095C695C6956E
:1040C000C370602B712B822B932BC23049F058F4B4
:1040D000C13019F00E944725E4CE0E943525E1CE7B
:1040E0000E945925DECE0E94AA24DBCECF70112378
:1040F00029F08C2F0E94D0248D2F1CCF8D2F0E9451
:10410000E61E8C2F0E94F124CCCED23F89F160F4C0
:10411000D03FC9F0D13F29F1112309F442C0011168
:10412000A8CE8C2F8F7121C0D33F39F1D43FA1F796
:10413000112369F1CF718C2F0E94D02463E08C2F62
:104140000E94F026AECE112341F0053008F0A9CE32
:104150008C2F8F710E941425A4CE063008F0A1CEBA
:10416000F7CF8C2F8F71112369F20E94D02499CE42
:104170008C2F8F711123C9F3C5CF112329F08C2FF8
:104180008F710E94BB248DCE0E94B6248ACE81E01E
:104190000E940B27023008F484CE82E00E940B2795
:1041A00080CE002379F0D93341F49FEFE7EEF3E0BE
:1041B0009150E040F040E1F7EBCE8FE39CE90197AE
:1041C000F1F7E6CE8C2F8F719DCFDF91CF911F91AC
:1041D0000F91FF90EF90DF90CF90BF9008950F93D5
:1041E0001F93CF93DF93EC01688179818A810E94CC
:1041F0000D268C010E946B250E946D24B801CE0112
:10420000DF91CF911F910F910C94ED1ECF93DF930F
:10421000EC018B819C81892B29F0888199818923EC
:104220008F3F59F4DF91CF910895CE010E94EF2086
:10423000CE01DF91CF910C944C05CE010E94D305A5
:104240008111F3CF0E944F26882361F38A8188234E
:1042500049F382E0DF91CF910C940B27882321F062
:104260000E948A260C94BA260895882321F00E9481
:1042700090260C94BA26089590E080E00E948B1C52
:1042800090E080E00E94A11C0E9497260E949A263E
:104290000C94BA260E943F260C943C210E9487264B
:1042A0000C944A21E92FE295EF70E250EE3070F461
:1042B000F0E0EB5DF94C0C94ED34803F19F020F404
:1042C000883E20F481E00895843FE1F380E0089582
:1042D000883EC0F3813FD1F7F5CF93FB882780F963
:1042E00008950E9403260C945221CF93DF9300D0AF
:1042F00000D00F92CDB7DEB70F900F900F900F90B8
:104300000F90DF91CF910895CF93DF9300D000D02D
:1043100000D0CDB7DEB726960FB6F894DEBF0FBE3D
:10432000CDBFDF91CF9108951F93CF93DF93C091BD
:104330001A0416E080911B048C1304C0DF91CF9106
:104340001F910895D0E01C9FF0011D9FF00D1124D6
:10435000E45EFB4F4081518162817381848195814C
:104360000E9484212196C770E5CF40914C04509162
:104370004D0460914E0470914F04809150049091CF
:1043800051040C9484211F93CF93DF9380915104A7
:10439000807FA9F480914E04882389F080911A04CB
:1043A000C0911B0460914C0470914D04A0914F0486
:1043B000B0915004D62FD72316E0C81304C0DF9164
:1043C000CF911F91089590E0109711F0DF3F19F4FD
:1043D00001968770F2CF189F9001199F300D11241C
:1043E000F901E45EFB4F41814713F2CF4081461350
:1043F000EFCF42814111ECCF438154814A1B5B0BCB
:10440000483C510528F7809151048F70806180935A
:104410005104F901EF5DFB4F80818F7080618083D3
:104420008CE494E00E940621DF91CF911F910C94BF
:104430009421AF92BF92CF92DF92EF92FF920F93AF
:104440001F93CF93DF93CDB7DEB761970FB6F89484
:10445000DEBF0FBECDBF8C0185E0F801DE011D96E9
:1044600001900D928A95E1F7F80140815181E28037
:104470008CE4C82E84E0D82E60914F0470915004D3
:104480006115710509F461C190914C0420914D04AE
:10449000892F82238F3F09F458C1A380B480F09004
:1044A0004E04F501E61BF70BFF2009F4FCC08091D8
:1044B0005104382F307FE83CF10508F0B2C03111CB
:1044C00079C0FE2C251323C0941321C0E1101FC016
:1044D0008F708061809351040E94B521C6010E94B3
:1044E000062180915104F80185838F2D61960FB6C6
:1044F000F894DEBF0FBECDBFDF91CF911F910F911A
:10450000FF90EF90DF90CF90BF90AF900895AB28D1
:1045100029F0842F85238F3F09F033C180E0F82FE5
:10452000F170DF2E80FF3CC080911A0420911B04A3
:1045300036E0821315C04D875E878D859E850E946B
:104540000326292F22952F702230F0F0243018F501
:104550009F70F1F0F8019581907FD1F4D12C1EC0AD
:1045600090E0389FF001399FF00D1124E45EFB4F7D
:104570006181651306C06081641303C062816E119E
:104580000FC001968770D5CF9F7011F0882331F34B
:10459000805E883018F3C8010E940621FD2CA5CF4B
:1045A000EE2009F4A2CF80915104816080935104E0
:1045B000F12C9BCF251306C0941304C0F801EE2004
:1045C00009F48DC04D875E878D859E850E9471217F
:1045D000882319F1EE2009F180915104803270F0A6
:1045E00020914C0430914D0438872F831986BB8667
:1045F000AA868C87CE0107960E94062186E0F801E4
:10460000ACE4B4E001900D928A95E1F70E94C321D9
:104610000E94B521FF24F39468CFC8010E940621AF
:10462000F9CF311113C07A2DB98AA88A6E2D8989E4
:104630000E9475218CE494E00E94062186E0F60138
:1046400011928A95E9F70E94B521B2CF25130FC0C8
:1046500094130DC0E1100BC0F8018583C8010E94BE
:10466000062186E0F60111928A95E9F73ECF4D8743
:104670005E878D859E850E947121882371F2EE20D0
:1046800061F280915104803208F4B8CF20914C043B
:1046900030914D043A8329831B82BD82AC828E8384
:1046A000CE010196A9CFE83CF10508F041C0FE2CEF
:1046B000EE2009F4B2CF25132AC0941328C08091AC
:1046C000510480FD1BC0982F907FC1F0F8018583B5
:1046D000903F31F0982F907F905F8F70892B85836A
:1046E000C8010E94062186E0F801ACE4B4E0019024
:1046F0000D928A95E1F70E94B521F7CE86E0F80188
:10470000ACE4B4E001900D928A95E1F7EECE4D87CE
:104710005E878D859E850E94712181116FCF80916A
:104720005104816080935104C8010E940621DDCEAE
:104730007A2DB98AA88A6E2D89890E94752186E012
:10474000F60111928A95E9F7D6CFEE2009F465CFEC
:104750004D875E878D859E850E947121F82E882366
:1047600009F45BCF86E0F801ACE4B4E001900D926F
:104770008A95E1F78CE494E00E94E21D0E94C32137
:10478000BACF81E08E25CBCE1F93CF93DF93CDB7E9
:10479000DEB72C970FB6F894DEBF0FBECDBF4F83A8
:1047A000588769877A878B879C87CE0107960E94F6
:1047B0001922882369F08A859B85892B39F04F81DE
:1047C0005885842F85238F3F09F071C016E05FC0A4
:1047D00086E0FE013796DE01119601900D928A95D2
:1047E000E1F78A859B85892B89F38F8198858923B9
:1047F0008F3F61F320911B0430E0C901019687705F
:10480000992740911A044817190671F40E944E2105
:1048100010921B0410921A0486E0ECE4F4E0DF012D
:104820001D928A95E9F7D2CF96E0929FD001939F8F
:10483000B00D1124A45EBB4FFE01319601900D9284
:104840009A95E1F780931B040E949421BFCF819F2A
:10485000C0011124845E9B4F0E9419228823E9F035
:10486000E0911A041E9FF0011124E45EFB4F408189
:10487000518162817381848195810E94842180911C
:104880001A0490E001968770992780931A0480910A
:104890001A0490911B048913DACF2C960FB6F89462
:1048A000DEBF0FBECDBFDF91CF911F910895698507
:1048B0007A858B859C850E94842188CF08950C94ED
:1048C0005E240E945F24609388047093890480931F
:1048D0008A0490938B040C943C2108950C946124D9
:1048E0000F931F93009188041091890420918A04EA
:1048F00030918B04602B712B822B932B1F910F9186
:104900000C9461240F931F930091880410918904E3
:1049100020918A0430918B04602371238223932396
:104920001F910F910C9461240F931F9300918804A1
:104930001091890420918A0430918B04602771279B
:10494000822793271F910F910C9461240C945E246D
:104950000C94A6240E94A824609384047093850478
:1049600080938604909387040C943C2160E070E06F
:10497000CB010C94AA240F931F9341E050E060E018
:1049800070E08A019B0104C0000F111F221F331F1A
:104990008A95D2F7C901B8011F910F910C94AA24EE
:1049A0000F931F9341E050E060E070E004C0440FBB
:1049B000551F661F771F8A95D2F7809184049091C6
:1049C0008504A0918604B09187048A019B01082B7D
:1049D000192B2A2B3B2BC901B8011F910F910C9465
:1049E000AA240F931F9341E050E060E070E004C000
:1049F000440F551F661F771F8A95D2F7CB01BA0166
:104A0000609570958095909500918404109185042F
:104A1000209186043091870460237123822393239D
:104A20001F910F910C94AA240F931F9341E050E023
:104A300060E070E004C0440F551F661F771F8A9521
:104A4000D2F78091840490918504A0918604B0915E
:104A500087048A019B01082719272A273B27C901B8
:104A6000B8011F910F910C94AA240F931F930091EA
:104A70008404109185042091860430918704602B72
:104A8000712B822B932B1F910F910C94AA240F93BF
:104A90001F93009184041091850420918604309125
:104AA000870460237123822393231F910F910C9419
:104AB000AA240F931F9300918404109185042091E0
:104AC00086043091870460277127822793271F91DE
:104AD0000F910C94AA240895990F990F990F890F9B
:104AE000982F977041E001C0440F9A95EAF7869598
:104AF0008695869595E0899FF0011124EE5AFB4F2B
:104B000030E020E070E05191DF011197CB01022EDF
:104B100002C0969587950A94E2F781708195852762
:104B2000842385278C932F5F3F4F2530310559F71C
:104B30000895990F990F990F890F982F977086955F
:104B40008695869525E0829FF0011124EE5AFB4F51
:104B500050E040E080E0219130E0092E02C036951F
:104B600027950A94E2F721703327042E01C0220F03
:104B70000A94EAF7822B4F5F5F4F4530510559F792
:104B80000895BF92CF92DF92EF92FF920F931F93FF
:104B9000CF93DF938C01C0908404D0908504E09083
:104BA0008604F09087048091880490918904A091F4
:104BB0008A04B0918B04C82AD92AEA2AFB2ACFE1B9
:104BC000D0E0BC2ED701C6010C2E04C0B695A79527
:104BD000979587950A94D2F780FD0EC0219788F7A4
:104BE000B12C8B2DDF91CF911F910F91FF90EF9002
:104BF000DF90CF90BF900895B8018C2F0E941907C5
:104C0000019761F3EECFCF93DF93EC010E94C125B2
:104C1000BE01DF91CF910C9419071F93CF93DF93BF
:104C2000EB0190911904992331F0CB01DF91CF91E1
:104C30001F910C940326882379F0CB010E94C12593
:104C4000182F682FCE010E946C25BE01812FDF91A5
:104C5000CF911F910C941907CB010E949925182F11
:104C6000F4CF682F80911701909118010C9423289C
:104C7000682F80911701909118010C94252880913C
:104C80001701909118010C94272880918C04859528
:104C900085958595089580918C04877008959091ED
:104CA0008C04977081E009F480E008959091A60447
:104CB00092FB222720F9281751F080FB92F990935C
:104CC000A6048091A5049091A6040C945027089501
:104CD0008091A60482FB882780F991E089270C94B3
:104CE000562681E00C94562680E00C94562680913E
:104CF0009804089590919804892B809398040895BE
:104D00008095909198049823909398040895109218
:104D10009804089590919704892B8093970408959F
:104D200080959091970498239093970408951092FA
:104D30009704089510929604089580918D04089523
:104D400008950C94A0269091A60492FD08C090911D
:104D50008D04981721F080938D040C94A12608955A
:104D600080918D04882329F010928D0480E00C94AA
:104D7000A1260895E0911701F091180180919804FF
:104D80008083E0911701F091180180819091970440
:104D9000892B8083E0911701F09118018081909117
:104DA0009604892B808390918D04992381F0E09162
:104DB0001701F09118018081892B80838091170160
:104DC000909118010E94DB2781110E94B0268091EA
:104DD0001701909118010C94801C08950C94ED26F5
:104DE0009091A60492FD10C098E0899F9001112433
:104DF000622B60938C040E94D02480918C04859552
:104E0000859585950C94EE260C94D02410928C04F4
:104E100080E00C94EE2690918C04809589238093F9
:104E20008C04282F277039F4282F082E000C330B00
:104E30009217130621F49091A60492FF07C085955E
:104E4000859585950E94F1240C940627089580E0AD
:104E500008956FEF7FEF90E080E00C94CF3590E005
:104E600080E00E94AB3521E08A3E9E4F09F020E0B1
:104E7000822F089582E090E00C949D3583E090E0CD
:104E80000C949D35CF9384E090E00E949D35C82F0F
:104E900082E290E00E949D35982F8C2FCF9108954B
:104EA000CF93C92F682F84E090E00E94B1356C2F1A
:104EB00082E290E0CF910C94B135AB01BC018FE060
:104EC00090E00C94C335AB01BC0183E190E00C94FD
:104ED000C33560E070E0CB010C94632760E070E0C4
:104EE000CB010E945D270C9469276AEE7EEF90E06B
:104EF00080E00E94CF3560E082E090E00E94B13512
:104F000060E083E090E00E94B13510928804109236
:104F1000890410928A0410928B0460E084E090E08F
:104F20000E94B13560E082E290E00E94B13560E01D
:104F300085E090E00E94B13560E086E090E00E945C
:104F4000B1356FEF87E090E00E94B13540E050E06E
:104F5000BA0188E090E00E94C33560E08DE090E007
:104F60000E94B13540E050E0BA0188E190E00E9433
:104F7000C33560E087E190E00E94B13540E050E049
:104F8000BA018CE190E00E94C33570E060E080E2FD
:104F900090E00E94CF3540E050E0BA0188E190E017
:104FA0000E94C3350C946E270C947527682F8EE0F1
:104FB00090E00C94B1359C012E5F3F4FAC01485FEF
:104FC0005F4F80E02417350709F40895F9019191A6
:104FD0009F019923B9F38F5FF5CF662349F0FC0158
:104FE000329608962191261729F0E817F907D1F78C
:104FF00080E0089581E008959C01FC0132969FEFC6
:1050000080E04191461751F09F3F19F4411101C0D2
:10501000982F8F5F8630A9F79F3F09F40895290FD5
:10502000311D97FD3A95F90162830895FC0132968E
:1050300008962191261303C0DF0111971C92E817EF
:10504000F907B9F708950C94FC270C9416280296DA
:1050500026E0FC0111922A95E9F708950895089534
:105060000C942F2880917906843059F10E943028C1
:1050700080E00E9411070E949A1310929A0488E11E
:1050800090E020E40FB6F894A895809360000FBEDE
:105090002093600083B7817F846083BF83B7816082
:1050A00083BF7894889583B78E7F83BF0FB6F894BB
:1050B000A8958091600088618093600010926000E4
:1050C0000FBE08950895CF930E942E280E946C0968
:1050D0000E946228C0E08C2F0E942109811105C026
:1050E000CF5FCA30C1F7CF91089581E0FCCF08951A
:1050F0000C9477280E944E210E94741C0E94110774
:105100000E9466140C9478281F921FB61F921124D7
:105110008F939F93AF93BF9380919A04811113C093
:105120008091840590918505A0918605B0918705B1
:105130004196A11DB11D8093840590938505A09390
:105140008605B0938705BF91AF919F918F911F9076
:105150001FBE1F90189582E084BD93E095BD9AEF25
:1051600097BD80936E0008952FB7F89480918405C1
:1051700090918505A0918605B09187052FBF089570
:105180002FB7F8946091840570918505809186050C
:10519000909187052FBF08959C014FB7F894809197
:1051A000840590918505A0918605B09187054FBF34
:1051B000821B930B089578941F921FB61F9211249F
:1051C0008F939F93AF93BF938091840590918505B2
:1051D000A0918605B09187050196A11DB11D809310
:1051E000840590938505A0938605B0938705BF91AC
:1051F000AF919F918F911F901FBE1F90189581E0D6
:105200008093E00080E28093D8001092C9008FE183
:105210009EE40197F1F700C0000087E090EBDC010D
:105220008093820690938306A0938406B0938506AC
:1052300088E19CE00FB6F894A895809360000FBEBB
:1052400090936000FFCF909305028093040208952D
:10525000881F8827881F089591E0883F08F490E010
:10526000892F0895982F907F903BE9F040F4903972
:10527000D1F0903AC1F09038B1F080E00895903DBF
:1052800019F020F4903CC9F782E00895903E59F05F
:10529000903F99F7815F8F3080F7E82FF0E0EB5176
:1052A000FE4F8081089583E008950F93022F0F77BA
:1052B000242F2F776F70462F406BDC01ED91FC910E
:1052C00063E070E009950F9108950F93022F0F7717
:1052D000242F2F776F70462F4069DC01ED91FC91F0
:1052E00063E070E009950F9108950F93022F0F77F7
:1052F000242F2F776F70462F4068DC01ED91FC91D1
:1053000063E070E009950F9108950F931F93411585
:1053100020E2520744F49A01305E4115504E2CF4BD
:1053200030E020E002C02FEF3FE38901000F012FA2
:10533000001F110B11952F776F70462F406EDC0107
:10534000ED91FC9163E070E009951F910F91089534
:10535000FC01738362830895FC01758F648F089547
:10536000CF93DF93EC011DA21FA21EA2BC01685DBA
:105370007F4F40EC88519F4F0E94BB2B1B821A82AB
:105380001D821C821F821E82198618861B861A8621
:105390001D861C861F861E86198A188A1B8A1A8AF1
:1053A0001D8A1C8A1F8A1E8A198E188E1B8E1A8EC1
:1053B0001D8E1C8E1F8E1E8E19A218A2DF91CF91FA
:1053C0000895EF92FF920F931F93CF93DF93EA011B
:1053D0008A01060F111D88519F4F7C01C017D1070C
:1053E00039F4DF91CF911F910F91FF90EF900895C5
:1053F0006991C7010E94C22BF1CFFC0171836083C8
:105400000895FC0171A360A30895AF92BF92CF925B
:10541000DF92EF92FF920F931F93CF93DF9300D011
:105420000F92CDB7DEB77C016B01142FB22EA02EE8
:10543000DC0195968C9195978430A9F55A96ED915B
:10544000FC913097E9F1CB01019763E070E00E9495
:10545000A334CB01880F991F860F971F4983BA8207
:105460000B834C2D481B9E012F5F3F4FBC01C70192
:105470000995D7015E96ED91FC91309731F00A2D98
:105480002B2D412FB601C70109950F900F900F905A
:10549000DF91CF911F910F91FF90EF90DF90CF9010
:1054A000BF90AF9008956230710509F455C0633024
:1054B000710599F06130710509F481C0D12CC12CBE
:1054C000D7015C96ED91FC91309799F20A2D2B2D26
:1054D000412FB601C7010995CCCF842F807F803A38
:1054E00011F148F48038D1F0803951F7D701149682
:1054F000ED91FC910AC0803ED9F0803FF1F0803BF5
:10550000F9F6D7011296ED91FC913097C9F2123F4E
:10551000E9F02A2D4B2D612F6F701BC0D701169615
:10552000ED91FC91F2CFD7011896ED91FC91EDCF62
:10553000D7011A96ED91FC91E8CF423F09F6D701C9
:105540001C96ED91FC91309709F4BACF2A2D4B2D82
:1055500062EFC70109958DCF842F807F803DB1F028
:10556000803FC9F0803C09F0ABCFD7011E96ED918A
:10557000FC91309709F4A4CF812F8D7F4B2D612FA3
:105580006F70813F89F0C701099573CFD70150969D
:10559000ED91FC91EECF433F51F4D7015296ED913E
:1055A000FC91309709F48CCF4B2D612FECCF413F0C
:1055B00009F086CFD7015496ED91FC91F2CF842F5C
:1055C0000E942C29882359F0D7015696ED91FC9121
:1055D000309709F475CF612FC70109954ACF163F5F
:1055E00009F06ECFD7015896ED91FC91F1CFFF9263
:1055F0000F931F93CF93DF93EC01162F862F0E94FA
:105600002C29882391F0FDA081E08DA300E020E00B
:10561000412F61E070E0CE010E94052AFDA2DF91DA
:10562000CF911F910F91FF900895812F0E942829FB
:105630004DA1882309F443C0443029F01AA381E026
:1056400090E09FA38EA3812F0E943229813051F0D8
:105650008823A9F0823089F0833079F01DA21FA23F
:105660001EA2DDCF8DA300E020E0412F61E070E0BD
:10567000CE010E94052A1DA2D2CF8DA3D0CF103F0C
:10568000B1F0173F59F72EA13FA1C90163E070E0C7
:105690000E94A334FE01E80FF91F12A3B9016F5F46
:1056A0007F4F7FA36EA30CA12BA14AA1E1CF84E081
:1056B0008DA31AA381E090E09FA38EA3B0CF4423D3
:1056C00009F4ADCF2EA13FA1C90163E070E00E94B3
:1056D000A334FE01E80FF91F12A3B9016F5F7F4FDA
:1056E0007FA36EA38130910569F0029709F097CFEF
:1056F0000CA12BA14AA1CE010E94052A8DA18430C4
:10570000C9F68DCF00E0423009F089CFF2CFCF92B9
:10571000DF92EF92FF920F931F93CF93DF93EC01F1
:10572000E8A1F9A1309709F009956E0188EEC80E3D
:10573000D11CC6010E94F12B10E000E0E82EF12CF4
:105740000E151F0548F0DF91CF911F910F91FF902B
:10575000EF90DF90CF90089560E0C6010E94052C85
:10576000682FCE010E94F72A61E0C6010E94152C25
:105770000F5F1F4FE5CFFC01428374836383118267
:10578000108208951F93CF93DF93EC01162F0E9490
:105790002C2C482F298130E0C90101966A8170E0E4
:1057A0000E94B73458815817190641F4842F0E947B
:1057B0002F2C80E0DF91CF911F9108958B819C81E8
:1057C000280F391FF9011083898190E001966A81C1
:1057D00070E00E94B7348983842F0E942F2C81E0CF
:1057E000E9CFCF93DF93EC010E942C2C9981288183
:1057F000921740F0C92FC21B0E942F2C8C2FDF91D3
:10580000CF910895CA819C0FF5CFFC018081860F4E
:105810009927991F628170E00E94B73423813481F7
:10582000280F391FF901808108951F93CF93DF93CB
:10583000EC01162F0E942C2C282F8881810F99278C
:10584000991F6A8170E00E94B7348883822FDF91AC
:10585000CF911F910C942F2C8FB7F89408958FBF80
:105860000895089508950F931F93CF93DF9300D069
:1058700000D000D00F92CDB7DEB78C01CE010196DB
:105880000E94C62E81110BC027960FB6F894DEBF7A
:105890000FBECDBFDF91CF911F910F9108958A81E7
:1058A0000E9432299A819D839B819E839C819F8344
:1058B00081110AC08981843079F0873069F086309F
:1058C00069F08530D9F681E0AE014B5F5F4F682FFC
:1058D000C8010E94E129D2CF83E0F6CF82E0F4CF65
:1058E000DF92EF92FF920F931F93CF93DF9300D03D
:1058F00000D0CDB7DEB77B01142FD22E4A832B8385
:105900000C83842F0E943229811129C082E0E8167D
:10591000F10401F183E0E816F10439F0EA94EF288C
:1059200069F485E0173F21F404C087E0073F09F0E0
:1059300084E08983CE0101960E94C12E0F900F90C2
:105940000F900F90DF91CF911F910F91FF90EF90EB
:10595000DF90089587EFD812EBCF86E0EACF12955B
:105960001F701983E7CF0E941A0A88E895E00E9409
:10597000B02960E77CE288E895E00E94FD2963E3B6
:105980007CE288E895E00E94012A61E37CE288E8F5
:1059900095E00E94AC2962E37CE288E895E00C94F3
:1059A000A8299B01409179064430C1F4FC01918102
:1059B0009F709093E90050E040E064E070E0C9011E
:1059C0000E94B72F81110BC09091E80095FD07C090
:1059D0009091E8009E779093E800089582E0089502
:1059E00020917906243091F4FC0181818F7080939D
:1059F000E9009091F3008091F200892B49F08091A9
:105A0000E8008E778093E8000C94653182E0089579
:105A100080E00895FC0180917906843059F49181E9
:105A20009F709093E9008091E80080FF03C0CF0150
:105A30000C94F02C08959B0140917906443011F0AC
:105A400080E00895FC0196819F709093E900809119
:105A5000E80082FFF5CF8091E80085FFF1CF50E0AC
:105A600040E064E070E0C9010E9406308091E800E7
:105A700085FD05C08091E8008B778093E80081E088
:105A800008958091A30408950895CF93DF9300D0E3
:105A90000F92CDB7DEB790917906943011F58983D6
:105AA0007B836A839093E9008FEF9091E8008150A7
:105AB00095FD06C095ED9A95F1F700008111F5CF9F
:105AC0008091E80085FF0DC050E040E063E070E0A9
:105AD000CE0101960E94B72F8091E8008E778093C7
:105AE000E8000F900F900F90DF91CF910895BC01C7
:105AF00084E00C94452DBC0183E00C94452DCF939C
:105B0000DF93EC0181E08093E9008FEF9091E80052
:105B1000815095FD06C095ED9A95F1F70000811131
:105B2000F5CF8091E80085FF14C050E040E068E0C8
:105B300070E0CE010E94B72F8091E8008E778093AD
:105B4000E80088E0FE01ABE9B4E001900D928A958F
:105B5000E1F7DF91CF910895CF93FC01603221F5F9
:105B600080917906843001F5C091E900CF702091D1
:105B7000EC00922F917020FD90E8C92B82E0809379
:105B8000E9008091E80080FF0CC050E040E060E256
:105B900070E0CF010E94B72F8091E8008E7780934C
:105BA000E800CF70C093E900CF9108958091780606
:105BB000811109C00E9496310E94F3318091E20068
:105BC00084608093E2000895109278060895089505
:105BD0000895089542E061EC81E00E94123142E2B2
:105BE00061EC84E00E94123142E261EC82E00E94AA
:105BF000123142E260EC83E00E94123142E361E83C
:105C000085E00E94123142E361E886E00C94123193
:105C100080917B06833009F461C030F48130D1F18A
:105C2000823009F49DC008958A3009F489C08B3010
:105C300009F46FC0893009F050C080917A06813232
:105C400009F04BC080917E0690917F06009719F075
:105C5000029709F042C08091E800877F8093E800B6
:105C60008091E80082FF35C09091F3008091F200AE
:105C7000029729F48091F1008B7F813021F480918B
:105C8000F1008093A3048091E8008B778093E80073
:105C90000C94463180917A06813AF9F48091E800BB
:105CA000877F8093E80080917E0690917F06892B04
:105CB00061F468E08BE994E070E00E9455308091D7
:105CC000E8008B778093E800089560E090E080E042
:105CD000F3CF809179068111C3CF089580917A0620
:105CE000813AD9F780917E0690917F06892BA9F79A
:105CF0008091E800877F8093E8008091E80080FF32
:105D0000FCCF80912F018093F1008091E8008E7785
:105D1000BDCF80917A06813201F780917E06909105
