:100000000C9419050C9460050C9460050C94600523
:100010000C9460050C9460050C9460050C946005CC
:100020000C9460050C9460050C944B2F0C941F30BD
:100030000C9420260C9460050C9460050C946005CB
:100040000C9460050C9460050C9460050C9460059C
:100050000C9460050C9477260C9460050C94600554
:100060000C9460050C9460050C9460050C9460057C
:100070000C9460050C9460050C9460050C9460056C
:100080000C9460050C9460050C9460050C9460055C
:100090000C9460050C9460050C9460050C9460054C
:1000A0000C9460050C9460050C946005456E636FBC
:1000B00064657220332072696768740A00456E6354
:1000C0006F6465722033206C6566740A00456E6348
:1000D0006F64657220322072696768740A00456E29
:1000E000636F6465722032206C6566740A00456E29
:1000F000636F64657220312072696768740A004515
:100100006E636F6465722031206C6566740A004D01
:10011000582053776974636820382D380A004D5889
:100120002053776974636820382D370A004D5820B2
:1001300053776974636820382D360A004D58205370
:10014000776974636820382D350A004D582053773D
:100150006974636820382D340A004D58205377693C
:1001600074636820382D330A004D58205377697422
:10017000636820382D320A004D5820537769746324
:100180006820382D310A004D582053776974636810
:1001900020372D380A004D58205377697463682042
:1001A000372D370A004D582053776974636820371C
:1001B0002D360A004D582053776974636820372D17
:1001C000350A004D582053776974636820372D3401
:1001D0000A004D582053776974636820372D330A1D
:1001E000004D582053776974636820372D320A0018
:1001F0004D582053776974636820372D310A004DBC
:10020000582053776974636820362D380A004D589A
:100210002053776974636820362D370A004D5820C3
:1002200053776974636820362D360A004D58205381
:10023000776974636820362D350A004D582053774E
:100240006974636820362D340A004D58205377694D
:1002500074636820362D330A004D58205377697433
:10026000636820362D320A004D5820537769746335
:100270006820362D310A004D582053776974636821
:1002800020352D380A004D58205377697463682053
:10029000352D370A004D582053776974636820352F
:1002A0002D360A004D582053776974636820352D28
:1002B000350A004D582053776974636820352D3412
:1002C0000A004D582053776974636820352D330A2E
:1002D000004D582053776974636820352D320A0029
:1002E0004D582053776974636820352D310A004DCD
:1002F000582053776974636820342D380A004D58AC
:100300002053776974636820342D370A004D5820D4
:1003100053776974636820342D360A004D58205392
:10032000776974636820342D350A004D582053775F
:100330006974636820342D340A004D58205377695E
:1003400074636820342D330A004D58205377697444
:10035000636820342D320A004D5820537769746346
:100360006820342D310A004D582053776974636832
:1003700020332D380A004D58205377697463682064
:10038000332D370A004D5820537769746368203342
:100390002D360A004D582053776974636820332D39
:1003A000350A004D582053776974636820332D3423
:1003B0000A004D582053776974636820332D330A3F
:1003C000004D582053776974636820332D320A003A
:1003D0004D582053776974636820332D310A004DDE
:1003E000582053776974636820322D380A004D58BD
:1003F0002053776974636820322D370A004D5820E6
:1004000053776974636820322D360A004D582053A3
:10041000776974636820322D350A004D5820537770
:100420006974636820322D340A004D58205377696F
:1004300074636820322D330A004D58205377697455
:10044000636820322D320A004D5820537769746357
:100450006820322D310A004D582053776974636843
:1004600020312D380A004D58205377697463682075
:10047000312D370A004D5820537769746368203155
:100480002D360A004D582053776974636820312D4A
:10049000350A004D582053776974636820312D3434
:1004A0000A004D582053776974636820312D330A50
:1004B000004D582053776974636820312D320A004B
:1004C0004D582053776974636820312D310A0052EA
:1004D0006F7461727920456E636F64657220330AB0
:1004E00000526F7461727920456E636F646572208B
:1004F000320A00526F7461727920456E636F6465D1
:100500007220310A0054616374696C652053776905
:1005100074636820340A0054616374696C65205305
:10052000776974636820330A0054616374696C6589
:100530002053776974636820320A005461637469D8
:100540006C652053776974636820310A00605D61CF
:100550005D625D635D0000645D655D665D675D684D
:100560005D695D6A5D6B5D6C5D6D5D6E5D6F5D703F
:100570005D715D725D735D745D755D765D775D78EF
:100580005D795D7A5D7B5D7C5D7D5D7E5D7F5D809F
:100590005D815D825D835D845D855D865D875D884F
:1005A0005D895D8A5D8B5D8C5D8D5D8E5D8F5D90FF
:1005B0005D915D925D935D945D955D965D975D98AF
:1005C0005D995D9A5D9B5D9C5D9D5D9E5D9F5DA05F
:1005D0005DA15DA25DA35DA45DA55DA65D000000BB
:1005E00000000000002A2B2800000000000000008E
:1005F000000000000000000029000000002C1E3454
:1006000020212224342627252E362D3738271E1F59
:10061000202122232425263333362E37381F040584
:10062000060708090A0B0C0D0E0F101112131415F2
:10063000161718191A1B1C1D2F3130232D350405D0
:10064000060708090A0B0C0D0E0F101112131415D2
:10065000161718191A1B1C1D2F3130354C000000BD
:10066000000000000000000000000000000000008A
:10067000000000000000000000000000000000007A
:10068000007E0F00D4FFFFFFC7000000781E0F059B
:1006900000047F3F1F643214643214783C1E1E1421
:1006A0000A052223252628292A2C2D2F30323335DE
:1006B00036383A3B3D3E4042434547494A4C4E500E
:1006C00051535557595A5C5E6062646668696B6D38
:1006D0006F71737577797B7D7F81838587898A8C3C
:1006E0008E90929496989A9C9E9FA1A3A5A7A8AA43
:1006F000ACAEAFB1B3B4B6B8B9BBBCBEBFC1C2C378
:10070000C5C6C7C9CACBCCCDCED0D1D2D2D3D4D511
:10071000D6D7D7D8D9D9DADADBDBDBDCDCDCDCDC3A
:10072000DDDDDDDDDCDCDCDCDCDBDBDBDADAD9D912
:10073000D8D7D7D6D5D4D3D2D2D1D0CECDCCCBCAA0
:10074000C9C7C6C5C3C2C1BFBEBCBBB9B8B6B4B3C6
:10075000B1AFAEACAAA8A7A5A3A19F9E9C9A98965C
:100760009492908E8C8A89878583817F7D7B79772F
:100770007573716F6D6B6968666462605E5C5A590F
:1007800057555351504E4C4A4947454342403E3DD0
:100790003B3A3836353332302F2D2C2A292826255E
:1007A0002322FFAA7F554000010203040506070F1C
:1007B0000E0D0C0B0A090810111213141516171F31
:1007C0001E1D1C1B1A191820212223242526272F21
:1007D0002E2D2C2B2A292830313233343536373F11
:1007E0003E3D3C3B3A393800010101010101010164
:1007F00001020202020202020202030303030303D4
:1008000003030404040404040405050505050606A1
:10081000060606070707070708080808090909095F
:100820000A0A0A0B0B0B0C0C0C0D0D0D0E0E0E0F05
:100830000F0F101011111112121313141415151695
:10084000161717181819191A1A1B1B1C1D1D1E1E06
:100850001F20202122222324242526262728292957
:100860002A2B2C2D2D2E2F30313232333435363782
:1008700038393A3B3C3D3E3F404142434445464780
:1008800048494A4C4D4E4F50515354555658595A59
:100890005B5D5E5F616264656668696B6C6D6F70FD
:1008A00072737577787A7B7D7E8082838587888A6C
:1008B0008C8E8F91939596989A9C9EA0A2A3A5A7A3
:1008C000A9ABADAFB1B3B5B7BABCBEC0C2C4C6C99F
:1008D000CBCDCFD1D4D6D8DBDDDFE2E4E7E9EBEE58
:1008E000F0F3F5F8FAFDFF140346006500750069A2
:1008F000006C006C0065003600340000000C0379C9
:100900000079006E006D0074000000040309040902
:10091000029F00040100A0FA090400000103010184
:100920000009211101000122400007058103080090
:100930000A0904010001030000000921110100015E
:100940002232000705820320000A080B020201017F
:100950000000090402000001010000092401000157
:100960000900010309040300020103000007240138
:1009700000014100062402010100062402020200D7
:1009800009240301030102010009240302040101F7
:1009900001000905040240000500000525010101D0
:1009A000090583024000050000052501010312012D
:1009B000100100000008D804D8E80100010200017D
:1009C00005010980A101850319012AB70015012637
:1009D000B700950175108100C0050C0901A10185C2
:1009E0000419012AA002150126A0029501751081A3
:1009F00000C005010906A101050719E029E7150056
:100A00002501950875018102950175088101050789
:100A1000190029FF150026FF0095067508810005BD
:100A20000819012905950575019102950175039134
:100A300001C011241FBECFEFDAE0DEBFCDBF04B688
:100A400003FE27C080916A0690916B06A0916C0608
:100A5000B0916D068730904BA740B04BD1F4109207
:100A60006A0610926B0610926C0610926D0614BE08
:100A700084B7877F84BF0FB6F894A89580916000F3
:100A8000886180936000109260000FBEE0E0F8E3A0
:100A9000099511E0A0E0B1E0E8E4F7E602C00590B6
:100AA0000D92A43FB107D9F726E0A4EFB1E001C051
:100AB0001D92AA36B207E1F70E94322C0C9437330C
:100AC0000C940000FC01DB0112968C91882309F440
:100AD000E2C0E056FD45E734F10508F0DDC0E75C13
:100AE000FC4C0C9427328BE395E00E94030880E0D5
:100AF000089589E295E0F9CF87E195E0F6CF85E0AA
:100B000095E0F3CF83EF94E0F0CF81EE94E0EDCF6A
:100B10008FEC94E0EACF80EC94E0E7CF81EB94E0B7
:100B2000E4CF82EA94E0E1CF83E994E0DECF84E889
:100B300094E0DBCF85E794E0D8CF86E694E0D5CF8C
:100B400087E594E0D2CF88E494E0CFCF89E394E0C6
:100B5000CCCF8AE294E0C9CF8BE194E0C6CF8CE0A1
:100B600094E0C3CF8DEF93E0C0CF8EEE93E0BDCF86
:100B70008FED93E0BACF80ED93E0B7CF81EC93E0B7
:100B8000B4CF82EB93E0B1CF83EA93E0AECF84E9B8
:100B900093E0ABCF85E893E0A8CF86E793E0A5CFBD
:100BA00087E693E0A2CF88E593E09FCF89E493E0C6
:100BB0009CCF8AE393E099CF8BE293E096CF8CE1D0
:100BC00093E093CF8DE093E090CF8EEF92E08DCFC6
:100BD0008FEE92E08ACF80EE92E087CF81ED92E0B7
:100BE00084CF82EC92E081CF83EB92E07ECF84EAE7
:100BF00092E07BCF85E992E078CF86E892E075CFEE
:100C000087E792E072CF88E692E06FCF89E592E0C5
:100C10006CCF8AE492E069CF8BE392E066CF8CE2FE
:100C200092E063CF8DE192E060CF8EE092E05DCF05
:100C30008FEF91E05ACF80EF91E057CF81EE91E0B6
:100C400054CF82ED91E051CF83EC91E04ECF84EB15
:100C500091E04BCF85EA91E048CF86E991E045CF1E
:100C600087E891E042CF88E791E03FCF89E691E0C5
:100C70003CCF8AE591E039CF8BE491E036CF8CE32D
:100C800091E033CF8DE291E030CF8EE191E02DCF36
:100C90008FE091E02ACF81E0089581110AC08FEFA3
:100CA00090E0611102C08EEE90E00E94030881E0A6
:100CB0000895813039F48EED90E06111F6CF8DEC1E
:100CC00090E0F3CF823099F78DEB90E06111EDCF9A
:100CD0008CEA90E0EACF0E94021583E20C94FF14A4
:100CE00081E008950C94620508950C9474061F9396
:100CF000CF93DF9300D000D00F92CDB7DEB74983FA
:100D00005A836B833091080489819A8131111DC007
:100D10006623B9F02223A9F00E945D23182F682FC3
:100D200089819A810E94082369817A81812F0F909D
:100D30000F900F900F900F90DF91CF911F910C9417
:100D400015080E943523182FEFCF0E945D2369817B
:100D50007A81EDCFFC01262F408151816281738120
:100D600084810C947706CF93DF93EC0160E00E94BE
:100D7000AA06BE01DF91CF910C9475060E94080A65
:100D80000C942D0A0C94300A08950E94EA1E0E94C9
:100D9000C4062FEF84E39CE0215080409040E1F7AF
:100DA00000C000000C949B260F931F93CF93DF93FA
:100DB0008C0161E00E94AA06EC01B8010E94720653
:100DC000882309F441C0B801CE010E945B0B88233F
:100DD000D9F1B801CE010E947D188823A9F1B8018C
:100DE000CE010E94CF18882379F1B801CE010E946C
:100DF000F219882349F1B801CE010E941616882302
:100E000019F1F8018281882361F0CB35FDE5DF0718
:100E100021F170F4C115ECE5DE07A1F0CF3DDC4512
:100E2000C9F0C801DF91CF911F910F910C9470060A
:100E3000CC358DE5D807A1F0CD35DD4591F70E9481
:100E40000424EFCF0E94C50680E0DF91CF911F916F
:100E50000F9108950E947025F7CF0E940D24E1CFD5
:100E60000E941024DECFDF92EF92FF920F931F9328
:100E7000CF93DF93E82FF0E0E352FA4FD490282F7E
:100E800026952695269530E0F901E358F94F04910F
:100E9000877010E0082E02C0159507950A94E2F7B6
:100EA00001701127F901E359F94FE490F12C082E54
:100EB00002C0F594E7940A94E2F791E0E922FF2456
:100EC000F901E35AF94FC491D0E002C0D595C79516
:100ED0008A95E2F7C170DD270115110519F081EE41
:100EE0000E94911BE114F10419F086EE0E94911BFF
:100EF0008D2D0E94811CEF2819F086EE0E941B1C8C
:100F0000012B19F081EE0E941B1CCD2B51F08CE2BD
:100F1000DF91CF911F910F91FF90EF90DF900C9494
:100F2000811CDF91CF911F910F91FF90EF90DF9087
:100F30000895EF92FF920F931F93CF93DF938C014D
:100F4000F62E8AE0E82EF8018491882309F454C033
:100F5000813009F04DC0E8012196FE018491813075
:100F600091F42196FE0184910E94811C8E010F5FF5
:100F70001F4F8F2D815038F3EFE9FFE03197F1F7E4
:100F800000C00000F7CF823039F4E8012296FE015C
:100F900084910E94911BEACF833039F4E8012296B4
:100FA000FE0184910E941B1CE1CF8430F9F6E80118
:100FB0002296FE01249190E080E0FE0131962053BC
:100FC000330B2A30310548F0019780F2EFE9FFE05A
:100FD0003197F1F700C00000F7CFE89EA001E99E2D
:100FE000500D1124C901840F951F2491EF01E5CF05
:100FF0000E943307E801BACFDF91CF911F910F9183
:10100000FF90EF90089560E00C94990708950C9478
:10101000060881E008950C940908CF93C82F0E9418
:1010200007088C2FCF910C940B08E72FF0E099E084
:10103000899FE00DF11D112483E0EE0FFF1F8A95BB
:10104000E1F7E60FF11DEE0FFF1FE35BFA4F85910D
:1010500094910895CF93DF930E9415080E9416097A
:10106000EC01811522E59207E8F5811531E593073A
:1010700008F0ACC0883E910510F5803E910570F5F2
:10108000883A910570F4853A910508F078C081306E
:10109000910521F1009711F1049700F5D0E0C0E02F
:1010A0001DC08F3B9105D0F7C85AD0E0CC0FDD1F93
:1010B000C05DDE4F0990D881C02DD4640FC081156A
:1010C00040E5940708F066C0C11580E4D80708F031
:1010D0005EC0CE019A9581159F4100F7CE01DF9148
:1010E000CF910895811536E5930718F5811545E5EB
:1010F000940708F083C0C11584E5D80708F079C0CB
:101100009C2F969596959E0123703327C115D34544
:1011100008F461C0C1E0D0E002C0CC0FDD1F2A9509
:10112000E2F730E2939FC0011124C82BD92BDA6873
:10113000D5CFC1158AE5D80778F4C11599E5D90747
:1011400008F066C0C11528E5D20708F4A7CFDC2F48
:10115000CC27C06FD06AC2CFCE0190568115904285
:1011600008F09CCF8D2F8F710E94AD0990E0982FD1
:10117000882788279F719C012C2BE90147C0C55AFD
:10118000D0E0C25ADE4FC881D0E0D064A7CFDF7074
:10119000D06AA4CFE4E096958795EA95E1F783704D
:1011A0002C2F26952695237040E2249F9001112430
:1011B000382B8C2F8370C1E0D0E002C0CC0FDD1F34
:1011C0008A95E2F7C22BD32BDC6888CFD82FCC27A7
:1011D000C16FD06A83CFC1E0D0E002C0CC0FDD1F69
:1011E0002A95E2F720E2929FC0011124C82BD92B47
:1011F000EBCFDC2FCC27C46FD06A70CF0E94AD0933
:10120000C82FD0E0DC2FCC27CC27DF71D06266CF8F
:101210008C2F8F700E94AD0934E0D695C7953A9512
:10122000E1F7CF709C2FEC01D06958CF823891053F
:10123000B1F1B0F48133910509F475C048F48932F5
:10124000910509F469C08A32910509F473C00895C3
:101250008533910509F459C08933910501F1089549
:10126000833E9105A9F138F4803E9105F9F0823E64
:10127000910549F10895863E9105A9F1873E9105B2
:10128000C9F1843E910519F52091900421FF1FC0FA
:1012900080918F0484FD14C087EE90E00895209122
:1012A0008F042370A1F080EE90E0089520918F04C8
:1012B00020FD47C03091900430FF09C024FF44C096
:1012C00090E080E004C020918F0422FDF7CF0895C4
:1012D00020918F0422FD3BC03091900430FDE3CF7C
:1012E00024FFF5CFEDCF20918F0423FFF0CF24FD15
:1012F000E7CFD2CF20918F0423FD2CC030919004F2
:1013000031FFEECF84EE90E0089520918F0425FF09
:10131000DECF89E290E0089520918F0425FFD7CF9A
:1013200085E390E0089520918F0426FFD0CF8AE2D4
:1013300090E0089520918F0426FFC9CF81E390E0CB
:10134000089589E390E0089583EE90E0089582EE99
:1013500090E0089586EE90E0089590918F0492FFBA
:1013600006C0282F28712830F9F4877F846093FF06
:1013700006C0282F28712831F1F4877E84612091DE
:10138000900420FF06C0382F38713830D9F4877F99
:10139000816021FF06C0282F28712831D1F4877E73
:1013A000816194FD877E0895282F24712430F9F6F9
:1013B0008B7F8860DCCF282F2471243101F78B7E4E
:1013C0008861DDCF382F3171313019F78E7F886019
:1013D000E0CF282F2171213121F78E7E8861E1CF66
:1013E0000C94C5240E947D0A8FE39CE90197F1F7D4
:1013F00000C000000E947D0A80E00E94320A80FF47
:1014000004C00E94F0090C949B2608950C94F209E4
:101410000E94CB24811102C00E9470250E94D62414
:10142000809383040E94DE249093900480938F0421
:101430000E94060A0E94DA24682F70E090E080E0A3
:101440000E940A2260916E0470916F048091700472
:10145000909171040C94442208950C942C0A0895E0
:101460000C942F0AE82FF0E0E656FB4F8081089598
:10147000089580EA8A95F1F7089500C008950C94C4
:10148000390AF894E82FE295EF70F0E031A1282FA7
:101490002F7081E090E001C0880F2A95EAF7982F1D
:1014A0009095932391A392A1892B82A37894089578
:1014B000CF93DF93C9E6D1E089910E94410A81E090
:1014C000C237D807C9F7C1E6D1E089910E94410A25
:1014D00081E0C936D807C9F7E1E9F4E0AAE9B4E048
:1014E00011921D9284E0EA39F807D1F789E00E9451
:1014F000F40ADF91CF910C94BE06CF92DF92EF9267
:10150000FF920F931F93CF93DF93C9E6D1E001E9D8
:1015100014E0D12CEE24E394F12C8991F894E82F77
:10152000E295EF70F0E021A18F70A70102C0440F97
:10153000551F8A95E2F7CA01922F982B91A392A189
:101540008095892382A378940E943D0AE1E6F1E028
:1015500030E020E0C12C4191A42FA295AF70B0E003
:1015600090968C9190E04F7002C0959587954A9522
:10157000E2F780FD35C08E2D022E01C0880F0A943F
:10158000EAF7C82A2F5F3F4F2830310521F7FE01C7
:10159000319780810E94410A0E943F0AF8018081B0
:1015A000C81601F1C08281E0D82A0F5F1F4FF1E019
:1015B000C237DF0709F0B1CF2D2D49E06AE974E0A9
:1015C00081E994E00E94F50A0E94C2068D2DDF9108
:1015D000CF911F910F91FF90EF90DF90CF900895E2
:1015E00080E0CFCF80E0E0CF0895FF920F931F936C
:1015F000CF93DF93F82E092F162FD72FC42F222336
:1016000049F081E08093F8010E9450269093F70101
:101610008093F6018091F8018823A1F08091F60172
:101620009091F7010E946826069760F0EF2DF02F49
:10163000A12FBD2FCE0FDF2FD11DEC17FD0741F4D9
:101640001092F801DF91CF911F910F91FF900895B3
:1016500081918D93F2CF84E08093A3048FE78093F0
:10166000A4048091A504807880648093A504EDEFA4
:10167000F1E08FEF8193DF01A95BBF4F1C9292E0F5
:10168000E534F907B9F71092FC011092FB011092B2
:10169000FA011092F90108959091A304292F2F7057
:1016A00095959595959595959F523CE0239F900D26
:1016B0001124890F0895EF92FF921F93CF93DF9328
:1016C000FB018F3A2CE5920708F085C08F394CE575
:1016D000940708F099C180395CE5950750F5833887
:1016E0002CE5920708F04CC181384CE5940760F472
:1016F00087375CE5950708F02BC18F322CE5920700
:1017000008F0DFC0D1E01DC181384CE5940709F431
:101710002CC182389C45B1F78281882309F4FBC033
:101720008091A304982F9F70993008F0F4C09F5FB8
:1017300025C18D392CE59207A0F582394CE5940737
:1017400008F03BC180395CE5950709F424C1813973
:101750009C45C1F68281882309F4DDC02091A30451
:10176000822F859585958595859586300CF0D3C01B
:1017700091E0980F9295907F959595959595959573
:10178000392F3295307F2F70232B2093A304181606
:101790000CF0C1C097FFBFC08295807F922F9F70D1
:1017A000E0C08D394CE5940709F415C18E399C458C
:1017B00009F0A8CF8281882309F4ADC08091A404E8
:1017C000982F9F779F3709F4A6C0933708F01AC166
:1017D000935F9F77FEC0853B2CE5920709F472C1A9
:1017E000C8F5813B5CE5950709F43EC1D8F48F3A12
:1017F0004CE5940709F41AC1803B9C4509F082CF5F
:101800008281882309F487C02091A404322F331FDA
:101810003327331F9091A504892F8770880F832B5E
:101820008F5F15C16091A4043091A5042281833B90
:10183000ECE59E0709F43AC108F42CC121112FE709
:10184000862F881F8827881F632F6770660F682B75
:1018500042E41BC1883B2CE5920709F446C180F4A1
:10186000863B5CE5950709F42DC1873B9C4509F053
:1018700049CF8281811137C18FEF8093FB014BC02B
:101880008A3B4CE5940709F466C108F44FC18B3BD1
:101890009C4509F037CFD2816091A404862F881F20
:1018A0008827881F6091A5046770660F682BDD2369
:1018B00009F461C14FEF5FE180E795E00E942127C5
:1018C0002AC01091A404212F221F2227221FC09179
:1018D000A504C770CC0FC22B1F77D28121ED280F32
:1018E00030E0A90143505E4F7A01DD23C1F00E9430
:1018F0004C0BD82F212F482F6C2F80E795E00E94AA
:101900000127F701E85BFF4F80818F5F8083F7013C
:1019100080818F3F11F0D0E014C0D083FCCFFA015A
:101920004081E85BFF4F8081815080838111F3CF3C
:10193000212F6C2F80E795E00E9411278FEFF70190
:1019400080838D2FDF91CF911F91FF90EF900895AD
:101950002281222301F38757982F9F708091A3043F
:10196000807F892B8093A304D6CF8281882399F22C
:101970008091A304982F9F7071F2915F9F70F0CFB8
:101980002281222341F28958982F9295907F80914D
:10199000A3048F70E6CF8281882309F4BCCF8091A5
:1019A000A304982F95959595959595959B3F0CF447
:1019B000B2CF915F9295907FECCF2281222309F4E0
:1019C000AACF82599CE0899F902D11249F77809106
:1019D000A404807815C08281882309F49CCF80916B
:1019E000A404982F9F7709F496CF80789F3721F42D
:1019F00085678093A4048FCF9D30D8F39D509F7747
:101A0000892BF7CF8F67F5CF2281222309F483CF6B
:101A10008F599091A40480FB97F99093A404869524
:101A200087709091A504987F892B7DC0828188233F
:101A300009F471CF2091A404322F331F3327331FB1
:101A40009091A504892F8770880F832B815F382F91
:101A50003F7080FB27F92093A404832F8695987FFD
:101A6000982B9093A50457CF8281882309F453CFF4
:101A70006091A404862F881F8827881F6091A50481
:101A80006770660F682B20E04BE780E795E00E94C7
:101A9000F12641CF21112FE7862F881F8827881F25
:101AA000632F6770660F682B40E4EFCF21112FE79B
:101AB000862F881F8827881F632F6770660F682B03
:101AC00041E4E3CF828120E081112FE76091A404FB
:101AD000862F881F8827881F6091A5046770660F6E
:101AE000682B43E4D2CF81E0C8CE8281882309F4F9
:101AF00012CF9091A504292F2695269526952F7013
:101B000081E0820F8F70880F880F880F9778892B5C
:101B10008093A504982F987709F0FDCE220F220F0D
:101B2000220F8778822B8093A504F5CE82818823AB
:101B300009F4F1CE8091A504982F987709F4EBCEA3
:101B4000982F969596959695915F9F70990F990FFE
:101B5000990F877869CFD2816091A404862F881F5E
:101B60008827881F6091A5046770660F682B40E086
:101B700050EED111A1CE50E040E080E795E00E9408
:101B80002127DFCE80E795E00E9423298091F9018B
:101B90009091FA010E9468262091A5042695269529
:101BA00026952F702817190609F0A0F50E945026D7
:101BB0009093FA018093F9018091FB01882351F100
:101BC0006091A404862F881F8827881F6091A50430
:101BD0006770660F682B2091FC0141E080E795E07B
:101BE0000E94F1268091FB019091FC0187FF0DC0BE
:101BF000482F552741950CF45095941715062CF451
:101C00001092FC011092FB010895890F87FD03C01B
:101C10008093FC0108958FE7FBCFEF92FF920F9323
:101C20001F93CF93DF93EB01E82FD11110C0442312
:101C300021F0F0E0E951F84FE4916E2F7E2F8E2FC6
:101C4000DF91CF911F910F91FF90EF9008950D2F8D
:101C500010E0282F30E0442329F02951384FF901B2
:101C6000249130E0F6E0CF9FC0011124EFEFF0E0C7
:101C7000BF010E94DD31AB018C2F90E0880F991FCE
:101C8000A5E5A49FB001A59F700D1124861B970B9D
:101C9000982F990F980FBF01601B710B629FD001A5
:101CA000639FB00D729FB00D11248B2F9D9FB001CB
:101CB0001124672F7727EF01C61BD70BBE01629F48
:101CC000E001639FD00D729FD00D11247F01E91AAE
:101CD000F108E09EB001E19E700DF09E700D1124A0
:101CE000672F7727E61BF70BE29F8001E39F100D1C
:101CF000F29F100D1124E12F722F4230510599F0FF
:101D000048F44115510569F04130510581F0EB2F40
:101D10008D2F07C04430510569F080F046305105E1
:101D2000B1F76E2F8DCFE22F7B2F812FFACFE22FCD
:101D30007D2FF7CFEB2F822F712FF3CF7B2F822FA9
:101D4000ED2FEFCF41E00C940D0E08950C94A20EF0
:101D5000CF93DF93762FE901682F842F0E94A60E80
:101D6000798368838A83DF91CF910895493708F09A
:101D700048E70C94A80E8091A704982F9E7F61F4E9
:101D8000817082608093A7048091AA04893718F03B
:101D900088E78093AA0408958635B0F3817084653E
:101DA000F1CF88E090E00C94D832CF92DF92EF929E
:101DB000FF926B017C010E94BB0EB701A60188E077
:101DC00090E0FF90EF90DF90CF900C94F632E7EA2E
:101DD000F4E083E0808311828FEF828388E783833E
:101DE000148260817181828193810C94D50E8091DF
:101DF000A70480FF02C08695089580E00895909121
:101E0000AB04933018F49F5F9093AB04882351F098
:101E10006091A7047091A8048091A9049091AA04EC
:101E20000C94D50E089581E00C94FF0E9091AB04B4
:101E3000992319F091509093AB04882351F060914D
:101E4000A7047091A8048091A9049091AA040C940D
:101E5000D50E089581E00C94160F21E030E002C009
:101E6000220F331F8A95E2F78091DD039091DE0304
:101E70002823392381E0232B09F480E0089570E0C2
:101E80000C94E3166F927F928F929F92AF92BF92C3
:101E9000CF92DF92EF92FF920F931F93CF93DF9336
:101EA000CDB7DEB7C05CD1090FB6F894DEBF0FBE68
:101EB000CDBF709008019091A70490FF47C0C090DB
:101EC000D003D090D103C114D10409F052C0E7EA85
:101ED000F7E09E012F5F3F4FBE016F537F4FC90157
:101EE000A4914A2F50E0DA01AA0FBB1FA40FB51F1F
:101EF000A455BB4FCD90DD90EC90D901CD92DD92F1
:101F0000ED929D0131966A177B0751F720910701E9
:101F1000672DB3E02B9F800D911D11240E943F0F70
:101F2000C054DF4F0FB6F894DEBF0FBECDBFDF91B8
:101F3000CF911F910F91FF90EF90DF90CF90BF90C6
:101F4000AF909F908F907F906F900895809109013E
:101F500020910A0133E0839FF0011124E455FB4FE7
:101F6000821708F0ACCF1182108212828F5F3396F5
:101F7000F7CF90FFACCFF12CE12C43E0642E8E2DF7
:101F80000E942D0F882309F43CC0F701EE0FFF1FBC
:101F9000EC0DFD1DA590B490A114B10409F497CFE8
:101FA00045E050E0B501CE0101960E94BA320981A8
:101FB0000F3F39F18A81800F9927991F813491054C
:101FC00014F080E490E04C01880C991C880D991D58
:101FD000DC01A455BB4F4D01069D80011124045521
:101FE0001B4F0815190520F0B5E0AB0EB11CD8CF7A
:101FF00098014D816C818B810E94B60E0D5F1F4F41
:10200000F0CF2FEFE21AF20A39E0E316F10409F0FB
:10201000B6CF5DCF9091A70490FF14C090910901B5
:1020200020910A0133E0939FF0011124E455FB4F06
:10203000921710F00C94420F8183608342839F5F5C
:102040003396F6CF0895CF93DF9300D00F92CDB79C
:10205000DEB79091A70490FF0AC09E012F5F3F4F0B
:102060000E94B60E4B8169818A810E940A100F90EE
:102070000F900F90DF91CF910895CF93DF93EC01F4
:10208000EC81F0E0EE55F94F4491E7EAF4E062812B
:1020900081810E9423108C818F5F8C83DF91CF918F
:1020A0000895CF93DF93EC01E7EAF4E04381628186
:1020B0008C810E9423108C818F5F8C83DF91CF9164
:1020C00008950F931F93CF93DF9300D00F92CDB756
:1020D000DEB78C0180918D0281110AC09E012F5FB5
:1020E0003F4F48E76FEF0E94B60E8A8180938D02C2
:1020F000F8016481613069F080918D0240E06623CF
:1021000061F040E0623011F440918D0280E060E0C7
:1021100004C060918D0240E080E00E940A10F80146
:10212000848190E0019663E070E00E94F131848345
:102130000F900F900F90DF91CF911F910F91089505
:10214000AF92BF92CF92DF92EF92FF920F931F93C5
:10215000CF93DF9300D00F92CDB7DEB7182FF62EB6
:10216000042FE22E9091A70490FF29C0E92FE69555
:10217000AE2FB0E0AE58BE4F8C918093DB039E7FB4
:10218000923059F59E012F5F3F4F812F0E94B60E6E
:102190004B8169818A810E940A101093A804F092F1
:1021A000A9040093AA04EE2051F06091A704709155
:1021B000A8048091A9049091AA040E94D50E0F90C2
:1021C0000F900F90DF91CF911F910F91FF90EF90A3
:1021D000DF90CF90BF90AF900895823019F40091B6
:1021E000AA04DBCF863019F41091A804D6CF893029
:1021F000D9F3893191F6E9518E2F8170D82EE69569
:10220000F0E0EE55F84FA590B490C12CBB2460913E
:102210000B01C61618F00E94420FBFCF2C2D30E0E4
:10222000A29EC001A39E900DB29E900D112470E05D
:102230000E94DD31812FD11013C0860F409109011A
:10224000420F532F511D9A01220F331F240F351FA8
:1022500024553B4F402F6F2D0E94B60EC394D7CF0D
:10226000861BECCFE7EAF4E09181282F438162815D
:1022700088E0890F0C94A01081E00C943211E7EAF9
:10228000F4E09181282F4381628188EF890F0C94BB
:10229000A01081E00C943F11E7EAF4E0628128E0AD
:1022A000620F08F46FEF282F438181810C94A010F6
:1022B00081E00C944C11E7EAF4E0628128E0621BB3
:1022C00008F460E0282F438181810C94A01081E004
:1022D0000C945B11E7EAF4E0438128E0420F08F434
:1022E0004FEF282F628181810C94A01081E00C9423
:1022F0006A11E7EAF4E0438128E0421B08F440E079
:10230000282F628181810C94A01081E00C947911B6
:1023100020E00C94A010EF92FF921F93CF93DF93D5
:10232000EC0110E0EE24EA94F12C60910B011617F9
:1023300070F00E94420F9A818C8190FF27C08F5FBE
:102340008C83DF91CF911F91FF90EF9008952091A2
:102350000901422F410F5527551FCA019A01220F2B
:10236000331F280F391F24553B4F70E0C7010E94CF
:10237000F131962F8C814091AA046091A904199F94
:10238000800D11240E94B60E1F5FCFCF8150D8CF91
:10239000BF92CF92DF92EF92FF920F931F93CF9352
:1023A000DF93FC0182810FEF80FF01E010E080915C
:1023B0000B011817C0F00E94420F80918F0201306C
:1023C00009F051C0811102C080910B0181508093AE
:1023D0008F02DF91CF911F910F91FF90EF90DF90CF
:1023E000CF90BF900895C0910901C12ED12CCC0D82
:1023F000DD2DD11DCE01880F991FC80FD91FC455DF
:10240000DB4F198218821A8234E0E32EF12CB12CB2
:1024100080918F028B0D813404F18F73082E000C94
:10242000990BC816D90691F48091AA048E9DA0013B
:102430008F9D500D112455954795559547959E01B3
:102440006091A9048091A8040E94B60EB00EF1E03C
:10245000EF1AF108E9F61F5FAACF87FFDFCF90914F
:102460000B01890FDBCF90E0019660910B0170E0CA
:102470000E94F131ACCF0F931F93CF93DF938091E4
:10248000090190910A0123E0829FF0011124E45593
:10249000FB4F891740F1C0E0D3E060910B01C617F4
:1024A00040F10E94420F2091050180918E02820F1F
:1024B00080938E0290910601920F90930601191657
:1024C00054F4082E000C990B40910B014150550B10
:1024D000841795071CF0219520930501DF91CF917A
:1024E0001F910F9108951182108212828F5F33968F
:1024F000D0CF0C2F10E070E0C8010E94F131209184
:102500000901820F482F50E020918E02022E000C0C
:10251000330B02171307BCF020910601022E000CAA
:10252000330B201731077CF08D9F90011124245527
:102530003B4F4091AA046091A9048091A8040E9495
:10254000B60ECF5FAACFFA01EE0FFF1FE40FF51F03
:10255000E455FB4F118210821282F3CF8F929F922B
:10256000AF92BF92CF92DF92EF92FF920F931F93A1
:10257000CF93DF93EC014C81042F10E09801D80138
:102580000E9435329B01AC010E944B324B015C0131
:10259000E0E2F0E0E01BF10BA5E5B0E0AC019B014F
:1025A0000E944B326B017C019F01DF010E942D32A2
:1025B0009B01AC010E9456329B01AC01280D391DD4
:1025C0004A1D5B1DC701B6010E940532F22E822F03
:1025D00090E039E23F1560F143E0249F900111241F
:1025E00035952795122F109500E085E5E82EEF1818
:1025F00080910B01081758F10E94420F9C8181E0E5
:10260000992319F0903219F48FEF8093040180918F
:102610000401890F8C83DF91CF911F910F91FF905F
:10262000EF90DF90CF90BF90AF909F908F900895E4
:1026300025E530E0B901681B790B9B01220F331FA0
:10264000260F371F37FFCCCF2F5F3F4FC9CF8E2DBF
:1026500001FD8F2D20910901622F600F7727771FD1
:102660009B01220F331F260F371F24553B4F412F4D
:102670006091A9040E94B60E0F5FBACF0F931F930B
:10268000CF93DF93EC0110E000E090910B019017E5
:10269000110609F06CF40E94420F8C8190E00196C3
:1026A000817099278C83DF91CF911F910F910895AD
:1026B00020910901A801420F511D9A01220F331FD9
:1026C000240F351F24553B4F4C816091A904809104
:1026D000A80496959017110651F04CF0442349F048
:1026E0004091AA040E94B60E0F5F1F4FCECF442325
:1026F000B9F340E0F7CF4F925F926F927F928F9243
:102700009F92AF92BF92CF92DF92EF92FF920F9380
:102710001F93CF93DF93FC016280448081E0848328
:10272000E2EAF6E07490E1E2F7E0E491812C75E0F2
:10273000972EF2E0CF2EDD24D394AA24AA94B12CB4
:1027400055245A94E7190E2F10E080910B0188163A
:1027500090F0DF91CF911F910F91FF90EF90DF905C
:10276000CF90BF90AF909F908F907F906F905F9031
:102770004F900C94420FE82CF12C82E0861568F003
:102780009E9CF0019F9CF00D1124E057FD4F80911D
:10279000A80480838091A9048183411023C09E9C5A
:1027A000F0019F9CF00D1124E057FD4F138212821F
:1027B00020910901C701820F911D9C01220F331F37
:1027C000280F391F24553B4F9E9CF0019F9CF00D14
:1027D0001124E057FD4F4281618180810E94B60E35
:1027E0008394B3CF9E9CE0019F9CD00D1124C057D1
:1027F000DD4F8B818823E9F081508B83859DC0015B
:1028000011246C8170E00E94DD31FB01FF27EE5541
:10281000F94F8491E82FE719E59DC0011124B80113
:102820000E94DD318091AA04689FB00111247A834F
:10283000BFCF0E94AA322091AA04269521582C9D30
:10284000A0012D9D500D1124452F55278417950764
:102850000CF0AECF82E0861588F40E94AA32B50152
:102860000E94F13188830E94AA322091A904269502
:10287000622F70E00E94F131280F29839E9CF001A5
:102880009F9CF00D1124E057FD4F12828091AA0405
:10289000893C58F088EC9E9CF0019F9CF00D11241F
:1028A000E057FD4F8483838383CF8431A0F784E195
:1028B000F2CFE7EAF4E080818E7F808360817181CE
:1028C000828193810E94D50E1092DC032FEF80E766
:1028D00092E0215080409040E1F700C000000C944D
:1028E000420FE7EAF4E080818E7F80831092DC0360
:1028F0002FEF80E792E0215080409040E1F700C048
:1029000000000C94420F1092DC038091D9038111D6
:102910000AC081E08093D9038091A70481708093DD
:10292000D8030C94711408956091A704669570E023
:102930004BE050E08CE091E00E94C332892B19F407
:1029400081E08093DC030E9450269093D303809310
:10295000D20308959091A70490FF35C09170811122
:1029600028C092609093A704662351F06091A70459
:102970007091A8048091A9049091AA040E94D50E98
:102980006091A704669570E04BE050E08CE091E028
:102990000E94C332892BA1F01092DC0381E0809366
:1029A000D5034091AA046091A9048091A8040C94D5
:1029B00088118B3210F09465D5CF880F982BD2CF29
:1029C0000E949414EBCF0895682F9091A7049695D8
:1029D00081E0890F8B3208F081E00C94AA1481E029
:1029E0000C94E414682F9091A70496958FEF890FAB
:1029F00009F48AE20C94AA1481E00C94F21461E0C8
:102A00000C94AA14E7EAF4E08081816080838695C3
:102A10000C94FF148091A70480FD0C9459140C941D
:102A2000021560E00C94AA148091DA0381112EC083
:102A30000E94CB24811104C00E9470250E94E70EE1
:102A40000E94D10E6093A7047093A8048093A904F8
:102A50009093AA046E7F61F40E94E70E0E94D10E4B
:102A60006093A7047093A8048093A9049093AA0488
:102A70000E94BB0E1092DC038091A70480FF03C06C
:102A800086950E94111581E08093DA030895E7EAA4
:102A9000F4E080818160808386950C9411151092FA
:102AA000D9038091D80381110E9447150C94941486
:102AB0000F931F93CF93DF938091DC03882309F456
:102AC00096C08091DB03E091A704E695E81BE093B4
:102AD000D403823091F5F0E0E256F94FE491CE2F25
:102AE000D0E00DE310E18091D503882361F01092CE
:102AF000D5030E9450269093D3038093D203109263
:102B0000D7031092D6030E945026E091D203F09191
:102B1000D3038E1B9F0B8F3F9F4708F068C0EC0FBD
:102B2000FD1FF093D303E093D20382ED93E0F8010D
:102B3000DF91CF911F910F910994863049F4F0E015
:102B4000E556F94FE491CE2FD0E001E510E1CBCF6F
:102B5000893051F4E695F0E0E856F94FE491CE2F34
:102B6000D0E00BE811E1BFCF8F3051F4E695F0E0F3
:102B7000EB56F94FE491CE2FD0E008EC11E1B3CF42
:102B8000853149F4F0E0EE56F94FE491CE2FD0E0D4
:102B90000BE312E1A8CFC8E2D0E00EEA12E18831DF
:102BA00009F4A1CF833239F4E0E9F6E0C591D4917C
:102BB00001E610E198CFC4EFD1E00EE313E18432D7
:102BC00009F491CFC0EDD7E005EA1EE0853209F0A7
:102BD0008ACF8E2F63E00E94D131E92FF0E0E357D6
:102BE000F94FE491CE2FD0E00BE713E17CCFDF91DA
:102BF000CF911F910F910895FA01811101C0FB013E
:102C00000994CF93DF93C82FD62F0E94F70E8C170D
:102C100040F00E94F70E8D1720F4DF91CF910C94B5
:102C2000EF148C2FDF91CF910C94FF141F93CF934F
:102C3000DF93EC01FB011281112309F4C2C00E9451
:102C400013248272CD3CFCE5DF0709F4A0C008F034
:102C500044C0C73CECE5DE0709F485C0F0F4C43C91
:102C60009CE5D90709F475C048F4C33CDC4509F478
:102C70006CC0812FDF91CF911F910895C53C9CE5D9
:102C8000D90709F46BC049E451E16CE371E1C63C3A
:102C9000DC4579F70E94FC155AC0CA3CFCE5DF0709
:102CA00009F46BC068F4C83CECE5DE0709F460C0C9
:102CB00048E551E167E671E1C93CDC4559F3D9CFFC
:102CC000CB3C9CE5D90709F45DC04AE25FE063E1D3
:102CD0007FE0CC3CDC45F1F2CCCFC23DFCE5DF0728
:102CE00009F464C098F4CF3C9CE5D90709F458C0B6
:102CF00008F452C0C03DFCE5DF0709F454C0C13DF3
:102D0000DC4509F0B6CF6EE089E01CC0C53D9CE50E
:102D1000D90709F451C058F4C33DFCE5DF0709F4B5
:102D200048C0C43DDC4509F0A4CF88E136C0C63DAB
:102D30009CE5D90709F443C06AE285E2CE35DD455A
:102D400009F097CF0E94011602C00E940A1510E0F8
:102D500090CF4CEF54E16FEE74E19CCF4FEE54E115
:102D60006CEF74E197CF4CE351E169E471E192CFEC
:102D700047E651E168E571E18DCF45E851E166E74D
:102D800071E188CF46E751E165E871E183CF43E126
:102D90005FE06AE27FE07ECF81E00E94FF14D7CF40
:102DA00065E082E0CFCF68E086E0CCCF64E18FE0E1
:102DB000C9CF67E185E1C6CF62E289E1C3CF83E293
:102DC000ECCF11E056CF809A41B34E7F51B35160A2
:102DD000EFB7F8949B01220F331F260F371F280FE0
:102DE000391F2817390741F4EFBF8FE594E00197A9
:102DF000F1F700C000000895DC016D91CD0178E08D
:102E000051BB000000C067FF41BB660F000000C05F
:102E100000C000C041BB00C07A9591F7E2CF0C948E
:102E20004D06AF92BF92CF92DF92EF92FF920F9337
:102E30001F93CF93DF93A0EBB1E02DEA31E085EE55
:102E4000A82E83E0B82E63EB71E041E050E00D91D5
:102E5000802F82958F7090E0FC01C1A10F707A01E4
:102E6000002E01C0EE0C0A94EAF7FE2DF095CF2358
:102E7000FC01C1A3C2A1CE29C2A3E90119919E01FF
:102E8000E12FE295EF70F0E0F1A01F706A01012ED2
:102E900001C0CC0C0A94EAF7EC2CE094EF20E1A2FC
:102EA000F2A0FC28F2A2EC0188A190E002C0959566
:102EB00087950A95E2F78170E0A1F0E002C0F595F0
:102EC000E7951A95E2F790E0E0FD92E0892BF50195
:102ED00081935F016A177B0709F0B9CFDF91CF912A
:102EE0001F910F91FF90EF90DF90CF90BF90AF9028
:102EF00008956F927F928F929F92AF92BF92CF92DE
:102F0000DF92EF92FF920F931F93CF93DF9305EE23
:102F100013E080EBC82E81E0D82E9DEAE92E91E0E7
:102F2000F92E22EE822E23E0922ECFEDD3E0712CEB
:102F3000612C34E0A32EB12CD801EC91EE0FEE0FF2
:102F4000ED938D01D6012D916D01A22FA295AF7049
:102F5000B0E090968C9190E02F7002C09595879587
:102F60002A95E2F781709927D7014D917D01A42F11
:102F7000A295AF70B0E090962C9130E04F7002C0F7
:102F8000359527954A95E2F7A9014170552720FF0D
:102F900002C042E050E0842BE82BD8011197EC935B
:102FA000EF70F0E0E356FE4F8081F4019081890FCD
:102FB000808320E0843044F088818F5F888360E0E4
:102FC000872D0E940F1721E0D4018C918D3F44F48E
:102FD00088818150888361E0872D0E940F1721E04E
:102FE000F4018081082E000C990BB5010E94F1318B
:102FF000D4018D934D01622A73942196B3E07B1224
:103000009BCF862DDF91CF911F910F91FF90EF9075
:10301000DF90CF90BF90AF909F908F907F906F90F8
:1030200008950F931F93CF93DF93C42FD22FFC01EA
:1030300082818823C9F04093EA030E94502690932E
:10304000E9038093E80380E28C0F883008F050C0D9
:10305000C77081E001C0880FCA95EAF7DF91CF9170
:103060001F910F910C94891C1091EA03141335C021
:103070008091E8039091E9030E946826883C9105BD
:1030800060F5C0E2CD0F1D17B9F080E2810F8830E6
:1030900040F4177081E001C0880F1A95EAF70E948A
:1030A000901CC83048F481E09D2F977001C0880FB4
:1030B0009A95EAF70E94891C802F0E94811CC830D3
:1030C000B8F4D77081E001C0880FDA95EAF7DF9194
:1030D000CF911F910F910C94901C80E28C0F88303F
:1030E00038F4C77081E001C0880FCA95EAF7EFCFC6
:1030F000DF91CF911F910F9108950F939C01CB0108
:10310000243F4CE5340759F1A8F4293DFCE53F077D
:1031100001F12A3D4CE53407D1F1283D3C4591F4BD
:1031200006E221EE41EE68ED7CE50E94111880E098
:103130000F910895263FFCE53F07E9F0B0F0273FE7
:103140003C45F9F0FC018281882339F11092EA03B1
:10315000EFCF07E225EE45EE69ED7CE5E6CF06E22E
:1031600021EE40EE64EF7CE5E0CF07E225EE44EE91
:1031700065EF7CE5DACF06E221EE42EE66EF7CE514
:10318000D4CF07E225EE46EE67EF7CE5CECF08E22E
:1031900021E045EE6AED7CE5C8CF81E0C9CFCF9351
:1031A000DF93EC01FB018281882309F419C1C2304D
:1031B000FCE5DF07C0F1C6319CE5D90730F09E0180
:1031C0002B5F3C452930310570F50E94DE24909339
:1031D000900480938F04C031ECE5DE0709F4CFC082
:1031E00008F05BC0C8308CE5D80709F4B6C088F594
:1031F000C430ECE5DE0709F4A8C0C0F4C2308CE5A9
:10320000D80709F49CC080918F048260C330DC45EC
:1032100009F498C080918F04909190040E94EC244E
:103220000E94EA1E80E0DF91CF91089580918F0483
:103230008061C630ECE5DE0709F484C080918F041C
:103240008860C730DC4508F47DC080918F048062BF
:1032500079C0CC308CE5D80709F489C070F480912E
:103260008F048C60CA30ECE5DE0709F46BC008F40B
:1032700078C080918F048E7F65C0CE308CE5D807F2
:1032800009F479C080918F048B7FCF30DC4508F43E
:1032900059C080918F048F7E55C0CC3FECE5DE078E
:1032A00009F457C030F5C3318CE5D80709F46FC075
:1032B00078F4C131ECE5DE0709F465C0C231DC45C4
:1032C00009F0A8CF0E94EA1E80918F048F773AC040
:1032D000C5318CE5D80709F462C008F476C0809146
:1032E00090048160CB3FDC4509F094CF809390043B
:1032F00091CFC115FDE5DF0709F44DC088F4809139
:1033000090048D7FCE3F9CE5D90781F38091900496
:103310008E7FCF3FDC4550F3809190048360E6CFF1
:10332000C230FDE5DF0709F459C008F444C080E06D
:10333000C330DD4509F06ECF0E9472256BCF8091BE
:103340008F04816080938F0465CF80918F048460A7
:10335000F9CF809190048260C9CF80918F048064FE
:10336000F1CF0E94EA1E80918F048068EBCF80919C
:103370008F048D7FE7CF80918F04877FE3CF80918B
:103380008F048F7DDFCF80918F048F7BDBCF809187
:103390008F04837FD7CF809190048C7FA7CF8091BB
:1033A0008F0482FB992790F921E0922790FB82F904
:1033B00090FB83F9C7CF80919004982F90959170DE
:1033C0008E7F892B90FB81F991CF0E94EA1E90910C
:1033D0008F04892F97FB87F98058B4CF81E0ACCF59
:1033E00081E021CFCF93DF93EB0186319C4511F52E
:1033F0000E9413249A81992399F08A7A91E009F422
:1034000090E09093EB03811109C089E20E94CD23E3
:103410000E94562480E0DF91CF91089585E3F6CF96
:103420008091EB03811104C089E20E94D423F0CF84
:1034300085E3FBCF81E0EFCF9093F1038093F0031E
:103440000895E091F003F091F103309721F001909D
:10345000F081E02D099480E00895E091F003F0916F
:10346000F103309721F00280F381E02D0994089553
:103470002091EE033091EF032817390771F09093F4
:10348000EF038093EE03E091F003F091F1033097A6
:1034900021F00680F781E02D099408952091EC0336
:1034A0003091ED032817390771F09093ED03809365
:1034B000EC03E091F003F091F103309721F00084E8
:1034C000F185E02D099408950E945C266093040420
:1034D000709305048093060490930704609300049E
:1034E00070930104809302049093030408950E9452
:1034F0005C26609304047093050480930604909303
:1035000007046093FC037093FD038093FE03909384
:10351000FF03089585B7806885BF85B7806885BF3C
:103520000895089508950C94911A0C946B060E94C6
:103530008A1A83EC94E20E94BF260E94921A0C948D
:10354000931A81E008950C94A11A089508950E9499
:10355000A51A0C94A61A0E9447260E94580A0E9497
:1035600014150E9411170C94951AAF92BF92CF9226
:10357000DF92EF92FF920F931F93CF93DF93CDB71C
:10358000DEB72A970FB6F894DEBF0FBECDBF0E94FC
:103590007D0A81110E94641A83EFA82E83E0B82E61
:1035A00010E000E0C02E802F0E94320AE82EF501C4
:1035B000F1905F01F81609F455C08091830481FDF4
:1035C0000E94380A8F2D8E25D12CFF24F394982F3A
:1035D0009F2109F442C00E94A31A882399F0DE8239
:1035E000CF82EF2081E009F480E088870E94502696
:1035F0008160782F9A8789874E815F8168858A8567
:103600000E945A1BF801ED50FC4F8081F826F08291
:103610000E9458150E94791781110E94771A0E9402
:10362000C20D0E94211A9091F203891791F10E9414
:10363000211A8093F2032A960FB6F894DEBF0FBECC
:10364000CDBFDF91CF911F910F91FF90EF90DF9051
:10365000CF90BF90AF900C940D08D394FF0CF8E07E
:10366000DF12B5CF0F5F1F4F0930110509F09ACF58
:103670008FEF89838A831B820E9450268160782F76
:103680009D838C8349815A816B818D810E945A1B55
:10369000BFCF2A960FB6F894DEBF0FBECDBFDF9125
:1036A000CF911F910F91FF90EF90DF90CF90BF903F
:1036B000AF900895DF92EF92FF920F931F93CF93F5
:1036C000DF93CDB7DEB72B970FB6F894DEBF0FBEF2
:1036D000CDBF7A878B87F42E052F162FE72ED82E95
:1036E00061110E9433241E821D827E2DEC82DD82B8
:1036F0004F2D502F612F8D2D9E812B960FB6F89454
:10370000DEBF0FBECDBFDF91CF911F910F91FF9014
:10371000EF90DF900C946021FC01808191810C94EA
:103720009F23CF93C82F882309F483C08238C1F424
:103730000E94211A81FD7DC089E30E94CD230E9451
:1037400056242FEF81EE94E0215080409040E1F725
:1037500000C0000089E30E94D423CF910C9456242A
:103760008338A1F40E94211A80FD63C083E50E9482
:10377000CD230E9456242FEF81EE94E0215080400B
:103780009040E1F700C0000083E5E5CF8438A1F464
:103790000E94211A82FD4DC087E40E94CD230E9421
:1037A00056242FEF81EE94E0215080409040E1F7C5
:1037B00000C0000087E4CFCF8CEF8C0F813A90F4EB
:1037C0006C2F80911701909118010E948925882300
:1037D00029F08C2F0E94D4230E9456248C2F0E9403
:1037E000CD23BBCF80E28C0F883048F4C77081E0D6
:1037F00001C0880FCA95EAF70E941624AECFEBE508
:10380000EC0FE33040F4F0E0EF51FE4F808190E0A8
:10381000CF910C94381AC85AC73158F4EC2FF0E005
:10382000EE0FFF1FED54FE4F80819181CF910C94DC
:103830004E1ACF910895882309F44BC0823871F451
:103840000E94211A81FF45C089E30E94CD230E9476
:10385000562489E30E94D4230C945624833859F4C7
:103860000E94211A80FF35C083E50E94CD230E946B
:10387000562483E5EFCF843859F40E94211A82FF41
:1038800028C087E40E94CD230E94562487E4E2CF1B
:103890009CEF980F913AF0F290E2980F983050F424
:1038A000877091E001C0990F8A95EAF7892F0E94ED
:1038B0001C24D2CF9BE5980F933020F490E080E059
:1038C0000C94381A885A873120F490E080E00C94E8
:1038D0004E1A08951F93CF93DF93182FEB010E9488
:1038E000911B209731F4812FDF91CF911F910C9480
:1038F0001B1C8FE99FE00197F1F700C000002197A2
:10390000F0CF6AE070E0893311F460E570E00C9468
:103910006A1C882321F00E9416240C9456240895D2
:10392000882321F00E941C240C9456240895BF92F1
:10393000CF92DF92EF92FF920F931F93CF93DF937B
:103940006C01D62FC72FFC011281058102950F70E3
:103950000E94EB23E82E8823A1F0E12E112389F0A9
:103960008C2F807F803429F080E28D0FE12C88300D
:1039700040F082E00E94A7240E94EB2391E0E82E11
:10398000E926BC2EB2949FE0B922FBE0FB1598F12A
:10399000EB2DF0E0E058FC4C0C9427320C2F0F700C
:1039A000C07F11F00295007F1123A9F0002359F088
:1039B00080E28D0F883010F0D11109C0802F0E9455
:1039C00016240E9456248D2F0E94911B14C0802F14
:1039D0000E942624F6CF8D2F0E941B1C002359F035
:1039E00080E28D0F883010F0D1112BC0802F0E9403
:1039F0001C240E945624EB2DE850FF0B349720F432
:103A00000E94211A0E940D08EE2009F488C10E942C
:103A1000E72380FD84C1F60112820E94E1230E9407
:103A20006C22C6010E94B01E0E94E123DF91CF915B
:103A30001F910F91FF90EF90DF90CF90BF900C946B
:103A40008D22802F0E942C24D4CF2C2F2F70F22E69
:103A5000C07FC03219F0F29480EFF822DD2369F0C4
:103A6000D13049F1112391F1002351F1F601858103
:103A700080FFA9CF8F70858323C0112381F00111AE
:103A800006C00E9439248F290E94891CB4CF0130BE
:103A9000C1F70E9439248F290E943F24ACCF011125
:103AA00006C00E944C248F2D0E94901CA4CF013090
:103AB00009F4A1CFF6CF112329F0063008F09BCFEF
:103AC0008F2DE2CF053008F096CFEDCF002359F3CC
:103AD000D93309F01CC1FFEF27EE33E0F15020404D
:103AE0003040E1F700C000008D2F0E941B1C83CFE7
:103AF0008C2F86958695837069F0813009F07BCF95
:103B00008D2F9C2F9370111102C090E080E00E94D5
:103B10004E1A71CF8D2F9C2F9370111102C090E01F
:103B200080E00E94381A67CF8C2F837009F041C063
:103B3000111161CF4D2F429546954770440F440FA8
:103B40000D2F0F7010E030E020E0042E04C0000FB5
:103B5000111F221F331F0A94D2F760E070E0CB01DF
:103B6000D4FF0FC06FE070E080E090E004C0660F0B
:103B7000771F881F991F4A95D2F760957095809599
:103B80009095C695C695C370602B712B822B932B95
:103B9000C23049F058F4C13019F00E941E222BCFD8
:103BA0000E940C2228CF0E94302225CF0E940A2298
:103BB00022CF8695112311F08C2F8170882309F470
:103BC0001ACF4D2F429546954770440F440F0D2F45
:103BD0000F7010E030E020E0042E04C0000F111F31
:103BE000221F331F0A94D2F760E070E0CB01D4FFAC
:103BF0000FC06FE070E080E090E004C0660F771FB8
:103C0000881F991F4A95D2F7609570958095909579
:103C1000C695C695C370602B712B822B932BC23037
:103C200049F058F4C13019F00E94E322E4CE0E941A
:103C3000D122E1CE0E94F522DECE0E944622DBCECA
:103C4000CF70112329F08C2F0E946C228D2F1CCF56
:103C50008D2F0E94901C8C2F0E948D22CCCED23FA3
:103C600089F160F4D03FC9F0D13F29F1112309F463
:103C700042C00111A8CE8C2F8F7121C0D33F39F1E2
:103C8000D43FA1F7112369F1CF718C2F0E946C22D0
:103C900063E08C2F0E948C24AECE112341F00530BE
:103CA00008F0A9CE8C2F8F710E94B022A4CE0630CE
:103CB00008F0A1CEF7CF8C2F8F71112369F20E94EB
:103CC0006C2299CE8C2F8F711123C9F3C5CF11238C
:103CD00029F08C2F8F710E9457228DCE0E94522284
:103CE0008ACE81E00E94A724023008F484CE82E0CC
:103CF0000E94A72480CE002379F0D93341F49FEFAE
:103D0000E7EEF3E09150E040F040E1F7EBCE8FE3D7
:103D10009CE90197F1F7E6CE8C2F8F719DCFDF9153
:103D2000CF911F910F91FF90EF90DF90CF90BF90B8
:103D300008950F931F93CF93DF93EC0168817981EE
:103D40008A810E94A9238C010E9407230E940922D4
:103D5000B801CE01DF91CF911F910F910C94971C68
:103D6000CF93DF93EC018B819C81892B29F0888193
:103D7000998189238F3F59F4DF91CF910895CE0126
:103D80000E94991ECE01DF91CF910C94B306CE0113
:103D90000E94D4068111F3CF0E94EB23882361F3A4
:103DA0008A81882349F382E0DF91CF910C94A72484
:103DB00090E080E00E94381A90E080E00E944E1A65
:103DC0000E9433240E9436240C9456240E94DB2344
:103DD0000C94D81E0E9423240C94E61EE92FE29531
:103DE000EF70E250EE3070F4F0E0E457FC4C0C94CD
:103DF0002732803F19F020F4883E20F481E00895B6
:103E0000843FE1F380E00895883EC0F3813FD1F71D
:103E1000F5CF93FB882780F908950E949F230C9487
:103E2000EE1ECF93DF9300D000D00F92CDB7DEB758
:103E30000F900F900F900F900F90DF91CF910895FA
:103E4000CF93DF9300D000D000D0CDB7DEB7269659
:103E50000FB6F894DEBF0FBECDBFDF91CF910895AE
:103E60001F93CF93DF93C091090416E080910A0459
:103E70008C1304C0DF91CF911F910895D0E01C9F57
:103E8000F0011D9FF00D1124E55FFB4F4081518132
:103E900062817381848195810E94201F2196C77061
:103EA000E5CF40913B0450913C0460913D047091FA
:103EB0003E0480913F04909140040C94201F1F9376
:103EC000CF93DF9380914004807FA9F480913D04DB
:103ED000882389F080910904C0910A0460913B0411
:103EE00070913C04A0913E04B0913F04D62FD7239B
:103EF00016E0C81304C0DF91CF911F91089590E0A0
:103F0000109711F0DF3F19F401968770F2CF189FD8
:103F10009001199F300D1124F901E55FFB4F41819C
:103F20004713F2CF40814613EFCF42814111ECCFCE
:103F3000438154814A1B5B0B483C510528F7809113
:103F400040048F70806180934004F901E05FFB4F73
:103F500080818F70806180838BE394E00E94B01E2B
:103F6000DF91CF911F910C94301FAF92BF92CF92EF
:103F7000DF92EF92FF920F931F93CF93DF93CDB712
:103F8000DEB761970FB6F894DEBF0FBECDBF8C01D0
:103F900085E0F801DE011D9601900D928A95E1F70A
:103FA000F80140815181E2808BE3C82E84E0D82E55
:103FB00060913E0470913F046115710509F461C17F
:103FC00090913B0420913C04892F82238F3F09F478
:103FD00058C1A380B480F0903D04F501E61BF70BB7
:103FE000FF2009F4FCC080914004382F307FE83C6A
:103FF000F10508F0B2C0311179C0FE2C251323C0A1
:10400000941321C0E1101FC08F7080618093400421
:104010000E94511FC6010E94B01E80914004F80109
:1040200085838F2D61960FB6F894DEBF0FBECDBF8E
:10403000DF91CF911F910F91FF90EF90DF90CF9084
:10404000BF90AF900895AB2829F0842F85238F3F30
:1040500009F033C180E0F82FF170DF2E80FF3CC003
:104060008091090420910A0436E0821315C04D871F
:104070005E878D859E850E949F23292F22952F7014
:104080002230F0F0243018F59F70F1F0F80195819E
:10409000907FD1F4D12C1EC090E0389FF001399F61
:1040A000F00D1124E55FFB4F6181651306C060814F
:1040B000641303C062816E110FC001968770D5CF63
:1040C0009F7011F0882331F3805E883018F3C801A7
:1040D0000E94B01EFD2CA5CFEE2009F4A2CF809146
:1040E0004004816080934004F12C9BCF251306C0CF
:1040F000941304C0F801EE2009F48DC04D875E874B
:104100008D859E850E940D1F882319F1EE2009F1EF
:1041100080914004803270F020913B0430913C0447
:1041200038872F831986BB86AA868C87CE0107968F
:104130000E94B01E86E0F801ABE3B4E001900D925E
:104140008A95E1F70E945F1F0E94511FFF24F3949C
:1041500068CFC8010E94B01EF9CF311113C07A2D6B
:10416000B98AA88A6E2D89890E94111F8BE394E079
:104170000E94B01E86E0F60111928A95E9F70E942E
:10418000511FB2CF25130FC094130DC0E1100BC007
:10419000F8018583C8010E94B01E86E0F6011192E5
:1041A0008A95E9F73ECF4D875E878D859E850E9473
:1041B0000D1F882371F2EE2061F28091400480325D
:1041C00008F4B8CF20913B0430913C043A83298312
:1041D0001B82BD82AC828E83CE010196A9CFE83CC2
:1041E000F10508F041C0FE2CEE2009F4B2CF2513F2
:1041F0002AC0941328C08091400480FD1BC0982FD2
:10420000907FC1F0F8018583903F31F0982F907F27
:10421000905F8F70892B8583C8010E94B01E86E055
:10422000F801ABE3B4E001900D928A95E1F70E94AA
:10423000511FF7CE86E0F801ABE3B4E001900D9298
:104240008A95E1F7EECE4D875E878D859E850E942B
:104250000D1F81116FCF80914004816080934004D5
:10426000C8010E94B01EDDCE7A2DB98AA88A6E2DB3
:1042700089890E94111F86E0F60111928A95E9F75B
:10428000D6CFEE2009F465CF4D875E878D859E855C
:104290000E940D1FF82E882309F45BCF86E0F801F9
:1042A000ABE3B4E001900D928A95E1F78BE394E0E3
:1042B0000E948C1B0E945F1FBACF81E08E25CBCE5F
:1042C0001F93CF93DF93CDB7DEB72C970FB6F8943B
:1042D000DEBF0FBECDBF4F83588769877A878B8734
:1042E0009C87CE0107960E94B51F882369F08A85B6
:1042F0009B85892B39F04F815885842F85238F3FEB
:1043000009F071C016E05FC086E0FE013796DE015D
:10431000119601900D928A95E1F78A859B85892BEC
:1043200089F38F81988589238F3F61F320910A0457
:1043300030E0C90101968770992740910904481718
:10434000190671F40E94EA1E10920A0410920904E0
:1043500086E0EBE3F4E0DF011D928A95E9F7D2CF26
:1043600096E0929FD001939FB00D1124A55FBB4FA3
:10437000FE01319601900D929A95E1F780930A041F
:104380000E94301FBFCF819FC0011124855F9B4FCA
:104390000E94B51F8823E9F0E09109041E9FF001F7
:1043A0001124E55FFB4F40815181628173818481DB
:1043B00095810E94201F8091090490E001968770EA
:1043C0009927809309048091090490910A04891324
:1043D000DACF2C960FB6F894DEBF0FBECDBFDF91BB
:1043E000CF911F91089569857A858B859C850E9460
:1043F000201F88CF08950C94FA210E94FB2160931E
:1044000072047093730480937404909375040C94F5
:10441000D81E08950C94FD210F931F9300917204F0
:10442000109173042091740430917504602B712BEA
:10443000822B932B1F910F910C94FD210F931F93AF
:1044400000917204109173042091740430917504EA
:1044500060237123822393231F910F910C94FD21DC
:104460000F931F93009172041091730420917404B0
:104470003091750460277127822793271F910F9130
:104480000C94FD210C94FA210C9442220E944422A7
:1044900060936E0470936F04809370049093710422
:1044A0000C94D81E60E070E0CB010C9446220F9370
:1044B0001F9341E050E060E070E08A019B0104C07E
:1044C000000F111F221F331F8A95D2F7C901B801AF
:1044D0001F910F910C9446220F931F9341E050E0DF
:1044E00060E070E004C0440F551F661F771F8A9577
:1044F000D2F780916E0490916F04A0917004B091F6
:1045000071048A019B01082B192B2A2B3B2BC90113
:10451000B8011F910F910C9446220F931F9341E015
:1045200050E060E070E004C0440F551F661F771F25
:104530008A95D2F7CB01BA016095709580959095D8
:1045400000916E0410916F042091700430917104F9
:1045500060237123822393231F910F910C94462291
:104560000F931F9341E050E060E070E004C0440FFF
:10457000551F661F771F8A95D2F780916E04909120
:104580006F04A0917004B09171048A019B01082707
:1045900019272A273B27C901B8011F910F910C94B5
:1045A00046220F931F9300916E0410916F04209187
:1045B000700430917104602B712B822B932B1F910F
:1045C0000F910C9446220F931F9300916E0410914B
:1045D0006F04209170043091710460237123822351
:1045E00093231F910F910C9446220F931F930091D8
:1045F0006E0410916F042091700430917104602753
:104600007127822793271F910F910C9446220895BA
:10461000990F990F990F890F982F977041E001C05A
:10462000440F9A95EAF786958695869595E0899F39
:10463000F0011124EF5BFB4F30E020E070E051917E
:10464000DF011197CB01022E02C0969587950A943F
:10465000E2F7817081958527842385278C932F5FCE
:104660003F4F2530310559F70895990F990F990F4C
:10467000890F982F977086958695869525E0829F5D
:10468000F0011124EF5BFB4F50E040E080E021910E
:1046900030E0092E02C0369527950A94E2F7217082
:1046A0003327042E01C0220F0A94EAF7822B4F5FB2
:1046B0005F4F4530510559F70895BF92CF92DF9271
:1046C000EF92FF920F931F93CF93DF938C01C090D3
:1046D0006E04D0906F04E0907004F09071048091AB
:1046E000720490917304A0917404B0917504C82A67
:1046F000D92AEA2AFB2ACFE1D0E0BC2ED701C60195
:104700000C2E04C0B695A795979587950A94D2F775
:1047100080FD0EC0219788F7B12C8B2DDF91CF91B2
:104720001F910F91FF90EF90DF90CF90BF90089571
:10473000B8018C2F0E942A08019761F3EECFCF9326
:10474000DF93EC010E945D23BE01DF91CF910C94B9
:104750002A081F93CF93DF93EB01909108049923CC
:1047600031F0CB01DF91CF911F910C949F238823CF
:1047700079F0CB010E945D23182F682FCE010E9493
:104780000823BE01812FDF91CF911F910C942A083D
:10479000CB010E943523182FF4CF682F8091170189
:1047A000909118010C94BF25682F8091170190916A
:1047B00018010C94C12580911701909118010C9457
:1047C000C32580917604859585958595089580917A
:1047D00076048770089590917604977081E009F4CB
:1047E00080E008959091900492FB222720F92817E9
:1047F00051F080FB92F99093900480918F049091F6
:1048000090040C94EC2408958091900482FB8827F6
:1048100080F991E089270C94F22381E00C94F22333
:1048200080E00C94F2238091820408959091820498
:10483000892B809382040895809590918204982317
:1048400090938204089510928204089590918104B7
:10485000892B8093810408958095909181049823F9
:104860009093810408951092810408951092800419
:10487000089580917704089508950C943C249091B4
:10488000900492FD08C090917704981721F08093CE
:1048900077040C943D24089580917704882329F0AF
:1048A0001092770480E00C943D240895E091170164
:1048B000F0911801809182048083E0911701F091BA
:1048C0001801808190918104892B8083E0911701E8
:1048D000F0911801808190918004892B80839091C0
:1048E0007704992381F0E0911701F09118018081FC
:1048F000892B808380911701909118010E94772560
:1049000081110E944C2480911701909118010C9400
:104910002D1A08950C9489249091900492FD10C052
:1049200098E0899F90011124622B609376040E9485
:104930006C22809176048595859585950C948A24C2
:104940000C946C221092760480E00C948A2490914E
:1049500076048095892380937604282F277039F474
:10496000282F082E000C330B9217130621F4909178
:10497000900492FF07C08595859585950E948D22AC
:104980000C94A224089580E008956FEF7FEF90E0EB
:1049900080E00C94023390E080E00E94DE3221E05F
:1049A0008A3E9E4F09F020E0822F089582E090E039
:1049B0000C94D03283E090E00C94D032CF9384E01A
:1049C00090E00E94D032C82F82E290E00E94D03264
:1049D000982F8C2FCF910895CF93C92F682F84E003
:1049E00090E00E94E4326C2F82E290E0CF910C9430
:1049F000E432AB01BC018FE090E00C94F632AB01E5
:104A0000BC0183E190E00C94F63260E070E0CB01F1
:104A10000C94FF2460E070E0CB010E94F9240C9418
:104A200005256AEE7EEF90E080E00E94023360E0B0
:104A300082E090E00E94E43260E083E090E00E9437
:104A4000E432109272041092730410927404109263
:104A5000750460E084E090E00E94E43260E082E26D
:104A600090E00E94E43260E085E090E00E94E43251
:104A700060E086E090E00E94E4326FEF87E090E033
:104A80000E94E43240E050E0BA0188E090E00E94E9
:104A9000F63260E08DE090E00E94E43240E050E0C9
:104AA000BA0188E190E00E94F63260E087E190E090
:104AB0000E94E43240E050E0BA018CE190E00E94B4
:104AC000F63270E060E080E290E00E94023340E065
:104AD00050E0BA0188E190E00E94F6320C940A2579
:104AE0000C941125682F8EE090E00C94E4329C0128
:104AF0002E5F3F4FAC01485F5F4F80E024173507C2
:104B000009F40895F90191919F019923B9F38F5FF9
:104B1000F5CF662349F0FC013296089621912617BD
:104B200029F0E817F907D1F780E0089581E00895AA
:104B30009C01FC0132969FEF80E04191461751F0B5
:104B40009F3F19F4411101C0982F8F5F8630A9F75C
:104B50009F3F09F40895290F311D97FD3A95F901FA
:104B600062830895FC01329608962191261303C0B2
:104B7000DF0111971C92E817F907B9F708950C9413
:104B800098250C94B225029626E0FC0111922A95F4
:104B9000E9F70895089508950C94CB258091610656
:104BA000843059F10E94CC2580E00E940D080E94BB
:104BB00083141092840488E190E020E40FB6F89406
:104BC000A895809360000FBE2093600083B7817F1B
:104BD000846083BF83B7816083BF7894889583B7EF
:104BE0008E7F83BF0FB6F894A8958091600088618E
:104BF00080936000109260000FBE08950895CF93D7
:104C00000E94CA250E947D0A0E94FE25C0E08C2FCA
:104C10000E94320A811105C0CF5FC930C1F7CF9120
:104C2000089581E0FCCF08950C9413260E94EA1E9B
:104C30000E94211A0E940D080E944F150C94142600
:104C40001F921FB61F9211248F939F93AF93BF9310
:104C500080918404811113C080916C0590916D0541
:104C6000A0916E05B0916F054196A11DB11D809375
:104C70006C0590936D05A0936E05B0936F05BF9181
:104C8000AF919F918F911F901FBE1F90189582E04A
:104C900084BD93E095BD9AEF97BD80936E00089513
:104CA0002FB7F89480916C0590916D05A0916E05D9
:104CB000B0916F052FBF08952FB7F89460916C05E0
:104CC00070916D0580916E0590916F052FBF0895CD
:104CD0009C014FB7F89480916C0590916D05A0915F
:104CE0006E05B0916F054FBF821B930B08957894AA
:104CF0001F921FB61F9211248F939F93AF93BF9360
:104D000080916C0590916D05A0916E05B0916F0535
:104D10000196A11DB11D80936C0590936D05A09324
:104D20006E05B0936F05BF91AF919F918F911F90CA
:104D30001FBE1F90189581E08093E00080E2809371
:104D4000D8001092C9008FE19EE40197F1F700C0EE
:104D5000000087E090EBDC0180936A0690936B067D
:104D6000A0936C06B0936D0688E19CE00FB6F894B2
:104D7000A895809360000FBE90936000FFCF909342
:104D8000F5018093F4010895881F8827881F0895EE
:104D900091E0883F08F490E0892F0895982F907F44
:104DA000903BE9F040F49039D1F0903AC1F090385E
:104DB000B1F080E00895903D19F020F4903CC9F7DF
:104DC00082E00895903E59F0903F99F7815F8F30CF
:104DD00080F7E82FF0E0EC51FE4F8081089583E0EA
:104DE00008950F93022F0F77242F2F776F70462F80
:104DF000406BDC01ED91FC9163E070E009950F914F
:104E000008950F93022F0F77242F2F776F70462F5F
:104E10004069DC01ED91FC9163E070E009950F9130
:104E200008950F93022F0F77242F2F776F70462F3F
:104E30004068DC01ED91FC9163E070E009950F9111
:104E400008950F931F93411520E2520744F49A01ED
:104E5000305E4115504E2CF430E020E002C02FEFC0
:104E60003FE38901000F012F001F110B11952F77D0
:104E70006F70462F406EDC01ED91FC9163E070E0B5
:104E800009951F910F910895FC0173836283089522
:104E9000FC01758F648F0895CF93DF93EC011DA201
:104EA0001FA21EA2BC01685D7F4F40EC88519F4F3E
:104EB0000E9457291B821A821D821C821F821E8219
:104EC000198618861B861A861D861C861F861E86D6
:104ED000198A188A1B8A1A8A1D8A1C8A1F8A1E8AA6
:104EE000198E188E1B8E1A8E1D8E1C8E1F8E1E8E76
:104EF00019A218A2DF91CF910895EF92FF920F931C
:104F00001F93CF93DF93EA018A01060F111D885189
:104F10009F4F7C01C017D10739F4DF91CF911F91CA
:104F20000F91FF90EF9008956991C7010E945E294B
:104F3000F1CFFC01718360830895FC0171A360A32C
:104F40000895AF92BF92CF92DF92EF92FF920F93AC
:104F50001F93CF93DF9300D00F92CDB7DEB77C01C4
:104F60006B01142FB22EA02EDC0195968C91959793
:104F70008430A9F55A96ED91FC913097E9F1CB0177
:104F8000019763E070E00E94DD31CB01880F991F2B
:104F9000860F971F4983BA820B834C2D481B9E01B5
:104FA0002F5F3F4FBC01C7010995D7015E96ED9178
:104FB000FC91309731F00A2D2B2D412FB601C701FE
:104FC00009950F900F900F90DF91CF911F910F9146
:104FD000FF90EF90DF90CF90BF90AF900895623038
:104FE000710509F455C06330710599F061307105A0
:104FF00009F481C0D12CC12CD7015C96ED91FC91B4
:10500000309799F20A2D2B2D412FB601C701099532
:10501000CCCF842F807F803A11F148F48038D1F0D2
:10502000803951F7D7011496ED91FC910AC0803E6A
:10503000D9F0803FF1F0803BF9F6D7011296ED915F
:10504000FC913097C9F2123FE9F02A2D4B2D612FC8
:105050006F701BC0D7011696ED91FC91F2CFD7016E
:105060001896ED91FC91EDCFD7011A96ED91FC9138
:10507000E8CF423F09F6D7011C96ED91FC9130979D
:1050800009F4BACF2A2D4B2D62EFC70109958DCFB8
:10509000842F807F803DB1F0803FC9F0803C09F0D3
:1050A000ABCFD7011E96ED91FC91309709F4A4CFB8
:1050B000812F8D7F4B2D612F6F70813F89F0C7014C
:1050C000099573CFD7015096ED91FC91EECF433FF8
:1050D00051F4D7015296ED91FC91309709F48CCFA1
:1050E0004B2D612FECCF413F09F086CFD70154966D
:1050F000ED91FC91F2CF842F0E94C826882359F0AD
:10510000D7015696ED91FC91309709F475CF612F38
:10511000C70109954ACF163F09F06ECFD7015896BF
:10512000ED91FC91F1CFFF920F931F93CF93DF93FB
:10513000EC01162F862F0E94C826882391F0FDA02F
:1051400081E08DA300E020E0412F61E070E0CE011E
:105150000E94A127FDA2DF91CF911F910F91FF9097
:105160000895812F0E94C4264DA1882309F443C0CD
:10517000443029F01AA381E090E09FA38EA3812FF1
:105180000E94CE26813051F08823A9F0823089F028
:10519000833079F01DA21FA21EA2DDCF8DA300E0F7
:1051A00020E0412F61E070E0CE010E94A1271DA206
:1051B000D2CF8DA3D0CF103FB1F0173F59F72EA11A
:1051C0003FA1C90163E070E00E94DD31FE01E80FFC
:1051D000F91F12A3B9016F5F7F4F7FA36EA30CA1CC
:1051E0002BA14AA1E1CF84E08DA31AA381E090E036
:1051F0009FA38EA3B0CF442309F4ADCF2EA13FA12E
:10520000C90163E070E00E94DD31FE01E80FF91F83
:1052100012A3B9016F5F7F4F7FA36EA38130910509
:1052200069F0029709F097CF0CA12BA14AA1CE01FA
:105230000E94A1278DA18430C9F68DCF00E04230B5
:1052400009F089CFF2CFCF92DF92EF92FF920F93C6
:105250001F93CF93DF93EC01E8A1F9A1309709F0F8
:1052600009956E0188EEC80ED11CC6010E948D29D9
:1052700010E000E0E82EF12C0E151F0548F0DF913C
:10528000CF911F910F91FF90EF90DF90CF900895F5
:1052900060E0C6010E94A129682FCE010E949328D8
:1052A00061E0C6010E94B1290F5F1F4FE5CFFC01ED
:1052B0004283748363831182108208951F93CF9376
:1052C000DF93EC01162F0E94C829482F298130E076
:1052D000C90101966A8170E00E94F1315881581726
:1052E000190641F4842F0E94CB2980E0DF91CF91F1
:1052F0001F9108958B819C81280F391FF90110831C
:10530000898190E001966A8170E00E94F131898381
:10531000842F0E94CB2981E0E9CFCF93DF93EC016A
:105320000E94C82999812881921740F0C92FC21B79
:105330000E94CB298C2FDF91CF910895CA819C0FB9
:10534000F5CFFC018081860F9927991F628170E05B
:105350000E94F13123813481280F391FF9018081A6
:1053600008951F93CF93DF93EC01162F0E94C82955
:10537000282F8881810F9927991F6A8170E00E94E8
:10538000F1318883822FDF91CF911F910C94CB292B
:105390008FB7F89408958FBF0895089508950F93D7
:1053A0001F93CF93DF9300D000D000D00F92CDB7E2
:1053B000DEB78C01CE0101960E942D2C81110BC00D
:1053C00027960FB6F894DEBF0FBECDBFDF91CF9109
:1053D0001F910F9108958A810E94CE269A819D8304
:1053E0009B819E839C819F8381110AC08981843027
:1053F00079F0873069F0863069F08530D9F681E040
:10540000AE014B5F5F4F682FC8010E947D27D2CF4E
:1054100083E0F6CF82E0F4CFDF92EF92FF920F931A
:105420001F93CF93DF9300D000D0CDB7DEB77B01C1
:10543000142FD22E4A832B830C83842F0E94CE26D6
:10544000811129C082E0E816F10401F183E0E81639
:10545000F10439F0EA94EF2869F485E0173F21F46C
:1054600004C087E0073F09F084E08983CE010196FC
:105470000E94282C0F900F900F900F90DF91CF91EA
:105480001F910F91FF90EF90DF90089587EFD81252
:10549000EBCF86E0EACF12951F701983E7CF0E9409
:1054A0002B0B80E795E00E944C276CE07AE280E7C6
:1054B00095E00E9499276FEC79E280E795E00E94E1
:1054C0009D276DEC79E280E795E00E9448276EEC1D
:1054D00079E280E795E00C9444279B0140916106B6
:1054E0004430C1F4FC0191819F709093E90050E039
:1054F00040E064E070E0C9010E94F12C81110BC012
:105500009091E80095FD07C09091E8009E779093F8
:10551000E800089582E0089520916106243091F416
:10552000FC0181818F708093E9009091F30080915C
:10553000F200892B49F08091E8008E778093E80093
:105540000C949F2E82E0089580E00895FC018091E4
:105550006106843059F491819F709093E9008091A5
:10556000E80080FF03C0CF010C948C2A08959B01B2
:1055700040916106443011F080E00895FC0196816D
:105580009F709093E9008091E80082FFF5CF8091B1
:10559000E80085FFF1CF50E040E064E070E0C90131
:1055A0000E94402D8091E80085FD05C08091E800B3
:1055B0008B778093E80081E0089580918D040895B1
:1055C0000895CF93DF9300D00F92CDB7DEB79091BF
:1055D0006106943019F589837B836A8382E0809326
:1055E000E9008FEF9091E800815095FD06C095EDA0
:1055F0009A95F1F700008111F5CF8091E80085FFC1
:105600000DC050E040E063E070E0CE0101960E94E2
:10561000F12C8091E8008E778093E8000F900F9036
:105620000F90DF91CF910895BC0184E00C94E12AA2
:10563000BC0183E00C94E12ACF93DF93EC0181E07D
:105640008093E9008FEF9091E800815095FD06C0AE
:1056500095ED9A95F1F700008111F5CF8091E80062
:1056600085FF14C050E040E068E070E0CE010E9489
:10567000F12C8091E8008E778093E80088E0FE01AD
:10568000A5E8B4E001900D928A95E1F7DF91CF9102
:10569000089580916006811109C00E94D02E0E9459
:1056A0002D2F8091E20084608093E2000895109293
:1056B0006006089508950895089542E061EC81E040
:1056C0000E944C2E42E261EC82E00E944C2E42E3AA
:1056D00061E883E00E944C2E42E361E884E00C9490
:1056E0004C2E80916306833009F45FC030F4813022
:1056F000C1F1823009F49BC008958A3009F487C053
:105700008B3009F46DC0893009F04EC0809162067B
:10571000813209F049C08091660690916706029730
:1057200008F042C08091E800877F8093E800809174
:10573000E80082FF35C09091F3008091F20002975B
:1057400029F48091F1008B7F813021F48091F10068
:1057500080938D048091E8008B778093E8000C940F
:10576000802E80916206813AF9F48091E800877F6B
:105770008093E8008091660690916706892B61F41A
:1057800068E085E894E070E00E948F2D8091E80049
:105790008B778093E800089560E090E080E0F3CF9D
:1057A000809161068111C3CF089580916206813A8C
:1057B000D9F78091660690916706892BA9F78091A9
:1057C000E800877F8093E8008091E80080FFFCCFAD
:1057D00080912F018093F1008091E8008E77BDCFFA
:1057E00080916206813201F780916606909167068A
:1057F000892BD1F68091E800877F8093E8000E9492
:10580000802E8091640680932F010C94EA1E809173
:105810006206813249F68091E800877F8093E80034
:105820000E94802E8091650680938E040895809159
:105830006206813A09F0B8CF8091E800877F8093B3
:10584000E8008091E80080FFFCCF80918E04C2CFF9
:10585000BC0189E191E00C946D2ABC0189E191E0E1
:105860000C94B72A0E944F2A84B7877F84BF0FB653
:10587000F894A895809160008861809360001092F0
:1058800060000FBE80E890E00FB6F894809361004E
:10589000909361000FBE0E94971A0E94D02E0E9422
:1058A0002D2F8091E20084608093E20078940E9422
:1058B000B6310E94AB1A85E291E00E941C1A8091D9
:1058C00061068530B9F00E94B51A89E191E00E9425
:1058D000A62A0E94A71AF3CF0E94CE2580915F06C8
:1058E000882341F00E94FF25882321F00E94DB2CB1
:1058F0000E94EA1E80916106853071F30E9416268F
:10590000E2CF0C94832C292F33272330310519F152
:1059100068F42130310509F444C02230310509F41E
:1059200045C090E080E030E020E025C02132310524
:1059300049F122323105A9F780E490E022EF39E005
:1059400061157105C1F082E390E020EC39E061302F
:10595000710589F0E6CF99278130910581F0009794
:1059600029F00297F1F6E7EEF8E002C0EBE0F9E08B
:10597000849190E09F01FA01318320830895EDEF37
:10598000F8E0F6CF89E090E021E239E06115710599
:1059900091F389E090E02AE339E06130710559F331
:1059A000C0CF82E190E02EEA39E0E5CF8FE990E0C8
:1059B0002FE039E0E0CF80E189BD82E189BD09B403
:1059C00000FEFDCF8091D8008F7D8093D80080911C
:1059D000E00082608093E0008091E00081FDFCCFD8
:1059E0000895AF92BF92CF92DF92FF920F931F93D1
:1059F000CF93DF936C01EB018A010E949F2EF82E5A
:105A0000811123C00115110539F0F80180819181C0
:105A1000C81BD90BC80ED91EB12CA12C2097A9F0F8
:105A20008091E80085FD22C08091E8008E77809308
:105A3000E80001151105A1F0F80180819181A80EFF
:105A4000B91EB182A08285E0F82E8F2DDF91CF9113
:105A50001F910F91FF90DF90CF90BF90AF9008956E
:105A60000E949F2E8823D1F2F82EEFCFF60181916C
:105A70006F018093F1002197FFEFAF1ABF0ACECFDD
:105A8000AF92BF92CF92DF92FF920F931F93CF936B
:105A9000DF936C01EB018A010E949F2EF82E811189
:105AA00023C00115110539F0F80180819181C81BCF
:105AB000D90BC80ED91EB12CA12C2097A9F080912A
:105AC000E80085FD22C08091E8008B778093E80094
:105AD00001151105A1F0F80180819181A80EB91E70
