:100000000C944E010C9486010C9486010C9486018C
:100010000C9486010C9486010C9486010C94860144
:100020000C9486010C9486010C94321C0C94051DD2
:100030000C94C1160C9486010C9486010C948601D4
:100040000C9486010C9486010C9486010C94860114
:100050000C9486010C9459170C9486010C9486011B
:100060000C9486010C9486010C9486010C948601F4
:100070000C9486010C9486010C9486010C948601E4
:100080000C9486010C9486010C9486010C948601D4
:100090000C9486010C9486010C9486010C948601C4
:1000A0000C9486010C9486010C94860128000004AF
:1000B000000101010101010101010202020202022B
:1000C00002020203030303030303030404040404FE
:1000D00004040505050505060606060607070707C5
:1000E0000708080808090909090A0A0A0B0B0B0C7A
:1000F0000C0C0D0D0D0E0E0E0F0F0F101011111117
:100100001212131314141515161617171818191997
:100110001A1A1B1B1C1D1D1E1E1F202021222223FC
:100120002424252626272829292A2B2C2D2D2E2F3D
:1001300030313232333435363738393A3B3C3D3E54
:100140003F404142434445464748494A4C4D4E4F43
:1001500050515354555658595A5B5D5E5F61626405
:10016000656668696B6C6D6F7072737577787A7B92
:100170007D7E8082838587888A8C8E8F91939596E9
:10018000989A9C9EA0A2A3A5A7A9ABADAFB1B3B509
:10019000B7BABCBEC0C2C4C6C9CBCDCFD1D4D6D8E5
:1001A000DBDDDFE2E4E7E9EBEEF0F3F5F8FAFDFF83
:1001B000140366006500750069006C006C00650042
:1001C00036003400000016036800690064005F0018
:1001D0007200670062006C006500640000000403A8
:1001E000090409024200020100A0FA09040000010A
:1001F00003010100092111010001224400070581CA
:100200000308000109040100020300000009211194
:1002100001000122220007058203200001070503D7
:10022000032000011201000200000008EDFE0000A2
:100230000001010200010660FF0961A101096215C8
:100240000026FF009520750881020963150026FF2E
:1002500000952075089102C005010906A101050756
:1002600019E029E71500250195087501810295011E
:10027000750881010507190029FF150026FF009563
:100280000675088100050819012905150025019545
:100290000575019102950175039101C011241FBEDE
:1002A000CFEFDAE0DEBFCDBF04B603FE18C0809109
:1002B000880290918902A0918A02B0918B028730C6
:1002C000904BA740B04B59F41092880210928902CB
:1002D00010928A0210928B02E0E0F8E3099511E097
:1002E000A0E0B1E0E0E2F0E402C005900D92A83198
:1002F000B107D9F722E0A8E1B1E001C01D92A8380A
:10030000B207E1F70E947D0F0C94C61F0C94000009
:100310000E94E31240E060E080E00E94F51181E07D
:100320000E94F7120E94C50108950F931F93CF9367
:10033000DF93EC01062F18811130A9F01230D1F0B3
:10034000111120C081E0888382E5898387E48A8354
:1003500082E48B83602FCE010E94ED17DF91CF9155
:100360001F910F9108954B816A8189810E94F51137
:100370001883F0CF4B816A8189810E943A1181E014
:100380008883E8CF19831882E5CF0E94371381E074
:100390000E94F7120895642B682B611105C0ECEAE6
:1003A000F0E085919491089581E090E008950E9495
:1003B000CB01089581E008950E94DA01089581E05B
:1003C00008950E94DA0108950E94E10108950895B8
:1003D0000E94E7010895A6E0B0E0E1EFF1E00C949F
:1003E000ED1E49835A839E8330911F0189819A8132
:1003F00031111AC03E81332399F0222389F00E94E3
:100400002F07182F682F89819A810E941707698109
:100410007A81812F0E94B60D2696E3E00C94091F85
:100420000E942307182FF3CF0E942F0769817A813A
:10043000F1CFFC01262F408151816281738184813B
:1004400095810E94EB010895CF93DF93D82FC92F98
:1004500061E00E9419026D2F7C2F0E94DC01DF9168
:10046000CF910895CF93DF93D82FC92F60E00E94DA
:1004700019026D2F7C2F0E94E801DF91CF91089522
:1004800081E008950E9440020895CF93C82F0E94F2
:10049000E9058C2F0E9442022FEF84E39CE021505B
:1004A00080409040E1F700C00000CF91089581E0C6
:1004B0000E9445020E947D17089580E00E94450237
:1004C0000E94A11708950F931F93CF93DF938C0180
:1004D00061E00E941902EC01F801858181110E94FE
:1004E0009213B801CE010E94E4018823E1F1B80122
:1004F000CE010E94BB158823B1F1B801CE010E9444
:100500007014882381F1B801CE010E94451488231C
:1005100051F1B801CE010E949D13882321F1F80109
:100520008581882381F0CA35FCE7DF0739F178F44B
:10053000C130ECE7DE07F9F0C330FCE7DF07C9F0B4
:10054000C115DC4771F0C8010E94DF010DC0CB3539
:10055000ECE7DE07B1F0CC35DC47A9F70E94310BA0
:10056000F2CF0E94570280E0DF91CF911F910F914F
:1005700008950E94430B0E945D02F5CF0E943B0B41
:10058000E2CF0E943F0BDFCF0E94A3160E94EF0232
:100590000E94501208950E94F3020E9441130E948B
:1005A000A8160895089581E008950895CF93DF93E4
:1005B000D82F0E94D302C82F882319F08D2F0E94B4
:1005C000D5028C2FDF91CF9108950895CF93C82F36
:1005D0000E94D2028C2F0E94D602CF91089580E013
:1005E0000E94E60208950E9401160E94E602089504
:1005F000CF930E940116C82F80911A018C1779F0B1
:10060000C0931A010E942D1760931B0170931C0167
:1006100080931D0190931E018C2F0E94E602CF91C2
:100620000895ADE0B0E0E7E1F3E00C94EE1E4887FA
:1006300059876A877B878C879D8791110E946E0AF4
:100640001F8286E0FE013896DE01119601900D9220
:100650008A95E1F78D8181110DC029813A814B8105
:100660005C816D817E818F810E94B4092D96E2E0CC
:100670000C940A1FCE0101960E9424028111EDCF35
:10068000F5CFFC018481813021F4808191810E9429
:1006900061070895CF93C82F882399F08CEF8C0FB2
:1006A000813A88F48C2F0E942D16882329F08C2FF4
:1006B0000E9472160E94DF0A8C2F0E946A160E9406
:1006C000DF0ACF91089580E28C0F8830D0F7C77091
:1006D00081E001C0880FCA95EAF70E944F0AEFCF68
:1006E000882341F09CEF980F913A28F40E947216EB
:1006F0000E94DF0A089590E2980F9830D8F787702B
:1007000091E001C0990F8A95EAF7892F0E94550A56
:10071000EFCF1F93CF93DF93182FEB010E944A0373
:10072000209739F4812F0E947003DF91CF911F91A0
:1007300008958FE99FE00197F1F700C0000021972D
:10074000EFCF60E070E0893311F460E570E00E9463
:1007500089030895882321F00E944F0A0E94DF0A2E
:100760000895882321F00E94550A0E94DF0A089507
:10077000A0E0B0E0EEEBF3E00C94E81E6C01D62FA5
:10078000C72FFC011581068102950F700E94440A53
:10079000E82E8823F9F0E12E1123E1F08C2F807FE1
:1007A000803461F080E28D0F8830D0F18C2F807E14
:1007B000803221F4D230A0F1002391F18091AC017C
:1007C00082FF2EC082E00E94040B0E94440A91E046
:1007D000E82EE9269C2F92959F70983009F4C9C0A5
:1007E00008F5923080F1925F9F70923008F45CC0FF
:1007F000EE2089F00E94400A80FD0DC0F6011582AE
:100800000E943A0A0E947406C6010E94BC050E941A
:100810003A0A0E948406CDB7DEB7E8E00C94041FC4
:10082000E12CD8CF993009F41BC19A5F9F709230A8
:10083000F8F6D23F09F025C18C2F8F7111111EC11E
:100840000E947406C5C00C2F0F70C03110F00295C5
:10085000007F112399F0002359F080E28D0F88303A
:1008600010F0D11107C0802F0E944F0A0E94DF0AAA
:100870008D2F3BC0802F0E94600AF8CF8D2F0E94E1
:100880007003002309F4B4CF80E28D0F883010F09C
:10089000D11104C0802F0E94550A03C0802F0E94EE
:1008A000660A0E94DF0AA4CFFC2FFF70FF2EC07FD4
:1008B000C03219F0F29480EFF822DD2341F0D130FC
:1008C000D1F1112309F444C00023F1F0D1CF80917C
:1008D000AC0182FD15C0112359F0FF2029F08F2DA6
:1008E0000E944F0A0E94DF0A80E00E944A0380CFE4
:1008F00080E00E947003FF2009F47ACF8F2DCBCFC8
:10090000112369F0011104C08F2D0E94AA0370CF3A
:10091000013009F06DCF8F2D0E94860A69CF011139
:1009200067CF8F2D0E94B1038F2D0E94920A8F2DC9
:100930000E94750A5DCF112321F0063008F058CFD0
:10094000E3CF053008F054CF8F2D0E94B10350CF74
:100950000023D1F3D93349F42FEF87EE93E02150F0
:1009600080409040E1F700C000008D2F0E9470038E
:100970003FCF8C2F8370811139C0111129C04D2FA9
:10098000429546954770440F440F2D2F2F7030E04D
:10099000042E02C0220F331F0A94E2F780E090E099
:1009A000D4FF09C08FE090E002C0880F991F4A95DC
:1009B000E2F780959095C695C695C370822B932BD0
:1009C000C23071F0C33079F0C13039F00E94440672
:1009D0000E9401160E94E6020BCF0E943B06F8CF50
:1009E0000E944D06F5CF0E943806F2CF112361F127
:1009F000C0FFEECF4D2F429546954770440F440FF0
:100A00002D2F2F7030E0042E02C0220F331F0A94C6
:100A1000E2F780E090E0D4FF09C08FE090E002C0F0
:100A2000880F991F4A95E2F780959095C695C695CF
:100A3000C370822B932BC23069F0C33071F0C13088
:100A400031F00E94AF06C4CF823010F2D3CF0E94A3
:100A5000A606BECF0E94B806BBCF0E945C06B8CFE8
:100A6000CF70112339F08C2F0E9474068D2F0E94B5
:100A7000AA03AECF8D2F0E94B1038C2F0E94840653
:100A8000A7CFD33F70F4D03FB9F0D13F79F1112314
:100A900009F449C0002309F443C08D2F0E944A0382
:100AA00097CFD33FA9F0D43FE9F01111F3CF011153
:100AB00047C08C2F8F71E2CF112341F0053008F031
:100AC00087CF8C2F8F710E94960682CF0530F7CF8B
:100AD000112329F08C2F8F710E94680679CF0E9414
:100AE000630676CF8091AC0182FD05C08C2F8F719B
:100AF000112321F2A5CE112349F0CF718C2F0E9432
:100B0000740663E08C2F0E94E60A62CF81E00E94A7
:100B1000040B023008F45CCF82E00E94040B58CF33
:100B20008C2F8F718DCE002321F2D93349F4EFEF52
:100B3000F7EE23E0E150F0402040E1F700C0000074
:100B40008D2F0E94700344CF0F931F93CF93DF9399
:100B5000EC01688179818D810E946E078C010E9471
:100B6000C1060E943706B801CE010E94B803DF918A
:100B7000CF911F910F910895CF93DF93EC018C815A
:100B8000882399F0CE010E946302811111C00E9456
:100B9000440A882351F08D81882339F08091AC017B
:100BA00082FF03C082E00E94040BDF91CF91089581
:100BB000CE010E94A405CE010E943202F6CF0E940F
:100BC0006E0A0E94DF0A08950E947A160E94DF05CD
:100BD00008950E945D0A0E94E4050895282F9295C9
:100BE0009F70963091F060F4925F9F70923030F475
:100BF00081E0203F79F030F4283E30F080E0089525
:100C00009A5FF3CF243FD1F7089581E0283EE0F3C7
:100C1000213FF9CF0895FC018481882339F0808138
:100C200091810E9461070E94EE05089580E0089579
:100C3000A6E0B0E0EEE1F6E00C94EE1E2696E2E0CF
:100C40000C940A1FA7E0B0E0E8E2F6E00C94EE1E78
:100C50002796E2E00C940A1F08950E942C0608953E
:100C60000E942D06909327018093260108950895F0
:100C70000E94300608952091260130912701822B91
:100C8000932B0E9430060895209126013091270170
:100C9000822393230E9430060895209126013091EB
:100CA0002701822793270E94300608950E942C0670
:100CB00008950E94560608950E94590690932501B2
:100CC00080932401089580E090E00E945C060895DE
:100CD00021E030E0A90102C0440F551F8A95E2F7D8
:100CE000CA010E945C06089521E030E002C0220F94
:100CF000331F8A95E2F78091240190912501822B80
:100D0000932B0E945C06089521E030E002C0220F80
:100D1000331F8A95E2F720953095809124019091B8
:100D20002501822393230E945C06089521E030E090
:100D300002C0220F331F8A95E2F78091240190911F
:100D40002501822793270E945C06089520912401A3
:100D500030912501822B932B0E945C0608952091EF
:100D6000240130912501822393230E945C0608957B
:100D70002091240130912501822793270E945C064F
:100D8000089508959B01677091E001C0990F6A95DD
:100D9000EAF763E0369527956A95E1F7220F331F4E
:100DA000220F331FFA01E20FF31F40E050E0682FDB
:100DB00070E08191DF0111979B01042E02C03695EE
:100DC00027950A94E2F721702195282729232827BF
:100DD0002C934F5F5F4F4430510559F708959C01A4
:100DE000982F977083E0369527958A95E1F7220F23
:100DF000331F220F331FFB01E20FF31F40E050E0CF
:100E000080E0219130E0092E02C0369527950A94A2
:100E1000E2F721703327042E01C0220F0A94EAF76B
:100E2000822B4F5F5F4F4430510559F70895262FAD
:100E3000892B811107C040E251E060E070E0822F11
:100E40000E94C2060895982B911107C060E271E0DC
:100E500080E090E00E94EF06089580E00895A0E011
:100E6000B0E0E5E3F7E00C94E71E8C01E09024018C
:100E7000F09025018091260190912701E82AF92A16
:100E8000CFE0D0E0CC24C394D12CC6010C2E02C0FC
:100E9000880F991F0A94E2F78E219F21892B49F42C
:100EA000219798F7B12C8B2DCDB7DEB7E9E00C94E4
:100EB000031FBC2EB8018C2F0E94C00D019781F337
:100EC000F2CFCF93DF93D82FC92F0E942F076D2F1A
:100ED0007C2F0E94C00DDF91CF9108951F93CF9377
:100EE000DF93162FD72F90911F01992341F0862F62
:100EF000972F0E946107DF91CF911F91089588235A
:100F000081F0862F972F0E942F07C82F682F812FDF
:100F10009D2F0E941707612F7D2F8C2F0E94C00DDF
:100F2000EACF862F972F0E942307C82FF4CF0F9365
:100F30001F93CF93E0912801C7E0809129018E1380
:100F400004C0CF911F910F9108950E2F10E0CE9FF6
:100F5000F0011124E65DFE4F2081318142815381F1
:100F60006481758186810E942206F8013196E770BE
:100F7000E4CF20916201309163014091640150916E
:100F800065016091660170916701809168010E941E
:100F90002206089580916801803178F4809167017C
:100FA000882359F0E09128012091290130916301B3
:100FB0004091620157E02E1301C008956E2F70E03A
:100FC0005E9FF0011124DF01A65DBE4F14968C9147
:100FD0001497882361F111968C911197831327C080
:100FE0008C91841324C015968C91159781111FC084
:100FF00012968D919C91A0916401B09165018A1B1C
:101000009B0B883C910598F4809168018F708061FA
:1010100080936801E05DFE4F80818F7080618083E6
:1010200082E691E00E94BC050E9497070895FB01AB
:101030003196E770C0CFE09128019091290127E017
:10104000E91302C080E00895AE2FB0E02E9FF001BA
:101050001124E65DFE4F3181361306C0308138130E
:1010600003C03581341304C0FD013196E770E8CF29
:1010700081E008958F929F92AF92BF92DF92EF929C
:10108000FF920F931F93CF93DF93CDB7DEB72D97CA
:101090000FB6F894DEBF0FBECDBF8C0186E0F8011D
:1010A000DE01189601900D928A95E1F7F801E08033
:1010B000F580A280B380848192E6892E91E0992EFA
:1010C0009091660191111BC0882309F4FCC0FF2098
:1010D00009F43DC1C8010E940B06882309F437C1F9
:1010E00087E0F801D40101900D928A95E1F7C401DF
:1010F0000E9441030E94CA070E94B907E4C0D09031
:1011000067012091640130916501A501421B530BD9
:10111000DD2009F4DBC0483C510508F0A6C0882357
:1011200009F4D1C090916301918080916801803170
:1011300008F06BC0991228C0909162019E1124C0E2
:10114000F1105DC08F708061809368010E94B907C3
:1011500082E691E00E94BC0580916801F8018683D7
:10116000F12C8F2D2D960FB6F894DEBF0FBECDBF9C
:10117000DF91CF911F910F91FF90EF90DF90BF9083
:10118000AF909F908F900895F11039C040E0692D85
:101190008E2D0E941B0840E0692D8E2D0E941B0899
:1011A000F82E8111DDCF888599850E946107292F4E
:1011B00022952F70903450F49F70223080F0992344
:1011C00099F0F8019681903178F4CBCF2A5F2F7097
:1011D000223078F0C8010E94BC05FD2CC2CF9923B3
:1011E00019F0882309F4BDCF805E883008F4B9CFA8
:1011F000F1CF803F08F4B5CF815F8230F7CF809187
:101200006801816080936801ABCF991207C090910B
:1012100062019E1103C0FF2009F479C0C8010E9439
:101220000B06882309F493C0FF2009F490C0809135
:101230006801803288F020916201309163013A8325
:101240002983BC82AB82909166019D831E828F832D
:10125000CE0101960E94BC0587E0F801A2E6B1E04C
:1012600001900D928A95E1F745CF909168019031F8
:10127000A0F4488559856A857B858C859D850E946B
:10128000180682E691E00E94BC0587E0F401119205
:101290008A95E9F70E94B90763CF8823A1F02091CE
:1012A000630181812813BACF809162018E11B6CF7C
:1012B000F110B4CF9683C8010E94BC0587E0F40109
:1012C00011928A95E9F7FF24F3944BCF483C5105DE
:1012D00008F041C08823B9F3FF20C9F19091630160
:1012E000818198132AC0809162018E1126C080915D
:1012F000680180FD19C08031B8F08683807F803F0F
:1013000039F08681982F907F905F8F70892B86832C
:10131000C8010E94BC0587E0F801A2E6B1E0019097
:101320000D928A95E1F7E8CE87E0F801A2E6B1E0F8
:1013300001900D928A95E1F7C6CFC8010E940B0675
:1013400081118ACF80916801816080936801C80112
:101350000E94BC05B8CF488559856A857B858C85F8
:101360009D850E94180691CFAEE0B0E0EAEBF9E06F
:101370000C94ED1E288739874A875B876C877D87A9
:101380008E87CE0108960E943A088823B1F06C85BA
:10139000662341F0288539854A855B857D858E8564
:1013A0000E94220617E0809128019091290189135B
:1013B0003EC02E96E3E00C94091F87E0FE013896AC
:1013C000DE01119601900D928A95E1F72091290195
:1013D000409128018C85882329F330E0C9010196CA
:1013E0008770992750E08417950799F097E0929FAE
:1013F000D001939FB00D1124A65DBE4FFE01319622
:1014000001900D929A95E1F7809329010E94970728
:10141000C9CF0E94E905109229011092280187E0A6
:10142000E2E6F1E0DF011D928A95E9F7BBCF189F54
:10143000C0011124865D9E4F0E943A08882309F45A
:10144000B8CFE09128011E9FF0011124E65DFE4F08
:1014500020813181428153816481758186810E941E
:1014600022068091280190E0019687709927809349
:10147000280199CF8091710186958695869508956A
:10148000809171018770089590917101977081E04A
:10149000911101C080E0089580917D01089590919F
:1014A0007D01982B90937D010895982F90958091C0
:1014B0007D01892380937D01089510927D01089517
:1014C00090917C01982B90937C010895982F909592
:1014D00080917C01892380937C01089510927C0186
:1014E000089508950E94710A089590917201292F1C
:1014F0002823222331F080958923809372010E9452
:10150000720A089508950E94820A089590917301C5
:10151000292F2823281729F0982B909373010E94D4
:10152000830A089590917301292F2823222331F0F3
:1015300080958923809373010E94830A0895809186
:101540007301882329F01092730180E00E94830ABE
:1015500008950F931F93CF93DF9300910001109193
:101560000101C0917D0180917C01C82BD091730154
:10157000DD2331F00E94191681110E949F0ACD2BA4
:10158000F801C083C0910001D091010148E050E012
:1015900069E671E0CE010E94581F892B59F088E05E
:1015A000FE01A9E6B1E001900D928A95E1F7CE0126
:1015B0000E940E16DF91CF911F910F9108950E9406
:1015C000A90A089508950E94E20A08959091AC0135
:1015D00092FF11C098E0899F90011124622B6093C3
:1015E00071010E9474068091710186958695869599
:1015F0000E94E30A08950E947406089510927101F2
:1016000080E00E94E30A08959091710180958923FA
:1016100080937101282F277021110DC0891759F06F
:101620009091AC0192FF07C08695869586950E94A1
:1016300084060E94FE0A08959091AC0192FB222735
:1016400020F9281769F080FB92F99093AC01809102
:10165000AB019091AC010E94640B82E00E94040BEC
:1016600008958091AC0182FB882780F991E0892759
:101670000E941C0B089581E00E941C0B089580E0DD
:101680000E941C0B08956FEF7FEF80E090E00E94B6
:10169000B01F089580E090E00E947C1F9C0181E0D3
:1016A000263E3E4F09F080E0089582E090E00E94DF
:1016B0006E1F089583E090E00E946E1F089584E0FD
:1016C00090E00E947C1F0895BC0184E090E00E949D
:1016D000B01F0895AB01BC018FE090E00E94A41FF1
:1016E0000895AB01BC0183E190E00E94A41F08951E
:1016F00060E070E0CB010E94710B089560E070E043
:10170000CB010E946A0B0E94780B0895A8E0B0E01C
:10171000ECE8FBE00C94EE1E66EE7EEF80E090E0DD
:101720000E94B01F60E082E090E00E94921F81E082
:1017300090E0909327018093260161E083E090E0A0
:101740000E94921F60E074E184E090E00E94B01F6C
:1017500060E086E090E00E94921F60E087E090E009
:101760000E94921F40E050E0BA0188E090E00E94A1
:10177000A41F60E084E290E00E94921F60E087E195
:1017800090E00E94921F60E08CE090E00E94921F27
:1017900060E08DE090E00E94921F19821A821B8205
:1017A0001C821D821E821F82188648E050E068E17C
:1017B00070E0CE0101960E94821F40E050E0BA0125
:1017C00080E290E00E94A41F0E947E0B2896E2E037
:1017D0000C940A1F0E94860B0895682F8EE090E0FB
:1017E0000E94921F0895A6E0B0E0E9EFFBE00C94A0
:1017F000EC1E0E9421178C0180917E0190917F0147
:101800008017910779F019821A820E942117BC0172
:1018100049815A8180E090E00E94110310937F017A
:1018200000937E012696E4E00C94081F0E942D1779
:10183000609385017093860180938701909388015E
:10184000609381017093820180938301909384015E
:101850000895089508950E94290C089588EB9EE04C
:101860000E948A0F0E942A0C0E942B0C089581E08E
:1018700008950E94370C08950E94370C089508952A
:1018800008950E943F0C0E94400C08950E944A0B4C
:10189000811102C00E94EA0B0E94550B80938901BE
:1018A0000E945F0B9093AC018093AB010E944214A5
:1018B0000E945A0B90E00E9438068091240190917A
:1018C00025010E94590608950E9418170E94FE0ED5
:1018D0000E94460C0E94E5020E94FB120E948801B1
:1018E0000895A6E0B0E0E7E7FCE00C94EC1E0E944F
:1018F000390C81110AC00E94F30B0E9493130E94BD
:10190000F8022696E4E00C94081F0E940A0F10913A
:10191000800180E00E94C20E181769F3809189014E
:1019200081FD0E94C80E0E943C0C082F80E00E949E
:10193000C20E182F90918001891303C00E94160CCB
:10194000DCCF982790FF0EC0002361F019821A8225
:101950000E942117BC0149815A8181E0912F917029
:101960000E94110310938001E9CF1F93CF93DF935F
:101970000E94C50DEC01811522E5920708F04DC0CB
:10198000811540E5940708F0C5C0883E910588F0B0
:10199000811550E4950728F199270E94C50DCC27A1
:1019A000DF70C82BD92BD06ACE01DF91CF911F9168
:1019B0000895803E9105C0F7853A910550F404974B
:1019C00098F781E0219709F080E0C82F80E0D82FB8
:1019D000EBCF8D5C9109D065439730F3C0E0D0E048
:1019E000E3CFC11590E2D90708F0ADC0CE019A95BA
:1019F00081159F4198F78D2F0E94690E182FCE01F7
:101A000099270E94C50D212F30E0322F2227E901AE
:101A1000CC27DF71C82BD92BC7CF803842E594077C
:101A2000C0F5803652E5950708F055C0C03482E510
:101A3000D807B0F08C2F86958695877020E2829F1C
:101A4000C0011124C37021E030E0A90102C0440F9D
:101A5000551FCA95E2F7EA01C82BD92BDC68A4CF41
:101A6000C03252E5D50780F58C2F8695869520E209
:101A7000829FC0011124C37021E030E0A90102C09F
:101A8000440F551FCA95E2F7EA01C82BD92BDD6830
:101A90008BCF803C52E5950758F48F71C03AD24500
:101AA00078F590E0982F8827EC01C46FD06A7CCF3E
:101AB000805C9245809708F091CFDC2FCC27CC2713
:101AC000DF71C06FD06A70CFCF71D0E0DC2FCC2730
:101AD000C16FD06A69CF86958695877020E2829F14
:101AE000C0011124C37021E030E0A90102C0440FFD
:101AF000551FCA95E2F7EA01C82BD92BDA6854CFF3
:101B00000E94690EC82FD0E0DC2FCC27CC27DF71D4
:101B1000D0624ACF8F710E94690E65E0D695C79555
:101B20006A95E1F7CF70D0E0DC2FCC27282F30E08A
:101B300084FF05C054E0220F331F5A95E1F7C22BF2
:101B4000D32BD06931CF8D2F8F710E94690E182F42
:101B5000CE0199270E94C50D212F30E0322F222778
:101B600022273F71282B392BE901D2CF672B611136
:101B700004C040E00E94D701089580E090E00895FD
:101B80000E94B60D0E94B50C0895803E9105D1F1DA
:101B9000C8F48133910509F47FC048F48932910576
:101BA00009F46FC08A32910509F47DC00895893324
:101BB0009105E1F082389105C9F08533910509F46A
:101BC0005BC00895843E9105D1F148F4823E9105B1
:101BD00031F1833E910541F181EE90E00895863E1A
:101BE0009105C1F1873E9105E1F108952091AB0186
:101BF0002370211165C02091AC0123FF14C089E23C
:101C000090E008952091AB0120FD43C03091AC01DC
:101C100030FF09C024FF4EC080E090E0089520917D
:101C2000AB0122FDF7CF08952091AB0122FD45C005
:101C30003091AC0130FD44C024FFF5CFEDCF2091B1
:101C4000AC0121FFF0CF8091AB0184FDE5CF87EEA1
:101C500090E008952091AB0123FFE5CF24FDDCCF78
:101C6000F6CF2091AB0123FD2EC03091AC0131FFA6
:101C7000E3CF84EE90E008952091AB0125FFD3CF10
:101C8000BECF2091AB0125FD21C02091AC0123FFE7
:101C9000CACF89E390E008952091AB0126FFC3CF1E
:101CA0008AE290E008952091AB0126FFBCCF81E34A
:101CB00090E0089583EE90E0089582EE90E008951C
:101CC00080EE90E0089586EE90E0089585E390E040
:101CD000AACF9091AB0192FF10C041E0282F247150
:101CE000243009F040E031E0282F2871283009F035
:101CF00030E0431711F02CE0822793FF10C041E041
:101D0000282F2471243109F040E031E0282F287178
:101D1000283109F030E0431711F02CE08227309190
:101D2000AC0130FF10C051E0282F2171213009F0A3
:101D300050E041E0282F2871283009F040E0541786
:101D400011F029E0822731FF10C041E0282F2171D6
:101D5000213109F040E031E0282F2871283109F0C5
:101D600030E0431711F029E0822794FD877E089523
:101D700080E0089508950E94BA0E089508950E9483
:101D8000BE0E0895E82FF0E0E255FE4F80810895E1
:101D9000089580EA8A95F1F7089500C008950E9499
:101DA000C90E0895F8945098589A789408950E940E
:101DB000D20EF8948198899A789408950F931F937E
:101DC000CF93DF938C01D62FF894509A589878943B
:101DD0000E94CD0ECFB1C695C17081E0C8270E9488
:101DE000D20E6C2F8D2F0E94CF0EF801ED0FF11D3A
:101DF000C083DF91CF911F910F9108950E94D70E5C
:101E00001092AE011092AD0181E00E942F0F0E944E
:101E1000BB0E0895A1E0B0E0E0E1FFE00C94ED1E00
:101E2000198260E0CE0101960E94DE0E9091AD0114
:101E3000898121E0981310C020E041E06EEA71E052
:101E40008DEA91E00E94300F182F0E94BF0E812F63
:101E50002196E3E00C94091F8093AD01EECF089525
:101E6000A0E0B0E0E6E3FFE00C94E81ED82EE92EF7
:101E7000F62ED72F042FC22F222379F081E08093F2
:101E80008C010E94211790938B0180938A0180E03E
:101E9000CDB7DEB7E8E00C94041FC0908C01CC20D5
:101EA000B1F380918A0190918B010E944A170597A6
:101EB00070F310E0A8016D2D7E2D8F2D9D2F0E94B7
:101EC000581F892B41F0A8016D2D7E2D8F2D9D2F40
:101ED0000E94651FCC2D10928C018C2FD9CF0E94AF
:101EE0000C190E94640C0E94191908950E941E1971
:101EF0000E94710C0E94381908950E94BA160E941F
:101F0000F2180E942E0C0E946F0F0E94760F0E9402
:101F1000410CFBCF90931901809318010895A0E024
:101F2000B0E0E5E9FFE00C94E61EE82F71110DC06A
:101F3000442321F0F0E0E055FF4F8491682F782F83
:101F4000CDB7DEB7EAE00C94021F262F30E0C72F92
:101F5000D0E0F0E0442321F0E055FF4FE491F0E0C1
:101F600086E0829F7001839FF00C11240FEF10E038
:101F7000C701B8010E94B01EAB01220F331F65E5F7
:101F8000649FC001659F900D1124281B390BC22E40
:101F9000CC0CC20EC8018C1B9D0B8E9F90018F9F95
:101FA000300D9E9F300D1124832FCC9EB001CD9E0D
:101FB000700D1124672F77275801A61AB70AAE9E15
:101FC000D001AF9EB00DBE9EB00D11247B2F5801E5
:101FD000AC18B1086501CC9E5001CD9EB00CDC9EC2
:101FE000B00C1124AB2CBB240A191B090E9FE00175
:101FF0000F9FD00D1E9FD00D11246E2F4330510521
:10200000C9F09CEFE91693E0F90650F44130510510
:1020100009F496CF4230510589F07E2F6D2F90CF75
:102020004430510571F046305105B9F3632F8B2FC1
:102030007E2F86CF6B2F732F8E2F82CF732F8D2FF6
:102040007FCF7D2F632FF8CF41E00E948F0F08953F
:1020500008950E9424100895CF93DF93982F762F30
:10206000842FE901692F0E942910798368838A836C
:10207000DF91CF910895493708F048E70E942C106E
:1020800008958091AF01843060F483708460809300
:10209000AF018091B201893718F088E78093B201CF
:1020A00008958C30B0F383708860F1CF4F925F92C7
:1020B0006F927F928F929F92AF92BF92CF92DF9258
:1020C000EF92FF920F9388E090E00E94761F2B0121
:1020D0003C0184E290E00E946E1F282F30E040E037
:1020E00050E060E070E080E090E000E20E94151FA8
:1020F00053014201C12CD12C7601242939294A29C6
:102100005B296C297D298E299F290F91FF90EF90E3
:10211000DF90CF90BF90AF909F908F907F906F9007
:102120005F904F900895A0E0B0E0E9E9F0E10C94F1
:10213000E81E8901D42FC52F6B017C010E9441103C
:10214000A8016D2F7C2F88E090E00E94A41F9801C9
:102150004D2F5C2FB601C70100E20E94301F622F95
:1021600084E290E00E94921FCDB7DEB7E8E00C94C5
:10217000041FEFEAF1E085E0808311828FEF828314
:1021800088E783831482758125E030E04FEF58E7BC
:1021900060E0868197810E94931008959091B30129
:1021A000933018F49F5F9093B301882391F02091AE
:1021B000AF013091B0014091B1015091B2016091F5
:1021C000B3017091B4018091B5019091B6010E9464
:1021D0009310089581E00E94CE1008959091B3016C
:1021E000992319F091509093B301882391F0209195
:1021F000AF013091B0014091B1015091B2016091B5
:10220000B3017091B4018091B5019091B6010E9423
:102210009310089581E00E94EE10089560910301EB
:102220008091AF0180FF11C070E02091020130E089
:10223000C901880F991F820F931FE0911601F09139
:10224000170189549E4F099508958091040190913A
:102250000501282F30E0F901EE0FFF1FE20FF31FF9
:10226000E954FE4F891700F71182108212828F5FA6
:102270003396F8CF9091AF0190FF11C09091040177
:1022800050910501292F30E0F901EE0FFF1FE20FF9
:10229000F31FE954FE4F951718F00E940E11089590
:1022A0008183608342839F5F3396F5CFA3E0B0E0E4
:1022B000ECE5F1E10C94EA1EF82E062F142FE22E25
:1022C0008091AF0180FF2DC0E82FE695E695F0E004
:1022D000ED5EFE4F9081909397018C7F843059F48E
:1022E0009E012F5F3F4F8F2D0E943B104B816981D4
:1022F0008A810E943A11F092B0010093B1011093CB
:10230000B201EE2071F02091AF016091B3017091A4
:10231000B4013F2DA8018091B5019091B6010E94B2
:1023200093102396E6E00C94061F282FEFEAF1E0C5
:10233000818143816281885F0E945611089581E006
:102340000E9495110895282FEFEAF1E081814381E1
:10235000628188500E945611089581E00E94A31165
:102360000895282FEFEAF1E0628138E0630F08F466
:102370006FEF438181810E945611089581E00E9490
:10238000B1110895282FEFEAF1E0628138E0631B74
:1023900008F460E0438181810E945611089581E034
:1023A0000E94C2110895282FEFEAF1E0438138E03E
:1023B000430F08F44FEF628181810E945611089506
:1023C00081E00E94D3110895282FEFEAF1E04381C4
:1023D00038E0431B08F440E0628181810E9456117D
:1023E000089581E00E94E411089520E00E945611B2
:1023F0000895A3E0B0E0EFEFF1E10C94EC1E8C0146
:1024000080918D0181110AC09E012F5F3F4F48E7E7
:102410006FEF0E943B108A8180938D01F8016481E7
:10242000613049F06230D1F080918D0140E0662347
:1024300031F040E015C060918D0140E080E00E94E5
:102440003A11F801848190E0019663E070E00E9407
:10245000C41E84832396E4E00C94081F40918D01F0
:1024600080E060E0ECCFEFEAF1E020812E7F208376
:1024700031814281538164817581868197810E9477
:102480009310109298010E940E110895EFEAF1E066
:1024900080818E7F8083109298010E940E11089592
:1024A000109298018091950181110AC081E080937A
:1024B00095018091AF018170809394010E94461232
:1024C00008956091AF016695669570E041E050E037
:1024D00087E091E00E944B1F892B19F481E08093E3
:1024E00098010E94211790938F0180938E01089587
:1024F0009091AF0190FF3AC08823C9F18330C8F5AD
:102500008F73282F220F220F8091AF018370282B09
:102510002093AF01662381F03091B0014091B10169
:102520005091B2016091B3017091B4018091B501F5
:102530009091B6010E9493106091AF0166956695E7
:1025400070E041E050E087E091E00E944B1F892B52
:1025500091F01092980181E0809391014091B20135
:102560006091B1018091B0010E94F511089581E060
:10257000C8CF82E0C6CF0E946112EDCF682F809154
:10258000AF01869586958F5F833008F081E00E94C9
:102590007812089581E00E94BE120895682F9091EC
:1025A000AF01969596958FEF890F913009F482E0EF
:1025B0000E947812089581E00E94CE12089561E091
:1025C0000E9478120895EFEAF1E0808181608083B3
:1025D000869586950E94DF1208958091AF0180FF55
:1025E00003C00E94331208950E94E312089560E030
:1025F0000E947812089580919601811137C00E943F
:1026000056102093AF013093B0014093B101509325
:10261000B2016093B3017093B4018093B5019093BC
:10262000B6012430A0F40E94B9100E9456102093E5
:10263000AF013093B0014093B1015093B201609368
:10264000B3017093B4018093B5019093B6010E94D9
:102650004110109298018091AF0180FF04C08695CF
:1026600086950E94F71281E0809396010895EFEA23
:10267000F1E0808181608083869586950E94F712C3
:102680000895109295018091940181110E94371351
:102690000E94611208950F931F93CF93DF9380914F
:1026A00098018823D1F1909197018091AF0186958F
:1026B0008695891B80939001C0EDD7E008E210E178
:1026C000923031F4EEEAF0E0C591D49109EF11E1D6
:1026D00080919101882361F0109291010E9421174D
:1026E00090938F0180938E0110929301109292012A
:1026F0000E94211720918E0130918F01821B930B34
:102700008F3F9F4750F42C0F3D1F30938F01209334
:102710008E018EE891E0F8010995DF91CF911F912C
:102720000F91089508950E944B130895FA0188238C
:1027300011F009950895FB01FCCF1F93CF93DF9310
:10274000EC01FB01158111114FC00E944C0A8272ED
:10275000FE01E052F847E531F10508F045C0E853C5
:10276000F04E0C94D81E0E94ED12812FDF91CF9174
:102770001F9108954BED52E16AEC72E10E949613AD
:10278000F4CF4AEC52E16BED72E1F8CF4DEA51E142
:102790006FE971E1F3CF4FE951E16DEA71E1EECFFD
:1027A0004FEC51E16EEB71E1E9CF4EEB51E16FEC93
:1027B00071E1E4CF41EF51E160EE71E1DFCF40EE36
:1027C00051E161EF71E1DACF4AE051E16AEE70E187
:1027D000D5CF4AEE50E16AE071E1D0CF81E00E94AE
:1027E000DF12C3CF82E0FBCF11E0BFCF9C01AB0172
:1027F000809A61B36E7F71B37160EFB7F894CA01CC
:10280000880F991F840F951F820F931F82179307BC
:1028100041F4EFBF8FE594E00197F1F700C00000AD
:102820000895D9014D919D0158E071BB000000C091
:1028300047FF61BB440F000000C000C000C061BB87
:1028400000C05A9591F7E2CF0E94430B089580E0B3
:102850000E94C20E817008950E940A0F2FEF86E732
:1028600091E0215080409040E1F700C000000E94BC
:102870000A0F0E942714882321F00E9424140E942A
:102880007D1708950E942C140895CF93DF93EB01D8
:1028900086319C4719F50E944C0A9D819923A1F02D
:1028A0008A7A91E0811101C090E090939901882388
:1028B00049F085E30E946A160E94DF0A80E0DF91FA
:1028C000CF91089589E2F6CF80919901882321F074
:1028D00085E30E947216F0CF89E2FBCF81E0EFCF53
:1028E000CF93DF93EC01FB018581882309F4D2C0EB
:1028F0009E0130572332310508F0B2C00E945F0BB1
:102900009093AC018093AB01FE01E150F047E232BD
:10291000F10520F4E352F04E0C94D81E8091AB01E7
:1029200081608093AB0193C08091AC0188608093FB
:10293000AC018DC08091AB018260F3CF8091AB017F
:102940008460EFCF8091AB018860EBCF8091AC01C8
:102950008160EDCF8091AC018260E9CF8091AB01C5
:102960008061DFCF8091AB018062DBCF8091AB01D2
:102970008064D7CF0E94E9058091AB018068D1CFF8
:102980008091AB018C60CDCF8091AC018360CFCFC3
:102990008091AB018E7FC5CF8091AC01877FC7CF7F
:1029A0008091AB018D7FBDCF8091AB018B7FB9CF83
:1029B0008091AB01877FB5CF8091AC018E7FB7CF7F
:1029C0008091AC018D7FB3CF8091AB018F7EA9CF79
:1029D0008091AB018F7DA5CF8091AB018F7BA1CF83
:1029E0000E94E9058091AB018F779BCF8091AB016D
:1029F000837F97CF8091AC018C7F99CF8091AB0181
:102A000082FB992790F921E0922790FB82F990FBB5
:102A100083F987CF8091AC01982F909591708E7F2C
:102A2000892B90FB81F983CF9091AB01892F8F7B0C
:102A300096FF806476CF0E94E9059091AB01892FC3
:102A400097FB87F980586DCF81E00E94ED0B809154
:102A5000AB019091AC010E94640B0E94E90580E0FB
:102A6000DF91CF91089580E0F0CF9091AB01892F55
:102A70008F7E94FF806155CF9091AB01892F8E7F1F
:102A800090FF81604ECF9091AC01892F877F93FF9B
:102A900088604DCF81E0E4CF0F931F93CF93DF93F6
:102AA000C42FD22FFC0185818823C9F040939C015B
:102AB0000E94211790939B0180939A0180E28C0FD2
:102AC000883040F4C77081E001C0880FCA95EAF7EA
:102AD0000E94AA03DF91CF911F910F910895109149
:102AE0009C0114133CC080919A0190919B010E941B
:102AF0004A17883C910598F5C0E2CD0F1D1741F1AA
:102B000080E2810F883040F4177081E001C0880FA7
:102B10001A95EAF70E94B103C83020F0802F0E9476
:102B2000A103D8CF91E08D2F877001C0990F8A95AE
:102B3000EAF7892F0E94AA03802F0E94A103D77071
:102B400081E001C0880FDA95EAF70E94B103C2CF95
:102B5000802F0E94A103C83008F0BCCFF0CF80E2E4
:102B60008C0F883008F0B6CFC77081E001C0880FA5
:102B7000CA95EAF7EACF0F93FC01CB01E851FC4775
:102B8000E730F10590F5E150F04E0C94D81E06E2C6
:102B900021EE41EE6AE17CE70E944C1580E00F9146
:102BA000089507E225EE45EE6BE17CE7F5CF06E2FE
:102BB00021EE40EE68E17CE7EFCF07E225EE44EE40
:102BC00069E17CE7E9CF06E221EE42EE6CE17CE7C9
:102BD000E3CF07E225EE46EE6DE17CE7DDCF08E2CC
:102BE00021E045EE6EE17CE7D7CFFB0185818111C5
:102BF00010929C0181E0D3CF90939E0180939D0120
:102C00000895E0919D01F0919E01309729F0019087
:102C1000F081E02D0995089580E00895E0919D01EF
:102C2000F0919E01309721F00280F381E02D09950B
:102C3000089540910001509101019A012E5F3F4F8C
:102C4000485F5F4F80E0F90190812F5F3F4F911106
:102C50008F5F42175307B9F70895882371F02091C9
:102C6000000130910101F9013296285F3F4F9191A7
:102C7000981729F0E217F307D1F780E0089581E073
:102C800008959C01FC0132968FEF90E04191461728
:102C900051F08F3F19F4411101C0892F9F5F963089
:102CA000A9F78F3F09F40895280F311D87FD3A9544
:102CB000F901628308959C01FC013296285F3F4F21
:102CC0008191861303C0DF0111971C92E217F3076D
:102CD000B9F70895682F80910001909101010E9439
:102CE00041160895682F80910001909101010E9482
:102CF0005B160895E0910001F0910101329686E0A3
:102D0000DF011D928A95E9F7089508950E948516BE
:102D100008958F5F80939F010E948616089583E037
:102D200080939F010E94861608950E948916089537
:102D300081E080939F010E94861608950E94981654
:102D40000895089508950E94A2160895089508957B
:102D50000E94A11608950E94A6160E940A0F0E94C2
:102D6000A71680E00E94C20E982F81E0911101C049
:102D700080E0089585B7806885BF85B7806885BF86
:102D800008951F921FB61F9211248F939F93AF93A4
:102D9000BF938091A001811113C08091770290911F
:102DA0007802A0917902B0917A024196A11DB11DDD
:102DB0008093770290937802A0937902B0937A027D
:102DC000BF91AF919F918F911F901FBE1F9018953B
:102DD00080917F02843031F10E94C4021092A001E0
:102DE00088E190E020E40FB6F894A8958093600005
:102DF0000FBE2093600083B7817F846083BF83B759
:102E0000816083BF7894889583B78E7F83BF0FB628
:102E1000F894A8958091600088618093600010927A
:102E200060000FBE08950E94E9050E94CB0208953C
:102E300082E084BD93E095BD9AEF97BD80936E00CC
:102E400008952FB7F8948091770290917802A0911D
:102E50007902B0917A022FBF0895A4E0B0E0E3E3D5
:102E6000F7E10C94EE1E8FB7F89420917702309121
:102E700078024091790250917A0229833A834B83F8
:102E80005C838FBF69817A818B819C812496E2E08B
:102E90000C940A1F9C014FB7F8948091770290918F
:102EA0007802A0917902B0917A024FBF821B930BF6
:102EB000089578941F921FB61F9211248F939F93A9
:102EC000AF93BF938091770290917802A09179029D
:102ED000B0917A020196A11DB11D80937702909363
:102EE0007802A0937902B0937A02BF91AF919F913B
:102EF0008F911F901FBE1F90189581E08093E00076
:102F000080E28093D8001092C9008FE19EE401977F
:102F1000F1F700C0000087E090EBDC0180938802AD
:102F200090938902A0938A02B0938B0288E19CE07F
:102F30000FB6F894A895809360000FBE9093600040
:102F4000FFCF88E19CE00FB6F894A89580936000CD
:102F50000FBE90936000FFCF8091A901089508955E
:102F600008950895282FCB01BA0130917F023430A3
:102F7000E1F42F702093E9002FEF3091E80035FD48
:102F800007C035ED3A95F1F7000021502111F5CF3A
:102F90002091E80025FF09C040E050E00E94DF19C1
:102FA0008091E8008E778093E8000895CF93DF93B7
:102FB000D82FC92F48E050E0682F792F81E00E9478
:102FC000B21788E0ED2FFC2FA1EAB1E001900D923D
:102FD0008A95E1F7DF91CF910895792F603231F42E
:102FE00040E250E0682F82E00E94B217089580917D
:102FF0007E02811109C00E94B61B0E94131C8091A1
:10300000E20084608093E200089510927E020895A9
:103010000E949816089560917B0281E0611101C0C1
:1030200080E00E948F16089590917F0281E0943095
:1030300009F080E060917B020E949516089542E0BD
:1030400061EC81E00E94321B42E261EC82E00E946E
:10305000321B42E260EC83E00E94321B90917F02BF
:1030600081E0943009F080E060917B020E94891633
:10307000089580918102893089F148F4823009F401
:10308000A0C0833009F45AC0813041F008958A30DD
:1030900009F487C08B3009F46CC0089580918002D8
:1030A000813A09F04AC08091E800877F8093E80068
:1030B0008091840290918502892B61F060E080E02C
:1030C00090E070E00E947D1A8091E8008B778093F9
:1030D000E800089568E081EA91E0F3CF80918002F2
:1030E000813259F58091840290918502892B29F5CE
:1030F0008091E800877F8093E8008091E80082FF5C
:1031000018C09091F3008091F200029731F4809101
:10311000F100813011F0863021F48091F10080932C
:10312000A9018091E8008B778093E8000E94661BDC
:1031300004C080917F028111E0CF089580918002C8
:10314000813AD9F78091840290918502892BA9F761
:103150008091E800877F8093E8008091E80080FFFD
:10316000FCCF809112018093F1008091E8008E776E
:10317000DBCF80918002813201F7809184029091AF
:103180008502892BD1F68091E800877F8093E80043
:103190000E94661B80918202809312010E94E905C1
:1031A000089580918002813241F68091E800877F06
:1031B0008093E8000E94661B809183028093AA019D
:1031C000089580918002813A09F0B7CF8091E8009C
:1031D000877F8093E8008091E80080FFFCCF80919A
:1031E000AA01C1CF84B7877F84BF0FB6F894A89592
:1031F00080916000886180936000109260000FBE33
:1032000080E890E00FB6F89480936100909361009D
:103210000FBE0E949E1608950E94B61B0E94131CAA
:10322000E2EEF0E080818460808378940E94961EB4
:10323000089588E091E00E94FC15089580917F0236
:10324000853031F480917F02853019F00E94131788
:1032500008950E94E81680917D02882399F30E94C8
:10326000AB16882379F30E94C9190E94E905EACFB9
:10327000A0E2B0E0EEE3F9E10C94EE1E80917F0253
:10328000843081F483E08093E9008091E80082FF3C
:1032900009C08091E80085FD09C08091E8008B7726
:1032A0008093E800A096E2E00C940A1F40E050E012
:1032B00060E270E0CE0101960E942E1A8091E80033
:1032C0008B778093E80060E2CE0101960E94950121
:1032D000E9CF9A0140918602509187020E947119AC
:1032E0000895FC01D9018F2F992783309105E1F0D2
:1032F00060F48130910509F43DC0029709F43FC0A4
:1033000080E090E020E030E01DC08132910519F1AD
:1033100082329105A9F761157105B1F126E332E01A
:103320006130710579F0ECCFCF019927E13069F078
:103330008230910569F0EEEDF1E0892B09F7849177
:1033400090E09F012D933C930895E6ECF1E0F7CFD8
:10335000E0EBF1E0F4CF89E090E024EF31E061159B
:10336000710581F389E090E02DE032E06130710574
:1033700049F3C6CF82E190E024E232E0E3CF82E479
:1033800090E022EE31E0DECF84E490E028E532E008
:10339000D9CF80E189BD82E189BD09B400FEFDCFAE
:1033A0008091D8008F7D8093D8008091E00082606A
:1033B0008093E0008091E00081FDFCCF0895AF9202
:1033C000BF92CF92DF92FF920F931F93CF93DF9321
:1033D0006C01EB018A010E94851BF82E811123C02C
:1033E0000115110539F0F80180819181C81BD90BB5
:1033F000C80ED91EA12CB12C2097A9F08091E8000D
:1034000085FD22C08091E8008E778093E800011549
:103410001105A1F0F801808191818A0D9B1D918396
:10342000808385E0F82E8F2DDF91CF911F910F9132
:10343000FF90DF90CF90BF90AF9008950E94851BC2
:103440008823E1F2F82EEFCFF60181916F0180938E
:10345000F1002197FFEFAF1ABF0ACECFAF92BF9214
:10346000CF92DF92FF920F931F93CF93DF936C0164
:10347000EB018A010E94851BF82E811123C00115E2
:10348000110539F0F80180819181C81BD90BC80E54
:10349000D91EA12CB12C2097A9F08091E80085FDC0
:1034A00022C08091E8008B778093E8000115110518
:1034B000A1F0F801808191818A0D9B1D9183808309
:1034C00085E0F82E8F2DDF91CF911F910F91FF9006
:1034D000DF90CF90BF90AF9008950E94851B882306
:1034E000E1F2F82EEFCF8091F100F60181936F01A8
:1034F0002197FFEFAF1ABF0ACECFFC019B0180914D
:103500008602909187028617970718F0672B61F063
:10351000C90140E0009771F441110CC08091E800AE
:1035200082FF35C080E008958091E8008E77809317
:10353000E800EECF20917F022223A9F12530A9F1E6
:103540002091E80023FD2DC02091E80022FDE6CF68
:103550002091E80020FFDECF3091F3002091F200AF
:10356000009719F02830310558F041E02830310536
:1035700009F040E02091E8002E772093E800CACFC0
:1035800041914093F10001972F5F3F4FE9CF809128
:103590007F02882341F0853041F08091E80083FF6D
:1035A000BDCF81E0089582E0089583E00895FC0195
:1035B0009B0180918602909187028617970718F0E9
:1035C000672B61F0C90140E0009771F441110CC014
:1035D0008091E80082FF36C080E008958091E80085
:1035E0008E778093E800EECF20917F022223B1F105
:1035F0002530B1F12091E80023FD2EC02091E80094
:1036000022FDE6CF2091E80020FFDECF3091F300CD
:103610002091F200009719F02830310558F041E070
:103620002830310509F040E02091E8002E77209302
:10363000E800CACF44914093F100319601972F5F83
:103640003F4FE8CF80917F02882341F0853041F0E1
:103650008091E80083FFBCCF81E0089582E0089567
:1036600083E00895982F973028F08F708093E900B9
:1036700081E008959093E900242F762F50E0981769
:1036800031F07091EC002091ED005091F00021FD9F
:1036900002C09F5FE8CF3091EB003E7F3093EB009C
:1036A0003091ED003D7F3093ED003091EB003160C3
:1036B0003093EB007093EC002093ED005093F000FA
:1036C0002091EE0027FDE5CF80E0089580918002F3
:1036D00087FF13C08091E80082FF06C08091E80058
:1036E0008B778093E80004C080917F028111F2CF34
:1036F000089580917F028823D9F38091E80080FFAC
:10370000F8CF8091E8008E77ECCF2091E4003091E3
:10371000E50095E6A9018091EC008170882331F0E5
:103720008091E80080FF06C080E008952091E800C5
:1037300022FD1BC080917F02882391F0853091F09B
:103740008091EB0085FD10C02091E4003091E500F0
:103750004217530701F391509111DCCF84E0089593
:1037600082E0089583E0089581E008950E94251C79
:103770000E942D1CE0EEF0E0808181608083E8ED06
:10378000F0E080818F77808319BCA7EDB0E08C9149
:103790008E7F8C9380818F7E808310927E0208952D
:1037A0000F931F93CF93DF930E94251C0E942D1C23
:1037B000C8EDD0E088818F7788838881806888838E
:1037C00088818F7D888319BC10927F0210927B02C2
:1037D00010927D0210927C0200EE10E0F8018081D0
:1037E0008B7F808388818160888342E060E080E015
:1037F0000E94321BE1EEF0E080818E7F8083E2EE5A
:10380000F0E0808181608083808188608083F8011E
:1038100080818E7F8083888180618883DF91CF91D2
:103820001F910F910895E8EDF0E080818F7E8083F5
:10383000E7EDF0E080818160808384E082BF81E0F9
:1038400080937E020E94D01B0895E8EDF0E0808115
:103850008E7F80831092E20008951092DA00109219
:10386000E10008951F920F920FB60F9211242F932B
:103870003F934F935F936F937F938F939F93AF93F8
:10388000BF93EF93FF938091E10082FF0BC0809183
:10389000E20082FF07C08091E1008B7F8093E1000E
:1038A0000E94951E8091DA0080FF19C08091D80097
:1038B00080FF15C08091DA008E7F8093DA008091BE
:1038C000D90080FF94C080E189BD82E189BD09B43F
:1038D00000FEFDCF81E080937F020E94F717809168
:1038E000E10080FF19C08091E20080FF15C0809147
:1038F000E2008E7F8093E2008091E20080618093FD
:10390000E2008091D80080628093D80019BC85E0E5
:1039100080937F020E940B188091E10084FF29C0F0
:103920008091E20084FF25C080E189BD82E189BDEC
:1039300009B400FEFDCF8091D8008F7D8093D80020
:103940008091E1008F7E8093E1008091E2008F7E84
:103950008093E2008091E20081608093E200809198
:103960007B02882309F449C084E080937F020E948F
:1039700014188091E10083FF29C08091E20083FF49
:1039800025C08091E100877F8093E10082E08093F1
:103990007F0210927B028091E1008E7F8093E10094
:1039A0008091E2008E7F8093E2008091E20080614E
:1039B0008093E20042E060E080E00E94321B809150
:1039C000F00088608093F0000E940818FF91EF914A
:1039D000BF91AF919F918F917F916F915F914F9127
:1039E0003F912F910F900FBE0F901F90189519BC0B
:1039F00010927F020E94051872CF8091E30087FF2A
:103A000002C083E0B2CF81E0B0CF1F920F920FB619
:103A10000F921124FF920F931F932F933F934F9375
:103A20005F936F937F938F939F93AF93BF93CF9346
:103A3000DF93EF93FF9309EE10E0F8018081C091CE
:103A4000EC00C795CC27C7958F70FC2EF82A108202
:103A5000C0EFD0E08881877F888378940E944E1DD4
:103A6000F8011082888188608883CF2DCF70C08351
:103A7000FF91EF91DF91CF91BF91AF919F918F9186
:103A80007F916F915F914F913F912F911F910F9176
:103A9000FF900F900FBE0F901F901895AAE2B0E014
:103AA000E4E5FDE10C94ED1E80E892E0FC01019656
:103AB0002091F100208322E088389207B9F70E9414
:103AC00039188091E80083FF38C08091800290917E
:103AD00081029A3090F5E92FF0E0EA5FFF4D0C94F7
:103AE000D81E803889F0823841F5809184028F7029
:103AF000873018F58093E9008091EB0085FB8827DB
:103B000080F91092E90006C080917C0290917D02BC
:103B1000911182609091E800977F9093E8008093E4
:103B2000F1001092F1008091E8008E7723C081119E
:103B300016C080918202813011F18091E80083FFEC
:103B40000AC08091E800877F8093E8008091EB00B5
:103B500080628093EB00AA96E3E00C94091F823008
:103B600061F780918202882389F01092E9008091A8
:103B7000E800877F8093E8000E94661BDECF81E02B
:103B8000933009F080E080937D02EFCF8091840232
:103B90008F702FEF280F263080F68093E900209158
:103BA000EB0020FFE2CF933031F48091EB00806294
:103BB0008093EB00DACF9091EB0090619093EB0053
:103BC00021E030E0A90102C0440F551F8A95E2F7B9
:103BD0004093EA001092EA008091EB008860E8CF01
:103BE0008111ABCF109182021F778091E300807822
:103BF000812B8093E3008091E800877F8093E80029
:103C00000E94661B8091E80080FFFCCF8091E3005A
:103C100080688093E30083E0111101C082E080930B
:103C20007F028BCF8058823008F087CF809182024C
:103C3000909183028C3D53E0950799F583E08A8348
:103C40008AE289834FB7F894DE01139620E03EE0C4
:103C500051E2E32FF0E050935700849120FF03C01E
:103C600082958F703F5F8F708A30C8F0895C90E0DA
:103C70008D939D932F5F243161F74FBF8091E800B2
:103C8000877F8093E8006AE270E0CE0101960E948F
:103C90007D1A8091E8008B778093E8004ECF805D9D
:103CA000E6CF6091840270918502AE014F5F5F4F55
:103CB0000E946919BC01892B09F43FCF8091E8006B
:103CC000877F8093E80089819A810E94D71AE1CF8B
:103CD000803809F032CF8091E800877F8093E80038
:103CE00080917B028093F1001ECF811126CF9091AD
:103CF0008202923008F021CF8091E800877F809384
:103D0000E80090937B020E94661B80917B028823CF
:103D100031F084E080937F020E941F180ECF8091C3
:103D2000E30087FDF6CF81E0F5CF0895CF93809132
:103D30007F02882399F08091E900C091EC00C7953B
:103D4000CC27C7958F70C82B1092E9008091E800AE
:103D500083FD0E944E1DCF70C093E900CF9108955E
:103D6000AA1BBB1B51E107C0AA1FBB1FA617B707A1
:103D700010F0A61BB70B881F991F5A95A9F78095BD
:103D80009095BC01CD01089597FB072E16F4009481
:103D900007D077FD09D00E94B01E07FC05D03EF485
:103DA000909581959F4F0895709561957F4F0895E7
:103DB000EE0FFF1F0590F491E02D09942F923F9292
:103DC0004F925F926F927F928F929F92AF92BF922B
:103DD000CF92DF92EF92FF920F931F93CF93DF93D7
:103DE000CDB7DEB7CA1BDB0B0FB6F894DEBF0FBE34
:103DF000CDBF09942A88398848885F846E847D8481
:103E00008C849B84AA84B984C884DF80EE80FD8082
:103E10000C811B81AA81B981CE0FD11D0FB6F894F8
:103E2000DEBF0FBECDBFED010895002E083090F02B
:103E3000982F872F762F652F542F432F322F22272D
:103E40000850F4CF220F331F441F551F661F771FE2
:103E5000881F991F0A95B2F7002D089597FD1094B9
:103E6000002E083098F00850232F342F452F562F5E
:103E7000672F782F892F912DF4CF159497958795DB
:103E80007795679557954795379527950A95AAF79A
:103E90001124002D0895FC014150504030F0019054
:103EA0000616D1F73197CF010895882799270895ED
:103EB000FB01DC0104C08D910190801921F4415077
:103EC0005040C8F7881B990B0895FB01DC0102C024
:103ED00001900D9241505040D8F70895F999FECFC6
:103EE00092BD81BDF89A992780B50895A6E1B0E00A
:103EF00044E050E00C94B81FA8E1B0E042E050E08C
:103F00000C94B81FDC01A40FB51F4150504048F07D
:103F1000CB01840F951F2E910E94931F415050405A
:103F2000D0F70895262FF999FECF92BD81BDF89A5A
:103F3000019700B4021639F01FBA20BD0FB6F894ED
:103F4000FA9AF99A0FBE08950396272F0E94931F9D
:103F50000E94921F252F0E94931F242F0C94931FC1
:103F60000196272F0E94931F0C94921FDC01CB0116
:103F7000FC01F999FECF06C0F2BDE1BDF89A319679
:103F800000B40D9241505040B8F70895F894FFCF17
:103F9000B313BA13C113C613CB13D013D513DA134B
:103FA000DF13E413E913EE13B513B513B513B5130B
:103FB000B513B513B513F213B513C8143C15D014CB
:103FC0009A149E14D414A214D814E414AE14351503
:103FD000B214E814B614EC141415BA14F0141B152A
:103FE000C014F614FE14A614DC14AA14E014C414AD
:103FF000FA140A15241533159414CC144315D71547
:10400000DD15C715D115E315E915EF15711D971DC0
:104010009D1D971D9D1DF01D121E9D1D681E751E68
:104020007401004000404001AC17D617B017B1171B
:08403000AF1701000102F613B5
:00000001FF
