:100000000C94E4030C941C040C941C040C941C0429
:100010000C941C040C941C040C941C040C941C04E0
:100020000C941C040C941C040C94D8240C9494245C
:100030000C94D5250C941C040C941C040C941C04E6
:100040000C941C040C941C040C941C040C941C04B0
:100050000C941C040C94B1250C941C040C941C04EA
:100060000C941C040C941C040C941C040C941C0490
:100070000C941C040C941C040C941C040C941C0480
:100080000C941C040C941C040C941C040C941C0470
:100090000C941C040C941C040C941C040C941C0460
:1000A0000C941C040C941C040C941C040501098081
:1000B000A101850319012AB700150126B700950192
:1000C00075108100C0050C0901A101850419012AE0
:1000D000A002150126A002950175108100C00660DE
:1000E000FF0961A1010962150026FF00952075082E
:1000F00081020963150026FF00952075089102C052
:1001000005010906A101050719E029E715002501E8
:10011000950875018102950175088101050719008F
:1001200029FF150026FF00950675088100050819AE
:1001300001290515002501950575019102950175A7
:10014000039101C00000000000000000000000005A
:10015000000000000000000000000000000000009F
:1001600000000000000000007E0F00D4FFFFFFC76A
:100170000000007800000000000000002A2B28008A
:100180000000000000000000000000000000002946
:10019000000000002C1E3420212224342627252E86
:1001A000362D3738271E1F202122232425263333BE
:1001B000362E37381F0405060708090A0B0C0D0EEA
:1001C0000F101112131415161718191A1B1C1D2FB6
:1001D0003130232D350405060708090A0B0C0D0ED6
:1001E0000F101112131415161718191A1B1C1D2F96
:1001F0003130354C1E0F0500047F3F1F64321464FC
:100200003214783C1E1E140A05000101010101018F
:1002100001010102020202020202020203030303BD
:10022000030303030404040404040405050505058D
:10023000060606060607070707070808080809094B
:1002400009090A0A0A0B0B0B0C0C0C0D0D0D0E0EF6
:100250000E0F0F0F10101111111212131314141589
:100260001516161717181819191A1A1B1B1C1D1DFD
:100270001E1E1F2020212222232424252626272853
:1002800029292A2B2C2D2D2E2F3031323233343583
:10029000363738393A3B3C3D3E3F40414243444586
:1002A000464748494A4C4D4E4F5051535455565865
:1002B000595A5B5D5E5F616264656668696B6C6D0F
:1002C0006F7072737577787A7B7D7E808283858785
:1002D000888A8C8E8F91939596989A9C9EA0A2A3C3
:1002E000A5A7A9ABADAFB1B3B5B7BABCBEC0C2C4C8
:1002F000C6C9CBCDCFD1D4D6D8DBDDDFE2E4E7E988
:10030000EBEEF0F3F5F8FAFDFFFFAA7F5540000190
:100310000203040506070F0E0D0C0B0A0908101145
:100320001213141516171F1E1D1C1B1A1918202135
:100330002223242526272F2E2D2C2B2A2928303125
:100340003233343536373F3E3D3C3B3A3938222351
:10035000252628292A2C2D2F3032333536383A3BA2
:100360003D3E4042434547494A4C4E5051535557F4
:10037000595A5C5E6062646668696B6D6F71737513
:1003800077797B7D7F81838587898A8C8E90929413
:1003900096989A9C9E9FA1A3A5A7A8AAACAEAFB120
:1003A000B3B4B6B8B9BBBCBEBFC1C2C3C5C6C7C96A
:1003B000CACBCCCDCED0D1D2D2D3D4D5D6D7D7D824
:1003C000D9D9DADADBDBDBDCDCDCDCDCDDDDDDDD76
:1003D000DCDCDCDCDCDBDBDBDADAD9D9D8D7D7D67E
:1003E000D5D4D3D2D2D1D0CECDCCCBCAC9C7C6C535
:1003F000C3C2C1BFBEBCBBB9B8B6B4B3B1AFAEAC7B
:10040000AAA8A7A5A3A19F9E9C9A98969492908E25
:100410008C8A89878583817F7D7B79777573716FFE
:100420006D6B6968666462605E5C5A5957555351DA
:10043000504E4C4A4947454342403E3D3B3A383690
:10044000353332302F2D2C2A29282625232200004F
:10045000000000000000000000000000000000009C
:10046000000000000000000000000000000000008C
:10047000000000000000000000000000000000007C
:10048000000000000000000000000000000000006C
:1006C000000000000000000000000000000009021F
:1006D000BF00050100A0FA090400000103010100A8
:1006E00009211101000122440007058103080001CE
:1006F0000904010002030000000921110100012288
:1007000022000705820320000107050303200001E2
:100710000904020001030000000921110100012267
:10072000320007058403200001080B0302010100C9
:10073000000904030000010100000924010001096F
:100740000001040904040002010300000724010061
:1007500001410006240201010006240202020009F0
:100760002403010301020100092403020401010121
:1007700000090506024000050000052501010109E8
:100780000585024000050000052501010312010056
:100790000200000008D804D8E8000101020001149A
:1007A0000346006500750069006C006C006500364A
:1007B00000340000000C03790079006E006D0074B5
:1007C000000000040309040011241FBECFEFDAE08B
:1007D000DEBFCDBF04B603FE18C080913F069091E6
:1007E0004006A0914106B09142068730904BA74049
:1007F000B04B59F410923F061092400610924106F9
:1008000010924206E0E0F8E3099526E0A2EDB1E09F
:1008100001C01D92AF33B207E1F711E0A0E0B1E0F3
:10082000E0E5FFE502C005900D92A23DB107D9F7C2
:100830000E94FC250C943F2F0C9400000F931F93F3
:100840009B01305E8901000F012F001F110B1195D4
:100850002F77482F406EE0915205F091530563E0E9
:1008600070E082E595E009951F910F9108950F932F
:10087000262F042F0F77482F406BE0915205F091FF
:10088000530563E070E082E595E009950F910895C6
:10089000482F20914E059091150557E0291302C06D
:1008A00080E0089530E0529FF001539FF00D112435
:1008B000EA5EFA4F8181681306C08081481303C045
:1008C00085818111EECF2F5F3F4F2770E7CFA3E0E7
:1008D000B0E0EDE6F4E00C94AB2D7C01162FD42EA5
:1008E000C22E80917705843071F5E0916C05F0910E
:1008F0006D053097C1F1C701019763E070E00E9478
:100900005D2DCB01880F991F860F971F19834A838E
:10091000CB824E2D481B9E012F5F3F4FBC0182E5CD
:1009200095E00995E0917005F0917105309739F0E7
:100930000C2D2D2D412FB70182E595E009952396C9
:10094000E8E00C94C72D82E0E816F10409F45AC0DF
:1009500083E0E816F104A9F081E0E816F10409F457
:1009600084C0F12CE12CE0916E05F0916F05309779
:10097000C9F20C2D2D2D412FB70182E595E0099587
:10098000D1CF862F807F803A11F188F48038D1F062
:10099000E0915605F0915705803929F7309719F302
:1009A000123F49F12C2D4D2D612F6F7027C0803ED5
:1009B00099F0803FB1F0E0915405F0915505803BEE
:1009C00091F6ECCFE0915805F0915905E7CFE09111
:1009D0005A05F0915B05E2CFE0915C05F0915D0571
:1009E000DDCF623F09F0BFCFE0915E05F0915F057A
:1009F000309709F4B8CF2C2D4D2D62EF82E595E0AC
:100A0000099590CF862F807F803DB9F0803FD1F04F
:100A1000E0916005F0916105803C09F0A4CF30972A
:100A200009F4A1CF812F8D7F4D2D612F6F70813FF4
:100A3000C9F082E595E0099575CFE0916205F091E6
:100A40006305EDCFE0916405F0916505633F39F0F2
:100A5000613F09F088CFE0916605F0916705309716
:100A600009F481CF4D2D612FE4CFE0916805F0911D
:100A70006905683F38F4663F09F075CFE0916A0573
:100A8000F0916B05309709F46ECF612F82E595E008
:100A9000099548CFE8EDF0E080818E7F8083109249
:100AA000E2001092DA001092E100A0EEB0E08C912A
:100AB00081608C9380818F77808319BCA7EDB0E033
:100AC0008C918E7F8C9380818F7E80831092FE0428
:100AD00008952091E4003091E50095E6A901209168
:100AE000EC00822F817020FF06C08091E80080FF1B
:100AF00006C080E008952091E80022FD1AC0809190
:100B00000B05882389F0853089F08091EB0085FD05
:100B10000FC02091E4003091E50042175307F9F22D
:100B20009150E1F684E0089582E0089583E008950D
:100B300081E00895EF92FF920F931F93CF937C0172
:100B40008B010E946905C82F811117C08091E800B0
:100B500085FD0BC08091E8008E778093E8000E94AD
:100B60006905882399F3C82F08C0F70181917F0197
:100B70008093F1000150110949F78C2FCF911F91FB
:100B80000F91FF90EF900895EF92FF920F931F93B4
:100B9000CF937C018B010E946905C82F811117C07A
:100BA0008091E80085FD0BC08091E8008B778093F1
:100BB000E8000E946905882399F3C82F08C0809136
:100BC000F100F70181937F010150110949F78C2F42
:100BD000CF911F910F91FF90EF90089580910D0597
:100BE00087FF13C08091E80082FF06C08091E80073
:100BF0008B778093E80004C080910B058111F2CFC0
:100C0000089580910B058823D9F38091E80080FF37
:100C1000F8CF8091E8008E77ECCF982F9093E90081
:100C2000242F762F50E0891731F07091EC0020913D
:100C3000ED005091F00021FD07C09F5F973071F7E4
:100C40008093E90081E008953091EB003E7F30937E
:100C5000EB003091ED003D7F3093ED003091EB00E3
:100C600031603093EB007093EC002093ED005093D3
:100C7000F0002091EE0027FDE0CF80E00895B0E085
:100C8000A0E0E5E4F6E00C94AB2DC8EDD0E088815F
:100C90008F7E8883E7EDF0E080818160808384E04F
:100CA00082BF81E08093FE0488818E7F888302EE7C
:100CB00010E0F80110821092DA0081EEC82ED12CDB
:100CC000F601108288818F77888388818068888385
:100CD00088818F7D888319BC10920B0510920C05BA
:100CE00010920A051092090590EEE92EF12CF701F9
:100CF00080818B7F808388818160888342E060E08F
:100D000080E00E940D06F60180818E7F8083F801CD
:100D1000808181608083808188608083F701808109
:100D20008E7F8083888180618883CDB7DEB7E8E0DD
:100D30000C94C72DFC018091130590911405861722
:100D40009707A0F06115710529F49091E8009E774E
:100D50009093E80090E06115710551F4911108C07D
:100D60008091E80082FF34C080E00895BC01F2CF9A
:100D700080910B058823C1F18530C1F18091E80095
:100D800083FD30C08091E80082FDEACF8091E800C9
:100D900080FFE1CF8091F3002091F200382F6115A0
:100DA000710519F02830310558F091E028303105EF
:100DB00009F090E02091E8002E772093E800CBCF57
:100DC00081918093F100615071092F5F3F4FE7CF10
:100DD00080910B05882341F0853041F08091E80037
:100DE00083FFBECF81E0089582E0089583E00895F7
:100DF000089508958091000508959C014FB7F894D7
:100E00008091FA049091FB04A091FC04B091FD0440
:100E10004FBF821B930B08952FB7F8946091FA048B
:100E20007091FB048091FC049091FD042FBF089504
:100E30002FB7F8948091FA049091FB04A091FC04E0
:100E4000B091FD042FBF0895A3E0B0E0EAE2F7E01F
:100E50000C94B12D2091F7043091F804281739072C
:100E6000A1F09093F8048093F704E091F504F091D9
:100E7000F604309751F024E029839B838A8306800F
:100E8000F781E02DCE01019609952396E2E00C94BE
:100E9000CD2DA3E0B0E0EFE4F7E00C94B12D20916C
:100EA000F3043091F40428173907A1F09093F40467
:100EB0008093F304E091F504F091F604309751F03B
:100EC00023E029839B838A830680F781E02DCE016E
:100ED000019609952396E2E00C94CD2DE091F5045E
:100EE000F091F604309729F00190F081E02D0995FA
:100EF000089580E00895FA01811101C0FB01099570
:100F000008958091EB04982F9E7F61F48170826038
:100F10008093EB048091EE04893718F088E7809382
:100F2000EE0408958635B0F381708465F1CFAF92F9
:100F3000BF92DF92EF92FF920F931F93CF93DF93B5
:100F4000182F062FE901493708F048E7E42FF0E0B1
:100F5000E75FFD4F011110C0E4915E2F4E2F4983D2
:100F6000E8835A83DF91CF911F910F91FF90EF900B
:100F7000DF90BF90AF900895202F30E04491D42EA1
:100F8000E42EF12C56E0159FC0011124EFEFF0E0A4
:100F9000BF010E945D2D812F90E0880F991F55E5BC
:100FA000569FD001579FB00D11248A1B9B0B982F81
:100FB000990F890F5F01A21AB30AAE9CD001AF9CB2
:100FC000B00DBE9CB00D11245B2F089F8001112431
:100FD000012F11275F01A01AB10AAE9C8001AF9CBE
:100FE000100DBE9C100D11245F01A81AB108A29E1D
:100FF000C001A39E900DB29E900D1124892F9927B8
:10100000E81BF90BEE9DC001EF9D900DFE9D900D2C
:101010001124E92F62307105A1F050F461157105BA
:1010200009F49DCF6130710581F0EB2F512F97CFDF
:101030006430710569F080F06630710509F48FCF76
:10104000F4CFE42F4B2F592F8ACFE42F412F87CF96
:10105000EB2F542F492F83CF4B2F5D2DE12F7FCFC7
:101060000F931F93CF93DF93FB01833821E7920700
:1010700008F084C0833751E7950708F0A4C184368F
:1010800021E7920750F5873551E7950708F057C1DA
:10109000853521E7920760F48B3451E7950708F016
:1010A00036C1833021E7920708F0DAC011E029C188
:1010B000853551E7950709F437C186359147B1F772
:1010C0008581882309F403C18091DA02982F9F70EB
:1010D000993008F0FCC09F5F30C1813751E7950718
:1010E000A0F5863621E7920708F046C1843651E71D
:1010F000950709F42FC185369147C1F6858188236C
:1011000009F4E5C02091DA02822F859585958595B1
:10111000859586300CF0DBC091E0980F9295907F1A
:101120009595959595959595392F3295307F2F709A
:10113000232B2093DA0218160CF0C9C097FFC7C002
:101140008295807F922F9F70EBC08137980709F4BA
:1011500021C18237914709F0A9CF8581882309F4FD
:10116000B6C08091DB02982F9F779F3709F4AFC0FC
:10117000933708F026C1935F9F770AC1893851E7FA
:10118000950709F478C1B8F5853851E7950709F452
:101190004AC1D8F4833851E7950709F426C1843849
:1011A000914709F083CF8581882309F490C020916D
:1011B000DB02322F331F3327331F9091DC02892F3C
:1011C0008770880F832B8F5F21C13091DB022091C4
:1011D000DC024581873851E7950709F442C108F4DC
:1011E00033C141114FE7832F881F8827881F27703D
:1011F000220F62E432C18C3821E7920709F45BC107
:1012000080F48A3821E7920709F444C18B3891476A
:1012100009F04CCF858181114CC18FEF8093490239
:1012200056C08E3821E7920709F47BC108F464C1E7
:101230008F38914709F03ACF15818091DB02982FC2
:10124000991F9927991F8091DC028770880F892B3D
:10125000112309F476C16FEF7FE10E941E0437C0AD
:101260000091DB02202F221F2227221F4091DC0247
:101270004770440F422B0F771581CDEFC80FD0E098
:10128000C65BDD4F112339F19091DA02192F1595C4
:1012900015951595159513509F705CE0959F100D51
:1012A0001124180F212F2F774069E0915205F091FA
:1012B000530563E070E082E595E00995FE01E85B87
:1012C000FF4F80818F5F808388818F3F11F010E016
:1012D00018C01883FCCF2881FE01E85BFF4F808196
:1012E000815080838111F3CF2F774068E0915205C0
:1012F000F091530563E070E082E595E009958FEF8A
:101300008883812FDF91CF911F910F9108952581BF
:101310002223E9F28B54982F9F708091DA02807F0C
:10132000892B8093DA02D3CF8581882381F2809143
:10133000DA02982F9F7059F2915F9F70F0CF25814C
:10134000222329F28D55982F9295907F8091DA0271
:101350008F70E6CF8581882309F4B9CF8091DA02B6
:10136000982F95959595959595959B3F0CF4AFCFB6
:10137000915F9295907FECCF2581222309F4A7CF2E
:1013800086569CE0899F902D11249F778091DB02E7
:10139000807815C08581882309F499CF8091DB027C
:1013A000982F9F7709F493CF80789F3721F4856732
:1013B0008093DB028CCF9D30D8F39D509F77892B93
:1013C000F7CF8F67F5CF2581222309F480CF83578C
:1013D0009091DB0280FB97F99093DB0286958770F2
:1013E0009091DC02987F892B84C08581882309F441
:1013F0006ECF2091DB02322F331F3327331F9091A2
:10140000DC02892F8770880F832B815F382F3F7014
:1014100080FB27F92093DB02832F8695987F982BFA
:101420009093DC0254CF8581882309F450CF9091AA
:10143000DB02991F9927991F8091DC028770880F22
:1014400040E06BE7892B0AC041114FE7832F881FCB
:101450008827881F2770220F60E4822B0E943704A0
:1014600036CF41114FE7832F881F8827881F2770A9
:10147000220F61E4F2CF858140E081114FE7909126
:10148000DB02991F9927991F8091DC028770880FD2
:1014900063E4D8CF858140E081114FE79091DB0272
:1014A000991F9927991F8091DC028770880F64E447
:1014B000C9CF81E0B3CE8581882309F408CF90910C
:1014C000DC02292F2695269526952F7081E0820F24
:1014D0008F70880F880F880F9778892B8093DC0294
:1014E000982F987709F0F3CE220F220F220F8778DA
:1014F000822B8093DC02EBCE8581882309F4E7CE32
:101500008091DC02982F987709F4E1CE982F969578
:1015100096959695915F9F70990F990F990F87787F
:1015200062CF15818091DB02982F991F9927991F0F
:101530008091DC028770880F892B60E070EE1111BA
:101540008CCE70E060E00E941E04DBCE089508950A
:10155000982F907F903BE9F040F49039D1F0903A89
:10156000C1F09038B1F080E00895903D19F020F47A
:10157000903CC9F782E00895903E59F0903F99F76A
:10158000815F8F3080F7E82FF0E0E857FE4F8081D1
:10159000089583E00895A7E0B0E0E1EDFAE00C944F
:1015A000AE2D8C0108511F4F80910B05843009F03E
:1015B0006CC0809112018F708093E9008091E800E7
:1015C00082FF63C08091E80085FF5FC050E040E08B
:1015D00064E070E0CE0101960E94C4058091E800AD
:1015E00085FD05C08091E8008B778093E800FA8044
:1015F0008F2D0E94A80A282FFD828B818E838C81DB
:101600008F8321110AC08981843039F1873029F113
:10161000863029F121E0853039F630E0E5E0F0E070
:10162000EC0FFD1FE30FF11DF0804FB7F894D801C8
:101630001196EC911197F0E0CF01019612966C9102
:1016400070E00E94712DD8015C915817190649F479
:101650004FBF3F5F321710F3A7CF23E0DECF22E06A
:10166000DCCF13968D919C911497E80FF91FF082AF
:1016700011968C91119790E0019612966C9170E002
:101680000E94712DF8018183E3CF2796E5E00C9449
:10169000CA2DA4E0B0E0EFE4FBE00C94AC2D7B019C
:1016A000142FD22E4A832B830C83842F0E94A80AE6
:1016B00081113AC082E0E816F10489F183E0E8166E
:1016C000F10441F081E0E816F10429F5173F29F40F
:1016D00085E004C087E0073F09F084E089838091BA
:1016E0000B058430C1F480910D018F708093E90067
:1016F00050E040E064E070E0CE0101960E949A055F
:10170000811109C08091E80085FD05C08091E80045
:101710008E778093E8002496E7E00C94C82D87EF3D
:10172000D812DBCF86E0DACF12951F701983D7CF9E
:1017300080E00895F894E82FE295EF70F0E031A191
:10174000282F2F7081E090E001C0880F2A95EAF7DA
:10175000982F9095932391A392A1892B82A378949B
:1017600008959091200292FF10C041E0282F24712B
:10177000243009F040E031E0282F2871283009F0AA
:1017800030E0431711F02CE0822793FF10C041E0B6
:10179000282F2471243109F040E031E0282F2871EE
:1017A000283109F030E0431711F02CE08227309106
:1017B000210230FF10C051E0282F2171213009F0A3
:1017C00050E041E0282F2871283009F040E05417FC
:1017D00011F029E0822731FF10C041E0282F21714C
:1017E000213109F040E031E0282F2871283109F03B
:1017F00030E0431711F029E0822794FD877E089599
:1018000082389105B9F1B0F48133910509F47DC0B6
:1018100048F48932910509F46DC08A32910509F4C2
:101820007BC008958533910509F45FC08933910524
:1018300009F10895833E9105D9F138F4803E910570
:1018400029F1823E910579F10895863E9105D9F1FD
:10185000873E910509F43EC0843E910541F52091F3
:10186000210221FF24C08091200284FD19C087EE4F
:1018700090E0089520912002237009F05AC0209131
:10188000210223FF14C089E290E0089520912002F4
:1018900020FD38C03091210230FF09C024FF43C031
:1018A00090E080E008952091200222FDF7CF089576
:1018B0002091200222FD3AC03091210230FD39C032
:1018C00024FFF5CFEDCF2091200223FFF0CF24FDA0
:1018D000E7CFCDCF2091200223FD2EC030912102F1
:1018E00031FFEECF84EE90E008952091200225FF95
:1018F000DECFC9CF2091200225FD21C020912102F9
:1019000023FFD5CF89E390E0D2CF2091200226FF9C
:10191000CECF8AE290E008952091200226FFC7CF23
:1019200081E390E0089583EE90E0089582EE90E0E8
:10193000089580EE90E0089586EE90E0089585E3A6
:1019400090E008951F93CF93DF930E94000CEC0169
:10195000C11580E5D807F0F5C11580E4D80708F077
:101960009CC0C03ED10520F5CD3CD10508F082C019
:10197000C83AD10578F4C53AD10508F073C0C13032
:10198000D10519F1209709F1C430D105F0F4D0E068
:10199000C0E01BC0C33CD105D0F7C85AD0E0CC0F83
:1019A000DD1FC65DDE4F0990D881C02DD4640DC007
:1019B000C11580E2D80708F0D1C0C11581E0D80771
:1019C00008F05AC0C83ED10510F7CE01DF91CF9183
:1019D0001F910895C03682E5D80718F5C03482E516
:1019E000D80708F06BC0C03282E5D80708F05FC0A6
:1019F000C11582E5D80708F497C02C2F26952695A7
:101A000080E2289F900111248C2F8370C1E0D0E0E8
:101A100002C0CC0FDD1F8A95E2F7C22BD32BDD6805
:101A2000D4CFC03A82E5D80760F4C03882E5D80741
:101A300008F459C0CF71D0E0DC2FCC27C46FD06A36
:101A4000C4CFC03C82E5D80708F462C0C03E82E53E
:101A5000D80708F09CCFDC2FCC27CC27DF71C06FD4
:101A6000D06AB3CFC55AD0E0C95DDE4FC881D0E09F
:101A7000D064ABCFD065A9CF8D2F0E94B10B182FAA
:101A8000CE0199270E94000CC12FD0E0DC2FCC277B
:101A9000CC27DF71C82BD92B98CFCE0199270E9474
:101AA000000CCC27DF70C82BD92BD06A8ECFCF711A
:101AB000D0E0DC2FCC27C16FD06A87CF2C2F2695A2
:101AC0002695277080E2289F900111248C2F837027
:101AD000C1E0D0E002C0CC0FDD1F8A95E2F7C22B37
:101AE000D32BDC6872CF2C2F26952695277080E2A9
:101AF000289F900111248C2F8370C1E0D0E002C098
:101B0000CC0FDD1F8A95E2F7C22BD32BDA685DCFAD
:101B10008C2F8F710E94B10BC82FD0E0DC2FCC2707
:101B2000CC27DF71D06251CF8C2F8F710E94B10B07
:101B300055E0D695C7955A95E1F7CF70D0E0DC2FE8
:101B4000CC27282F30E084FF05C044E0220F331F4C
:101B50004A95E1F7C22BD32BD06937CF8D2F8F71E8
:101B60000E94B10B182FCE0199270E94000CC12FA3
:101B7000D0E0DC2FCC27CC27DF71C82BD92BD2CFDC
:101B8000809590910E02982390930E020895E6EDB1
:101B9000F1E09191891303C0DF0111971C9291E04C
:101BA000EC3DF907B1F70895A6EDB1E0EFEF90E055
:101BB0002D91821751F0EF3F19F4211101C0E92F47
:101BC0009F5F9630A9F7EF3F09F408950E2E000CA1
:101BD000FF0BEC52FE4F8283089580914E05909149
:101BE0001505981301C008958F5F8770FACF9A305A
:101BF00080F5883070F548E0949F90011124820FA1
:101C0000932F911D682F677023E0969587952A95ED
:101C1000E1F7FC01EE0FFF1FE80FF91FE252FE4F44
:101C200050E040E080E0219130E0062E02C0369581
:101C300027950A94E2F721703327042E01C0220F62
:101C40000A94EAF7822B4F5F5F4F4330510559F7F3
:101C5000089580E008959A3098F5883088F548E036
:101C6000949F90011124820F932F911D282F27708C
:101C700041E001C0440F2A95EAF723E09695879545
:101C80002A95E1F7FC01EE0FFF1FE80FF91FE25262
:101C9000FE4F90E080E070E05191DF0111979B01D1
:101CA000082E02C0369527950A94E2F721702195F7
:101CB0002527242325272C9301968330910561F74E
:101CC000089580931F02089590911F0221E030E053
:101CD000F90101C0EE0F8A95EAF7D90102C0AA0FF7
:101CE000BB1F6A95E2F7EA2B01C0220F4A95EAF77B
:101CF000892F8E23E81305C0292B822F0E94610EA5
:101D0000089520952923F9CF21E030E001C0220F6A
:101D10008A95EAF7209580911F0282230E94610E26
:101D20000895909103028095892380930302282FC0
:101D3000277069F4891759F09091210292FF07C02A
:101D40008695869586950E94840E109203020895CA
:101D500021E030E001C0220F8A95EAF780911F024E
:101D6000822B0E94610E089580930F0208959C01BA
:101D70003A9521153F4150F5FC01EE27F170BC0169
:101D800066277270AC01442754709C01222738707A
:101D900094FF0EC080E1EF2B09F480E0672B09F07F
:101DA0008062452B09F08064232B89F080680895B8
:101DB00081E0EF2B09F480E0672B09F08260452B6E
:101DC00009F08460232B19F08860089580E008955D
:101DD0009B01BA0190910B059430E1F48093E900E6
:101DE0009FEF8091E800915085FD06C085ED8A95B2
:101DF000F1F700009111F5CF8091E80085FF0AC04E
:101E000050E040E0C9010E949A058091E8008E7779
:101E10008093E800089543E050E0BC0184E00E9414
:101E2000E80E0895CF93DF93EC0148E050E0BC0149
:101E300081E00E94E80E88E0FE01A1E0B5E001909B
:101E40000D928A95E1F7DF91CF91089581E080931B
:101E5000E00080E28093D8001092C9008FE19EE4F8
:101E60000197F1F700C0000087E090EBDC01809360
:101E70003F0690934006A0934106B093420688E146
:101E80009CE00FB6F894A895809360000FBE9093E5
:101E90006000FFCFCF93DF93C9EAD2E060E0CE01CC
:101EA0000E94A82E2196C11584E0D807B9F7DF91CA
:101EB000CF9108951F93CF93DF93122F8430E0F4D6
:101EC0006A30D0F44830C0F490E1699FE0011124F9
:101ED00050E0440F551FC40FD51F90EA899FC00DD5
:101EE000D11D1124632FCE0189960E94A82E612F47
:101EF000CE018A960E94A82EDF91CF911F9108955E
:101F0000AF92BF92CF92DF92EF92FF921F93CF9347
:101F1000DF938EE4C82E84E0D82ED0E07601C0E0B6
:101F200014C0F50125913491412F6C2F8D2F0E9403
:101F30005A0F82E0A80EB11C1F5F183091F780E1A4
:101F4000E80EF11CCF5FCA3019F0570110E0E9CF5D
:101F5000DF5F80EAC80ED11CD43001F7DF91CF914A
:101F60001F91FF90EF90DF90CF90BF90AF900895BA
:101F7000CF93C82F6FEF811162E285E290E00E945B
:101F8000A82E6FEFC11163E086E290E00E94A82EB8
:101F90006FEFC11162E187E290E00E94A82ECF911D
:101FA000089580E00E94B80F60E088E290E00E940F
:101FB000A82E0E94800F0E944A0F81E00E94B80F55
:101FC00008950F931F93CF93DF93843030F56A30D9
:101FD00020F5483010F520E1629F8001112450E087
:101FE000440F551F040F151F30EA839F000D111D6C
:101FF0001124C80189960E94842EC82FD0E0DC2FBE
:10200000CC27C8018A960E94842E9E01282BC901E4
:10201000DF91CF911F910F91089590E080E0F8CF6C
:10202000462F7A3040F4683030F4843020F4672F43
:102030000E94E10F089590E080E00895CF92DF9232
:10204000FF920F931F93CF93DF936C0100911F02B8
:1020500080910F02082BC3E0D0E010E0FC2EC801F5
:102060000C2E02C0959587950A94E2F780FD0CC06E
:102070002197A0F7F12C8F2DDF91CF911F910F9118
:10208000FF90DF90CF900895B6018C2F0E94101022
:102090000E94A20C019761F3EECFCF93DF93EC0186
:1020A0000E941E10BE010E9410100E94A20CDF911F
:1020B000CF910895FC0124812223C1F08081918178
:1020C0000E944D1092959F70963091F058F4925F57
:1020D0009F70923058F4803F19F030F4883E30F40D
:1020E00081E008959A5FF4CF843FD1F380E00895B2
:1020F000883EB0F3813FD1F7F3CFA6E0B0E0E3E84C
:10210000F0E10C94B02D49835A8349815A81992377
:10211000A1F0222391F0CA010E941E10182F682FEF
:1021200089819A810E942B0E69817A81812F0E9478
:1021300010102696E3E00C94CC2DCA010E94F70DF6
:10214000182FF2CF85E290E00E94842E823289F42B
:1021500086E290E00E94842E833059F487E290E07A
:102160000E94842E91E0823109F090E0892F8170E5
:10217000089580E0FCCF6091EB04669570E04BE041
:1021800050E088E191E00E946A2E892B19F481E0E9
:102190008093E5020E9418079093DF028093DE028D
:1021A0000895AF92BF92CF92DF92EF921F93CF9399
:1021B000DF93CDB7DEB7C05CD1090FB6F894DEBFB0
:1021C0000FBECDBF8091EB0480FD0AC0EBEEF2E0C4
:1021D000118210821282339683E0EB3AF807C1F73E
:1021E0007EE0A72E73E0B72EDE011196AE014F53AD
:1021F0005F4F1A2F7B2FF5018491282F30E0C90102
:10220000880F991F820F931F85519D4FFC01C0803D
:10221000D180E280CD92DD92ED92FFEFAF1ABF0A3E
:10222000A417B50741F7809A31B33E7F21B32160EF
:102230006FB7F894812F972FFC017191CF01E8E0DF
:1022400021BB000000C077FF31BB770F000000C04A
:1022500000C000C031BB00C0EA9591F78417950714
:1022600059F76FBF8FE594E00197F1F700C00000C8
:10227000C054DF4F0FB6F894DEBF0FBECDBFDF9165
:10228000CF911F91EF90DF90CF90BF90AF900895C6
:10229000B0E0A0E0EEE4F1E10C94A32DFC0162803B
:1022A000448081E08483EEE4F3E07490EDECF3E0AD
:1022B000E4910091EE040695015810E0000F111F03
:1022C000012F1127CBEAD3E02BEEC22E22E0D22E33
:1022D0003BEE832E34E0932EAA24AA94B12C5524ED
:1022E0005A94E719EE2EF12C82E0861530F0809199
:1022F000EC0488838091ED048983411016C01B8211
:102300001A8296014A81698188810E9497072596E1
:1023100083E0C80ED11C8C169D0631F70E94D110A7
:10232000CDB7DEB7E0E10C94BF2D8B818823E9F0B7
:1023300081508B83859DC00111246C8170E00E94C7
:102340005D2DFB01FF27E25BFC4F8491E82FE7192D
:10235000E59DC0011124B7010E945D2D8091EE041E
:10236000689FB00111247A83CCCF0E945A2EB50108
:102370000E94712D8017910724F682E0861588F45B
:102380000E945A2EB5010E94712D88830E945A2EF8
:102390002091ED042695622F70E00E94712D280F88
:1023A00029831A828091EE04893C20F088EC8C838A
:1023B0008B83A7CF8431D8F784E1F9CFEF92FF92D6
:1023C0000F931F93CF93DF938C01CBEED2E0F12CD0
:1023D000E12CF80194816091ED048091EC04F0E22D
:1023E000EF16F104ECF49923E9F09E014091EE041C
:1023F0000E9497072FEFE21AF20A239680E4E8166C
:10240000F10439F70E94D110F801848190E001961F
:10241000817099278483CDB7DEB7E6E00C94C92D8F
:10242000992319F39E0140E0E3CFB0E0A0E0EBE197
:10243000F2E10C94A72DEC014C81042F10E09801DF
:10244000D8010E94302F9B01AC010E94FB2E4B0152
:102450005C01E0E2F0E0E01BF10BA5E5B0E0AC01CF
:102460009B010E94FB2E6B017C019F01DF010E94FA
:10247000922D9B01AC010E94062F9B01AC01280DFF
:10248000391D4A1D5B1DC701B6010E940E2FF22E99
:10249000822F90E039E23F1598F143E0249F9001AC
:1024A000112435952795122F10959BEEC92E92E099
:1024B000D92E00E085E5E82EEF188E2D01FD8F2D39
:1024C0009601412F6091ED040E9497070F5F53E042
:1024D000C50ED11C003489F70E94D1109C8181E087
:1024E000992319F0903219F48FEF80932501809190
:1024F0002501890F8C83CDB7DEB7ECE00C94C32D9A
:1025000025E530E0A901481B590BCA019A01220FA9
:10251000331F280F391F37FFC4CF2F5F3F4FC1CF65
:102520000F931F93CF93DF93CBEED2E0FE01118286
:1025300010821282339683E0EB3AF807C1F710E07D
:1025400000E08091E902082E000C990B081719078A
:102550008CF180912401082E000C990B80179107B3
:102560004CF19E014091EE046091ED048091EC04E9
:102570000E9497070F5F1F4F23960034110509F73C
:102580000E94D110809123019091E902980F9093BD
:10259000E90220912401280F20932401121614F43B
:1025A0009F331CF0819580932301DF91CF911F9180
:1025B0000F910895198218821A82DCCFB0E0A0E052
:1025C000E4EEF2E10C94AB2DFC018281DD24DA947F
:1025D00080FD02C0DD24D394CBEED2E010E000E019
:1025E000198218821A8294E0E92EF12CC12C809174
:1025F000E8028C0D8134ACF18F73082E000C990B1E
:102600008017910791F48091EE048E9DA0018F9D1B
:10261000500D112455954795559547959E0160910C
:10262000ED048091EC040E949707CD0CF1E0EF1AC5
:10263000F108E9F60F5F1F4F23960034110581F66C
:102640000E94D1108091E80291E0D91210C081114E
:102650000CC08FE38093E802CDB7DEB7E8E00C94BE
:10266000C72D87FFCACF805CC8CF8150F3CF90E0E1
:1026700001968F739927EECFEF92FF921F93CF931E
:10268000DF93EC018BEEE82E82E0F82E10E08C81D7
:1026900097014091EE046091ED04810F0E9497072D
:1026A0001D5F83E0E80EF11C103C89F70E94D110F9
:1026B0009A818C8190FF08C08F5F8C83DF91CF91CE
:1026C0001F91FF90EF9008958150F7CF9091EB0408
:1026D00090FF0CC0EBEEF2E081836083428333967F
:1026E00093E0EB3AF907C1F70E94D1100895A3E0F7
:1026F000B0E0EDE7F3E10C94AF2D8C018091EA029C
:1027000081110AC09E012F5F3F4F48E76FEF0E9483
:1027100097078A818093EA02F8016481613069F049
:102720008091EA0240E0662361F040E0623011F4FB
:102730004091EA0280E060E004C06091EA0240E07B
:1027400080E00E946613F801848190E0019663E0C6
:1027500070E00E94712D84832396E4E00C94CB2DCD
:10276000A3E0B0E0E6EBF3E10C94B12D9091EB0423
:1027700090FF0AC09E012F5F3F4F0E9497074B8139
:1027800069818A810E9466132396E2E00C94CD2D24
:10279000CF93DF93EC01EBEEF4E0438162818C8117
:1027A0000E94B0138C818F5F8C83DF91CF9108954D
:1027B000CF93DF93EC01EC81F0E0E25BFC4F4491BE
:1027C000EBEEF4E0628181810E94B0138C818F5F17
:1027D0008C83DF91CF910895B0E0A0E0E2EFF3E1C8
:1027E0000C94A72D49015A016B017C010E948107BD
:1027F0008401A4016A2D7B2D88E090E00E94BA2E0E
:1028000094014A2D5B2DB601C70100E20E94F32D11
:10281000622F84E290E00E94A82ECDB7DEB7ECE0F4
:102820000C94C32DA3E0B0E0E8E1F4E10C94A62DF4
:10283000F82ED62EE42EC22E9091EB0490FF2EC0DF
:10284000E92FE695AE2FB0E0A956BE4F8C9180934C
:10285000E4029E7F923031F59E012F5F3F4F8F2D16
:102860000E9497074B8169818A810E946613F092CA
:10287000EC04D092ED04E092EE04CC2079F02091AB
:10288000EB046091EF047091F0043F2D4D2D5E2D0F
:102890008091F1049091F2040E94EC132396EDE0F4
:1028A0000C94C22D823019F4E090EE04E0CF863013
:1028B00019F4F090EC04DBCF8930D9F38931B9F603
:1028C000E9512E2F2170722EE695F0E0E75FFC4F64
:1028D000E4910E2F10E03BEEA32E32E0B32E912CAC
:1028E000812CC40126E0969587952A95E1F7711011
:1028F00013C08F0D95014E2D6D2D0E949707800EF0
:10290000911E83E0A80EB11C2BEAA21623E0B206AA
:1029100041F70E94D110ABCF2F2D281B822FEACF79
:10292000EBEEF4E0438128E0421B08F440E021E0B4
:10293000628181810E9412140895EBEEF4E04381DC
:1029400028E0420F08F44FEF21E0628181810E946C
:1029500012140895EBEEF4E0628128E0621B08F4A3
:1029600060E021E0438181810E9412140895EBEE22
:10297000F4E0628128E0620F08F46FEF21E0438108
:1029800081810E9412140895EBEEF4E0818121E030
:102990004381628188500E9412140895EBEEF4E0A6
:1029A000818121E043816281885F0E941214089531
:1029B0008091EF04882319F081508093EF042091D7
:1029C000EB043091EC044091ED045091EE046091E1
:1029D000EF047091F0048091F1049091F2040E9450
:1029E000EC1308958091EF04833018F48F5F809387
:1029F000EF042091EB043091EC044091ED045091F0
:102A0000EE046091EF047091F0048091F1049091D4
:102A1000F2040E94EC1308959091EB0490FF34C0EF
:102A20009170811132C092609093EB04662391F013
:102A30002091EB043091EC044091ED045091EE04B0
:102A40006091EF047091F0048091F1049091F20490
:102A50000E94EC136091EB04669570E04BE050E04F
:102A600088E191E00E946A2E892BB1F01092E50274
:102A700081E08093E10220E04091EE046091ED045A
:102A80008091EC040E94121408958B3210F094652A
:102A9000CBCF880F982BC8CF0E94BB10E9CFEBEEAD
:102AA000F4E080818160808360E086950E940C154F
:102AB00008958091EB048695815009F48AE261E0E3
:102AC0000E940C1508958091EB0486958F5F8B32E0
:102AD00008F081E061E00E940C1508959091EB04EC
:102AE00090FF08C09695981728F0961718F40E9442
:102AF0006315089561E00E940C150895EBEEF4E073
:102B000083E0808311828FEF828388E7838314823E
:102B1000758123E030E04FEF58E760E086819781D0
:102B20000E94EC1308959091210292FB222720F934
:102B3000281779F080FB92F990932102609120028E
:102B40007091210284E090E00E94C62E82E00E94F3
:102B5000910E089590E080E00E94922E863E9E4F56
:102B600019F40E94A210089580E0089580910E0249
:102B700090910D02892B8093D40190910C0299239E
:102B800091F0892B8093D40120E086ED91E0FC0147
:102B90003191CF0131112F5FF1E08C3D9F07B9F7E3
:102BA000211110920C0248E050E064E072E084EDE4
:102BB00091E00E94772E892BA9F088E0E4EDF1E006
:102BC000A4E0B2E001900D928A95E1F7E091F5045E
:102BD000F091F604309731F00280F381E02D84ED1E
:102BE00091E00995089510920E02E6EDF1E086E07D
:102BF000DF011D928A95E9F790E080E00E94490785
:102C000090E080E00E94240710920D020E94B61509
:102C10000895AAE2B0E0EFE0F6E10C94B02D8DE06B
:102C200095E02091F100DC012D93CD01B5E08531D7
:102C30009B07B9F780910E05833009F472C0B8F490
:102C4000813009F449C0823009F4B3C08091E800B2
:102C500083FF96C280910D0590910E059A3008F081
:102C60008FC2E92FF0E0EF5BF04D0C94852D8A3098
:102C700009F48EC08B3009F471C0893039F7809126
:102C80000D05813219F78091110590911205009779
:102C900011F00297D9F68091E800877F8093E800D1
:102CA0008091E80082FF38C09091F3008091F2009B
:102CB000029731F48091F100813011F0863021F4D7
:102CC0008091F100809300058091E8008B778093DC
:102CD000E8000E94EE05BACF80910D05813A09F017
:102CE000B5CF8091E800877F8093E800809111053F
:102CF00090911205892B61F468E081E095E070E025
:102D00000E949A068091E8008B778093E8009ECF1E
:102D100060E090E080E0F3CF80910B058111C0CF9F
:102D200095CF80910D05813A09F090CF80911105E2
:102D300090911205892B09F089CF8091E800877F57
:102D40008093E8008091E80080FFFCCF809126010D
:102D50008093F1008091E8008E77B9CF80910D05C6
:102D6000813209F073CF8091110590911205892B62
:102D700009F06CCF8091E800877F8093E8000E9483
:102D8000EE0580910F05809326010E94F3155ECF1A
:102D900080910D05813209F059CF8091E800877F3D
:102DA0008093E8000E94EE05809110058093FF0457
:102DB0004DCF80910D05813A09F048CF8091E80010
:102DC000877F8093E8008091E80080FFFCCF8091AE
:102DD000FF04BECF803899F0823809F0D1C18091CC
:102DE00011058F70873008F0CBC18093E900809186
:102DF000EB0085FB882780F91092E90006C08091DE
:102E0000090590910A05911182609091E800977FE1
:102E10009093E8008093F1001092F1008091E80017
:102E20008E77AAC1882309F498C1823009F0A8C11D
:102E300080910F0581119BC1809111058F702FEF3B
:102E4000280F263008F09CC18093E9002091EB0008
:102E500020FF8DC1933031F48091EB00806280932C
:102E6000EB0085C19091EB0090619093EB0021E025
:102E700030E001C0220F8A95EAF72093EA00109211
:102E8000EA008091EB008860EACF811179C110914E
:102E90000F051F778091E3008078812B8093E300FA
:102EA0008091E800877F8093E8000E94EE05809182
:102EB000E80080FFFCCF8091E30080688093E3000E
:102EC00082E0111183E080930B055AC18058823053
:102ED00008F056C120910F05309110052C3DE3E01C
:102EE0003E07A1F583E08A838AE289834FB7F8948D
:102EF000DE01139620E03EE051E2E32FF0E0509334
:102F00005700E49120FF03C0E295EF703F5FEF7040
:102F10008E2F90E0EA30C0F0C7968D939D932F5F7F
:102F2000243159F74FBF8091E800877F8093E800F4
:102F30006AE270E0CE0101960E949A068091E80054
:102F40008B778093E8001CC1C096E7CF8091110574
:102F500090911205432F55274330510509F44AC07B
:102F600078F54130510509F47AC08FEB90E0EEEC32
:102F7000F6E04230510509F003C12091E800277FB7
:102F80002093E800209113053091140582179307D0
:102F900008F49C0140E02115310509F065C041119C
:102FA00063C08091E80082FDC9CF80910B05882322
:102FB00029F2853019F28091E80083FFF2CFBECF6D
:102FC0004132510509F43CC04232510509F0D8C0E4
:102FD0008330910508F0D4C0FC01EE0FFF1FEB53C6
:102FE000FE4F0190F081E02D8E539E4FDC018C91BD
:102FF00090E01AC0332721303105D1F02115310579
:1030000061F02230310509F0BBC0EFE9F7E0E4914F
:103010008E2F90E0EFE9F7E007C0E3ECF7E0E491F2
:103020008E2F90E0E3ECF7E0009709F4A9C0A5CF5C
:10303000E5EBF7E0E4918E2F90E0E5EBF7E0F4CFDD
:103040008330910508F09CC0880F991FFC01E5535F
:10305000FE4F0190F081E02D89E090E08ECF82E17B
:1030600090E0EDE8F7E089CF80910B05882309F423
:1030700065CF853009F462CF8091E80083FD5ECF93
:103080008091E80082FD8DCF8091E80080FF83CFA2
:103090009091F3008091F2002115310519F08830EC
:1030A000910550F041E0089709F040E08091E80078
:1030B0008E778093E8006FCF44914093F100319672
:1030C000215031090196E8CF803809F059C080912C
:1030D000E800877F8093E80080910C058093F100E1
:1030E0009DCE81114DC010910F05123008F048C0DF
:1030F0008091E800877F8093E80010930C050E9480
:10310000EE05112311F084E005C08091E30087FDF6
:10311000FACF81E080930B0542E061EC81E00E94F0
:103120000D0642E261EC84E00E940D0642E261EC91
:1031300082E00E940D0642E260EC83E00E940D06F0
:1031400042E361E885E00E940D0642E360E886E024
:103150000E940D0680910B0513C080910F058130F0
:1031600079F481E0933009F080E080930A051092B1
:10317000E9008091E800877F8093E8000E94EE05D7
:103180008091E80083FF0AC08091E800877F8093E8
:10319000E8008091EB0080628093EB00AA96E3E068
:1031A0000C94CC2D0E94F3152FEF84E39CE021506A
:1031B00080409040E1F700C0000088E19CE00FB63D
:1031C000F894A895809360000FBE90936000FFCFA5
:1031D000882341F0809590910D02892380930D0200
:1031E0000E94B6150895882339F090910D02982B0E
:1031F00090930D020E94B6150895882321F00E9435
:10320000C00D0E94B6150895882339F090910E02E2
:10321000982B90930E020E94B6150895882309F406
:103220004DC0823879F40E946E0781FF47C089E360
:103230000E94D40D0E94B61589E30E94C70D0E941A
:10324000B6150895833859F40E946E0780FF36C082
:1032500083E50E94D40D0E94B61583E5EECF843835
:1032600059F40E946E0782FF29C087E40E94D40DA2
:103270000E94B61587E4E1CF9CEF980F913AE8F2EF
:1032800090E2980F983050F4877091E001C0990F48
:103290008A95EAF7892F0E94C00DD1CF9BE5980F40
:1032A000933028F490E080E00E9449070895885AFE
:1032B0008B3120F490E080E00E9424070895CF93A2
:1032C000C82F8823C9F08238C9F40E946E0781FD97
:1032D00013C089E30E94D40D0E94B6152FEF87EE2C
:1032E00093E0215080409040E1F700C0000089E366
:1032F0000E94C70D0E94B615CF9108958338A1F49E
:103300000E946E0780FDF8CF83E50E94D40D0E94D5
:10331000B6152FEF81EE94E0215080409040E1F708
:1033200000C0000083E5E4CF8438A1F40E946E075A
:1033300082FDE2CF87E40E94D40D0E94B6152FEFE4
:1033400081EE94E0215080409040E1F700C0000001
:1033500087E4CECF8CEF8C0F813A70F4E6EDF1E08C
:103360008CED91E02191C21799F18E179F07D1F74B
:103370008C2F0E94D40DBECF80E28C0F883068F471
:10338000C77021E030E001C0220FCA95EAF78091B2
:103390000E02822B80930E02ADCFEBE5EC0FE330F3
:1033A00040F4F0E0E95DFE4F808190E00E94490723
:1033B000A3CFC85ACB3108F09FCFEC2FF0E0EE0F2F
:1033C000FF1FE65DFE4F808191810E94240794CF0C
:1033D0008C2F0E94C70D0E94B615CACF1F93CF93A2
:1033E000DF93182FEB010E945F198FE99FE001978F
:1033F000F1F700C000002197C1F7812F0E940E193C
:10340000DF91CF911F9108956AE070E0893311F444
:1034100060E570E00E94EE1908950F931F93CF931B
:10342000DF93C62FD42F022FFC0185818823A9F0BA
:10343000609351050E9418079093500580934F05A3
:10344000C77081E001C0880FCA95EAF70E9404198D
:10345000DF91CF911F910F910895809151056813CD
:1034600032C080914F05909150050E94FD06883C26
:10347000910548F510E21D0FCD17B9F080E28C0FD1
:10348000883040F4C77081E001C0880FCA95EAF720
:103490000E94FD18183048F481E09D2F977001C0FC
:1034A000880F9A95EAF70E940419802F0E94041A47
:1034B000183070F6D77081E001C0880FDA95EAF70E
:1034C0000E94FD18C5CFC77081E001C0880FCA9562
:1034D000EAF7F6CFCF92DF92EF92FF921F93CF934E
:1034E000DF93EC019AE0E92EF12CC933D10519F4F0
:1034F00080E5E82EF12C6E0180EEC81AD108CE01CD
:103500000E94B70E182F98E0C916D10410F020972A
:1035100019F50E9404198C2F0E945F198FE99FE012
:103520000197F1F700C0000091E0E91AF108B1F746
:103530008C2F0E940E1988E0C816D10410F0CD2BF4
:1035400071F4812F0E94FD18DF91CF911F91FF90A0
:10355000EF90DF90CF9008950E94F318DCCF812F79
:103560000E94E818F1CFA7E0B0E0E9EBFAE10C9493
:10357000AC2D811131C0DD24D394162F1D2509E017
:10358000812F99E00E941E10612F79E00E94101097
:103590007C0119830A83E11481E7F80640F4C7012E
:1035A0000E946A1A80E02796E7E00C94C82DDE821C
:1035B000BE016F5F7F4FC7010E9430088FE39CE917
:1035C0000197F1F700C000001E82BE016F5F7F4FC0
:1035D000C7010E943008E6CF8130B1F413E06111D9
:1035E00012E009E0812F99E00E941E10612F79E01E
:1035F0000E9410107C0119830A83E11491E7F906F7
:1036000070F281E08E83D4CF823061F615E06623BC
:1036100041F314E0E6CFA8E0B0E0E1E1FBE10C9477
:10362000A32D8C01DC0114968C911497882309F446
:10363000C9C021E04C9111965C91119712966C9142
:10364000129713967C91139715969C910E947D106A
:103650007C01F8018581882309F452C1C70197577D
:103660008038910508F04CC1FFE0FE1508F49AC0BF
:103670008FEF93E00E94842E811194C069EAA62EF8
:1036800062E0B62EE11058C0FE01339686E0DF01FD
:103690001D928A95E9F75AE0452E7501BFEFEB1AA6
:1036A000FB0AC5010E94842E89831A82882309F4AB
:1036B00079C0813009F08AC06501E2E0CE0ED11CEC
:1036C000C7010E94842E8A83882309F46BC09FEF70
:1036D000980F933008F03EC0F3E0AF0EB11CC60166
:1036E0000E94842E8B83882309F45CC01C82DE0137
:1036F00011967D01F7012081222379F2213009F012
:10370000A8C08181813009F063C06701F2E0CF0E6B
:10371000D11CD70112968C910E94041A7601EFEF0A
:10372000EE1AFE0A8BE0815029F3AFE9BFE0119752
:10373000F1F700C00000F7CFA11424E0B20691F128
:10374000C5010E94842E811101C0EA943FEFA31AA3
:10375000B30A98CF5601843051F642E0E42EF12CA2
:1037600056012FEFA21AB20AC6010E94842EE1E090
:10377000F0E0EC0FFD1FEE0DFF1D8083882391F01C
:103780008C3741F4E2E0F0E0EC0FFD1FEE0DFF1D81
:103790001082ADCF3FEFE31AF30A650187E0E81628
:1037A000F104F1F680910302877061F0D80115965B
:1037B0008C91882339F08091210282FF03C082E03E
:1037C0000E94910E2896E0E10C94BF2D57018FCFF7
:1037D000823041F46701B2E0CB0ED11C82810E949D
:1037E0005F199CCF833051F46701F2E0CF0ED11CFA
:1037F000D70112968C910E940E1990CF843021F03F
:10380000BFEFEB1AFB0A8BCF2281C70102967C0126
:1038100090E080E0A7014F5F5F4F2053330B2A30C9
:10382000310550F0019708F47ACFEFE9FFE03197C6
:10383000F1F700C00000F6CF489EB001499E700D20
:103840001124C901860F971FD70111962C917A0177
:10385000E1CFE22FF0E0EC58FE4F5490822F869596
:103860008695869590E0FC01EC59FE4F6490277098
:10387000712C022E02C0759467940A94E2F731E02D
:1038800063227724FC01EC5AFE4F8490912C022E87
:1038900002C0959487940A94E2F7A1E08A229924C1
:1038A000FC01EC5BFE4FC490D12C02C0D594C794B0
:1038B0002A95E2F7B1E0CB22DD246114710419F0FE
:1038C00081EE0E945F198114910419F086EE0E9426
:1038D0005F19852D0E94041A8114910419F086EE57
:1038E0000E940E196114710419F081EE0E940E19E4
:1038F000C114D10409F413CF8CE20E94041A0FCF33
:10390000B801C7010E943008882309F44BCFF701A2
:10391000E851FC47E730F10510F5E55BF04D0C94FC
:10392000852D26E241EE61EEC8010E940D1A3ACFC4
:1039300027E245EE65EEF8CF26E241EE60EEF4CFE9
:1039400027E245EE64EEF0CF26E241EE62EEECCFE8
:1039500027E245EE66EEE8CF28E241E0EBCFF80142
:103960008581882309F43BC410925105C701905703
:10397000839708F01FC484E090E00E94922E9093F9
:10398000210280932002F701E150F047E232F10575
:1039900020F4EE5AF04D0C94852D80912002816028
:1039A0008093200295C0809121028860809321023B
:1039B0008FC0809120028260F3CF809120028460CA
:1039C000EFCF809120028860EBCF8091210281604F
:1039D000EDCF809121028260E9CF80912002806149
:1039E000DFCF809120028062DBCF80912002806453
:1039F000D7CF0E94F315809120028068D1CF8091AB
:103A000020028C60CDCF809121028360CFCF809146
:103A100020028E7FC5CF80912102877FC7CF809102
:103A200020028D7FBDCF809120028B7FB9CF809106
:103A30002002877FB5CF809121028E7FB7CF809102
:103A400021028D7FB3CF809120028F7EA9CF8091FC
:103A500020028F7DA5CF809120028F7BA1CF0E9475
:103A6000F315809120028F779BCF80912002837F76
:103A700097CF809121028C7F99CF8091200282FB89
:103A8000992790F921E0922790FB82F990FB83F926
:103A900087CF80912102982F909591708E7F892BEE
:103AA00090FB81F983CF90912002892F8F7B96FF25
:103AB000806476CF0E94F31590912002892F97FBA6
:103AC00087F980586DCF61E08EE090E00E94A82ECB
:103AD000609120027091210284E090E00E94C62E45
:103AE0000E94F3155FCE60E0EFCF90912002892F06
:103AF0008F7E94FF806154CF90912002892F8E7F1A
:103B000090FF81604DCF90912102892F877F93FF95
:103B100088604CCF85E35EC38091DC01811104C0D5
:103B200089E20E94C70D58C385E3FBCF8091EB0467
:103B300080FF19C0282F2E7F2093EB043091EC04D6
:103B40004091ED045091EE046091EF047091F00407
:103B50008091F1049091F2040E94EC131092E5021E
:103B60000E94D1101FCE81608093EB0461E08695A6
:103B70000E940C1517CE49E555E163E675E10E94F8
:103B80007B0710CE43E655E169E575E1F8CF44ECDB
:103B900054E16EEC74E1F3CF4EEC54E164EC74E16B
:103BA000EECF4AEA54E167EB74E1E9CF47EB54E129
:103BB0006AEA74E1E4CF40E954E16DE974E1DFCFF2
:103BC0004DE954E160E974E1DACF48ED54E162EF88
:103BD00074E1D5CF42EF54E168ED74E1D0CF61E0FC
:103BE00081E0C6CF65E082E00E946E15DBCD68E023
:103BF00086E0FACF6EE089E0F7CF64E18FE0F4CFA2
:103C000067E185E1F1CF61E088E1B2CF62E289E16D
:103C1000EBCF61E083E2ACCF6AE285E2E5CFF7E784
:103C2000EF16FCE7FF0609F460C028E7E2162CE770
:103C3000F20609F45EC0F8018581E080F1808823F6
:103C400009F48BC0C7010E941E10D82E682FC7012F
:103C50000E942B0EB7018D2D0E9410100E94A20C05
:103C60007C01882ED8011596AC90159716969C90DD
:103C700092943FE09322809103028770F1F0DA2C56
:103C8000AA20E1F08F2D807F803451F080E28E0DEC
:103C9000883098F0911004C08F2D807E803269F0BA
:103CA0008091210282FF09C082E00E94910E8091E2
:103CB00003028770DD24D3948111D12CCF2CC294C0
:103CC0002FE0C222BBE0BC1508F4AFC0EC2DF0E041
:103CD000EC58F04D0C94852D81E00E94A80E43E035
:103CE00062E081E00E94640E5DCD81E00E94840E5E
:103CF000F6CF82E0FBCFBBE5EB16BCE7FB0659F144
:103D0000ECE5EE16ECE7FE06E1F0FAE5EF16FCE76F
:103D1000FF0609F090CF81E01BC00E94F3152FEF42
:103D200034E38CE0215030408040E1F700C00000D7
:103D30000E94260F6FEF7FEF90E080E00E94C62E7A
:103D400037C28091210282FB882780F991E0892780
:103D50000E94931570CF80E0FBCFC7010E94F70D42
:103D6000D82E78CFEF2DEF70BE2E8F2D807F19F0DB
:103D7000B29490EFB922AA20B9F0BB2069F080E29A
:103D80008E0D883010F0811009C080910E02B82A83
:103D9000B0920E020E94B6158E2D45C080910D0284
:103DA000B82AB0920D02F6CF8E2D0E940E19BB20BC
:103DB000E1F180E28E0D883010F0811004C08B2D6F
:103DC0000E94C00D06C0B09480910D02B822B0923E
:103DD0000D020E94B61529C0FF2DFF70BF2E8F2D3A
:103DE000807F803219F0B29480EFB822882059F099
:103DF00021E0821609F482C0AA2009F48EC099201D
:103E000009F44FC0C9CF8091210282FD46C0AA208B
:103E1000F1F1BB2039F080910E028B2980930E02C4
:103E20000E94B61580E00E945F19AC2DA850BB0B14
:103E3000149710F40E946E07DD20A9F08091030210
:103E400080FD11C0F80115828695869586950E94A1
:103E5000A80EC8010E940B1B8091030286958695CF
:103E600086950E94840E20E0D8014C9111965C91B9
:103E7000119712966C91129713967C911397149642
:103E80008C91149715969C910E947D109BCC80E09C
:103E90000E940E19BB2049F292CFAA20A1F09110E6
:103EA00004C08B2D0E940419C0CF31E09312BDCF06
:103EB00080910C029B2D9823B91609F4B6CF8B295B
:103EC00080930C02B2CF9110B0CF8B2D0E94FD18C1
:103ED00090910C028B2D892329F08B2D80958923BD
:103EE00080930C029091DD018B2D892309F49DCFE5
:103EF0008B2D809589238093DD0197CFAA2029F00F
:103F000085E0891508F491CFCCCF94E0991508F499
:103F10008CCF8B2D0E94FD1888CF9920D1F3A9E377
:103F20008A121EC1BFEFE7EEF3E0B150E040F0406F
:103F3000E1F700C000008E2D0E940E1976CF8F2D64
:103F400086958695837061F0813009F06ECFC70148
:103F50009370A11002C080E090E00E94240765CF1A
:103F6000C7019370A11002C080E090E00E94490751
:103F70005CCF8F2D837091F5A11057CF4E2D4295B8
:103F800046954770440F440F8E2D8F70042E01C04C
:103F9000880F0A94EAF72E2D2071E4FE07C02FE067
:103FA00030E001C0220F4A95EAF720953F2D369563
:103FB00036953370323069F050F440910F02313051
:103FC00029F0822B84230E94B40E2FCF842B822BC6
:103FD000FACF282B80910F028227F5CF8695AA2051
:103FE00011F08F2D8170882309F41FCF4E2D42953B
:103FF00046954770440F440F8E2D8F70042E01C0DC
:10400000880F0A94EAF72E2D2071E4FE07C02FE0F6
:1040100030E001C0220F4A95EAF720953F2D3695F2
:1040200036953370323069F050F440911F023130D0
:1040300029F0822B84230E94610EF7CE842B822BE1
:10404000FACF282B80911F028227F5CF9F2D9F70DA
:10405000F92EAA2029F0892F0E94A80E8E2D22CF9A
:104060008E2D0E94FD188F2D0E94840EDECE8E2D87
:10407000A2EF8A16B1F1A81570F0B0EF8B16D1F04F
:10408000E1EF8E1691F0AA2009F45EC0911084CE63
:104090008F2D8F712AC0F3EF8F1651F124EF82120A
:1040A000F2CF8091210282FD2FC08F2D8F71AA2027
:1040B000D9F21BC0AA2081F034E0391508F4B5CE3E
:1040C0002F2D2F7181E090E001C0880F2A95EAF72B
:1040D00090911F028927AFCF85E0891508F4A5CEFE
:1040E000EFCF8F2D8F71A110BFCF0E94A80E9DCE54
:1040F00080E0AA2009F49FCF9F2D9F7181E001C02D
:10410000880F9A95EAF797CFAA2099F09F2D9F7173
:10411000F92E892F0E94A80E8091210282FF07C0EC
:10412000A8E0FA9EC00111248360809303028F2DC2
:10413000DCCF81E00E94910EB1E0B91508F075CE98
:1041400082E00E94910E71CE992079F0893341F47A
:10415000EFEFF7EE23E0E150F0402040E1F7E9CE49
:104160008FE39CE90197F1F7E4CE8F2D8F717CCF1F
:10417000B7E7EB16BCE7FB0609F4AECD82E0E8E753
:10418000EE16ECE7FE0609F4A8CD33E0E3163CE7B3
:10419000F30609F4CFCD08F0AECDE1149CE7F906A3
:1041A00009F4BBCDA1E0EA16ACE7FA0609F043CD6D
:1041B0000E94D218F6E1EF16FCE7FF06C9F68091DF
:1041C0000E028A7A91E009F490E09093DC0181116B
:1041D000A1CC89E20E94D40D0E94B615E3CA26E163
:1041E000E2162CE7F20609F497CC80910E02827257
:1041F000F701E052F847E531F10508F010CDE0583D
:10420000F04D0C94852DCF93DF9380910202807F37
:1042100009F04DC080910102882309F448C0E09163
:104220004E0550911505C091FD01D091FC016091A2
:10423000FE017091FF0147E05E17C9F18E2F90E0FB
:10424000E49FF0011124EA5EFA4F2481222391F1C8
:10425000489FF001499FF00D1124DF01AA5EBA4F7B
:1042600011962C9111972C1325C02C912D1322C03F
:1042700015962C91159721111DC012962D913C91E8
:10428000261B370B283C3105A8F4809102028F7061
:10429000806180930202E45EFA4F80818F708061BA
:1042A00080838CEF91E00E940B1B0E94ED0DDF914B
:1042B000CF910895FC013196E770BECFA4E1B0E044
:1042C000E4E6F1E20C94A72D8C0186E0F801DE0112
:1042D0001F9601900D928A95E1F7F8018481E5809F
:1042E0009CEFA92E91E0B92E90910002911128C067
:1042F000882319F1EE20F1F0C8010E945A10F82E1F
:104300008823C1F087E0F801D50101900D928A95CC
:10431000E1F780910002813031F48091FC019091AD
:10432000FD010E944D100E9403218F2D6496ECE048
:104330000C94C32DC8010E940B1BFF24F394F5CFEE
:10434000D080C18082809380F09001022091FE0194
:104350003091FF01A401421B530BFF2009F4D9C087
:10436000483C510508F092C08823F9F29091FD0174
:1043700080910202282F207F09F056C0C91214C074
:104380009091FC01D91210C0E11048C08F7080617B
:10439000809302028CEF91E00E940B1B809102023D
:1043A000F8018683F12CC1CFE11038C06C2D8D2D22
:1043B0000E9448046C2D8D2D0E944804E82E811126
:1043C000F1CFDF86C88A8F8598890E944D10292FEA
:1043D00022952F70243058F49F70223088F0992352
:1043E00099F0F8019681907F79F4FE2C9ECF2A5F98
:1043F0002F70223068F0C8010E940B1BEF2CF5CF04
:10440000992311F0882389F3805E883070F3F3CF0D
:10441000803F58F3815F833070F7E7CF80910202CD
:10442000816080930202BECFC91207C09091FC0147
:10443000D91203C0EE2009F48DC0C8010E945A10A1
:10444000882309F477CFEE2009F474CF809102021B
:10445000803288F02091FC013091FD013987288756
:104460009B868A86909100029C871D868E87CE014E
:1044700008960E940B1B87E0F801ACEFB1E00190B9
:104480000D928A95E1F70E94032157CF9091020285
:10449000292F207F51F48CEF91E00E940B1B87E0C5
:1044A000F50111928A95E9F77DCF882309F43DCF74
:1044B0008091FD018C1110C08091FC01D8120CC0BC
:1044C000E1100AC09683C8010E940B1B87E0F5012A
:1044D00011928A95E9F729CFC8010E945A108823C2
:1044E00009F428CFEE2009F425CF80910202803212
:1044F00010F22091FC013091FD013A8329839C82C6
:104500008B82909100029D831E828F83CE01019643
:10451000B0CF483C5105D0F6882309F40ECFFE2CCD
:10452000EE2009F407CF8091FD018C1120C080910D
:10453000FC01D8121CC08091020280FD0FC0982F90
:10454000907F61F08683903F31F0982F907F905F4D
:104550008F70892B8683C8010E940B1B87E0F801AE
:10456000ACEFB1E001900D928A95E1F7DECEC80183
:104570000E945A1081117FCF809102028160809346
:104580000202C8010E940B1BD0CEABE1B0E0EBEC05
:10459000F2E20C94AF2D4E8B5F8B688F798F8A8FF0
:1045A0009B8F192F911110920D021D8A86E0FE013A
:1045B0007696DE011F9601900D928A95E1F70A8D9D
:1045C000002341F021E04F85588969897A89C80123
:1045D0000E947D100B8B1C8B87E0FE013F96DE0155
:1045E000189601900D928A95E1F7CE0108960E94E7
:1045F0005E2181110CC087E0FE013896DE01119624
:1046000001900D928A95E1F78C8581110BC017E01E
:1046100080914E0590911505891331C06B96E4E0A9
:104620000C94CB2D2091150530E0C90101968770BF
:10463000992740914E054817190699F097E0929FE7
:10464000D001939FB00D1124AA5EBA4FFE0131969E
:1046500001900D929A95E1F7809315050E94ED0D5A
:10466000D6CF0E94F3151092150510924E0587E0E3
:10467000ECEFF1E0DF011D928A95E9F7C8CF819F49
:10468000C00111248A5E9A4F0E945E21882331F274
:1046900080914E0590E001968770992780934E0592
:1046A000B7CFA6E0B0E0E7E5F3E20C94AF2D0E94AF
:1046B00018078C01809110029091110280179107C8
:1046C00081F019821A820E941807682F49815A8145
:1046D000792F80E090E00E94C52210931102009390
:1046E00010022696E4E00C94CB2DAAE0B0E0EBE7B4
:1046F000F3E20C94A82D8E010F5F1F4F8AE0F801A2
:1047000011928A95E9F780E6C82E81E0D82EF12C27
:10471000E12CAA24A394B12CF60181916F018F3F63
:1047200009F443C0F894E82FE295EF70F0E021A17E
:104730008F70A50102C0440F551F8A95E2F7CA0188
:10474000922F982B91A392A18095892382A378948C
:1047500000C0EAE6F1E0912C31E021912F3F09F40D
:1047600065C0A22FA295AF70B0E090968C9190E0BA
:104770002F7002C0959587952A95E2F780FD56C067
:10478000832F982A330F51E0E237F50731F7F6010E
:10479000319780818F3F11F00E949A0B80EA8A95B1
:1047A000F1F7F801EE0DFF1D9082EFEFEE1AFE0A11
:1047B000FAE0EF16F10409F0AFCF4AE050E0B8019B
:1047C00085E192E00E94772E892B91F18AE0F80131
:1047D000A5E1B2E001900D928A95E1F781E0809326
:1047E00014020E9418079093130280931202809182
:1047F0001202909113020E94FD060597E8F04AE02C
:1048000050E065E172E08FE392E00E94772E892B01
:10481000C1F08AE0E5E1F2E0AFE3B2E001900D9291
:104820008A95E1F781E01092140207C080E0A9CFD9
:10483000809114028111DBCF80E02A96EBE00C948A
:10484000C42D80E0F0CFA8E0B0E0E9E2F4E20C94FF
:10485000B12D66EE7EEF90E080E00E94C62E60E013
:1048600082E090E00E94A82E60E083E090E00E9449
:10487000A82E10920F0260E074E184E090E00E94A4
:10488000C62E60E086E090E00E94A82E6FEF87E0E1
:1048900090E00E94A82E40E050E0BA0188E090E04D
:1048A0000E94BA2E60E084E290E00E94A82E60E0B0
:1048B00087E190E00E94A82E60E08CE090E00E94EA
:1048C000A82E60E08DE090E00E94A82E19821A8246
:1048D0001B821C821D821E821F82188648E050E0C7
:1048E00068E170E0CE0101960E94982E40E050E011
:1048F000BA0180E290E00E94BA2E80E00E94B80FD8
:104900000E94D10F40E050E0BA018FE090E00E9499
:10491000BA2E40E050E0BA0183E190E00E94BA2E46
:104920002896E2E00C94CD2D1F920F920FB60F92B5
:1049300011242F933F934F935F936F937F938F93A4
:104940009F93AF93BF93CF93DF93EF93FF93D09158
:10495000E900DF708091EC00C82FC17080FDC0E8D5
:104960001092E9008091F000877F8093F0007894A6
:104970000E9409161092E9008091F00088608093EF
:10498000F000CD2BCF70C093E900FF91EF91DF9144
:10499000CF91BF91AF919F918F917F916F915F91D7
:1049A0004F913F912F910F900FBE0F901F90189530
:1049B0001F920F920FB60F9211242F933F934F9394
:1049C0005F936F937F938F939F93AF93BF93EF9377
:1049D000FF938091E10082FF09C08091E20082FF95
:1049E00005C08091E1008B7F8093E1008091DA0027
:1049F00080FF24C08091D80080FF20C08091DA0021
:104A00008E7F8093DA008091D90080FF9DC080E185
:104A100089BD82E189BD09B400FEFDCF81E08093AC
:104A20000B058091FE04811109C00E944A050E9475
:104A30003F068091E20084608093E2008091E10073
:104A400080FF17C08091E20080FF13C08091E200D8
:104A50008E7F8093E2008091E20080618093E2008B
:104A60008091D80080628093D80019BC85E0809343
:104A70000B058091E10084FF2BC08091E20084FF50
:104A800027C080E189BD82E189BD89B5982F9170E9
:104A900080FFFBCF8091D8008F7D8093D8008091DC
:104AA000E1008F7E8093E1008091E2008F7E809311
:104AB000E2008091E20081608093E20080910C0529
:104AC000882309F447C084E080930B0580910B058F
:104AD0008091E10083FF27C08091E20083FF23C023
:104AE0008091E100877F8093E10082E080930B0555
:104AF00010920C058091E1008E7F8093E1008091FF
:104B0000E2008E7F8093E2008091E20080618093DA
:104B1000E20042E060E080E00E940D068091F0003B
:104B200088608093F000FF91EF91BF91AF919F91CA
:104B30008F917F916F915F914F913F912F910F9046
:104B40000FBE0F901F90189519BC10920B05109274
:104B5000FE0474CF8091E30087FD93E090930B05F2
:104B6000B5CF78941F921FB61F9211248F939F93F5
:104B7000AF93BF938091FA049091FB04A091FC0441
:104B8000B091FD040196A11DB11D8093FA0490938C
:104B9000FB04A093FC04B093FD04BF91AF919F91DF
:104BA0008F911F901FBE1F9018951F921FB61F92C6
:104BB00011248F939F93AF93BF938091F904811138
:104BC00013C08091FA049091FB04A091FC04B09171
:104BD000FD044196A11DB11D8093FA049093FB043E
:104BE000A093FC04B093FD04BF91AF919F918F916E
:104BF0001F901FBE1F901895CDB7DEB7A7970FB6B1
:104C0000F894DEBF0FBECDBF85B7806885BF85B77E
:104C1000806885BF84E08093DA028FE78093DB02AF
:104C20008091DC02807880648093DC02EAE4F2E028
:104C300082E992E02FEF2193DF01A95BBF4F1C9225
:104C40008E179F07C1F710923B02109249021092F3
:104C50003D0210923C021092770510927905109255
:104C6000780580EC80933C068AE795E090933E06B9
:104C700080933D0610923B0610923A06109257051B
:104C800010925605109259051092580510925B0526
:104C900010925A0510925D0510925C0510925F0506
:104CA00010925E05109261051092600510926305E6
:104CB00010926205109265051092640510926705C6
:104CC00010926605109269051092680510926B05A6
:104CD00010926A0510926D0510926C051092710584
:104CE0001092700589E49BE09093530580935205E0
:104CF0008BEC9AE0909373058093720587EA9AE0B3
:104D000090936F0580936E0586EA9AE0909355051F
:104D10008093540584B7877F84BF0FB6F894A89515
:104D200080916000886180936000109260000FBEE7
:104D300080E890E00FB6F894809361009093610052
:104D40000FBE88E99BE09093D3018093D2010E942B
:104D50004A050E943F068091E20084608093E20051
:104D6000789480910B058823A1F01091E9001F70C1
:104D70009091EC00892F817090FD80E8182B1092A3
:104D8000E9008091E80083FD0E9409161F701093CE
:104D9000E90082E084BD93E095BD9AEF97BD8093D2
:104DA0006E000E94A210811102C00E94D10F83E008
:104DB00080933702E5E88E2EE1E09E2E42E851E036
:104DC000F8E8EF2EF1E0FF2E8A01940161E070E037
:104DD000D9018D919D01E82FE295EF70F0E0B1A02F
:104DE0008F706B0101C0CC0C8A95EAF79C2D9095D1
:104DF0009B2191A382A18C2982A3F80181918F012B
:104E0000E82FE295EF70F0E0B1A08F706B0101C068
:104E1000CC0C8A95EAF79C2D90959B2191A382A1B9
:104E20008C2982A3EA16FB0699F68FE891E0019798
:104E3000F1F700C000001091370268E372E0FB0157
:104E40008E2F861B811708F45BC000E611E07AE61E
:104E5000E72E71E0F72EF80181918F018F3F11F05D
:104E60000E949A0BE016F106B1F70AE611E062E73C
:104E7000E62E61E0F62ED8018D918D018F3F11F065
:104E80000E949A0BE016F106B1F78AE0EFE3F2E038
:104E9000DF01282F1D922A95E9F7E5E1F2E0DF0115
:104EA0001D928A95E9F70E94AA15811102C00E94FD
:104EB000232482E090E00E94842E8093250284E0E7
:104EC00090E00E94922E90932102809320020E94F3
:104ED0007523BFEFE6E7F1E0B150E040F040E1F7C5
:104EE00000C000000E94752380913F0280FF31C006
:104EF0006FEF7FEF90E080E00E94C62E0E94260FA9
:104F0000D4012D914D01822F82958F7090E0DC01AC
:104F100090968C9190E02F7002C0959587952A9578
:104F2000E2F78170DA019D91AD01292F22952F7052
:104F300030E0D90190962C9130E09F7002C03595F9
:104F400027959A95E2F790E020FD92E0892B8193D6
:104F500077CF83E090E00E94842E0E94B40E80916F
:104F60002202811173C00E94AA15811104C00E94FF
:104F700023240E947E1588E090E00E948C2E4B0135
:104F80005C0184E290E00E94842E282F30E040E013
:104F900050E060E070E080E090E000E20E94D82DF8
:104FA000282939294A295B292093EB043093EC0402
:104FB0004093ED045093EE046093EF047093F0047B
:104FC0008093F1049093F2042E7F89F50E947E1560
:104FD00088E090E00E948C2E6B017C0184E290E0DE
:104FE0000E94842E282F30E040E050E060E070E026
:104FF00080E090E00E94D82DB22FA32FF42FE52F50
:105000005B0197018601BC29A12BFE29E32BB093FC
:10501000EB04A093EC04F093ED04E093EE046093B2
:10502000EF04B092F0048093F1049093F2040E9494
:1050300081071092E5028091EB0480FF04C060E0DC
:1050400086950E940C1581E08093220284E091E015
:105050009093F6048093F50448E1642E712C8FE35D
:1050600092E02AE0280F2FA354E0852E912C809106
:105070000B058530C1F430E4F32EEE24E39400E117
:1050800012E180910B05853009F457C00E94F31599
:105090000E946E07109224028091230281110E94C7
:1050A0004F150E94BB100E94752396E2E92E92E0F4
:1050B000F92E2FE3C22E22E0D22E20E332E0D601D9
:1050C000F70191918D912E173F0709F47FC0981732
:1050D000C1F310E044244394D6010D916D01F70112
:1050E00051907F01501619F15026B12CAA24A39497
:1050F000852D8A21A1F0B9A21AA30E9418079CA3AA
:105100008BA34DA291E0802F8A2109F490E09EA309
:1051100049A15AA16BA17CA18DA10E94C522B39483
:10512000AA0CF8E0BF12E4CFF701319700831F5FAC
:105130001A3091F60E940C074DC080910B05843007
:1051400009F434C01092E5028091240281110DC04F
:10515000E09224028091EB04982F917090932302A7
:105160008E7F8093EB040E94D1101092F9040FB649
:10517000F894A895609260000FBEF092600083B72B
:10518000817F846083BF83B7816083BF7894889573
:1051900083B78E7F83BF0FB6F894A8958091600087
:1051A000886180936000109260000FBE80910A05B4
:1051B000882309F466CF0E947523EFE3F2E0819122
:1051C000811150C44FA14E13FACF5BCF981381CFFA
:1051D0000E9451238091E5028823D1F18091E4025D
:1051E000E091EB04E695E81BE093E002823009F0E1
:1051F00001C1F0E0EB5FFD4FE4910E2F10E088ED70
:10520000E82E83E1F82E8091E102882361F010926C
:10521000E1020E9418079093DF028093DE02109251
:10522000E3021092E2020E941807E091DE02F09180
:10523000DF028E1B9F0B8F3F9F4750F4E00FF11F43
:10524000F093DF02E093DE028EED92E0F701099524
:1052500080913002882361F0109230028091E50243
:10526000811106C08091EB0460E086950E940C15C8
:10527000D12CC12C80913702D81608F427C1C11057
:105280000E940C07E0917205F0917305309719F0B8
:1052900082E595E009959FB7F89400913B068091CF
:1052A0003A06081708F493C1081B9FBFF12CE12CA4
:1052B00010E083E0A82EB12CCC24C394D12C24E0A0
:1052C000322E22242394E016F10608F484C1809142
:1052D0003C0290913D020E94FD062091DC02269541
:1052E000269526952F702817190609F060F50E945B
:1052F000180790933D0280933C02809149028823D5
:1053000011F19091DB02991F9927991F8091DC027E
:105310008770880F40913B0261E0892B0E9437041F
:105320008091490290913B0287FF0AC2A82FBB27B8
:10533000A1950CF4B0959A171B060CF001C21092BF
:105340003B02109249020E946E0790913E0289171B
:1053500021F080933E020E940C0780910B0584305F
:10536000E1F480910D018F708093E9009091E80045
:1053700090FF13C090910B05943079F48093E9006D
:105380009091F3008091F200892B39F08091E80030
:105390008E778093E8000E94690580910B05843028
:1053A00009F065CE83E08093E9008091E80082FFF8
:1053B0005ECE8091E80090E085FF09C050E040E0BB
:1053C00060E270E0CE0101960E94C40591E08091F8
:1053D000E8008B778093E800992309F448CE89810F
:1053E000EFEFE80FE33108F0BEC1F0E0EB56F04D0F
:1053F0000C94852D863059F4F0E0EE5FFD4FE4917A
:105400000E2F10E0B8ECEB2EB3E1FB2EFCCE893072
:1054100061F4E695F0E0E150FE4FE4910E2F10E0CC
:10542000ACE3EA2EA3E1FA2EEECE8F3061F4E695DE
:10543000F0E0E450FE4FE4910E2F10E0FEEDEF2E71
:10544000F2E1FF2EE0CE853159F4F0E0E750FE4F57
:10545000E4910E2F10E0E0E9EE2EE2E1FE2ED3CE35
:1054600008E210E055E1E52E52E1F52E883109F40D
:10547000CACE833249F4E7EFF1E00591149177E762
:10548000E72E73E1F72EBFCE04EF11E04EEDE42ED0
:1054900041E1F42E843209F4B6CE00ED17E038EF86
:1054A000E32E36E0F32E853209F0ADCE8E2F63E089
:1054B0000E94512DE92FF0E0EC50FE4FE4910E2FA9
:1054C00010E068E4E62E61E1F62E9DCEED2CF12C85
:1054D000F701EB57FE4F8081E82FE295EF70F0E087
:1054E000E0A1F0E08F7002C0F595E7958A95E2F7AC
:1054F000E170D701AE57BE4F2C91A22FA295AF708D
:10550000B0E090968C9190E02F7002C095958795B1
:105510002A95E2F780FD53C080E08E2BD701A85C6E
:10552000BD4FEC919E2F9370891709F446C0EE0F82
:10553000EE0FE82BEC93EF70F0E0EE58FE4F870192
:105540000C5C1D4F8081D8019C91890F8C93B12CEC
:10555000843094F0F701EF5CFD4F80818F5F808392
:1055600060E08D2D0E94B31AB82E882351F16AE0B5
:1055700070E08AEA0E94EE19F80180818D3F94F470
:10558000F701EF5CFD4F80818150808361E08D2DBC
:105590000E94B31AB82E8823B9F06AE070E089EA55
:1055A0000E94EE19D8018C91082E000C990BB401C1
:1055B0000E94712DF8018083CB28D3945BCE82E0CA
:1055C000ACCFBB24B394D8CFBB24B394EBCF209102
:1055D0003C06020F69CE80913A0690E060913C064D
:1055E00070E00E94712D20913D0630913E06280FFB
:1055F000391FD9015C9040907705B7EFB515E8F4F5
:105600002092770520E040E0652D81E090E00E9447
:105610006704409277052FB7F89480913A0690E09E
:10562000019660913C0670E00E94712D80933A06CD
:105630002FBF5FEFE51AF50A46CE57FE52C0E4E0F1
:105640004E1631F050927405D0927905C0927805CB
:10565000852D0E94A80A813069F08823D1F082301C
:10566000A9F0833099F01092770510927905109285
:105670007805D1CF8093770520E040E0652D81E06B
:1056800090E00E94670410927705C5CF809377055C
:10569000C2CFF0EF5F16E1F027EF5212E4CF209176
:1056A000780530917905C901B5010E945D2DFC0195
:1056B000EE5AFA4F52A2C901019690937905809350
:1056C0007805209176054091750560917405D9CFD4
:1056D0003092770550927405D0927905C092780582
:1056E0009ACF442009F497CF20917805309179051D
:1056F000C901B5010E945D2DAC01FC01EE5AFA4FC3
:1057000052A2C901019690937905809378054130A2
:10571000510589F04230510509F07DCF2091760581
:1057200040917505609174050E946704809177052A
:10573000843091F670CF42E020E044126CCFF0CF7D
:10574000890F87FD03C080933B02FDCD8FE7FBCF20
:105750001A828CE08B831BC08A81823009F498C145
:1057600028F4813061F08FEF898311C08330C1F05C
:105770008430C9F71B821C821D821E8208C00E94D1
:105780000C070E948B2D6B837C838D839E8340E26C
:1057900050E0BE016F5F7F4F82E00E94E80E67CC51
:1057A0002B81822F90E0FE013496245E8A30910591
:1057B00070F7DC01A15CBD4F3C9131930196281339
:1057C000F5CFE5CF8A81823081F0853061F6809116
:1057D000EB0480FF15C08091EB048E7F8093EB0477
:1057E0001092E5020E94D110D2CF6B817C818D8115
:1057F0009E810E948B2D88E290E00E94A82EC7CF48
:105800000E944F15C4CF4C816B818A810E94E10FA9
:105810009827892798279E838D83B9CF2D813E8134
:105820003227232732274C816B818A810E945A0FAD
:10583000AECF0E94800FABCF9A81923009F093CF08
:105840008830B1F1893009F45EC08B81823009F172
:10585000A8F4813009F09BCF8C81B8E78B9FC00101
:1058600011246FEF70E00E945D2D462F20E06091C3
:10587000ED048091EC040E94121489CF8330A1F0D2
:10588000843009F084CF20E04091EE046D818C815A
:10589000F2CF8C81882309F49ECF0E944F1560E0DF
:1058A0008C810E940C1573CF8C818093EF046FCF95
:1058B0008B818230E1F078F4813009F068CF8091FB
:1058C000EE04EFEF8E9FC001112468E770E00E94A4
:1058D0005D2D6C835CCF833099F0843009F057CF15
:1058E0008091EC048C838091ED048D8350CF809166
:1058F000EB0480FF03C086958C8349CF80E0FCCF0A
:105900008091EF04F9CF2091EB043091EC044091A9
:10591000ED045091EE046091EF047091F0048091D9
:10592000F1049091F2040E94EC1331CF80E18A835C
:105930002ECF81E08A8387E50DCFCA80DB80DC240F
:10594000CD24DC248E010F5F1F4FEC80E00EF12E82
:10595000F11CC60187559D4F0E151F0509F417CF81
:10596000F7E5CF16F1E0DF0658F40E94842ED80147
:1059700014968C93FFEFCF1ADF0A0F5F1F4FE9CF0A
:10598000F8011482F7CF0A811B8110270127102705
:10599000AE014F5F5F4F6A01EC80E00EF12EF11C0B
:1059A000C80187559D4FE016F10609F4F0CE073582
:1059B00051E0150728F4D60114966C910E94A82E88
:1059C000BFEFCB1ADB0A0F5F1F4FEACF0E944A0FCF
:1059D000DECE84E0ACCFCA80DB80DC24CD24DC24A6
:1059E0008E010F5F1F4FEC80E00EF12EF11CC601FF
:1059F0008996E016F10609F4CACEE0E8CE16E2E098
:105A0000DE0658F40E94842ED80114968C93FFEF82
:105A1000CF1ADF0A0F5F1F4FEACFF8011482F7CFCA
:105A20000A811B81102701271027AE014F5F5F4FAE
:105A30006A01EC80E00EF12EF11CC8018996E01697
:105A4000F10609F4A4CE003852E0150728F4D60177
:105A500014966C910E94A82EBFEFCB1ADB0A0F5F41
:105A60001F4FEBCF09BD19BD09B400FEFDCF8091DA
:105A7000D8008F7D8093D8008091E0008260809371
:105A8000E0008091E00081FDFCCF0E94F315F9CA8F
:105A900088E290E00E94842E1B821C821D828E83ED
:105AA00076CE991B79E004C0991F961708F0961BD3
:105AB000881F7A95C9F780950895AA1BBB1B51E1F1
:105AC00007C0AA1FBB1FA617B70710F0A61BB70B6E
:105AD000881F991F5A95A9F780959095BC01CD0113
:105AE000089597FB072E16F4009407D077FD09D090
:105AF0000E945D2D07FC05D03EF4909581959F4F47
:105B00000895709561957F4F0895EE0FFF1F0590E2
:105B1000F491E02D0994692796276927782787272C
:105B2000782708950E94302F332312F48A1B9B0B91
:105B30000C949C2D0E94302FB7FF0895821B930B6D
:105B400008952F923F924F925F926F927F928F9221
:105B50009F92AF92BF92CF92DF92EF92FF920F93FC
:105B60001F93CF93DF93CDB7DEB7CA1BDB0B0FB606
:105B7000F894DEBF0FBECDBF09942A8839884888C3
:105B80005F846E847D848C849B84AA84B984C88459
:105B9000DF80EE80FD800C811B81AA81B981CE0F50
:105BA000D11D0FB6F894DEBF0FBECDBFED01089535
:105BB000002E083090F0982F872F762F652F542FC6
:105BC000432F322F22270850F4CF220F331F441FB8
:105BD000551F661F771F881F991F0A95B2F7002D62
:105BE000089597FD1094002E083098F00850232F48
:105BF000342F452F562F672F782F892F912DF4CFD3
:105C00001594979587957795679557954795379507
:105C100027950A95AAF71124002D08958F929F9237
:105C2000AF92BF92CF92DF92EF92FF92CF93DF932A
:105C3000EC01688179818A819B81611571058105FB
:105C4000910521F464E279ED8BE597E02DE133EFE6
:105C500041E050E00E94DC2E49015A019B01AC0159
:105C6000A7EAB1E40E94FB2E6B017C01ACEEB4EF1D
:105C7000A50194010E94092FDC01CB018C0D9D1D13
:105C8000AE1DBF1DB7FF03C00197A109B0488883AF
:105C90009983AA83BB839F77DF91CF91FF90EF9089
:105CA000DF90CF90BF90AF909F908F9008950E940B
:105CB0000E2E089580E091E00E940E2E0895B0E02F
:105CC000A0E08093000190930101A0930201B093A2
:105CD00003010895FC014150504030F00190061638
:105CE000D1F73197CF010895882799270895FB01AF
:105CF000DC0104C08D910190801921F44150504085
:105D0000C8F7881B990B0895F999FECF92BD81BD04
