:100000000C94C2030C9409040C9409040C94090484
:100010000C9409040C9409040C9409040C9409042C
:100020000C9409040C9409040C9409310C94DD31EE
:100030000C947C270C9409040C9409040C94090476
:100040000C9409040C9409040C9409040C940904FC
:100050000C9409040C94D3270C9409040C940904FF
:100060000C9409040C9409040C9409040C940904DC
:100070000C9409040C9409040C9409040C940904CC
:100080000C9409040C9409040C9409040C940904BC
:100090000C9409040C9409040C9409040C940904AC
:1000A0000C9409040C9409040C9409040000000049
:1000B0000000000000000000000000000000000040
:1000C0000000000000000000000000000000000030
:1000D0000000000000000000000000000000000020
:1000E0000000000000000000000000000000000010
:1002F000000000002A2B2800000000000000000081
:100300000000000000000029000000002C1E342026
:10031000212224342627252E362D3738271E1F204C
:100320002122232425263333362E37381F04050691
:100330000708090A0B0C0D0E0F10111213141516D5
:100340001718191A1B1C1D2F3130232D35040506D3
:100350000708090A0B0C0D0E0F10111213141516B5
:100360001718191A1B1C1D2F3130354C00000000C6
:10037000000000000000000000000000000000007D
:10038000000000000000000000000000000000006D
:100390007E0F00D4FFFFFFC7000000781E0F05008E
:1003A000047F3F1F643214643214783C1E1E140A0A
:1003B000052223252628292A2C2D2F3032333536A5
:1003C000383A3B3D3E4042434547494A4C4E5051E6
:1003D000535557595A5C5E6062646668696B6D6F0D
:1003E00071737577797B7D7F81838587898A8C8E10
:1003F00090929496989A9C9E9FA1A3A5A7A8AAAC18
:10040000AEAFB1B3B4B6B8B9BBBCBEBFC1C2C3C551
:10041000C6C7C9CACBCCCDCED0D1D2D2D3D4D5D6F3
:10042000D7D7D8D9D9DADADBDBDBDCDCDCDCDCDD26
:10043000DDDDDDDCDCDCDCDCDBDBDBDADAD9D9D80A
:10044000D7D7D6D5D4D3D2D2D1D0CECDCCCBCAC9A2
:10045000C7C6C5C3C2C1BFBEBCBBB9B8B6B4B3B1D1
:10046000AFAEACAAA8A7A5A3A19F9E9C9A9896946C
:1004700092908E8C8A89878583817F7D7B79777541
:1004800073716F6D6B6968666462605E5C5A595720
:10049000555351504E4C4A4947454342403E3D3BDF
:1004A0003A3836353332302F2D2C2A292826252369
:1004B00022FFAA7F554000010203040506070F0E24
:1004C0000D0C0B0A090810111213141516171F1E14
:1004D0001D1C1B1A191820212223242526272F2E04
:1004E0002D2C2B2A292830313233343536373F3EF4
:1004F0003D3C3B3A39380001010101010101010194
:1005000002020202020202020203030303030303C4
:100510000304040404040404050505050506060691
:100520000606070707070708080808090909090A4E
:100530000A0A0B0B0B0C0C0C0D0D0D0E0E0E0F0FF3
:100540000F10101111111212131314141515161681
:100550001717181819191A1A1B1B1C1D1D1E1E1FF0
:100560002020212222232424252626272829292A3F
:100570002B2C2D2D2E2F3031323233343536373867
:10058000393A3B3C3D3E3F40414243444546474863
:10059000494A4C4D4E4F50515354555658595A5B39
:1005A0005D5E5F616264656668696B6C6D6F7072D9
:1005B000737577787A7B7D7E8082838587888A8C45
:1005C0008E8F91939596989A9C9EA0A2A3A5A7A979
:1005D000ABADAFB1B3B5B7BABCBEC0C2C4C6C9CB70
:1005E000CDCFD1D4D6D8DBDDDFE2E4E7E9EBEEF026
:1005F000F3F5F8FAFDFF1403460065007500690085
:100600006C006C0065003600340000000C037900BB
:1006100079006E006D0074000000040309040902F3
:10062000BF00050100A0FA09040000010301010058
:100630000921110100012240000705810308000A79
:100640000904010002030000000921110100012238
:100650002200070582032000010705030320000193
:100660000904020001030000000921110100012218
:1006700032000705840320000A080B030201010071
:100680000009040300000101000009240100010920
:100690000001040904040002010300000724010012
:1006A00001410006240201010006240202020009A1
:1006B00024030103010201000924030204010101D2
:1006C0000009050602400005000005250101010999
:1006D00005850240000500000525010103120110F7
:1006E0000100000008D804D8E8010001020001065A
:1006F00060FF0961A1010962150026FF00952075C0
:100700000881020963150026FF00952075089102F3
:10071000C005010980A101850319012AB70015014F
:1007200026B700950175108100C0050C0901A101D3
:10073000850419012AA002150126A0029501751051
:100740008100C005010906A101050719E029E71587
:100750000025019508750181029501750881010543
:1007600007190029FF150026FF009506750881006E
:100770000508190129059505750191029501750373
:100780009101C00011241FBECFEFDAE0DEBFCDBF64
:1007900004B603FE27C08091780690917906A09157
:1007A0007A06B0917B068730904BA740B04BD1F4CE
:1007B000109278061092790610927A0610927B06B3
:1007C00014BE84B7877F84BF0FB6F894A895809134
:1007D0006000886180936000109260000FBEE0E0CE
:1007E000F8E3099512E0A0E0B1E0EAE6FAE602C01B
:1007F00005900D92A230B107D9F726E0A2E0B2E051
:1008000001C01D92A837B207E1F70E94C32D0C94D6
:10081000FC340C94000081E0089581E008950C946C
:100820000D0408950C9411041F93CF93DF9300D00F
:1008300000D00F92CDB7DEB749835A836B833091D6
:10084000160489819A8131111DC06623B9F02223D3
:10085000A9F00E94B924182F682F89819A810E94DB
:10086000642469817A81812F0F900F900F900F90EF
:100870000F90DF91CF911F910C949F180E949124AB
:10088000182FEFCF0E94B92469817A81EDCFFC0146
:10089000262F408151816281738184810C941404DC
:1008A000CF93DF93EC0160E00E944704BE01DF912B
:1008B000CF910C9412048F929F92AF92BF92CF92DD
:1008C000DF92EF92FF920F931F936B017C0181E007
:1008D00090E0A0E0B0E04C015D0104C0880C991CE0
:1008E000AA1CBB1C4A95D2F7B501A4014C015D01BD
:1008F00004C0880C991CAA1CBB1C2A95D2F7482955
:1009000059296A297B2904C0880F991FAA1FBB1F78
:100910000A95D2F78A019B010C211D212E213F212E
:10092000041715072607370789F48C299D29AE2956
:10093000BF29BC01CD011F910F91FF90EF90DF9077
:10094000CF90BF90AF909F908F9008958095909595
:10095000A095B0958C219D21AE21BF21EACF0F93A8
:10096000382F262F60917C0470917D0480917E0445
:1009700090917F04042F432F0E945B040F910C94ED
:10098000A2230E94FB070C9420080C9423080895CE
:100990000E9446200E94C7042FEF84E39CE0215070
:1009A00080409040E1F700C000000C94F7270F93BF
:1009B0001F93CF93DF938C0161E00E944704EC0109
:1009C000B8010E948516882309F448C0B801CE01F9
:1009D0000E940F04882309F441C0B801CE010E948F
:1009E0004E098823D9F1B801CE010E94D619882377
:1009F000A9F1B801CE010E94281A882379F1B80123
:100A0000CE010E944B1B882349F1B801CE010E9400
:100A10003114882319F1F8018281882361F0CA35E5
:100A2000FDE5DF0721F170F4C115ECE5DE07A1F06B
:100A3000CE3DDC45C9F0C801DF91CF911F910F91E8
:100A40000C940B04CB358DE5D807A1F0CC35DD45F2
:100A500091F70E946025EFCF0E94C80480E0DF91EB
:100A6000CF911F910F9108950E94CC26F7CF0E943D
:100A70006925E1CF0E946C25DECFDF92EF92FF92D5
:100A80000F931F93CF93DF93E82FF0E0E451FD4FD6
:100A9000D490282F26952695269530E0F901E45725
:100AA000FC4F0491877010E0082E02C01595079541
:100AB0000A94E2F701701127F901E458FC4FE49021
:100AC000F12C082E02C0F594E7940A94E2F791E025
:100AD000E922FF24F901E459FC4FC491D0E002C09F
:100AE000D595C7958A95E2F7C170DD2701151105E7
:100AF00019F081EE0E94ED1CE114F10419F086EE6C
:100B00000E94ED1C8D2D0E94DD1DEF2819F086EE50
:100B10000E94771D012B19F081EE0E94771DCD2BCD
:100B200051F08CE2DF91CF911F910F91FF90EF90E8
:100B3000DF900C94DD1DDF91CF911F910F91FF90FD
:100B4000EF90DF900895EF92FF920F931F93CF9352
:100B5000DF93EC01162F0AE08881882309F454C042
:100B6000813009F04EC08981813099F47E0122E004
:100B7000E20EF11C8A810E94DD1DE7012196812F82
:100B8000815050F3EFE9FFE03197F1F700C000002A
:100B9000F7CF823041F47E0182E0E80EF11C8A81B9
:100BA0000E94ED1CEACF833041F47E01E2E0EE0EBC
:100BB000F11C8A810E94771DE0CF843011F02196CC
:100BC000DDCF2A81229690E080E0AE014F5F5F4F3B
:100BD0002053330B2A30310548F0019778F2EFE9C2
:100BE000FFE03197F1F700C00000F7CF089FB00198
:100BF000099F700D1124C901860F971F2981EA01F1
:100C0000E4CF0E943D05BACFDF91CF911F910F91A4
:100C1000FF90EF90089560E00C94A30508950C9464
:100C20000E0681E008950C941106CF93C82F0E9400
:100C30000F068C2FCF910C941306CF93DF930E9455
:100C40009F180E940907EC01811522E59207E8F53B
:100C5000811531E5930708F0ACC0883E910510F589
:100C6000803E910570F5883A910570F4853A9105BA
:100C700008F078C08130910521F1009711F10497B7
:100C800000F5D0E0C0E01DC08F3B9105D0F7C85AF9
:100C9000D0E0CC0FDD1FC05DDE4F0990D881C02DA4
:100CA000D4640FC0811540E5940708F066C0C115F3
:100CB00080E4D80708F05EC0CE019A9581159F4167
:100CC00000F7CE01DF91CF910895811536E59307A6
:100CD00018F5811545E5940708F083C0C11584E532
:100CE000D80708F079C09C2F969596959E012370A1
:100CF0003327C115D34508F461C0C1E0D0E002C07C
:100D0000CC0FDD1F2A95E2F730E2939FC00111243A
:100D1000C82BD92BDA68D5CFC1158AE5D80778F466
:100D2000C11599E5D90708F066C0C11528E5D207B5
:100D300008F4A7CFDC2FCC27C06FD06AC2CFCE017A
:100D400090568115904208F09CCF8D2F8F710E9494
:100D5000A00790E0982F882788279F719C012C2B53
:100D6000E90147C0C55AD0E0C25ADE4FC881D0E081
:100D7000D064A7CFDF70D06AA4CFE4E096958795C2
:100D8000EA95E1F783702C2F26952695237040E293
:100D9000249F90011124382B8C2F8370C1E0D0E068
:100DA00002C0CC0FDD1F8A95E2F7C22BD32BDC6883
:100DB00088CFD82FCC27C16FD06A83CFC1E0D0E0D5
:100DC00002C0CC0FDD1F2A95E2F720E2929FC001FE
:100DD0001124C82BD92BEBCFDC2FCC27C46FD06AC2
:100DE00070CF0E94A007C82FD0E0DC2FCC27CC27E3
:100DF000DF71D06266CF8C2F8F700E94A00734E025
:100E0000D695C7953A95E1F7CF709C2FEC01D06944
:100E100058CF82389105B1F1B0F48133910509F4CE
:100E200075C048F48932910509F469C08A32910588
:100E300009F473C008958533910509F459C08933C5
:100E4000910501F10895833E9105A9F138F4803EA2
:100E50009105F9F0823E910549F10895863E91058C
:100E6000A9F1873E9105C9F1843E910519F52091BC
:100E70009E0421FF1FC080919D0484FD14C087EE55
:100E800090E0089520919D042370A1F080EE90E001
:100E9000089520919D0420FD47C030919E0430FFAD
:100EA00009C024FF44C090E080E004C020919D046C
:100EB00022FDF7CF089520919D0422FD3BC0309183
:100EC0009E0430FDE3CF24FFF5CFEDCF20919D04AC
:100ED00023FFF0CF24FDE7CFD2CF20919D0423FD47
:100EE0002CC030919E0431FFEECF84EE90E0089547
:100EF00020919D0425FFDECF89E290E008952091A6
:100F00009D0425FFD7CF85E390E0089520919D04AF
:100F100026FFD0CF8AE290E0089520919D0426FF1D
:100F2000C9CF81E390E0089589E390E0089583EECE
:100F300090E0089582EE90E0089586EE90E00895A6
:100F400090919D0492FF06C0282F28712830F9F453
:100F5000877F846093FF06C0282F28712831F1F421
:100F6000877E846120919E0420FF06C0382F38714F
:100F70003830D9F4877F816021FF06C0282F28717F
:100F80002831D1F4877E816194FD877E0895282FD2
:100F900024712430F9F68B7F8860DCCF282F2471F0
:100FA000243101F78B7E8861DDCF382F31713130EC
:100FB00019F78E7F8860E0CF282F2171213121F72A
:100FC0008E7E8861E1CF0C945F160E9470088FE3DB
:100FD0009CE90197F1F700C000000E94700880E0D2
:100FE0000E94250880FF04C00E94E3070C94F727A5
:100FF00008950C94E5070E942726811102C00E94E3
:10100000CC260E943226809391040E943A26909327
:101010009E0480939D040E94F9070E943626682F43
:1010200070E090E080E00E94662360917C04709103
:101030007D0480917E0490917F040C94A0230895F8
:101040000C941F0808950C942208E82FF0E0E8554E
:10105000FB4F80810895089580EA8A95F1F70895FD
:1010600000C008950C942C08F894E82FE295EF70D6
:10107000F0E031A1282F2F7081E090E001C0880FAF
:101080002A95EAF7982F9095932391A392A1892B03
:1010900082A378940895CF93DF93C9E6D1E0899134
:1010A0000E94340881E0C237D807C9F7C1E6D1E011
:1010B00089910E94340881E0C936D807C9F7EFE961
:1010C000F4E0A8EAB4E011921D9284E0E83AF8074F
:1010D000D1F789E00E94E708DF91CF910C94C10419
:1010E000CF92DF92EF92FF920F931F93CF93DF93F4
:1010F000C9E6D1E00FE914E0D12CEE24E394F12C01
:101100008991F894E82FE295EF70F0E021A18F70BB
:10111000A70102C0440F551F8A95E2F7CA01922F1A
:10112000982B91A392A18095892382A378940E9401
:101130003008E1E6F1E030E020E0C12C4191A42F3D
:10114000A295AF70B0E090968C9190E04F7002C085
:10115000959587954A95E2F780FD35C08E2D022E34
:1011600001C0880F0A94EAF7C82A2F5F3F4F283042
:10117000310521F7FE01319780810E9434080E94D9
:101180003208F8018081C81601F1C08281E0D82AB6
:101190000F5F1F4FF1E0C237DF0709F0B1CF2D2DF0
:1011A00049E068EA74E08FE994E00E94E8080E9450
:1011B000C5048D2DDF91CF911F910F91FF90EF907E
:1011C000DF90CF90089580E0CFCF80E0E0CF08950A
:1011D000FF920F931F93CF93DF93F82E092F162FB3
:1011E000D72FC42F222349F081E0809306020E946A
:1011F000AC27909305028093040280910602882315
:10120000A1F080910402909105020E94C4270697E4
:1012100060F0EF2DF02FA12FBD2FCE0FDF2FD11DAE
:10122000EC17FD0741F410920602DF91CF911F9158
:101230000F91FF90089581918D93F2CF84E0809378
:10124000B1048FE78093B2048091B3048078806406
:101250008093B304EBE0F2E08FEF8193DF01A95BB1
:10126000BF4F1C9292E0E335F907B9F710920A02DA
:1012700010920902109208021092070208959091AC
:10128000B104292F2F7095959595959595959F5219
:101290003CE0239F900D1124890F0895EF92FF9257
:1012A0001F93CF93DF93FB018E3A2CE5920708F052
:1012B00085C08E394CE5940708F099C180395CE50A
:1012C000950750F583382CE5920708F04CC181381A
:1012D0004CE5940760F487375CE5950708F02BC16F
:1012E0008F322CE5920708F0DFC0D1E01DC18138B4
:1012F0004CE5940709F42CC182389C45B1F78281F2
:10130000882309F4FBC08091B104982F9F70993015
:1013100008F0F4C09F5F25C18C392CE59207A0F539
:1013200082394CE5940708F03BC180395CE59507AC
:1013300009F424C181399C45C1F68281882309F4CE
:10134000DDC02091B104822F859585958595859581
:1013500086300CF0D3C091E0980F9295907F9595D0
:10136000959595959595392F3295307F2F70232B34
:101370002093B10418160CF0C1C097FFBFC082952E
:10138000807F922F9F70E0C08C394CE5940709F460
:1013900015C18D399C4509F0A8CF8281882309F4B5
:1013A000ADC08091B204982F9F779F3709F4A6C0F3
:1013B000933708F01AC1935F9F77FEC0843B2CE5FA
:1013C000920709F472C1C8F5803B5CE5950709F402
:1013D0003EC1D8F48E3A4CE5940709F41AC18F3A0D
:1013E0009C4509F082CF8281882309F487C020912F
:1013F000B204322F331F3327331F9091B304892F48
:101400008770880F832B8F5F15C16091B204309174
:10141000B3042281823BECE59E0709F43AC108F44B
:101420002CC121112FE7862F881F8827881F632F43
:101430006770660F682B42E41BC1873B2CE592075F
:1014400009F446C180F4853B5CE5950709F42DC19C
:10145000863B9C4509F049CF8281811137C18FEFCE
:10146000809309024BC0893B4CE5940709F466C19F
:1014700008F44FC18A3B9C4509F037CFD281609177
:10148000B204862F881F8827881F6091B304677075
:10149000660F682BDD2309F461C14FEF5FE18EE732
:1014A00095E00E947D282AC01091B204212F221FAE
:1014B0002227221FC091B304C770CC0FC22B1F7705
:1014C000D28121ED280F30E0A901455F5D4F7A01FF
:1014D000DD23C1F00E943F09D82F212F482F6C2F08
:1014E0008EE795E00E945D28F701E85BFF4F808161
:1014F0008F5F8083F70180818F3F11F0D0E014C0AF
:10150000D083FCCFFA014081E85BFF4F808181509E
:1015100080838111F3CF212F6C2F8EE795E00E94FD
:101520006D288FEFF70180838D2FDF91CF911F9171
:10153000FF90EF9008952281222301F38757982F7F
:101540009F708091B104807F892B8093B104D6CFA6
:101550008281882399F28091B104982F9F7071F253
:10156000915F9F70F0CF2281222341F28958982FFA
:101570009295907F8091B1048F70E6CF828188230D
:1015800009F4BCCF8091B104982F959595959595C8
:1015900095959B3F0CF4B2CF915F9295907FECCFE5
:1015A0002281222309F4AACF82599EE0899F902D9F
:1015B00011249F778091B204807815C0828188239E
:1015C00009F49CCF8091B204982F9F7709F496CFAD
:1015D00080789F3721F485678093B2048FCF9D3048
:1015E000D8F39D509F77892BF7CF8F67F5CF228156
:1015F000222309F483CF8E599091B20480FB97F98E
:101600009093B204869587709091B304987F892B4C
:101610007DC08281882309F471CF2091B204322FDA
:10162000331F3327331F9091B304892F8770880F9E
:10163000832B815F382F3F7080FB27F92093B20402
:10164000832F8695987F982B9093B30457CF8281F0
:10165000882309F453CF6091B204862F881F88270E
:10166000881F6091B3046770660F682B20E04BE71A
:101670008EE795E00E944D2841CF21112FE7862F5C
:10168000881F8827881F632F6770660F682B40E4C8
:10169000EFCF21112FE7862F881F8827881F632F00
:1016A0006770660F682B41E4E3CF828120E08111EF
:1016B0002FE76091B204862F881F8827881F6091CA
:1016C000B3046770660F682B43E4D2CF81E0C8CEC5
:1016D0008281882309F412CF9091B304292F269593
:1016E000269526952F7081E0820F8F70880F880FC6
:1016F000880F9778892B8093B304982F987709F0F7
:10170000FDCE220F220F220F8778822B8093B30405
:10171000F5CE8281882309F4F1CE8091B304982F0D
:10172000987709F4EBCE982F969596959695915FBC
:101730009F70990F990F990F877869CFD281609127
:10174000B204862F881F8827881F6091B3046770B2
:10175000660F682B40E050EED111A1CE50E040E082
:101760008EE795E00E947D28DFCE8EE795E00E940F
:101770007F2A80910702909108020E94C42720913D
:10178000B3042695269526952F702817190609F07B
:10179000A0F50E94AC2790930802809307028091E5
:1017A0000902882351F16091B204862F881F88278F
:1017B000881F6091B3046770660F682B20910A023E
:1017C00041E08EE795E00E944D28809109029091BA
:1017D0000A0287FF0DC0482F552741950CF45095FC
:1017E000941715062CF410920A021092090208951B
:1017F000890F87FD03C080930A0208958FE7FBCF0E
:10180000EF92FF920F931F93CF93DF93EB01E82F9B
:10181000D11110C0442321F0F0E0EA50FB4FE491D5
:101820006E2F7E2F8E2FDF91CF911F910F91FF9002
:10183000EF9008950D2F10E0282F30E0442329F079
:101840002A503B4FF901249130E0F6E0CF9FC001D0
:101850001124EFEFF0E0BF010E949B33AB018C2F0E
:1018600090E0880F991FA5E5A49FB001A59F700D7A
:101870001124861B970B982F990F980FBF01601B9F
:10188000710B629FD001639FB00D729FB00D112448
:101890008B2F9D9FB0011124672F7727EF01C61B67
:1018A000D70BBE01629FE001639FD00D729FD00DE8
:1018B00011247F01E91AF108E09EB001E19E700D4C
:1018C000F09E700D1124672F7727E61BF70BE29F20
:1018D0008001E39F100DF29F100D1124E12F722F54
:1018E0004230510599F048F44115510569F04130F5
:1018F000510581F0EB2F8D2F07C04430510569F061
:1019000080F046305105B1F76E2F8DCFE22F7B2F3F
:10191000812FFACFE22F7D2FF7CFEB2F822F712F60
:10192000F3CF7B2F822FED2FEFCF41E00C94000CF3
:1019300008950C94950CCF93DF93762FE901682FCF
:10194000842F0E94990C798368838A83DF91CF91D9
:101950000895493708F048E70C949B0C8091B50432
:10196000982F9E7F61F4817082608093B50480918E
:10197000B804893718F088E78093B804089586354D
:10198000B0F381708465F1CF88E090E00C949D34D1
:10199000CF92DF92EF92FF926B017C010E94AE0C1E
:1019A000B701A60188E090E0FF90EF90DF90CF9024
:1019B0000C94BB346091B5047091B6048091B70467
:1019C0009091B8040C94C80CE5EBF4E083E08083BC
:1019D00011828FEF828388E7838314826081718113
:1019E000828193810C94C80C8091B50480FF02C061
:1019F0008695089580E008959091B904933018F485
:101A00009F5F9093B904882351F06091B504709161
:101A1000B6048091B7049091B8040C94C80C089552
:101A200081E00C94FC0C9091B904992319F0915029
:101A30009093B904882351F06091B5047091B60475
:101A40008091B7049091B8040C94C80C089581E07B
:101A50000C94130D8091B90408958093B904662302
:101A600051F06091B5047091B6048091B7049091E3
:101A7000B8040C94C80C089560E00C942D0D80916E
:101A8000B60408958091B70408958091B80408952C
:101A900021E030E002C0220F331F8A95E2F78091E7
:101AA000EB039091EC032823392381E0232B09F4E5
:101AB00080E0089570E00C94FE146F927F928F92F4
:101AC0009F92AF92BF92CF92DF92EF92FF920F93CD
:101AD0001F93CF93DF93CDB7DEB7C05CD1090FB6AC
:101AE000F894DEBF0FBECDBF709008019091B50491
:101AF00090FF47C0C090DE03D090DF03C114D10433
:101B000009F052C0E6EBF4E09E012F5F3F4FBE01AB
:101B10006F537F4FC901A4914A2F50E0DA01AA0FF9
:101B2000BB1FA40FB51FA654BB4FCD90DD90EC900A
:101B3000D901CD92DD92ED929D0131966A177B0716
:101B400051F720910701672DB3E02B9F800D911D68
:101B500011240E945A0DC054DF4F0FB6F894DEBF17
:101B60000FBECDBFDF91CF911F910F91FF90EF90EE
:101B7000DF90CF90BF90AF909F908F907F906F90AD
:101B800008958091090120910A0133E0839FF001BB
:101B90001124E654FB4F821708F0ACCF118210825B
:101BA00012828F5F3396F7CF90FFACCFF12CE12CF0
:101BB00043E0642E8E2D0E94480D882309F43CC01A
:101BC000F701EE0FFF1FEC0DFD1DA590B490A114C1
:101BD000B10409F497CF45E050E0B501CE0101967C
:101BE0000E947F3409810F3F39F18A81800F992744
:101BF000991F8134910514F080E490E04C01880C29
:101C0000991C880D991DDC01A654BB4F4D01069D02
:101C10008001112406541B4F0815190520F0B5E06A
:101C2000AB0EB11CD8CF98014D816C818B810E9485
:101C3000A90C0D5F1F4FF0CF2FEFE21AF20A39E027
:101C4000E316F10409F0B6CF5DCF9091B50490FF93
:101C500014C09091090120910A0133E0939FF00193
:101C60001124E654FB4F921710F00C945D0D818304
:101C7000608342839F5F3396F6CF0895CF93DF93BF
:101C800000D00F92CDB7DEB79091B50490FF0AC097
:101C90009E012F5F3F4F0E94A90C4B8169818A8171
:101CA0000E94250E0F900F900F90DF91CF91089515
:101CB000CF93DF93EC01EC81F0E0EF54FC4F4491C3
:101CC000E5EBF4E0628181810E943E0E8C818F5FA2
:101CD0008C83DF91CF910895CF93DF93EC01E5EBF7
:101CE000F4E0438162818C810E943E0E8C818F5F83
:101CF0008C83DF91CF9108950F931F93CF93DF9340
:101D000000D00F92CDB7DEB78C0180919B0281117C
:101D10000AC09E012F5F3F4F48E76FEF0E94A90C5A
:101D20008A8180939B02F8016481613069F080911F
:101D30009B0240E0662361F040E0623011F4409184
:101D40009B0280E060E004C060919B0240E080E084
:101D50000E94250EF801848190E0019663E070E016
:101D60000E94AF3384830F900F900F90DF91CF913B
:101D70001F910F910895AF92BF92CF92DF92EF9291
:101D8000FF920F931F93CF93DF9300D00F92CDB7A5
:101D9000DEB7182FF62E042FE22E9091B50490FF97
:101DA00029C0E92FE695AE2FB0E0AE58BE4F8C911A
:101DB0008093E9039E7F923059F59E012F5F3F4F3C
:101DC000812F0E94A90C4B8169818A810E94250E76
:101DD0001093B604F092B7040093B804EE2051F0CB
:101DE0006091B5047091B6048091B7049091B804E5
:101DF0000E94C80C0F900F900F90DF91CF911F9110
:101E00000F91FF90EF90DF90CF90BF90AF9008952B
:101E1000823019F40091B804DBCF863019F41091A8
:101E2000B604D6CF8930D9F3893191F6E9518E2F96
:101E30008170D82EE695F0E0EF54FB4FA590B4905A
:101E4000C12CBB2460910B01C61618F00E945D0DD9
:101E5000BFCF2C2D30E0A29EC001A39E900DB29E5C
:101E6000900D112470E00E949B33812FD11013C07C
:101E7000860F40910901420F532F511D9A01220FE5
:101E8000331F240F351F26543B4F402F6F2D0E94C8
:101E9000A90CC394D7CF861BECCFE5EBF4E091817E
:101EA000282F4381628188E0890F0C94BB0E81E06A
:101EB0000C944D0FE5EBF4E09181282F4381628172
:101EC00088EF890F0C94BB0E81E00C945A0FE5EB60
:101ED000F4E0628128E0620F08F46FEF282F43815D
:101EE00081810C94BB0E81E00C94670FE5EBF4E06C
:101EF000628128E0621B08F460E0282F4381818121
:101F00000C94BB0E81E00C94760FE5EBF4E043817A
:101F100028E0420F08F44FEF282F628181810C9452
:101F2000BB0E81E00C94850FE5EBF4E0438128E0E3
:101F3000421B08F440E0282F628181810C94BB0E83
:101F400081E00C94940F20E00C94BB0EEF92FF9272
:101F50001F93CF93DF93EC0110E0EE24EA94F12C71
:101F600060910B01161770F00E945D0D9A818C81B3
:101F700090FF27C08F5F8C83DF91CF911F91FF90DF
:101F8000EF90089520910901422F410F5527551FC9
:101F9000CA019A01220F331F280F391F26543B4FC5
:101FA00070E0C7010E94AF33962F8C814091B80436
:101FB0006091B704199F800D11240E94A90C1F5F26
:101FC000CFCF8150D8CFBF92CF92DF92EF92FF92C6
:101FD0000F931F93CF93DF93FC0182810FEF80FF5C
:101FE00001E010E080910B011817C0F00E945D0D18
:101FF00080919D02013009F051C0811102C0809191
:102000000B01815080939D02DF91CF911F910F9121
:10201000FF90EF90DF90CF90BF900895C09109019D
:10202000C12ED12CCC0DDD2DD11DCE01880F991FD5
:10203000C80FD91FC654DB4F198218821A8234E0A8
:10204000E32EF12CB12C80919D028B0D813404F193
:102050008F73082E000C990BC816D90691F4809145
:10206000B8048E9DA0018F9D500D11245595479564
:10207000559547959E016091B7048091B6040E94E2
:10208000A90CB00EF1E0EF1AF108E9F61F5FAACF34
:1020900087FFDFCF90910B01890FDBCF90E0019696
:1020A00060910B0170E00E94AF33ACCF0F931F9390
:1020B000CF93DF938091090190910A0123E0829FE1
:1020C000F0011124E654FB4F891740F1C0E0D3E042
:1020D00060910B01C61740F10E945D0D2091050132
:1020E00080919C02820F80939C0290910601920F36
:1020F00090930601191654F4082E000C990B409188
:102100000B014150550B841795071CF02195209326
:102110000501DF91CF911F910F91089511821082D7
:1021200012828F5F3396D0CF0C2F10E070E0C80181
:102130000E94AF3320910901820F482F50E0209177
:102140009C02022E000C330B02171307BCF02091E7
:102150000601022E000C330B201731077CF08D9FF7
:102160009001112426543B4F4091B8046091B7046C
:102170008091B6040E94A90CCF5FAACFFA01EE0F9E
:10218000FF1FE40FF51FE654FB4F118210821282ED
:10219000F3CF8F929F92AF92BF92CF92DF92EF9246
:1021A000FF920F931F93CF93DF93EC014C81042F89
:1021B00010E09801D8010E94FA339B01AC010E9403
:1021C00010344B015C01E0E2F0E0E01BF10BA5E50F
:1021D000B0E0AC019B010E9410346B017C019F01B7
:1021E000DF010E94F2339B01AC010E941B349B0172
:1021F000AC01280D391D4A1D5B1DC701B6010E94A7
:10220000C333F22E822F90E039E23F1560F143E0B4
:10221000249F9001112435952795122F109500E0E9
:1022200085E5E82EEF1880910B01081758F10E9400
:102230005D0D9C8181E0992319F0903219F48FEFA4
:102240008093040180910401890F8C83DF91CF91E9
:102250001F910F91FF90EF90DF90CF90BF90AF90C4
:102260009F908F90089525E530E0B901681B790BA8
:102270009B01220F331F260F371F37FFCCCF2F5F55
:102280003F4FC9CF8E2D01FD8F2D20910901622F67
:10229000600F7727771F9B01220F331F260F371FF1
:1022A00026543B4F412F6091B7040E94A90C0F5F49
:1022B000BACF0F931F93CF93DF93EC0110E000E0B0
:1022C00090910B019017110609F06CF40E945D0DBE
:1022D0008C8190E00196817099278C83DF91CF915A
:1022E0001F910F91089520910901A801420F511DDE
:1022F0009A01220F331F240F351F26543B4F4C8168
:102300006091B7048091B60496959017110651F02C
:102310004CF0442349F04091B8040E94A90C0F5F8F
:102320001F4FCECF4423B9F340E0F7CF4F925F92D7
:102330006F927F928F929F92AF92BF92CF92DF92D5
:10234000EF92FF920F931F93CF93DF93FC01628074
:10235000448081E08483E1EBF3E07490E0E3F4E017
:10236000E491812C75E0972EF2E0CF2EDD24D394FA
:10237000AA24AA94B12C55245A94E7190E2F10E0E0
:1023800080910B01881690F0DF91CF911F910F91F2
:10239000FF90EF90DF90CF90BF90AF909F908F9085
:1023A0007F906F905F904F900C945D0DE82CF12C16
:1023B00082E0861568F09E9CF0019F9CF00D112430
:1023C000E256FD4F8091B60480838091B7048183EB
:1023D000411023C09E9CF0019F9CF00D1124E256F9
:1023E000FD4F1382128220910901C701820F911DB6
:1023F0009C01220F331F280F391F26543B4F9E9CF0
:10240000F0019F9CF00D1124E256FD4F4281618145
:1024100080810E94A90C8394B3CF9E9CE0019F9C75
:10242000D00D1124C256DD4F8B818823E9F08150F5
:102430008B83859DC00111246C8170E00E949B33C9
:10244000FB01FF27EF54FC4F8491E82FE719E59D2E
:10245000C0011124B8010E949B338091B804689F89
:10246000B00111247A83BFCF0E946F342091B80449
:10247000269521582C9DA0012D9D500D1124452FEE
:102480005527841795070CF0AECF82E0861588F4A7
:102490000E946F34B5010E94AF3388830E946F346D
:1024A0002091B7042695622F70E00E94AF33280F69
:1024B00029839E9CF0019F9CF00D1124E256FD4F54
:1024C00012828091B804893C58F088EC9E9CF001FF
:1024D0009F9CF00D1124E256FD4F8483838383CFAC
:1024E0008431A0F784E1F2CFE5EBF4E080818E7FC8
:1024F000808360817181828193810E94C80C1092D7
:10250000EA032FEF80E792E0215080409040E1F70E
:1025100000C000000C945D0DE5EBF4E080818E7F3F
:1025200080831092EA032FEF80E792E021508040F1
:102530009040E1F700C000000C945D0D1092EA039A
:102540008091E70381110AC081E08093E7038091C5
:10255000B50481708093E6030C948C120895609109
:10256000B504669570E04BE050E08CE091E00E948D
:102570008834892B19F481E08093EA030E94AC2708
:102580009093E1038093E00308959091B50490FF48
:1025900035C09170811128C092609093B504662374
:1025A00051F06091B5047091B6048091B704909198
:1025B000B8040E94C80C6091B504669570E04BE0C9
:1025C00050E08CE091E00E948834892BA1F01092B9
:1025D000EA0381E08093E3034091B8046091B7047B
:1025E0008091B6040C94A30F8B3210F09465D5CF74
:1025F000880F982BD2CF0E94AF12EBCF0895682F8F
:102600009091B504969581E0890F8B3208F081E0B6
:102610000C94C51281E00C94FF12682F9091B504C0
:1026200096958FEF890F09F48AE20C94C51281E028
:102630000C940D1361E00C94C512E5EBF4E080817D
:102640008160808386950C941A138091B50480FD77
:102650000C9474120C941D1360E00C94C5128091BC
:10266000E80381112EC00E942726811104C00E9418
:10267000CC260E94E40C0E94C40C6093B5047093B5
:10268000B6048093B7049093B8046E7F61F40E94FF
:10269000E40C0E94C40C6093B5047093B60480935C
:1026A000B7049093B8040E94AE0C1092EA03809194
:1026B000B50480FF03C086950E942C1381E08093AF
:1026C000E8030895E5EBF4E08081816080838695DE
:1026D0000C942C131092E7038091E60381110E9461
:1026E00062130C94AF120F931F93CF93DF938091DB
:1026F000EA03882309F496C08091E903E091B504C8
:10270000E695E81BE093E203823091F5F0E0E355B3
:10271000FC4FE491CE2FD0E008E51EE08091E3036A
:10272000882361F01092E3030E94AC279093E103A9
:102730008093E0031092E5031092E4030E94AC271B
:10274000E091E003F091E1038E1B9F0B8F3F9F47C9
:1027500008F068C0EC0FFD1FF093E103E093E00385
:1027600080EE93E0F801DF91CF911F910F910994D2
:10277000863049F4F0E0E655FC4FE491CE2FD0E0EE
:102780000CE61EE0CBCF893051F4E695F0E0E95538
:10279000FC4FE491CE2FD0E006EA1FE0BFCF8F3090
:1027A00051F4E695F0E0EC55FC4FE491CE2FD0E0EB
:1027B00003EE1FE0B3CF853149F4F0E0EF55FC4F55
:1027C000E491CE2FD0E006E510E1A8CFC8E2D0E03A
:1027D00009EC10E1883109F4A1CF833239F4EFE933
:1027E000F3E0C591D4910CE71EE098CFC4EFD1E09F
:1027F00009E511E1843209F491CFC0EDD7E008E991
:102800001CE0853209F08ACF8E2F63E00E948F335F
:10281000E92FF0E0E456FC4FE491CE2FD0E006E93A
:1028200011E17CCFDF91CF911F910F910895FA01B3
:10283000811101C0FB010994CF93DF93C82FD62FDC
:102840000E94F40C8C1740F00E94F40C8D1720F4B9
:10285000DF91CF910C940A138C2FDF91CF910C94C0
:102860001A131F93CF93DF93EC01FB011281112305
:1028700009F4C2C00E946F258272CC3CFCE5DF07E0
:1028800009F4A0C008F044C0C63CECE5DE0709F43A
:1028900085C0F0F4C33C9CE5D90709F475C048F441
:1028A000C23CDC4509F46CC0812FDF91CF911F91B0
:1028B0000895C43C9CE5D90709F46BC044E65FE089
:1028C00067E57FE0C53CDC4579F70E9417145AC0E4
:1028D000C93CFCE5DF0709F46BC068F4C73CECE5D4
:1028E000DE0709F460C043E75FE062E87FE0C83CD0
:1028F000DC4559F3D9CFCA3C9CE5D90709F45DC042
:1029000047E25DE060E17DE0CB3CDC45F1F2CCCF1D
:10291000C13DFCE5DF0709F464C098F4CE3C9CE5BA
:10292000D90709F458C008F452C0CF3CFCE5DF07D2
:1029300009F454C0C03DDC4509F0B6CF6EE089E033
:102940001CC0C43D9CE5D90709F451C058F4C23DF0
:10295000FCE5DF0709F448C0C33DDC4509F0A4CF1E
:1029600088E136C0C53D9CE5D90709F443C06AE259
:1029700085E2CD35DD4509F097CF0E941C1402C0D9
:102980000E94251310E090CF47E153E16AE073E124
:102990009CCF4AE053E167E173E197CF47E55FE001
:1029A00064E67FE092CF42E85FE063E77FE08DCFAF
:1029B00040EA5FE061E97FE088CF41E95FE060EAFB
:1029C0007FE083CF40E15DE067E27DE07ECF81E0A4
:1029D0000E941A13D7CF65E082E0CFCF68E086E08F
:1029E000CCCF64E18FE0C9CF67E185E1C6CF62E279
:1029F00089E1C3CF83E2ECCF11E056CF809A41B397
:102A00004E7F51B35160EFB7F8949B01220F331FF3
:102A1000260F371F280F391F2817390741F4EFBF3A
:102A20008FE594E00197F1F700C000000895DC0104
:102A30006D91CD0178E051BB000000C067FF41BB44
:102A4000660F000000C000C000C041BB00C07A9506
:102A500091F7E2CF81E008950C942A15AF92BF92CE
:102A6000CF92DF92EF92FF920F931F93CF93DF935A
:102A7000A0EBB1E02DEA31E083EFA82E83E0B82E81
:102A800063EB71E041E050E00D91802F82958F70F3
:102A900090E0FC01C1A10F707A01002E01C0EE0C84
:102AA0000A94EAF7FE2DF095CF23FC01C1A3C2A141
:102AB000CE29C2A3E90119919E01E12FE295EF70A1
:102AC000F0E0F1A01F706A01012E01C0CC0C0A9445
:102AD000EAF7EC2CE094EF20E1A2F2A0FC28F2A2AD
:102AE000EC0188A190E002C0959587950A95E2F7E0
:102AF0008170E0A1F0E002C0F595E7951A95E2F744
:102B000090E0E0FD92E0892BF50181935F016A1767
:102B10007B0709F0B9CFDF91CF911F910F91FF9003
:102B2000EF90DF90CF90BF90AF9008956F927F921B
:102B30008F929F92AF92BF92CF92DF92EF92FF92CD
:102B40000F931F93CF93DF9303EF13E080EBC82E17
:102B500081E0D82E9DEAE92E91E0F92E20EF822E19
:102B600023E0922ECDEED3E0712C612C34E0A32E25
:102B7000B12CD801EC91EE0FEE0FED938D01D60143
:102B80002D916D01A22FA295AF70B0E090968C911F
:102B900090E02F7002C0959587952A95E2F7817095
:102BA0009927D7014D917D01A42FA295AF70B0E078
:102BB00090962C9130E04F7002C0359527954A953C
:102BC000E2F7A9014170552720FF02C042E050E022
:102BD000842BE82BD8011197EC93EF70F0E0E356CB
:102BE000FE4F8081F4019081890F808320E0843042
:102BF00044F088818F5F888360E0872D0E942C15C8
:102C000021E0D4018C918D3F44F4888181508883E8
:102C100061E0872D0E942C1521E0F4018081082EAF
:102C2000000C990BB5010E94AF33D4018D934D0177
:102C3000622A73942196B3E07B129BCF862DDF919D
:102C4000CF911F910F91FF90EF90DF90CF90BF90A9
:102C5000AF909F908F907F906F90089583E290E067
:102C60000E949534813289F484E290E00E94953488
:102C7000813159F485E290E00E94953491E08931E8
:102C800009F090E0892F8170089580E0FCCFCF9308
:102C9000C82F6FEF811161E283E290E00E94A934B6
:102CA0006FEFC11161E184E290E00E94A9346FEFFF
:102CB000C11169E185E290E0CF910C94A93480E0E4
:102CC0000E9447160C942126089586E290E00E9407
:102CD0009534682F70E090E080E0089586E290E0FF
:102CE0000C94A9340E9464160E942E1681110CC007
:102CF00060E070E0CB010E946E160E9417180E94DF
:102D0000031981E00C9447160895CF93FB01C2810B
:102D1000CC2309F19C0122513F452031310520F59A
:102D200082510E941319C0E08C2FCF91089581E049
:102D30000E94C82343E062E081E00E94AF04F3CF29
:102D400081E00E94E92343E062E081E00E94AF0459
:102D5000EBCF82E0F6CF8031FFE59F0789F3813129
:102D60009F45B9F3C1E0E0CF8031EFE59E07F9F26E
:102D700081319F45C9F682E0DBCF2FEFFC01208334
:102D80000895CF93DF93EC0188818138A9F028F46E
:102D9000803871F0DF91CF910895823881F08338C7
:102DA000C9F70E943F0D89830E94420D8A83F2CFAA
:102DB0000E94450D8983EECF0E94F40CFBCF0E9448
:102DC0002A0DF8CFCF93DF93EC0188818138E1F0B1
:102DD00028F4803869F0DF91CF910895823811F19D
:102DE0008338C9F70E94450D482F6A81898108C040
:102DF000D9810E94420DC82F0E943F0D4D2F6C2F8C
:102E0000DF91CF910C94A30F89810E942C138981AB
:102E1000811104C0DF91CF910C948C12DF91CF917E
:102E20000C9462138981DF91CF910C943C0DEF9249
:102E3000FF920F931F93CF93DF93EC01062FDC01DA
:102E4000ED91CD01E150E33108F0ADC0F0E0E2508A
:102E5000FB4C0C94E533198289E08A83602FCE0104
:102E6000DF91CF911F910F91FF90EF900C94A42CC4
:102E70008981823069F0833071F08130D9F40E9409
:102E8000B8270E94EB336A837B838C839D83E6CFD4
:102E90000E946516F6CF7E01B2E0EB0EF11C10E049
:102EA000812F0E942508F70181937F011F5F193050
:102EB000B9F7D4CF602FCE010E94BD16CFCF898144
:102EC0008230C1F76A817B818C819D810E94EB33C6
:102ED0000E946E16C3CF4B816A8189810E94E917D7
:102EE0009827892798279D838C83B8CF2C813D8193
:102EF0003227232732274B816A8189810E94021859
:102F0000ADCF0E941718AACF0E94E216A7CF0E9449
:102F1000C116A4CF0E94DA0CA1CF0E94AC188983FD
:102F20009DCF0E94AE189827892798279A83898376
:102F300095CF6B8170E089819A81AE014C5F5F4FC4
:102F40009827892798270E94B11888CF6B8170E055
:102F500089819A81AE014C5F5F4F98278927982716
:102F60000E94D8187BCF0E94031978CF0E94D617F1
:102F7000D6CF6B8170E089819A81AE014C5F5F4F43
:102F80009827892798270E944F1868CF6B8170E097
:102F900089819A81AE014C5F5F4F982789279827D6
:102FA0000E9475185BCF8FEF888358CF84E0089517
:102FB00090E1699FB001112450E0440F551F640F48
:102FC000751F90E9899F600D711D1124CB018796B3
:102FD00008950F931F93CF93DF930E94D8178C010E
:102FE0000E949534C82FD0E0DC2FCC27C801019671
:102FF0000E9495349E01282BC901DF91CF911F912A
:103000000F9108950F931F93CF93DF93122F032FE8
:103010000E94D817EC01602F0E94A934612FCE01C5
:103020000196DF91CF911F910F910C94A934AF922B
:10303000BF92CF92DF92EF92FF921F93CF93DF93D5
:103040008CEAC82E80E0D82ED0E07601C0E014C013
:10305000F50125913491412F6C2F8D2F0E9402187C
:1030600082E0A80EB11C1F5F183091F780E1E80ED6
:10307000F11CCF5FC93019F0570110E0E9CFDF5FD5
:1030800080E9C80ED11CD43001F7DF91CF911F9198
:10309000FF90EF90DF90CF90BF90AF900895EF92A8
:1030A000FF920F931F93CF93DF93EC018A017C0172
:1030B000E60EF71ECE018796CE15DF0539F4DF91B7
:1030C000CF911F910F91FF90EF900895C03422E0AF
:1030D000D20740F40E949534F80180830F5F1F4FA0
:1030E0002196E8CFF8011082F9CFCF92DF92EF92CC
:1030F000FF920F931F93CF93DF937C016A018C01A2
:10310000060F171FEC01CE018796C017D10749F4AF
:10311000DF91CF911F910F91FF90EF90DF90CF90B3
:103120000895C03422E0D20740F4FE01EE19FF09F1
:10313000EC0DFD1D60810E94A9342196E4CF462F3D
:10314000843038F4793028F4683018F4672F0C9400
:10315000E91790E080E0089580E1089589E991E021
:103160000895EF92FF920F931F93CF93DF93EC019B
:103170008A017C01E60EF71ECE0189599D4FCE15BE
:10318000DF0539F4DF91CF911F910F91FF90EF9000
:103190000895C93921E0D20740F40E949534F8011E
:1031A00080830F5F1F4F2196E7CFF8011082F9CF80
:1031B000CF92DF92EF92FF920F931F93CF93DF9303
:1031C0007C016A018C01060F171FEC01CE018959A1
:1031D0009D4FC017D10749F4DF91CF911F910F91F7
:1031E000FF90EF90DF90CF900895C93921E0D2078A
:1031F00040F4FE01EE19FF09EC0DFD1D60810E94F7
:10320000A9342196E3CFCF93DF93C7E6D2E060E005
:10321000CE010E94A9342196C11584E0D807B9F7E0
:10322000DF91CF910895DF92EF92FF920F931F935A
:10323000CF93DF9300D000D0CDB7DEB7F82E8FE06C
:103240008F1540F08FEF93E00E94953407E612E06F
:103250008823C1F00F900F900F900F90DF91CF91C6
:103260001F910F91FF90EF90DF900895011584E07A
:10327000180781F3C8010E949534811101C0FA94A6
:103280000F5F1F4FF110F2CF19821A821B821C822E
:10329000DD24D39478018FEFE81AF80AC8010E9460
:1032A000953489831A828823A9F29FEF980F93306F
:1032B00078F48A83D9820E5F1F4FC7010E9495342C
:1032C0008B83882339F2CE0101960E940B06E2CF50
:1032D0008701F9CF0F931F93CF93DF93C42FD22F82
:1032E000FC0182818823C9F04093F8030E94AC2737
:1032F0009093F7038093F60380E28C0F883008F0F8
:1033000050C0C77081E001C0880FCA95EAF7DF910D
:10331000CF911F910F910C94E51D1091F803141398
:1033200035C08091F6039091F7030E94C427883C32
:10333000910560F5C0E2CD0F1D17B9F080E2810F55
:10334000883040F4177081E001C0880F1A95EAF7C1
:103350000E94EC1DC83048F481E09D2F977001C099
:10336000880F9A95EAF70E94E51D802F0E94DD1DC7
:10337000C830B8F4D77081E001C0880FDA95EAF759
:10338000DF91CF911F910F910C94EC1D80E28C0F77
:10339000883038F4C77081E001C0880FCA95EAF719
:1033A000EFCFDF91CF911F910F9108950F939C0163
:1033B000CB01233F4CE5340759F1A8F4283DFCE547
:1033C0003F0701F1293D4CE53407D1F1273D3C454C
:1033D00091F406E221EE41EE67ED7CE50E946A1968
:1033E00080E00F910895253FFCE53F07E9F0B0F03C
:1033F000263F3C45F9F0FC018281882339F1109287
:10340000F803EFCF07E225EE45EE68ED7CE5E6CF69
:1034100006E221EE40EE63EF7CE5E0CF07E225EE29
:1034200044EE64EF7CE5DACF06E221EE42EE65EF92
:103430007CE5D4CF07E225EE46EE66EF7CE5CECF05
:1034400008E221E045EE69ED7CE5C8CF81E0C9CF17
:10345000CF93DF93EC01FB018281882309F419C12A
:10346000C230FCE5DF07C0F1C6319CE5D90730F07A
:103470009E012A5F3C452930310570F50E943A26AD
:1034800090939E0480939D04C031ECE5DE0709F41F
:10349000CFC008F05BC0C8308CE5D80709F4B6C0CF
:1034A00088F5C430ECE5DE0709F4A8C0C0F4C230EA
:1034B0008CE5D80709F49CC080919D048260C330DC
:1034C000DC4509F498C080919D0490919E040E946F
:1034D00048260E94462080E0DF91CF910895809198
:1034E0009D048061C630ECE5DE0709F484C080915C
:1034F0009D048860C730DC4508F47DC080919D0440
:10350000806279C0CC308CE5D80709F489C070F4AA
:1035100080919D048C60CA30ECE5DE0709F46BC035
:1035200008F478C080919D048E7F65C0CE308CE514
:10353000D80709F479C080919D048B7FCF30DC459A
:1035400008F459C080919D048F7E55C0CB3FECE5B7
:10355000DE0709F457C030F5C3318CE5D80709F40C
:103560006FC078F4C131ECE5DE0709F465C0C23103
:10357000DC4509F0A8CF0E94462080919D048F77FA
:103580003AC0C5318CE5D80709F462C008F476C0AA
:1035900080919E048160CA3FDC4509F094CF8093FE
:1035A0009E0491CFCF3FFCE5DF0709F44DC088F4BE
:1035B00080919E048D7FCD3F9CE5D90781F380915A
:1035C0009E048E7FCE3FDC4550F380919E04836045
:1035D000E6CFC130FDE5DF0709F459C008F444C067
:1035E00080E0C230DD4509F06ECF0E94CE266BCF61
:1035F00080919D04816080939D0465CF80919D049E
:103600008460F9CF80919E048260C9CF80919D042F
:103610008064F1CF0E94462080919D048068EBCFAA
:1036200080919D048D7FE7CF80919D04877FE3CFBC
:1036300080919D048F7DDFCF80919D048F7BDBCFB8
:1036400080919D04837FD7CF80919E048C7FA7CFEC
:1036500080919D0482FB992790F921E0922790FBAD
:1036600082F990FB83F9C7CF80919E04982F9095A3
:1036700091708E7F892B90FB81F991CF0E9446201B
:1036800090919D04892F97FB87F98058B4CF81E0F2
:10369000ACCF81E021CFCF93DF93EB0186319C4506
:1036A00011F50E946F259A81992399F08A7A91E009
:1036B00009F490E09093F903811109C089E20E9416
:1036C00029250E94B22580E0DF91CF91089585E3FE
:1036D000F6CF8091F903811104C089E20E94302560
:1036E000F0CF85E3FBCF81E0EFCF9093FF03809392
:1036F000FE030895E091FE03F091FF03309721F05F
:103700000190F081E02D099480E00895E091FE039E
:10371000F091FF03309721F00280F381E02D0994AE
:1037200008952091FC033091FD032817390771F0AB
:103730009093FD038093FC03E091FE03F091FF035F
:10374000309721F00680F781E02D099408952091AB
:10375000FA033091FB032817390771F09093FB03AC
:103760008093FA03E091FE03F091FF03309721F07C
:103770000084F185E02D099408950E94B827609394
:1037800012047093130480931404909315046093AF
:103790000E0470930F048093100490931104089505
:1037A0000E94B8276093120470931304809314044A
:1037B0009093150460930A0470930B0480930C0497
:1037C00090930D04089585B7806885BF85B780689C
:1037D00085BF0895089508950C94EA1B08950C94EC
:1037E000EE1B0E94E31B8FE196E20E941B280E94C1
:1037F000EB1B0C94EC1B81E008950C94FB1B0895CB
:1038000008950E94FF1B0C94001C0E94A3270E9495
:103810004B080E9472160E942F130E942E150C94C2
:10382000EF1BAF92BF92CF92DF92EF92FF920F9376
:103830001F93CF93DF93CDB7DEB72A970FB6F894D7
:10384000DEBF0FBECDBF0E94700881110E94BD1B5C
:1038500081E0A82E84E0B82E10E000E0C02E802F7A
:103860000E942508E82EF501F1905F01F81609F491
:1038700055C08091910481FD0E942B088F2D8E25CB
:10388000D12CFF24F394982F9F2109F442C00E9469
:10389000FD1B882399F0DE82CF82EF2081E009F4BE
:1038A00080E088870E94AC278160782F9A8789877B
:1038B0004E815F8168858A850E94B61CF801EF5FA2
:1038C000FB4F8081F826F0820E9473130E949615A8
:1038D00081110E94D01B0E94B50B0E947A1B90910F
:1038E0000004891791F10E947A1B809300042A96A4
:1038F0000FB6F894DEBF0FBECDBFDF91CF911F9101
:103900000F91FF90EF90DF90CF90BF90AF900C940D
:103910001506D394FF0CF8E0DF12B5CF0F5F1F4FF1
:103920000930110509F09ACF8FEF89838A831B82B2
:103930000E94AC278160782F9D838C8349815A81B6
:103940006B818D810E94B61CBFCF2A960FB6F8946A
:10395000DEBF0FBECDBFDF91CF911F910F91FF90C2
:10396000EF90DF90CF90BF90AF900895DF92EF92ED
:10397000FF920F931F93CF93DF93CDB7DEB72B97B3
:103980000FB6F894DEBF0FBECDBF7A878B87F42EBB
:10399000052F162FE72ED82E61110E948F251E822B
:1039A0001D827E2DEC82DD824F2D502F612F8D2DBB
:1039B0009E812B960FB6F894DEBF0FBECDBFDF9170
:1039C000CF911F910F91FF90EF90DF900C94BC224C
:1039D000FC01808191810C94FB24CF93C82F882314
:1039E00009F483C08238C1F40E947A1B81FD7DC036
:1039F00089E30E9429250E94B2252FEF81EE94E0F1
:103A0000215080409040E1F700C0000089E30E940F
:103A10003025CF910C94B2258338A1F40E947A1BF3
:103A200080FD63C083E50E9429250E94B2252FEF07
:103A300081EE94E0215080409040E1F700C000000A
:103A400083E5E5CF8438A1F40E947A1B82FD4DC046
:103A500087E40E9429250E94B2252FEF81EE94E091
:103A6000215080409040E1F700C0000087E4CFCFB4
:103A70008CEF8C0F813A90F46C2F8091170190910C
:103A800018010E94E526882329F08C2F0E943025FA
:103A90000E94B2258C2F0E942925BBCF80E28C0F7B
:103AA000883048F4C77081E001C0880FCA95EAF7F2
:103AB0000E947225AECFEBE5EC0FE33040F4F0E06E
:103AC000EF51FE4F808190E0CF910C94911BC85A2A
:103AD000C73158F4EC2FF0E0EE0FFF1FED54FE4F0E
:103AE00080819181CF910C94A71BCF910895882359
:103AF00009F44BC0823871F40E947A1B81FF45C0E3
:103B000089E30E9429250E94B22589E30E9430257D
:103B10000C94B225833859F40E947A1B80FF35C07B
:103B200083E50E9429250E94B22583E5EFCF8438E2
:103B300059F40E947A1B82FF28C087E40E9429253D
:103B40000E94B22587E4E2CF9CEF980F913AF0F201
:103B500090E2980F983050F4877091E001C0990F6F
:103B60008A95EAF7892F0E947825D2CF9BE5980F96
:103B7000933020F490E080E00C94911B885A8731B8
:103B800020F490E080E00C94A71B08951F93CF933E
:103B9000DF93182FEB010E94ED1C209731F4812F49
:103BA000DF91CF911F910C94771D8FE99FE00197D2
:103BB000F1F700C000002197F0CF6AE070E0893390
:103BC00011F460E570E00C94C61D882321F00E947A
:103BD00072250C94B2250895882321F00E9478253F
:103BE0000C94B2250895BF92CF92DF92EF92FF928C
:103BF0000F931F93CF93DF936C01D62FC72FFC0138
:103C00001281058102950F700E944725E82E8823B6
:103C1000A1F0E12E112389F08C2F807F803429F0D0
:103C200080E28D0FE12C883040F082E00E94032674
:103C30000E94472591E0E82EE926BC2EB2949FE031
:103C4000B922FBE0FB1598F1EB2DF0E0EF5EFA4CAA
:103C50000C94E5330C2F0F70C07F11F00295007F9C
:103C60001123A9F0002359F080E28D0F883010F065
:103C7000D11109C0802F0E9472250E94B2258D2F7C
:103C80000E94ED1C14C0802F0E948225F6CF8D2F3C
:103C90000E94771D002359F080E28D0F883010F0CC
:103CA000D1112BC0802F0E9478250E94B225EB2DC8
:103CB000E850FF0B349720F40E947A1B0E941506EF
:103CC000EE2009F488C10E94432580FD84C1F601DD
:103CD00012820E943D250E94C823C6010E940C202A
:103CE0000E943D25DF91CF911F910F91FF90EF90A2
:103CF000DF90CF90BF900C94E923802F0E948825FD
:103D0000D4CF2C2F2F70F22EC07FC03219F0F29436
:103D100080EFF822DD2369F0D13049F1112391F1D0
:103D2000002351F1F601858180FFA9CF8F70858333
:103D300023C0112381F0011106C00E9495258F290F
:103D40000E94E51DB4CF0130C1F70E9495258F294F
:103D50000E949B25ACCF011106C00E94A8258F2D83
:103D60000E94EC1DA4CF013009F4A1CFF6CF11239E
:103D700029F0063008F09BCF8F2DE2CF053008F0F8
:103D800096CFEDCF002359F3D93309F01CC1FFEFD3
:103D900027EE33E0F15020403040E1F700C0000052
:103DA0008D2F0E94771D83CF8C2F869586958370EB
:103DB00069F0813009F07BCF8D2F9C2F937011110A
:103DC00002C090E080E00E94A71B71CF8D2F9C2F36
:103DD0009370111102C090E080E00E94911B67CFA8
:103DE0008C2F837009F041C0111161CF4D2F429586
:103DF00046954770440F440F0D2F0F7010E030E0D0
:103E000020E0042E04C0000F111F221F331F0A944C
:103E1000D2F760E070E0CB01D4FF0FC06FE070E03C
:103E200080E090E004C0660F771F881F991F4A95B5
:103E3000D2F76095709580959095C695C695C3709C
:103E4000602B712B822B932BC23049F058F4C13078
:103E500019F00E947A232BCF0E94682328CF0E945A
:103E60008C2325CF0E94662322CF8695112311F043
:103E70008C2F8170882309F41ACF4D2F42954695D7
:103E80004770440F440F0D2F0F7010E030E020E01A
:103E9000042E04C0000F111F221F331F0A94D2F7F3
:103EA00060E070E0CB01D4FF0FC06FE070E080E015
:103EB00090E004C0660F771F881F991F4A95D2F7BC
:103EC0006095709580959095C695C695C370602B4A
:103ED000712B822B932BC23049F058F4C13019F06A
:103EE0000E943F24E4CE0E942D24E1CE0E94512462
:103EF000DECE0E94A223DBCECF70112329F08C2FBF
:103F00000E94C8238D2F1CCF8D2F0E94EC1D8C2F5B
:103F10000E94E923CCCED23F89F160F4D03FC9F0B2
:103F2000D13F29F1112309F442C00111A8CE8C2FF1
:103F30008F7121C0D33F39F1D43FA1F7112369F12B
:103F4000CF718C2F0E94C82363E08C2F0E94E8253C
:103F5000AECE112341F0053008F0A9CE8C2F8F7121
:103F60000E940C24A4CE063008F0A1CEF7CF8C2FEF
:103F70008F71112369F20E94C82399CE8C2F8F7103
:103F80001123C9F3C5CF112329F08C2F8F710E9403
:103F9000B3238DCE0E94AE238ACE81E00E940326F9
:103FA000023008F484CE82E00E94032680CE0023F3
:103FB00079F0D93341F49FEFE7EEF3E09150E04020
:103FC000F040E1F7EBCE8FE39CE90197F1F7E6CE05
:103FD0008C2F8F719DCFDF91CF911F910F91FF900B
:103FE000EF90DF90CF90BF9008950F931F93CF93E2
:103FF000DF93EC01688179818A810E9405258C011B
:104000000E9463240E946523B801CE01DF91CF9105
:104010001F910F910C94F31DCF93DF93EC018B81D3
:104020009C81892B29F08881998189238F3F59F4BC
:10403000DF91CF910895CE010E94F51FCE01DF914F
:10404000CF910C945004CE010E94D7048111F3CF7C
:104050000E944725882361F38A81882349F382E0FF
:10406000DF91CF910C94032690E080E00E94911B99
:1040700090E080E00E94A71B0E948F250E9492255D
:104080000C94B2250E9437250C9434200E947F2581
:104090000C944220E92FE295EF70E250EE3070F47C
:1040A000F0E0E35EFA4C0C94E533803F19F020F425
:1040B000883E20F481E00895843FE1F380E0089594
:1040C000883EC0F3813FD1F7F5CF93FB882780F975
:1040D00008950E94FB240C944A20CF93DF9300D0D4
:1040E00000D00F92CDB7DEB70F900F900F900F90CA
:1040F0000F90DF91CF910895CF93DF9300D000D040
:1041000000D0CDB7DEB726960FB6F894DEBF0FBE4F
:10411000CDBFDF91CF9108951F93CF93DF93C091CF
:10412000170416E0809118048C1304C0DF91CF911E
:104130001F910895D0E01C9FF0011D9FF00D1124E8
:10414000E75EFB4F4081518162817381848195815B
:104150000E947C202196C770E5CF40914904509180
:104160004A0460914B0470914C0480914D049091ED
:104170004E040C947C201F93CF93DF9380914E04C8
:10418000807FA9F480914B04882389F080911704E3
:10419000C09118046091490470914A04A0914C04A4
:1041A000B0914D04D62FD72316E0C81304C0DF9179
:1041B000CF911F91089590E0109711F0DF3F19F40F
:1041C00001968770F2CF189F9001199F300D11242E
:1041D000F901E75EFB4F41814713F2CF408146135F
:1041E000EFCF42814111ECCF438154814A1B5B0BDD
:1041F000483C510528F780914E048F708061809370
:104200004E04F901E25EFB4F80818F7080618083F4
:1042100089E494E00E940C20DF91CF911F910C94CF
:104220008C20AF92BF92CF92DF92EF92FF920F93CA
:104230001F93CF93DF93CDB7DEB761970FB6F89496
:10424000DEBF0FBECDBF8C0185E0F801DE011D96FB
:1042500001900D928A95E1F7F80140815181E28049
:1042600089E4C82E84E0D82E60914C0470914D04EE
:104270006115710509F461C19091490420914A04C6
:10428000892F82238F3F09F458C1A380B480F09016
:104290004B04F501E61BF70BFF2009F4FCC08091ED
:1042A0004E04382F307FE83CF10508F0B2C03111E0
:1042B00079C0FE2C251323C0941321C0E1101FC028
:1042C0008F70806180934E040E94AD20C6010E94D1
:1042D0000C2080914E04F80185838F2D61960FB6D6
:1042E000F894DEBF0FBECDBFDF91CF911F910F912C
:1042F000FF90EF90DF90CF90BF90AF900895AB28E4
:1043000029F0842F85238F3F09F033C180E0F82FF7
:10431000F170DF2E80FF3CC08091170420911804BB
:1043200036E0821315C04D875E878D859E850E947D
:10433000FB24292F22952F702230F0F0243018F51D
:104340009F70F1F0F8019581907FD1F4D12C1EC0BF
:1043500090E0389FF001399FF00D1124E75EFB4F8C
:104360006181651306C06081641303C062816E11B0
:104370000FC001968770D5CF9F7011F0882331F35D
:10438000805E883018F3C8010E940C20FD2CA5CF58
:10439000EE2009F4A2CF80914E04816080934E04F8
:1043A000F12C9BCF251306C0941304C0F801EE2016
:1043B00009F48DC04D875E878D859E850E9469209A
:1043C000882319F1EE2009F180914E04803270F0BB
:1043D0002091490430914A0438872F831986BB867F
:1043E000AA868C87CE0107960E940C2086E0F801F1
:1043F000A9E4B4E001900D928A95E1F70E94BB20F8
:104400000E94AD20FF24F39468CFC8010E940C20C5
:10441000F9CF311113C07A2DB98AA88A6E2D8989F6
:104420000E946D2089E494E00E940C2086E0F60151
:1044300011928A95E9F70E94AD20B2CF25130FC0E3
:1044400094130DC0E1100BC0F8018583C8010E94D0
:104450000C2086E0F60111928A95E9F73ECF4D8750
:104460005E878D859E850E946920882371F2EE20EB
:1044700061F280914E04803208F4B8CF2091490453
:1044800030914A043A8329831B82BD82AC828E8399
:10449000CE010196A9CFE83CF10508F041C0FE2C01
:1044A000EE2009F4B2CF25132AC0941328C08091BE
:1044B0004E0480FD1BC0982F907FC1F0F8018583CA
:1044C000903F31F0982F907F905F8F70892B85837C
:1044D000C8010E940C2086E0F801A9E4B4E0019034
:1044E0000D928A95E1F70E94AD20F7CE86E0F801A3
:1044F000A9E4B4E001900D928A95E1F7EECE4D87E4
:104500005E878D859E850E94692081116FCF809185
:104510004E04816080934E04C8010E940C20DDCEC1
:104520007A2DB98AA88A6E2D89890E946D2086E02D
:10453000F60111928A95E9F7D6CFEE2009F465CFFE
:104540004D875E878D859E850E946920F82E882381
:1045500009F45BCF86E0F801A9E4B4E001900D9284
:104560008A95E1F789E494E00E94E81C0E94BB2050
:10457000BACF81E08E25CBCE1F93CF93DF93CDB7FB
:10458000DEB72C970FB6F894DEBF0FBECDBF4F83BA
:10459000588769877A878B879C87CE0107960E9408
:1045A0001121882369F08A859B85892B39F04F81F9
:1045B0005885842F85238F3F09F071C016E05FC0B6
:1045C00086E0FE013796DE01119601900D928A95E4
:1045D000E1F78A859B85892B89F38F8198858923CB
:1045E0008F3F61F32091180430E0C9010196877074
:1045F0009927409117044817190671F40E94462024
:10460000109218041092170486E0E9E4F4E0DF0148
:104610001D928A95E9F7D2CF96E0929FD001939FA1
:10462000B00D1124A75EBB4FFE01319601900D9293
:104630009A95E1F7809318040E948C20BFCF819F48
:10464000C0011124875E9B4F0E9411218823E9F04D
:10465000E09117041E9FF0011124E75EFB4F40819B
:10466000518162817381848195810E947C20809137
:10467000170490E001968770992780931704809122
:104680001704909118048913DACF2C960FB6F8947A
:10469000DEBF0FBECDBFDF91CF911F910895698519
:1046A0007A858B859C850E947C2088CF08950C9408
:1046B00056230E9457236093800470938104809353
:1046C0008204909383040C94342008950C9459230D
:1046D0000F931F9300918004109181042091820414
:1046E00030918304602B712B822B932B1F910F91A0
:1046F0000C9459230F931F9300918004109181040F
:1047000020918204309183046023712382239323B8
:104710001F910F910C9459230F931F9300918004C4
:1047200010918104209182043091830460277127C5
:10473000822793271F910F910C9459230C94562391
:104740000C949E230E94A02360937C0470937D04AC
:1047500080937E0490937F040C94342060E070E09A
:10476000CB010C94A2230F931F9341E050E060E033
:1047700070E08A019B0104C0000F111F221F331F2C
:104780008A95D2F7C901B8011F910F910C94A22309
:104790000F931F9341E050E060E070E004C0440FCD
:1047A000551F661F771F8A95D2F780917C049091E0
:1047B0007D04A0917E04B0917F048A019B01082BA7
:1047C000192B2A2B3B2BC901B8011F910F910C9477
:1047D000A2230F931F9341E050E060E070E004C01B
:1047E000440F551F661F771F8A95D2F7CB01BA0178
:1047F000609570958095909500917C0410917D0452
:1048000020917E0430917F046023712382239323BF
:104810001F910F910C94A2230F931F9341E050E03E
:1048200060E070E004C0440F551F661F771F8A9533
:10483000D2F780917C0490917D04A0917E04B09188
:104840007F048A019B01082719272A273B27C901D2
:10485000B8011F910F910C94A2230F931F93009105
:104860007C0410917D0420917E0430917F04602BA4
:10487000712B822B932B1F910F910C94A2230F93DA
:104880001F9300917C0410917D0420917E0430914F
:104890007F0460237123822393231F910F910C9433
:1048A000A2230F931F9300917C0410917D0420910B
:1048B0007E0430917F0460277127822793271F9100
:1048C0000F910C94A2230895990F990F990F890FB6
:1048D000982F977041E001C0440F9A95EAF78695AA
:1048E0008695869595E0899FF0011124E15BFB4F49
:1048F00030E020E070E05191DF011197CB01022EF2
:1049000002C0969587950A94E2F781708195852774
:10491000842385278C932F5F3F4F2530310559F72E
:104920000895990F990F990F890F982F9770869571
:104930008695869525E0829FF0011124E15BFB4F6F
:1049400050E040E080E0219130E0092E02C0369531
:1049500027950A94E2F721703327042E01C0220F15
:104960000A94EAF7822B4F5F5F4F4530510559F7A4
:104970000895BF92CF92DF92EF92FF920F931F9311
:10498000CF93DF938C01C0907C04D0907D04E090A5
:104990007E04F0907F048091800490918104A09126
:1049A0008204B0918304C82AD92AEA2AFB2ACFE1DB
:1049B000D0E0BC2ED701C6010C2E04C0B695A79539
:1049C000979587950A94D2F780FD0EC0219788F7B6
:1049D000B12C8B2DDF91CF911F910F91FF90EF9014
:1049E000DF90CF90BF900895B8018C2F0E941D06D4
:1049F000019761F3EECFCF93DF93EC010E94B924CE
:104A0000BE01DF91CF910C941D061F93CF93DF93CE
:104A1000EB0190911604992331F0CB01DF91CF91F6
:104A20001F910C94FB24882379F0CB010E94B924B8
:104A3000182F682FCE010E946424BE01812FDF91C0
:104A4000CF911F910C941D06CB010E949124182F29
:104A5000F4CF682F80911701909118010C941B27B7
:104A6000682F80911701909118010C941D27809157
:104A70001701909118010C941F278091840485954B
:104A80008595859508958091840487700895909107
:104A90008404977081E009F480E0089590919E0469
:104AA00092FB222720F9281751F080FB92F990936E
:104AB0009E0480919D0490919E040C944826089534
:104AC00080919E0482FB882780F991E089270C94CD
:104AD0004E2581E00C944E2580E00C944E2580916B
:104AE0009004089590919004892B809390040895E8
:104AF000809590919004982390939004089510923B
:104B00009004089590918F04892B80938F040895C9
:104B1000809590918F04982390938F04089510921C
:104B20008F04089510928E0408958091850408954D
:104B300008950C94982590919E0492FD08C0909140
:104B40008504981721F0809385040C949925089585
:104B500080918504882329F01092850480E00C94CC
:104B600099250895E0911701F09118018091900422
:104B70008083E0911701F0911801808190918F045A
:104B8000892B8083E0911701F09118018081909129
:104B90008E04892B808390918504992381F0E09184
:104BA0001701F09118018081892B80838091170172
:104BB000909118010E94D32681110E94A82580910E
:104BC0001701909118010C94861B08950C94E5250B
:104BD00090919E0492FD10C098E0899F900111244D
:104BE000622B609384040E94C8238091840485957D
:104BF000859585950C94E6250C94C8231092840421
:104C000080E00C94E625909184048095892380931C
:104C10008404282F277039F4282F082E000C330B1A
:104C20009217130621F490919E0492FF07C0859578
:104C3000859585950E94E9230C94FE25089580E0D2
:104C400008956FEF7FEF90E080E00C94C73490E020
:104C500080E00E94A33421E08A3E9E4F09F020E0CC
:104C6000822F089582E090E00C94953483E090E0E8
:104C70000C949534CF9384E090E00E949534C82F33
:104C800082E290E00E949534982F8C2FCF91089566
:104C9000CF93C92F682F84E090E00E94A9346C2F35
:104CA00082E290E0CF910C94A934AB01BC018FE07B
:104CB00090E00C94BB34AB01BC0183E190E00C9418
:104CC000BB3460E070E0CB010C945B2660E070E0E8
:104CD000CB010E9455260C9461266AEE7EEF90E08F
:104CE00080E00E94C73460E082E090E00E94A93436
:104CF00060E083E090E00E94A9341092800410925A
:104D00008104109282041092830460E084E090E0B9
:104D10000E94A93460E082E290E00E94A93460E041
:104D200085E090E00E94A93460E086E090E00E9477
:104D3000A9346FEF87E090E00E94A93440E050E092
:104D4000BA0188E090E00E94BB3460E08DE090E022
:104D50000E94A93440E050E0BA0188E190E00E944E
:104D6000BB3460E087E190E00E94A93440E050E06D
:104D7000BA018CE190E00E94BB3470E060E080E218
:104D800090E00E94C73440E050E0BA0188E190E032
:104D90000E94BB340C9466260C946D26682F8EE01E
:104DA00090E00C94A9349C012E5F3F4FAC01485F0A
:104DB0005F4F80E02417350709F40895F9019191B8
:104DC0009F019923B9F38F5FF5CF662349F0FC016A
:104DD000329608962191261729F0E817F907D1F79E
:104DE00080E0089581E008959C01FC0132969FEFD8
:104DF00080E04191461751F09F3F19F4411101C0E5
:104E0000982F8F5F8630A9F79F3F09F40895290FE7
:104E1000311D97FD3A95F90162830895FC013296A0
:104E200008962191261303C0DF0111971C92E81701
:104E3000F907B9F708950C94F4260C940E270296FE
:104E400026E0FC0111922A95E9F708950895089546
:104E50000C94272780916F06843059F10E942827EF
:104E600080E00E9415060E949E121092920488E132
:104E700090E020E40FB6F894A895809360000FBEF0
:104E80002093600083B7817F846083BF83B7816094
:104E900083BF7894889583B78E7F83BF0FB6F894CD
:104EA000A8958091600088618093600010926000F6
:104EB0000FBE08950895CF930E9426270E94700880
:104EC0000E945A27C0E08C2F0E942508811105C03E
:104ED000CF5FC930C1F7CF91089581E0FCCF08952D
:104EE0000C946F270E9446200E947A1B0E94150690
:104EF0000E946A130C9470271F921FB61F921124F0
:104F00008F939F93AF93BF9380919204811113C0AD
:104F100080917A0590917B05A0917C05B0917D05EB
:104F20004196A11DB11D80937A0590937B05A093B6
:104F30007C05B0937D05BF91AF919F918F911F909C
:104F40001FBE1F90189582E084BD93E095BD9AEF37
:104F500097BD80936E0008952FB7F89480917A05DD
:104F600090917B05A0917C05B0917D052FBF0895A0
:104F70002FB7F89460917A0570917B0580917C053C
:104F800090917D052FBF08959C014FB7F8948091B3
:104F90007A0590917B05A0917C05B0917D054FBF6E
:104FA000821B930B089578941F921FB61F921124B1
:104FB0008F939F93AF93BF9380917A0590917B05D8
:104FC000A0917C05B0917D050196A11DB11D809336
:104FD0007A0590937B05A0937C05B0937D05BF91E6
:104FE000AF919F918F911F901FBE1F90189581E0E8
:104FF0008093E00080E28093D8001092C9008FE196
:105000009EE40197F1F700C0000087E090EBDC011F
:105010008093780690937906A0937A06B0937B06E6
:1050200088E19CE00FB6F894A895809360000FBECD
:1050300090936000FFCF9093030280930202089543
:10504000881F8827881F089591E0883F08F490E022
:10505000892F0895982F907F903BE9F040F4903984
:10506000D1F0903AC1F09038B1F080E00895903DD1
:1050700019F020F4903CC9F782E00895903E59F071
:10508000903F99F7815F8F3080F7E82FF0E0EC5187
:10509000FE4F8081089583E008950F93022F0F77CC
:1050A000242F2F776F70462F406BDC01ED91FC9120
:1050B00063E070E009950F9108950F93022F0F7729
:1050C000242F2F776F70462F4069DC01ED91FC9102
:1050D00063E070E009950F9108950F93022F0F7709
:1050E000242F2F776F70462F4068DC01ED91FC91E3
:1050F00063E070E009950F9108950F931F93411598
:1051000020E2520744F49A01305E4115504E2CF4CF
:1051100030E020E002C02FEF3FE38901000F012FB4
:10512000001F110B11952F776F70462F406EDC0119
:10513000ED91FC9163E070E009951F910F91089546
:10514000FC01738362830895FC01758F648F089559
:10515000CF93DF93EC011DA21FA21EA2BC01685DCC
:105160007F4F40EC88519F4F0E94B32A1B821A82C6
:105170001D821C821F821E82198618861B861A8633
:105180001D861C861F861E86198A188A1B8A1A8A03
:105190001D8A1C8A1F8A1E8A198E188E1B8E1A8ED3
:1051A0001D8E1C8E1F8E1E8E19A218A2DF91CF910C
:1051B0000895EF92FF920F931F93CF93DF93EA012D
:1051C0008A01060F111D88519F4F7C01C017D1071E
:1051D00039F4DF91CF911F910F91FF90EF900895D7
:1051E0006991C7010E94BA2AF1CFFC0171836083E3
:1051F0000895FC0171A360A30895AF92BF92CF926E
:10520000DF92EF92FF920F931F93CF93DF9300D023
:105210000F92CDB7DEB77C016B01142FB22EA02EFA
:10522000DC0195968C9195978430A9F55A96ED916D
:10523000FC913097E9F1CB01019763E070E00E94A7
:105240009B33CB01880F991F860F971F4983BA8222
:105250000B834C2D481B9E012F5F3F4FBC01C701A4
:105260000995D7015E96ED91FC91309731F00A2DAA
:105270002B2D412FB601C70109950F900F900F906C
:10528000DF91CF911F910F91FF90EF90DF90CF9022
:10529000BF90AF9008956230710509F455C0633036
:1052A000710599F06130710509F481C0D12CC12CD0
:1052B000D7015C96ED91FC91309799F20A2D2B2D38
:1052C000412FB601C7010995CCCF842F807F803A4A
:1052D00011F148F48038D1F0803951F7D701149694
:1052E000ED91FC910AC0803ED9F0803FF1F0803B07
:1052F000F9F6D7011296ED91FC913097C9F2123F61
:10530000E9F02A2D4B2D612F6F701BC0D701169627
:10531000ED91FC91F2CFD7011896ED91FC91EDCF74
:10532000D7011A96ED91FC91E8CF423F09F6D701DB
:105330001C96ED91FC91309709F4BACF2A2D4B2D94
:1053400062EFC70109958DCF842F807F803DB1F03A
:10535000803FC9F0803C09F0ABCFD7011E96ED919C
:10536000FC91309709F4A4CF812F8D7F4B2D612FB5
:105370006F70813F89F0C701099573CFD7015096AF
:10538000ED91FC91EECF433F51F4D7015296ED9150
:10539000FC91309709F48CCF4B2D612FECCF413F1E
:1053A00009F086CFD7015496ED91FC91F2CF842F6E
:1053B0000E942428882359F0D7015696ED91FC913C
:1053C000309709F475CF612FC70109954ACF163F71
:1053D00009F06ECFD7015896ED91FC91F1CFFF9275
:1053E0000F931F93CF93DF93EC01162F862F0E940C
:1053F0002428882391F0FDA081E08DA300E020E027
:10540000412F61E070E0CE010E94FD28FDA2DF91F6
:10541000CF911F910F91FF900895812F0E94202816
:105420004DA1882309F443C0443029F01AA381E038
:1054300090E09FA38EA3812F0E942A28813051F0F3
:105440008823A9F0823089F0833079F01DA21FA251
:105450001EA2DDCF8DA300E020E0412F61E070E0CF
:10546000CE010E94FD281DA2D2CF8DA3D0CF103F28
:10547000B1F0173F59F72EA13FA1C90163E070E0D9
:105480000E949B33FE01E80FF91F12A3B9016F5F61
:105490007F4F7FA36EA30CA12BA14AA1E1CF84E093
:1054A0008DA31AA381E090E09FA38EA3B0CF4423E5
:1054B00009F4ADCF2EA13FA1C90163E070E00E94C5
:1054C0009B33FE01E80FF91F12A3B9016F5F7F4FF5
:1054D0007FA36EA38130910569F0029709F097CF01
:1054E0000CA12BA14AA1CE010E94FD288DA18430E0
:1054F000C9F68DCF00E0423009F089CFF2CFCF92CC
:10550000DF92EF92FF920F931F93CF93DF93EC0103
:10551000E8A1F9A1309709F009956E0188EEC80E4F
:10552000D11CC6010E94E92A10E000E0E82EF12C0F
:105530000E151F0548F0DF91CF911F910F91FF903D
:10554000EF90DF90CF90089560E0C6010E94FD2AA1
:10555000682FCE010E94EF2961E0C6010E940D2B49
:105560000F5F1F4FE5CFFC01428374836383118279
:10557000108208951F93CF93DF93EC01162F0E94A2
:10558000242B482F298130E0C90101966A8170E0FF
:105590000E94AF3358815817190641F4842F0E9496
:1055A000272B80E0DF91CF911F9108958B819C8103
:1055B000280F391FF9011083898190E001966A81D3
:1055C00070E00E94AF338983842F0E94272B81E0F3
:1055D000E9CFCF93DF93EC010E94242B998128819E
:1055E000921740F0C92FC21B0E94272B8C2FDF91EE
:1055F000CF910895CA819C0FF5CFFC018081860F61
:105600009927991F628170E00E94AF332381348112
:10561000280F391FF901808108951F93CF93DF93DD
:10562000EC01162F0E94242B282F8881810F9927A7
:10563000991F6A8170E00E94AF338883822FDF91C7
:10564000CF911F910C94272B8FB7F89408958FBF9B
:105650000895089508950F931F93CF93DF9300D07B
:1056600000D000D00F92CDB7DEB78C01CE010196ED
:105670000E94BE2D81110BC027960FB6F894DEBF95
:105680000FBECDBFDF91CF911F910F9108958A81F9
:105690000E942A289A819D839B819E839C819F835F
:1056A00081110AC08981843079F0873069F08630B1
:1056B00069F08530D9F681E0AE014B5F5F4F682F0E
:1056C000C8010E94D928D2CF83E0F6CF82E0F4CF80
:1056D000DF92EF92FF920F931F93CF93DF9300D04F
:1056E00000D0CDB7DEB77B01142FD22E4A832B8397
:1056F0000C83842F0E942A28811129C082E0E81699
:10570000F10401F183E0E816F10439F0EA94EF289E
:1057100069F485E0173F21F404C087E0073F09F0F2
:1057200084E08983CE0101960E94B92D0F900F90DD
:105730000F900F90DF91CF911F910F91FF90EF90FD
:10574000DF90089587EFD812EBCF86E0EACF12956D
:105750001F701983E7CF0E941E098EE795E00E9413
:10576000A82868E67BE28EE795E00E94F5286BE2C8
:105770007BE28EE795E00E94F92869E27BE28EE702
:1057800095E00E94A4286AE27BE28EE795E00C9403
:10579000A0289B0140916F064430C1F4FC01918127
:1057A0009F709093E90050E040E064E070E0C90130
:1057B0000E94AF2E81110BC09091E80095FD07C0AB
:1057C0009091E8009E779093E800089582E0089514
:1057D00020916F06243091F4FC0181818F708093B9
:1057E000E9009091F3008091F200892B49F08091BB
:1057F000E8008E778093E8000C945D3082E0089595
:1058000080E00895FC0180916F06843059F4918105
:105810009F709093E9008091E80080FF03C0CF0162
:105820000C94E82B08959B0140916F06443011F0D1
:1058300080E00895FC0196819F709093E90080912B
:10584000E80082FFF5CF8091E80085FFF1CF50E0BE
:1058500040E064E070E0C9010E94FE2E8091E80003
:1058600085FD05C08091E8008B778093E80081E09A
:10587000089580919B0408950895CF93DF9300D0FD
:105880000F92CDB7DEB790916F06943011F58983F2
:105890007B836A839093E9008FEF9091E8008150B9
:1058A00095FD06C095ED9A95F1F700008111F5CFB1
:1058B0008091E80085FF0DC050E040E063E070E0BB
:1058C000CE0101960E94AF2E8091E8008E778093E2
:1058D000E8000F900F900F90DF91CF910895BC01D9
:1058E00084E00C943D2CBC0183E00C943D2CCF93C0
:1058F000DF93EC0181E08093E9008FEF9091E80065
:10590000815095FD06C095ED9A95F1F70000811143
:10591000F5CF8091E80085FF14C050E040E068E0DA
:1059200070E0CE010E94AF2E8091E8008E778093C8
:10593000E80088E0FE01A3E9B4E001900D928A95A9
:10594000E1F7DF91CF910895CF93FC01603221F50B
:1059500080916F06843001F5C091E900CF702091ED
:10596000EC00922F917020FD90E8C92B82E080938B
:10597000E9008091E80080FF0CC050E040E060E268
:1059800070E0CF010E94AF2E8091E8008E77809367
:10599000E800CF70C093E900CF91089580916E0622
:1059A000811109C00E948E300E94EB308091E2008C
:1059B00084608093E200089510926E060895089521
:1059C0000895089542E061EC81E00E940A3042E2CD
:1059D00061EC84E00E940A3042E261EC82E00E94C5
:1059E0000A3042E260EC83E00E940A3042E361E860
:1059F00085E00E940A3042E361E886E00C940A30B8
:105A000080917106833009F461C030F48130D1F1A6
:105A1000823009F49DC008958A3009F489C08B3022
:105A200009F46FC0893009F050C08091700681324E
:105A300009F04BC08091740690917506009719F09B
:105A4000029709F042C08091E800877F8093E800C8
:105A50008091E80082FF35C09091F3008091F200C0
:105A6000029729F48091F1008B7F813021F480919D
:105A7000F10080939B048091E8008B778093E8008D
:105A80000C943E3080917006813AF9F48091E800E0
:105A9000877F8093E8008091740690917506892B2A
:105AA00061F468E083E994E070E00E944D2F8091FA
:105AB000E8008B778093E800089560E090E080E054
:105AC000F3CF80916F068111C3CF08958091700646
:105AD000813AD9F78091740690917506892BA9F7C0
:105AE0008091E800877F8093E8008091E80080FF44
:105AF000FCCF80912F018093F1008091E8008E7798
:105B0000BDCF80917006813201F78091740690912B
:105B10007506892BD1F68091E800877F8093E80095
:105B20000E943E308091720680932F010C94462093
:105B300080917006813249F68091E800877F8093DA
:105B4000E8000E943E308091730680939C04089583
:105B500080917006813A09F0B8CF8091E800877F84
:105B60008093E8008091E80080FFFCCF80919C0446
:105B7000C2CFBC0189E191E00C94C92BBC0189E141
:105B800091E00C94132CCDB7DEB7A0970FB6F89424
:105B9000DEBF0FBECDBF0E94AB2B84B7877F84BF13
:105BA0000FB6F894A895809160008861809360009A
:105BB000109260000FBE80E890E00FB6F8948093DA
:105BC0006100909361000FBE0E94F11B0E948E3015
:105BD0000E94EB308091E20084608093E200789430
:105BE0000E9474330E94051C85E291E00E94751B9F
:105BF00013E080916F068530D9F00E94111C89E175
:105C000091E00E94022C80916F068430C1F00E94C6
:105C1000011CEFCF0E942A2780916D06882341F056
:105C20000E945B27882321F00E94992E0E94462023
:105C300080916F06853071F30E947227DECF10933A
:105C4000E9008091E80082FFE2CF8091E80090E0D7
:105C500085FF09C050E040E060E270E0CE010196AF
:105C60000E94FE2E91E08091E8008B778093E800FF
:105C7000992369F260E2CE0101960E941717C7CFFF
:105C80000C94422E292F33272330310521F168F45B
:105C90002130310509F443C02230310509F444C0F4
:105CA00090E080E030E020E026C02132310551F163
:105CB00022323105A9F76330710590F7FB01EE0F31
:105CC000FF1FEA50FE4F208131816D507E4FFB0156
:105CD000808190E010C099278130910581F0009774
