:100000000C9419050C9460050C9460050C94600523
:100010000C9460050C9460050C9460050C946005CC
:100020000C9460050C9460050C94B12E0C94852FF3
:100030000C944C250C9460050C9460050C946005A0
:100040000C9460050C9460050C9460050C9460059C
:100050000C9460050C94A3250C9460050C94600529
:100060000C9460050C9460050C9460050C9460057C
:100070000C9460050C9460050C9460050C9460056C
:100080000C9460050C9460050C9460050C9460055C
:100090000C9460050C9460050C9460050C9460054C
:1000A0000C9460050C9460050C946005456E636FBC
:1000B00064657220332072696768740A00456E6354
:1000C0006F6465722033206C6566740A00456E6348
:1000D0006F64657220322072696768740A00456E29
:1000E000636F6465722032206C6566740A00456E29
:1000F000636F64657220312072696768740A004515
:100100006E636F6465722031206C6566740A004D01
:10011000582053776974636820382D380A004D5889
:100120002053776974636820382D370A004D5820B2
:1001300053776974636820382D360A004D58205370
:10014000776974636820382D350A004D582053773D
:100150006974636820382D340A004D58205377693C
:1001600074636820382D330A004D58205377697422
:10017000636820382D320A004D5820537769746324
:100180006820382D310A004D582053776974636810
:1001900020372D380A004D58205377697463682042
:1001A000372D370A004D582053776974636820371C
:1001B0002D360A004D582053776974636820372D17
:1001C000350A004D582053776974636820372D3401
:1001D0000A004D582053776974636820372D330A1D
:1001E000004D582053776974636820372D320A0018
:1001F0004D582053776974636820372D310A004DBC
:10020000582053776974636820362D380A004D589A
:100210002053776974636820362D370A004D5820C3
:1002200053776974636820362D360A004D58205381
:10023000776974636820362D350A004D582053774E
:100240006974636820362D340A004D58205377694D
:1002500074636820362D330A004D58205377697433
:10026000636820362D320A004D5820537769746335
:100270006820362D310A004D582053776974636821
:1002800020352D380A004D58205377697463682053
:10029000352D370A004D582053776974636820352F
:1002A0002D360A004D582053776974636820352D28
:1002B000350A004D582053776974636820352D3412
:1002C0000A004D582053776974636820352D330A2E
:1002D000004D582053776974636820352D320A0029
:1002E0004D582053776974636820352D310A004DCD
:1002F000582053776974636820342D380A004D58AC
:100300002053776974636820342D370A004D5820D4
:1003100053776974636820342D360A004D58205392
:10032000776974636820342D350A004D582053775F
:100330006974636820342D340A004D58205377695E
:1003400074636820342D330A004D58205377697444
:10035000636820342D320A004D5820537769746346
:100360006820342D310A004D582053776974636832
:1003700020332D380A004D58205377697463682064
:10038000332D370A004D5820537769746368203342
:100390002D360A004D582053776974636820332D39
:1003A000350A004D582053776974636820332D3423
:1003B0000A004D582053776974636820332D330A3F
:1003C000004D582053776974636820332D320A003A
:1003D0004D582053776974636820332D310A004DDE
:1003E000582053776974636820322D380A004D58BD
:1003F0002053776974636820322D370A004D5820E6
:1004000053776974636820322D360A004D582053A3
:10041000776974636820322D350A004D5820537770
:100420006974636820322D340A004D58205377696F
:1004300074636820322D330A004D58205377697455
:10044000636820322D320A004D5820537769746357
:100450006820322D310A004D582053776974636843
:1004600020312D380A004D58205377697463682075
:10047000312D370A004D5820537769746368203155
:100480002D360A004D582053776974636820312D4A
:10049000350A004D582053776974636820312D3434
:1004A0000A004D582053776974636820312D330A50
:1004B000004D582053776974636820312D320A004B
:1004C0004D582053776974636820312D310A0052EA
:1004D0006F7461727920456F6E6364657220330AB0
:1004E00000526F7461727920456F6E63646572208B
:1004F000320A00526F7461727920456F6E636465D1
:100500007220310A0054616374696C652053776905
:1005100074636820340A0054616374696C65205305
:10052000776974636820330A0054616374696C6589
:100530002053776974636820320A005461637469D8
:100540006C652053776974636820310A002A5D2B3B
:100550005D2C5D2D5D00002E5D2F5D305D315D32C7
:100560005D335D345D355D365D375D385D395D3AEF
:100570005D3B5D3C5D3D5D3E5D3F5D405D415D429F
:100580005D435D445D455D465D475D485D495D4A4F
:100590005D4B5D4C5D4D5D4E5D4F5D505D515D52FF
:1005A0005D535D545D555D565D575D585D595D5AAF
:1005B0005D5B5D5C5D5D5D5E5D5F5D605D615D625F
:1005C0005D635D645D655D665D675D685D695D6A0F
:1005D0005D6B5D6C5D6D5D6E5D6F5D705D000000FF
:1005E00000000000002A2B2800000000000000008E
:1005F000000000000000000029000000002C1E3454
:1006000020212224342627252E362D3738271E1F59
:10061000202122232425263333362E37381F040584
:10062000060708090A0B0C0D0E0F101112131415F2
:10063000161718191A1B1C1D2F3130232D350405D0
:10064000060708090A0B0C0D0E0F101112131415D2
:10065000161718191A1B1C1D2F3130354C000000BD
:10066000000000000000000000000000000000008A
:10067000000000000000000000000000000000007A
:10068000007E0F00D4FFFFFFC7000000781E0F059B
:1006900000047F3F1F643214643214783C1E1E1421
:1006A0000A052223252628292A2C2D2F30323335DE
:1006B00036383A3B3D3E4042434547494A4C4E500E
:1006C00051535557595A5C5E6062646668696B6D38
:1006D0006F71737577797B7D7F81838587898A8C3C
:1006E0008E90929496989A9C9E9FA1A3A5A7A8AA43
:1006F000ACAEAFB1B3B4B6B8B9BBBCBEBFC1C2C378
:10070000C5C6C7C9CACBCCCDCED0D1D2D2D3D4D511
:10071000D6D7D7D8D9D9DADADBDBDBDCDCDCDCDC3A
:10072000DDDDDDDDDCDCDCDCDCDBDBDBDADAD9D912
:10073000D8D7D7D6D5D4D3D2D2D1D0CECDCCCBCAA0
:10074000C9C7C6C5C3C2C1BFBEBCBBB9B8B6B4B3C6
:10075000B1AFAEACAAA8A7A5A3A19F9E9C9A98965C
:100760009492908E8C8A89878583817F7D7B79772F
:100770007573716F6D6B6968666462605E5C5A590F
:1007800057555351504E4C4A4947454342403E3DD0
:100790003B3A3836353332302F2D2C2A292826255E
:1007A0002322FFAA7F554000010203040506070F1C
:1007B0000E0D0C0B0A090810111213141516171F31
:1007C0001E1D1C1B1A191820212223242526272F21
:1007D0002E2D2C2B2A292830313233343536373F11
:1007E0003E3D3C3B3A393800010101010101010164
:1007F00001020202020202020202030303030303D4
:1008000003030404040404040405050505050606A1
:10081000060606070707070708080808090909095F
:100820000A0A0A0B0B0B0C0C0C0D0D0D0E0E0E0F05
:100830000F0F101011111112121313141415151695
:10084000161717181819191A1A1B1B1C1D1D1E1E06
:100850001F20202122222324242526262728292957
:100860002A2B2C2D2D2E2F30313232333435363782
:1008700038393A3B3C3D3E3F404142434445464780
:1008800048494A4C4D4E4F50515354555658595A59
:100890005B5D5E5F616264656668696B6C6D6F70FD
:1008A00072737577787A7B7D7E8082838587888A6C
:1008B0008C8E8F91939596989A9C9EA0A2A3A5A7A3
:1008C000A9ABADAFB1B3B5B7BABCBEC0C2C4C6C99F
:1008D000CBCDCFD1D4D6D8DBDDDFE2E4E7E9EBEE58
:1008E000F0F3F5F8FAFDFF140346006500750069A2
:1008F000006C006C0065003600340000000C0379C9
:100900000079006E006D0074000000040309040902
:10091000029F00040100A0FA090400000103010184
:100920000009211101000122400007058103080090
:100930000A0904010001030000000921110100015E
:100940002232000705820320000A080B020201017F
:100950000000090402000001010000092401000157
:100960000900010309040300020103000007240138
:1009700000014100062402010100062402020200D7
:1009800009240301030102010009240302040101F7
:1009900001000905040240000500000525010101D0
:1009A000090583024000050000052501010312012D
:1009B000100100000008D804D8E80100010200017D
:1009C00005010980A101850319012AB70015012637
:1009D000B700950175108100C0050C0901A10185C2
:1009E0000419012AA002150126A0029501751081A3
:1009F00000C005010906A101050719E029E7150056
:100A00002501950875018102950175088101050789
:100A1000190029FF150026FF0095067508810005BD
:100A20000819012905950575019102950175039134
:100A300001C011241FBECFEFDAE0DEBFCDBF04B688
:100A400003FE27C080916A0690916B06A0916C0608
:100A5000B0916D068730904BA740B04BD1F4109207
:100A60006A0610926B0610926C0610926D0614BE08
:100A700084B7877F84BF0FB6F894A89580916000F3
:100A8000886180936000109260000FBEE0E0F8E3A0
:100A9000099511E0A0E0B1E0ECE3F6E602C00590B4
:100AA0000D92A43FB107D9F726E0A4EFB1E001C051
:100AB0001D92AA36B207E1F70E94962B0C949D3244
:100AC0000C940000FC01DB0112968C91882309F440
:100AD000E2C0EA52FD45E734F10508F0DDC0E15619
:100AE000FD4C0C948D318BE395E00E94F20780E081
:100AF000089589E295E0F9CF87E195E0F6CF85E0AA
:100B000095E0F3CF83EF94E0F0CF81EE94E0EDCF6A
:100B10008FEC94E0EACF80EC94E0E7CF81EB94E0B7
:100B2000E4CF82EA94E0E1CF83E994E0DECF84E889
:100B300094E0DBCF85E794E0D8CF86E694E0D5CF8C
:100B400087E594E0D2CF88E494E0CFCF89E394E0C6
:100B5000CCCF8AE294E0C9CF8BE194E0C6CF8CE0A1
:100B600094E0C3CF8DEF93E0C0CF8EEE93E0BDCF86
:100B70008FED93E0BACF80ED93E0B7CF81EC93E0B7
:100B8000B4CF82EB93E0B1CF83EA93E0AECF84E9B8
:100B900093E0ABCF85E893E0A8CF86E793E0A5CFBD
:100BA00087E693E0A2CF88E593E09FCF89E493E0C6
:100BB0009CCF8AE393E099CF8BE293E096CF8CE1D0
:100BC00093E093CF8DE093E090CF8EEF92E08DCFC6
:100BD0008FEE92E08ACF80EE92E087CF81ED92E0B7
:100BE00084CF82EC92E081CF83EB92E07ECF84EAE7
:100BF00092E07BCF85E992E078CF86E892E075CFEE
:100C000087E792E072CF88E692E06FCF89E592E0C5
:100C10006CCF8AE492E069CF8BE392E066CF8CE2FE
:100C200092E063CF8DE192E060CF8EE092E05DCF05
:100C30008FEF91E05ACF80EF91E057CF81EE91E0B6
:100C400054CF82ED91E051CF83EC91E04ECF84EB15
:100C500091E04BCF85EA91E048CF86E991E045CF1E
:100C600087E891E042CF88E791E03FCF89E691E0C5
:100C70003CCF8AE591E039CF8BE491E036CF8CE32D
:100C800091E033CF8DE291E030CF8EE191E02DCF36
:100C90008FE091E02ACF81E0089581110AC08FEFA3
:100CA00090E0611102C08EEE90E00E94F20781E0B8
:100CB0000895813039F48EED90E06111F6CF8DEC1E
:100CC00090E0F3CF823099F78DEB90E06111EDCF9A
:100CD0008CEA90E0EACF0E94B91483E20C94B61437
:100CE00081E008950C94620508950C9474061F9396
:100CF000CF93DF9300D000D00F92CDB7DEB74983FA
:100D00005A836B833091080489819A8131111DC007
:100D10006623B9F02223A9F00E94B922182F682F68
:100D200089819A810E94642269817A81812F0F9042
:100D30000F900F900F900F90DF91CF911F910C9417
:100D400004080E949122182FEFCF0E94B9226981D6
:100D50007A81EDCFFC01262F408151816281738120
:100D600084810C947706CF93DF93EC0160E00E94BE
:100D7000AA06BE01DF91CF910C9475060E94F22560
:100D80000E94F823811102C00E949C240C94E00967
:100D90000C94E30908950E94461E0E94CA062FEF94
:100DA00084E39CE0215080409040E1F700C00000C7
:100DB0000C94C7250F931F93CF93DF93EC0161E051
:100DC0000E94AA068C01BE010E947206882389F146
:100DD000BE01C8010E94120B882359F1BE01C8014F
:100DE0000E94D717882329F1BE01C8010E94291843
:100DF0008823F9F0BE01C8010E944C198823C9F06C
:100E0000BE01C8010E94CD15882399F08A818823EC
:100E100039F001158CE5180751F00F3D1C4579F0AC
:100E2000CE01DF91CF911F910F910C9470060E941B
:100E3000CB0680E0DF91CF911F910F9108950E9422
:100E40009C24F7CFDF92EF92FF920F931F93CF93E3
:100E5000DF93E82FF0E0E352FA4FD490282F269545
:100E60002695269530E0F901E358F94F04918770F3
:100E700010E0082E02C0159507950A94E2F701705C
:100E80001127F901E359F94FE490F12C082E02C023
:100E9000F594E7940A94E2F791E0E922FF24F9013E
:100EA000E35AF94FC491D0E002C0D595C7958A9511
:100EB000E2F7C170DD270115110519F081EE0E94DE
:100EC000ED1AE114F10419F086EE0E94ED1A8D2D51
:100ED0000E94DD1BEF2819F086EE0E94771B012B84
:100EE00019F081EE0E94771BCD2B51F08CE2DF913F
:100EF000CF911F910F91FF90EF90DF900C94DD1B2D
:100F0000DF91CF911F910F91FF90EF90DF900895A7
:100F1000EF92FF920F931F93CF93DF938C01F62EE6
:100F20008AE0E82EF8018491882309F454C08130C6
:100F300009F04DC0E8012196FE018491813091F4C1
:100F40002196FE0184910E94DD1B8E010F5F1F4FD1
:100F50008F2D815038F3EFE9FFE03197F1F700C0B2
:100F60000000F7CF823039F4E8012296FE01849127
:100F70000E94ED1AEACF833039F4E8012296FE018F
:100F800084910E94771BE1CF8430F9F6E801229624
:100F9000FE01249190E080E0FE0131962053330B56
:100FA0002A30310548F0019780F2EFE9FFE03197F0
:100FB000F1F700C00000F7CFE89EA001E99E500DB8
:100FC0001124C901840F951F2491EF01E5CF0E94E0
:100FD0002207E801BACFDF91CF911F910F91FF90C7
:100FE000EF90089560E00C94880708950C94F5073D
:100FF00081E008950C94F807CF93C82F0E94F6075C
:101000008C2FCF910C94FA07E72FF0E099E0899F9D
:10101000E00DF11D112483E0EE0FFF1F8A95E1F72B
:10102000E60FF11DEE0FFF1FE35BFA4F85919491E0
:101030000895CF93DF930E9404080E940509EC01F4
:10104000811522E59207E8F5811531E5930708F04F
:10105000ACC0883E910510F5803E910570F5883A48
:10106000910570F4853A910508F078C081309105BA
:1010700021F1009711F1049700F5D0E0C0E01DC008
:101080008F3B9105D0F7C85AD0E0CC0FDD1FC05D73
:10109000DE4F0990D881C02DD4640FC0811540E582
:1010A000940708F066C0C11580E4D80708F05EC058
:1010B000CE019A9581159F4100F7CE01DF91CF9126
:1010C0000895811536E5930718F5811545E59407D0
:1010D00008F083C0C11584E5D80708F079C09C2FBB
:1010E000969596959E0123703327C115D34508F434
:1010F00061C0C1E0D0E002C0CC0FDD1F2A95E2F74D
:1011000030E2939FC0011124C82BD92BDA68D5CFC8
:10111000C1158AE5D80778F4C11599E5D90708F013
:1011200066C0C11528E5D20708F4A7CFDC2FCC276D
:10113000C06FD06AC2CFCE0190568115904208F0A0
:101140009CCF8D2F8F710E949C0990E0982F88274B
:1011500088279F719C012C2BE90147C0C55AD0E01C
:10116000C25ADE4FC881D0E0D064A7CFDF70D06A0A
:10117000A4CFE4E096958795EA95E1F783702C2F4C
:1011800026952695237040E2249F90011124382B48
:101190008C2F8370C1E0D0E002C0CC0FDD1F8A9598
:1011A000E2F7C22BD32BDC6888CFD82FCC27C16FB6
:1011B000D06A83CFC1E0D0E002C0CC0FDD1F2A95FA
:1011C000E2F720E2929FC0011124C82BD92BEBCF6C
:1011D000DC2FCC27C46FD06A70CF0E949C09C82F27
:1011E000D0E0DC2FCC27CC27DF71D06266CF8C2FEC
:1011F0008F700E949C0934E0D695C7953A95E1F727
:10120000CF709C2FEC01D06958CF82389105B1F195
:10121000B0F48133910509F475C048F48932910521
:1012200009F469C08A32910509F473C008958533C1
:10123000910509F459C08933910501F10895833E60
:101240009105A9F138F4803E9105F9F0823E9105AF
:1012500049F10895863E9105A9F1873E9105C9F1AE
:10126000843E910519F520916F0521FF1FC08091E3
:101270006E0584FD14C087EE90E0089520916E0500
:101280002370A1F080EE90E0089520916E0520FD7E
:1012900047C030916F0530FF09C024FF44C090E083
:1012A00080E004C020916E0522FDF7CF08952091C3
:1012B0006E0522FD3BC030916F0530FDE3CF24FF6A
:1012C000F5CFEDCF20916E0523FFF0CF24FDE7CFC2
:1012D000D2CF20916E0523FD2CC030916F0531FFD8
:1012E000EECF84EE90E0089520916E0525FFDECFCD
:1012F00089E290E0089520916E0525FFD7CF85E320
:1013000090E0089520916E0526FFD0CF8AE290E00C
:10131000089520916E0526FFC9CF81E390E00895DE
:1013200089E390E0089583EE90E0089582EE90E0E6
:10133000089586EE90E0089590916E0592FF06C0A4
:10134000282F28712830F9F4877F846093FF06C026
:10135000282F28712831F1F4877E846120916F0550
:1013600020FF06C0382F38713830D9F4877F81606C
:1013700021FF06C0282F28712831D1F4877E816192
:1013800094FD877E0895282F24712430F9F68B7FF1
:101390008860DCCF282F2471243101F78B7E88618F
:1013A000DDCF382F3171313019F78E7F8860E0CF73
:1013B000282F2171213121F78E7E8861E1CF089598
:1013C0000C94DF0908950C94E209E82FF0E0E85648
:1013D000FB4F80810895089580EA8A95F1F708957A
:1013E00000C008950C94EC09F894E82FE295EF7092
:1013F000F0E031A1282F2F7081E090E001C0880F2C
:101400002A95EAF7982F9095932391A392A1892B7F
:1014100082A378940895CF93DF93C9E6D1E08991B0
:101420000E94F40981E0C237D807C9F7C1E6D1E0CC
:1014300089910E94F40981E0C936D807C9F7EFE81D
:10144000F4E0A8E9B4E011921D9284E0E839F807CD
:10145000D1F789E00E94AB0ADF91CF910C94BE06D0
:10146000BF92CF92DF92EF92FF920F931F93CF9391
:10147000DF9309E611E0CFE8D4E0C12CD12CEE24B3
:10148000E394F12CF80181918F01F894E82FE29513
:10149000EF70F0E021A18F70A70102C0440F551F2B
:1014A0008A95E2F7CA01922F982B91A392A1809579
:1014B000892382A378940E94F009E1E6F1E030E00C
:1014C00020E0B12C4191A42FA295AF70B0E090968E
:1014D0008C9190E04F7002C0959587954A95E2F700
:1014E00080FD35C08E2D022E01C0880F0A94EAF7C8
:1014F000B82A2F5F3F4F2830310521F7F801319787
:1015000080810E94F40958E0C5120E94F209888186
:10151000B816F9F0B88281E0D82AC394219689E000
:10152000C812B0CF2D2D49E068E974E08FE894E04F
:101530000E94AC0A0E94C8068D2DDF91CF911F91A9
:101540000F91FF90EF90DF90CF90BF90089580E0D3
:10155000CFCF80E0E1CF0895FF920F931F93CF93F9
:10156000DF93F82E092F162FD72FC42F222349F0EF
:1015700081E08093F8010E947C259093F70180938D
:10158000F6018091F8018823A1F08091F6019091F5
:10159000F7010E949425069760F0EF2DF02FA12F00
:1015A000BD2FCE0FDF2FD11DEC17FD0741F4109298
:1015B000F801DF91CF911F910F91FF9008958191D4
:1015C0008D93F2CF84E08093A1048FE78093A204EF
:1015D0008091A304807880648093A304EDEFF1E010
:1015E0008FEF8193DF01A95BBF4F1C9292E0E5343E
:1015F000F907B9F71092FC011092FB011092FA0161
:101600001092F90108959091A104292F2F709595BA
:101610009595959595959F523CE0239F900D1124AB
:10162000890F0895EF92FF921F93CF93DF93FB01F1
:101630008F3A2CE5920708F085C08F394CE5940766
:1016400008F099C180395CE5950750F583382CE5A1
:10165000920708F04CC181384CE5940760F4873755
:101660005CE5950708F02BC18F322CE5920708F056
:10167000DFC0D1E01DC181384CE5940709F42CC1CD
:1016800082389C45B1F78281882309F4FBC08091A0
:10169000A104982F9F70993008F0F4C09F5F25C176
:1016A0008D392CE59207A0F582394CE5940708F0B6
:1016B0003BC180395CE5950709F424C181399C451B
:1016C000C1F68281882309F4DDC02091A104822F14
:1016D000859585958595859586300CF0D3C091E0EC
:1016E000980F9295907F9595959595959595392F0D
:1016F0003295307F2F70232B2093A10418160CF005
:10170000C1C097FFBFC08295807F922F9F70E0C0BD
:101710008D394CE5940709F415C18E399C4509F0C3
:10172000A8CF8281882309F4ADC08091A204982FAC
:101730009F779F3709F4A6C0933708F01AC1935FCB
:101740009F77FEC0853B2CE5920709F472C1C8F56E
:10175000813B5CE5950709F43EC1D8F48F3A4CE52E
:10176000940709F41AC1803B9C4509F082CF82811D
:10177000882309F487C02091A204322F331F332716
:10178000331F9091A304892F8770880F832B8F5F5D
:1017900015C16091A2043091A3042281833BECE542
:1017A0009E0709F43AC108F42CC121112FE7862FB6
:1017B000881F8827881F632F6770660F682B42E495
:1017C0001BC1883B2CE5920709F446C180F4863B97
:1017D0005CE5950709F42DC1873B9C4509F049CF8D
:1017E0008281811137C18FEF8093FB014BC08A3B0F
:1017F0004CE5940709F466C108F44FC18B3B9C4546
:1018000009F037CFD2816091A204862F881F8827E4
:10181000881F6091A3046770660F682BDD2309F4AD
:1018200061C14FEF5FE180E795E00E9485262AC005
:101830001091A204212F221F2227221FC091A3044E
:10184000C770CC0FC22B1F77D28121ED280F30E05B
:10185000A90143505E4F7A01DD23C1F00E94030BC2
:10186000D82F212F482F6C2F80E795E00E94652606
:10187000F701E85BFF4F80818F5F8083F7018081F4
:101880008F3F11F0D0E014C0D083FCCFFA0140812B
:10189000E85BFF4F8081815080838111F3CF212F3E
:1018A0006C2F80E795E00E9475268FEFF70180830B
:1018B0008D2FDF91CF911F91FF90EF90089522819E
:1018C000222301F38757982F9F708091A104807F76
:1018D000892B8093A104D6CF8281882399F28091AD
:1018E000A104982F9F7071F2915F9F70F0CF2281B9
:1018F000222341F28958982F9295907F8091A104DC
:101900008F70E6CF8281882309F4BCCF8091A10437
:10191000982F95959595959595959B3F0CF4B2CFFD
:10192000915F9295907FECCF2281222309F4AACF78
:1019300082599CE0899F902D11249F778091A20469
:10194000807815C08281882309F49CCF8091A204FD
:10195000982F9F7709F496CF80789F3721F4856779
:101960008093A2048FCF9D30D8F39D509F77892B11
:10197000F7CF8F67F5CF2281222309F483CF8F59C8
:101980009091A20480FB97F99093A20486958770AA
:101990009091A304987F892B7DC08281882309F4CC
:1019A00071CF2091A204322F331F3327331F909120
:1019B000A304892F8770880F832B815F382F3F7096
:1019C00080FB27F92093A204832F8695987F982B7C
:1019D0009093A30457CF8281882309F453CF609159
:1019E000A204862F881F8827881F6091A304677030
:1019F000660F682B20E04BE780E795E00E945526B4
:101A000041CF21112FE7862F881F8827881F632F3A
:101A10006770660F682B40E4EFCF21112FE7862F08
:101A2000881F8827881F632F6770660F682B41E423
:101A3000E3CF828120E081112FE76091A204862FFD
:101A4000881F8827881F6091A3046770660F682B22
:101A500043E4D2CF81E0C8CE8281882309F412CF3B
:101A60009091A304292F2695269526952F7081E025
:101A7000820F8F70880F880F880F9778892B80933B
:101A8000A304982F987709F0FDCE220F220F220F82
:101A90008778822B8093A304F5CE8281882309F472
:101AA000F1CE8091A304982F987709F4EBCE982F6C
:101AB000969596959695915F9F70990F990F990FAE
:101AC000877869CFD2816091A204862F881F8827EA
:101AD000881F6091A3046770660F682B40E050EE8A
:101AE000D111A1CE50E040E080E795E00E9485262C
:101AF000DFCE80E795E00E9487288091F9019091E0
:101B0000FA010E9494252091A304269526952695F6
:101B10002F702817190609F0A0F50E947C259093D4
:101B2000FA018093F9018091FB01882351F16091C2
:101B3000A204862F881F8827881F6091A3046770DE
:101B4000660F682B2091FC0141E080E795E00E9440
:101B500055268091FB019091FC0187FF0DC0482F15
:101B6000552741950CF45095941715062CF41092B6
:101B7000FC011092FB010895890F87FD03C080933B
:101B8000FC0108958FE7FBCFEF92FF920F931F9315
:101B9000CF93DF93EB01E82FD11110C0442321F044
:101BA000F0E0E951F84FE4916E2F7E2F8E2FDF91F8
:101BB000CF911F910F91FF90EF9008950D2F10E09E
:101BC000282F30E0442329F02951384FF90124917E
:101BD00030E0F6E0CF9FC0011124EFEFF0E0BF014D
:101BE0000E944331AB018C2F90E0880F991FA5E52F
:101BF000A49FB001A59F700D1124861B970B982FF1
:101C0000990F980FBF01601B710B629FD001639FFA
:101C1000B00D729FB00D11248B2F9D9FB001112428
:101C2000672F7727EF01C61BD70BBE01629FE0012C
:101C3000639FD00D729FD00D11247F01E91AF10826
:101C4000E09EB001E19E700DF09E700D1124672F93
:101C50007727E61BF70BE29F8001E39F100DF29FB1
:101C6000100D1124E12F722F4230510599F048F4E4
:101C70004115510569F04130510581F0EB2F8D2F51
:101C800007C04430510569F080F046305105B1F786
:101C90006E2F8DCFE22F7B2F812FFACFE22F7D2F5A
:101CA000F7CFEB2F822F712FF3CF7B2F822FED2FCA
:101CB000EFCF41E00C94C40D08950C94590ECF93CE
:101CC000DF93762FE901682F842F0E945D0E7983C0
:101CD00068838A83DF91CF910895493708F048E7F8
:101CE0000C945F0E8091A504982F9E7F61F4817003
:101CF00082608093A5048091A804893718F088E752
:101D00008093A80408958635B0F381708465F1CF7F
:101D100088E090E00C943E32CF92DF92EF92FF92F7
:101D20006B017C010E94720EB701A60188E090E071
:101D3000FF90EF90DF90CF900C945C32E5EAF4E0F6
:101D400083E0808311828FEF828388E7838314820C
:101D500060817181828193810C948C0E8091A504A5
:101D600080FF02C08695089580E008959091A904AF
:101D7000933018F49F5F9093A904882351F06091E9
:101D8000A5047091A6048091A7049091A8040C94D6
:101D90008C0E089581E00C94B60E9091A9049923BD
:101DA00019F091509093A904882351F06091A504F3
:101DB0007091A6048091A7049091A8040C948C0EB5
:101DC000089581E00C94CD0E21E030E002C0220F96
:101DD000331F8A95E2F78091DD039091DE0328237B
:101DE000392381E0232B09F480E0089570E00C94FE
:101DF0003D166F927F928F929F92AF92BF92CF9239
:101E0000DF92EF92FF920F931F93CF93DF93CDB7A3
:101E1000DEB7C05CD1090FB6F894DEBF0FBECDBFF0
:101E2000709008019091A50490FF47C0C090D00326
:101E3000D090D103C114D10409F052C0E7EAF7E011
:101E40009E012F5F3F4FBE016F537F4FC901A49189
:101E50004A2F50E0DA01AA0FBB1FA40FB51FA655E9
:101E6000BB4FCD90DD90EC90D901CD92DD92ED92FB
:101E70009D0131966A177B0751F720910701672D65
:101E8000B3E02B9F800D911D11240E94F60EC054CB
:101E9000DF4F0FB6F894DEBF0FBECDBFDF91CF91FD
:101EA0001F910F91FF90EF90DF90CF90BF90AF9078
:101EB0009F908F907F906F9008958091090120915D
:101EC0000A0133E0839FF0011124E655FB4F82178E
:101ED00008F0ACCF1182108212828F5F3396F7CF59
:101EE00090FFACCFF12CE12C43E0642E8E2D0E94AC
:101EF000E40E882309F43CC0F701EE0FFF1FEC0D40
:101F0000FD1DA590B490A114B10409F497CF45E04C
:101F100050E0B501CE0101960E94203209810F3FA9
:101F200039F18A81800F9927991F8134910514F026
:101F300080E490E04C01880C991C880D991DDC010F
:101F4000A655BB4F4D01069D8001112406551B4F20
:101F50000815190520F0B5E0AB0EB11CD8CF9801DB
:101F60004D816C818B810E946D0E0D5F1F4FF0CFF4
:101F70002FEFE21AF20A39E0E316F10409F0B6CFC6
:101F80005DCF9091A50490FF14C09091090120911C
:101F90000A0133E0939FF0011124E655FB4F92179D
:101FA00010F00C94F90E8183608342839F5F339617
:101FB000F6CF0895CF93DF9300D00F92CDB7DEB761
:101FC0009091A50490FF0AC09E012F5F3F4F0E9491
:101FD0006D0E4B8169818A810E94C10F0F900F9015
:101FE0000F90DF91CF910895CF93DF93EC01EC81B7
:101FF000F0E0EE55F94F4491E5EAF4E06281818129
:102000000E94DA0F8C818F5F8C83DF91CF910895CE
:10201000CF93DF93EC01E5EAF4E0438162818C81A8
:102020000E94DA0F8C818F5F8C83DF91CF910895AE
:102030000F931F93CF93DF9300D00F92CDB7DEB7EE
:102040008C0180918D0281110AC09E012F5F3F4F4C
:1020500048E76FEF0E946D0E8A8180938D02F80130
:102060006481613069F080918D0240E0662361F007
:1020700040E0623011F440918D0280E060E004C0E5
:1020800060918D0240E080E00E94C10FF8018481E0
:1020900090E0019663E070E00E94573184830F90D6
:1020A0000F900F90DF91CF911F910F910895AF92F4
:1020B000BF92CF92DF92EF92FF920F931F93CF9335
:1020C000DF9300D00F92CDB7DEB7182FF62E042F76
:1020D000E22E9091A50490FF29C0E92FE695AE2F3E
:1020E000B0E0AE58BE4F8C918093DB039E7F923060
:1020F00059F59E012F5F3F4F812F0E946D0E4B813E
:1021000069818A810E94C10F1093A604F092A704EE
:102110000093A804EE2051F06091A5047091A604EC
:102120008091A7049091A8040E948C0E0F900F90AC
:102130000F90DF91CF911F910F91FF90EF90DF9063
:10214000CF90BF90AF900895823019F40091A80409
:10215000DBCF863019F41091A604D6CF8930D9F39D
:10216000893191F6E9518E2F8170D82EE695F0E0F5
:10217000EE55F84FA590B490C12CBB2460910B0193
:10218000C61618F00E94F90EBFCF2C2D30E0A29E8B
:10219000C001A39E900DB29E900D112470E00E948C
:1021A0004331812FD11013C0860F40910901420F96
:1021B000532F511D9A01220F331F240F351F26550F
:1021C0003B4F402F6F2D0E946D0EC394D7CF861BBF
:1021D000ECCFE5EAF4E09181282F4381628188E029
:1021E000890F0C94571081E00C94E910E5EAF4E0B3
:1021F0009181282F4381628188EF890F0C945710B9
:1022000081E00C94F610E5EAF4E0628128E0620FC8
:1022100008F46FEF282F438181810C94571081E0DF
:102220000C940311E5EAF4E0628128E0621B08F4F3
:1022300060E0282F438181810C94571081E00C9439
:102240001211E5EAF4E0438128E0420F08F44FEF71
:10225000282F628181810C94571081E00C94211108
:10226000E5EAF4E0438128E0421B08F440E0282F2F
:10227000628181810C94571081E00C94301120E030
:102280000C945710EF92FF921F93CF93DF93EC01C2
:1022900010E0EE24EA94F12C60910B01161770F017
:1022A0000E94F90E9A818C8190FF27C08F5F8C83EA
:1022B000DF91CF911F91FF90EF9008952091090138
:1022C000422F410F5527551FCA019A01220F331F74
:1022D000280F391F26553B4F70E0C7010E94573128
:1022E000962F8C814091A8046091A704199F800DBE
:1022F00011240E946D0E1F5FCFCF8150D8CFBF92A7
:10230000CF92DF92EF92FF920F931F93CF93DF93C1
:10231000FC0182810FEF80FF01E010E080910B0152
:102320001817C0F00E94F90E80918F02013009F059
:1023300051C0811102C080910B01815080938F02A6
:10234000DF91CF911F910F91FF90EF90DF90CF9091
:10235000BF900895C0910901C12ED12CCC0DDD2D67
:10236000D11DCE01880F991FC80FD91FC655DB4F4D
:10237000198218821A8234E0E32EF12CB12C80915C
:102380008F028B0D813404F18F73082E000C990B92
:10239000C816D90691F48091A8048E9DA0018F9D46
:1023A000500D112455954795559547959E0160917F
:1023B000A7048091A6040E946D0EB00EF1E0EF1A02
:1023C000F108E9F61F5FAACF87FFDFCF90910B01DD
:1023D000890FDBCF90E0019660910B0170E00E94C5
:1023E0005731ACCF0F931F93CF93DF9380910901A7
:1023F00090910A0123E0829FF0011124E655FB4FE2
:10240000891740F1C0E0D3E060910B01C61740F19D
:102410000E94F90E2091050180918E02820F809317
:102420008E0290910601920F90930601191654F4B2
:10243000082E000C990B40910B014150550B84174D
:1024400095071CF0219520930501DF91CF911F91F5
:102450000F9108951182108212828F5F3396D0CF30
:102460000C2F10E070E0C8010E9457312091090143
:10247000820F482F50E020918E02022E000C330B69
:1024800002171307BCF020910601022E000C330B3B
:10249000201731077CF08D9F9001112426553B4F6A
:1024A0004091A8046091A7048091A6040E946D0E3B
:1024B000CF5FAACFFA01EE0FFF1FE40FF51FE6551D
:1024C000FB4F118210821282F3CF8F929F92AF92B4
:1024D000BF92CF92DF92EF92FF920F931F93CF9311
:1024E000DF93EC014C81042F10E09801D8010E9489
:1024F0009B319B01AC010E94B1314B015C01E0E2D8
:10250000F0E0E01BF10BA5E5B0E0AC019B010E94FF
:10251000B1316B017C019F01DF010E9493319B016E
:10252000AC010E94BC319B01AC01280D391D4A1D34
:102530005B1DC701B6010E946B31F22E822F90E025
:1025400039E23F1560F143E0249F90011124359555
:102550002795122F109500E085E5E82EEF18809161
:102560000B01081758F10E94F90E9C8181E0992314
:1025700019F0903219F48FEF8093040180910401D7
:10258000890F8C83DF91CF911F910F91FF90EF9076
:10259000DF90CF90BF90AF909F908F90089525E5EA
:1025A00030E0B901681B790B9B01220F331F260F06
:1025B000371F37FFCCCF2F5F3F4FC9CF8E2D01FD87
:1025C0008F2D20910901622F600F7727771F9B01C4
:1025D000220F331F260F371F26553B4F412F609187
:1025E000A7040E946D0E0F5FBACF0F931F93CF9376
:1025F000DF93EC0110E000E090910B0190171106C1
:1026000009F06CF40E94F90E8C8190E001968170C3
:1026100099278C83DF91CF911F910F91089520917D
:102620000901A801420F511D9A01220F331F240FE7
:10263000351F26553B4F4C816091A7048091A6041D
:1026400096959017110651F04CF0442349F04091B3
:10265000A8040E946D0E0F5F1F4FCECF4423B9F325
:1026600040E0F7CF4F925F926F927F928F929F924E
:10267000AF92BF92CF92DF92EF92FF920F931F9390
:10268000CF93DF93FC016280448081E08483E2EA9F
:10269000F6E07490E1E2F7E0E491812C75E0972E8A
:1026A000F2E0CF2EDD24D394AA24AA94B12C552491
:1026B0005A94E7190E2F10E080910B01881690F0C4
:1026C000DF91CF911F910F91FF90EF90DF90CF900E
:1026D000BF90AF909F908F907F906F905F904F9042
:1026E0000C94F90EE82CF12C82E0861568F09E9C83
:1026F000F0019F9CF00D1124E057FD4F8091A6043E
:1027000080838091A7048183411023C09E9CF001A7
:102710009F9CF00D1124E057FD4F138212822091EF
:102720000901C701820F911D9C01220F331F280F41
:10273000391F26553B4F9E9CF0019F9CF00D1124A4
:10274000E057FD4F4281618180810E946D0E83942C
:10275000B3CF9E9CE0019F9CD00D1124C057DD4F4C
:102760008B818823E9F081508B83859DC0011124E2
:102770006C8170E00E944331FB01FF27EE55F94F59
:102780008491E82FE719E59DC0011124B8010E944A
:1027900043318091A804689FB00111247A83BFCF90
:1027A0000E9410322091A804269521582C9DA0014A
:1027B0002D9D500D1124452F5527841795070CF09A
:1027C000AECF82E0861588F40E941032B5010E94D7
:1027D000573188830E9410322091A7042695622FDA
:1027E00070E00E945731280F29839E9CF0019F9C26
:1027F000F00D1124E057FD4F12828091A804893C0E
:1028000058F088EC9E9CF0019F9CF00D1124E0573D
:10281000FD4F8483838383CF8431A0F784E1F2CF9B
:10282000E5EAF4E080818E7F80836081718182811E
:1028300093810E948C0E1092DC032FEF80E792E0D0
:10284000215080409040E1F700C000000C94F90E48
:10285000E5EAF4E080818E7F80831092DC032FEF25
:1028600080E792E0215080409040E1F700C00000F6
:102870000C94F90E1092DC038091D90381110AC0E7
:1028800081E08093D9038091A50481708093D8035F
:102890000C94281408956091A504669570E04BE0AF
:1028A00050E08CE091E00E942932892B19F481E0FC
:1028B0008093DC030E947C259093D3038093D20302
:1028C00008959091A50490FF35C09170811128C0A2
:1028D00092609093A504662351F06091A5047091D5
:1028E000A6048091A7049091A8040E948C0E609188
:1028F000A504669570E04BE050E08CE091E00E940A
:102900002932892BA1F01092DC0381E08093D5035A
:102910004091A8046091A7048091A6040C943F11F3
:102920008B3210F09465D5CF880F982BD2CF0E94B0
:102930004B14EBCF0895682F9091A504969581E0F4
:10294000890F8B3208F081E00C94611481E00C94C3
:102950009B14682F9091A50496958FEF890F09F429
:102960008AE20C94611481E00C94A91461E00C9447
:102970006114E5EAF4E080818160808386950C949F
:10298000B6148091A50480FD0C9410140C94B91415
:1029900060E00C9461148091DA0381112EC00E94D2
:1029A000F823811104C00E949C240E949E0E0E9464
:1029B000880E6093A5047093A6048093A704909357
:1029C000A8046E7F61F40E949E0E0E94880E6093A0
:1029D000A5047093A6048093A7049093A8040E9472
:1029E000720E1092DC038091A50480FF03C08695CF
:1029F0000E94C81481E08093DA030895E5EAF4E0C8
:102A000080818160808386950C94C8141092D903CC
:102A10008091D80381110E94FE140C944B140F93E3
:102A20001F93CF93DF938091DC03882309F496C032
:102A30008091DB03E091A504E695E81BE093D403C5
:102A4000823091F5F0E0E256F94FE491CE2FD0E0DC
:102A500004EF1FE08091D503882361F01092D50325
:102A60000E947C259093D3038093D2031092D703C6
:102A70001092D6030E947C25E091D203F091D303FB
:102A80008E1B9F0B8F3F9F4708F068C0EC0FFD1F08
:102A9000F093D303E093D20382ED93E0F801DF914A
:102AA000CF911F910F910994863049F4F0E0E556DB
:102AB000F94FE491CE2FD0E008E010E1CBCF893080
:102AC00051F4E695F0E0E856F94FE491CE2FD0E0CE
:102AD00002E411E1BFCF8F3051F4E695F0E0EB5600
:102AE000F94FE491CE2FD0E00FE711E1B3CF85315C
:102AF00049F4F0E0EE56F94FE491CE2FD0E002EF2A
:102B000011E1A8CFC8E2D0E005E612E1883109F46E
:102B1000A1CF833239F4E0E9F6E0C591D49108E120
:102B200010E198CFC4EFD1E005EF12E1843209F44F
:102B300091CFC0EDD7E00CE51EE0853209F08ACFD9
:102B40008E2F63E00E943731E92FF0E0E357F94F11
:102B5000E491CE2FD0E002E313E17CCFDF91CF915F
:102B60001F910F910895FA01811101C0FB01099491
:102B7000CF93DF93C82FD62F0E94AE0E8C1740F054
:102B80000E94AE0E8D1720F4DF91CF910C94A61405
:102B90008C2FDF91CF910C94B6140F931F93CF938A
:102BA0008C01FB01C281CC2309F465C00E944E2335
:102BB0008272F801E35CFC45E431F10538F4EA5136
:102BC000FD4C0C948D310E94C114C0E08C2FCF912C
:102BD0001F910F91089543EB54E166EA74E10E945E
:102BE000B315F3CF46EA54E163EB74E1F8CF40E06C
:102BF00051E163EF70E1F3CF43EF50E160E071E149
:102C0000EECF4EE151E16FE071E1E9CF4FE051E1EC
:102C10006EE171E1E4CF4CE351E16DE271E1DFCFB0
:102C20004DE251E16CE371E1DACF41EE5EE06AEC36
:102C30007EE0D5CF4AEC5EE061EE7EE0D0CF81E071
:102C40000E94B614C2CF65E082E00E94B815BDCFE5
:102C500068E086E0FACF6EE089E0F7CF64E18FE0CC
:102C6000F4CF67E185E1F1CF88E1EACF62E289E163
:102C7000ECCF83E2E5CFC1E0A9CF809A41B34E7F8C
:102C800051B35160EFB7F8949B01220F331F260F09
:102C9000371F280F391F2817390741F4EFBF8FE579
:102CA00094E00197F1F700C000000895DC016D91F8
:102CB000CD0178E051BB000000C067FF41BB660F4B
:102CC000000000C000C000C041BB00C07A9591F771
:102CD000E2CF0C944D06AF92BF92CF92DF92EF926B
:102CE000FF920F931F93CF93DF93A0EBB1E02DEAF8
:102CF00031E085EEA82E83E0B82E63EB71E041E071
:102D000050E00D91802F82958F7090E0FC01C1A161
:102D10000F707A01002E01C0EE0C0A94EAF7FE2D26
:102D2000F095CF23FC01C1A3C2A1CE29C2A3E90122
:102D300019919E01E12FE295EF70F0E0F1A01F7074
:102D40006A01012E01C0CC0C0A94EAF7EC2CE09445
:102D5000EF20E1A2F2A0FC28F2A2EC0188A190E011
:102D600002C0959587950A95E2F78170E0A1F0E0A1
:102D700002C0F595E7951A95E2F790E0E0FD92E044
:102D8000892BF50181935F016A177B0709F0B9CFA1
:102D9000DF91CF911F910F91FF90EF90DF90CF9037
:102DA000BF90AF9008956F927F928F929F92AF9253
:102DB000BF92CF92DF92EF92FF920F931F93CF9328
:102DC000DF9305EE13E080EBC82E81E0D82E9DEA5C
:102DD000E92E91E0F92E22EE822E23E0922ECFED05
:102DE000D3E0712C612C34E0A32EB12CD801EC91EE
:102DF000EE0FEE0FED938D01D6012D916D01A22FF7
:102E0000A295AF70B0E090968C9190E02F7002C0C8
:102E1000959587952A95E2F781709927D7014D916D
:102E20007D01A42FA295AF70B0E090962C9130E078
:102E30004F7002C0359527954A95E2F7A901417078
:102E4000552720FF02C042E050E0842BE82BD80138
:102E50001197EC93EF70F0E0E356FE4F8081F401A0
:102E60009081890F808320E0843044F088818F5FD7
:102E7000888360E0872D0E94691621E0D4018C913F
:102E80008D3F44F488818150888361E0872D0E94C2
:102E9000691621E0F4018081082E000C990BB50120
:102EA0000E945731D4018D934D01622A739421966B
:102EB000B3E07B129BCF862DDF91CF911F910F91B5
:102EC000FF90EF90DF90CF90BF90AF909F908F904A
:102ED0007F906F9008950F931F93CF93DF93C42F2C
:102EE000D22FFC0182818823C9F04093EA030E941B
:102EF0007C259093E9038093E80380E28C0F88306F
:102F000008F050C0C77081E001C0880FCA95EAF789
:102F1000DF91CF911F910F910C94E51B1091EA0363
:102F2000141335C08091E8039091E9030E94942521
:102F3000883C910560F5C0E2CD0F1D17B9F080E225
:102F4000810F883040F4177081E001C0880F1A9516
:102F5000EAF70E94EC1BC83048F481E09D2F97707F
:102F600001C0880F9A95EAF70E94E51B802F0E9406
:102F7000DD1BC830B8F4D77081E001C0880FDA9546
:102F8000EAF7DF91CF911F910F910C94EC1B80E237
:102F90008C0F883038F4C77081E001C0880FCA9563
:102FA000EAF7EFCFDF91CF911F910F9108950F9323
:102FB0009C01CB01243F4CE5340759F1A8F4293D8D
:102FC000FCE53F0701F12A3D4CE53407D1F1283DEE
:102FD0003C4591F406E221EE41EE68ED7CE50E946D
:102FE0006B1780E00F910895263FFCE53F07E9F05D
:102FF000B0F0273F3C45F9F0FC018281882339F18C
:103000001092EA03EFCF07E225EE45EE69ED7CE58D
:10301000E6CF06E221EE40EE64EF7CE5E0CF07E28A
:1030200025EE44EE65EF7CE5DACF06E221EE42EED6
:1030300066EF7CE5D4CF07E225EE46EE67EF7CE550
:10304000CECF08E221E045EE6AED7CE5C8CF81E015
:10305000C9CFCF93DF93EC01FB018281882309F470
:1030600019C1C230FCE5DF07C0F1C6319CE5D907C4
:1030700030F09E012B5F3C452930310570F50E94F0
:103080000B2490936F0580936E05C031ECE5DE074D
:1030900009F4CFC008F05BC0C8308CE5D80709F44C
:1030A000B6C088F5C430ECE5DE0709F4A8C0C0F46A
:1030B000C2308CE5D80709F49CC080916E0582600F
:1030C000C330DC4509F498C080916E0590916F057E
:1030D0000E9419240E94461E80E0DF91CF9108953E
:1030E00080916E058061C630ECE5DE0709F484C08E
:1030F00080916E058860C730DC4508F47DC0809102
:103100006E05806279C0CC308CE5D80709F489C09F
:1031100070F480916E058C60CA30ECE5DE0709F42E
:103120006BC008F478C080916E058E7F65C0CE308C
:103130008CE5D80709F479C080916E058B7FCF307C
:10314000DC4508F459C080916E058F7E55C0CC3F98
:10315000ECE5DE0709F457C030F5C3318CE5D8073C
:1031600009F46FC078F4C131ECE5DE0709F465C0FD
:10317000C231DC4509F0A8CF0E94461E80916E0541
:103180008F773AC0C5318CE5D80709F462C008F4DE
:1031900076C080916F058160CB3FDC4509F094CF0C
:1031A00080936F0591CFC115FDE5DF0709F44DC090
:1031B00088F480916F058D7FCE3F9CE5D90781F320
:1031C00080916F058E7FCF3FDC4550F380916F0576
:1031D0008360E6CFC230FDE5DF0709F459C008F48B
:1031E00044C080E0C330DD4509F06ECF0E949E24CC
:1031F0006BCF80916E05816080936E0565CF809165
:103200006E058460F9CF80916F058260C9CF80918F
:103210006E058064F1CF0E94461E80916E05806825
:10322000EBCF80916E058D7FE7CF80916E05877F14
:10323000E3CF80916E058F7DDFCF80916E058F7B10
:10324000DBCF80916E05837FD7CF80916F058C7F18
:10325000A7CF80916E0582FB992790F921E09227F4
:1032600090FB82F990FB83F9C7CF80916F05982F6F
:10327000909591708E7F892B90FB81F991CF0E9460
:10328000461E90916E05892F97FB87F98058B4CF21
:1032900081E0ACCF81E021CFCF93DF93EB0186318A
:1032A0009C4511F50E944E239A81992399F08A7AC0
:1032B00091E009F490E09093EB03811109C089E259
:1032C0000E9429230E948D2380E0DF91CF910895F1
:1032D00085E3F6CF8091EB03811104C089E20E945F
:1032E0003023F0CF85E3FBCF81E0EFCF9093F10364
:1032F0008093F0030895E091F003F091F10330978B
:1033000021F00190F081E02D099480E00895E09192
:10331000F003F091F103309721F00280F381E02D6A
:10332000099408952091EE033091EF03281739078F
:1033300071F09093EF038093EE03E091F003F0912E
:10334000F103309721F00680F781E02D099408956C
:103350002091EC033091ED032817390771F0909319
:10336000ED038093EC03E091F003F091F1033097CB
:1033700021F00084F185E02D099408950E948825AC
:1033800060930404709305048093060490930704EB
:1033900060930004709301048093020490930304EB
:1033A00008950E9488256093040470930504809317
:1033B0000604909307046093FC037093FD038093CD
:1033C000FE039093FF03089585B7806885BF85B796
:1033D000806885BF0895089508950C94EB190C94A6
:1033E0006B060E94E41980EF93E20E94EB250E9495
:1033F000EC190C94ED1981E008950C94FB190895D3
:1034000008950E9473250E940B0A0E9406260E94BE
:10341000CB140E946B160C94EF19AF92BF92CF920F
:10342000DF92EF92FF920F931F93CF93DF93CDB76D
:10343000DEB72A970FB6F894DEBF0FBECDBF0E944D
:10344000FF190E94001A0E94300A81110E94BE19C1
:1034500083EFA82E83E0B82E10E000E0C02E802F6E
:103460000E94E509E82EF501F1905F01F81609F4D4
:1034700055C08091830481FD0E94EB098F2D8E251C
:10348000D12CFF24F394982F9F2109F442C00E946D
:10349000FD19882399F0DE82CF82EF2081E009F4C4
:1034A00080E088870E947C258160782F9A878987B1
:1034B0004E815F8168858A850E94B61AF801ED50B9
:1034C000FC4F8081F826F0820E940F150E94D316CF
:1034D00081110E94D1190E94790D0E947B1990914F
:1034E000F203891791F10E947B198093F2032A96C7
:1034F0000FB6F894DEBF0FBECDBFDF91CF911F9105
:103500000F91FF90EF90DF90CF90BF90AF900C9411
:10351000FC07D394FF0CF8E0DF12B5CF0F5F1F4F0D
:103520000930110509F09ACF8FEF89838A831B82B6
:103530000E947C258160782F9D838C8349815A81EC
:103540006B818D810E94B61ABFCF2A960FB6F89470
:10355000DEBF0FBECDBFDF91CF911F910F91FF90C6
:10356000EF90DF90CF90BF90AF900895DF92EF92F1
:10357000FF920F931F93CF93DF93CDB7DEB72B97B7
:103580000FB6F894DEBF0FBECDBF7A878B87F42EBF
:10359000052F162FE72ED82E61110E946E231E8252
:1035A0001D827E2DEC82DD824F2D502F612F8D2DBF
:1035B0009E812B960FB6F894DEBF0FBECDBFDF9174
:1035C000CF911F910F91FF90EF90DF900C94BC2052
:1035D000FC01808191810C94FB22CF93C82F88231A
:1035E00009F483C08238C1F40E947B1981FD7DC03B
:1035F00089E30E9429230E948D232FEF81EE94E01E
:10360000215080409040E1F700C0000089E30E9413
:103610003023CF910C948D238338A1F40E947B1921
:1036200080FD63C083E50E9429230E948D232FEF34
:1036300081EE94E0215080409040E1F700C000000E
:1036400083E5E5CF8438A1F40E947B1982FD4DC04B
:1036500087E40E9429230E948D232FEF81EE94E0BE
:10366000215080409040E1F700C0000087E4CFCFB8
:103670008CEF8C0F813A90F46C2F80911701909110
:1036800018010E94B524882329F08C2F0E94302332
:103690000E948D238C2F0E942923BBCF80E28C0FA8
:1036A000883048F4C77081E001C0880FCA95EAF7F6
:1036B0000E945123AECFEBE5EC0FE33040F4F0E095
:1036C000EF51FE4F808190E0CF910C949219C85A2F
:1036D000C73158F4EC2FF0E0EE0FFF1FED54FE4F12
:1036E00080819181CF910C94A819CF91089588235E
:1036F00009F44BC0823871F40E947B1981FF45C0E8
:1037000089E30E9429230E948D2389E30E943023AC
:103710000C948D23833859F40E947B1980FF35C0A7
:1037200083E50E9429230E948D2383E5EFCF84380F
:1037300059F40E947B1982FF28C087E40E94292344
:103740000E948D2387E4E2CF9CEF980F913AF0F22C
:1037500090E2980F983050F4877091E001C0990F73
:103760008A95EAF7892F0E945723D2CF9BE5980FBD
:10377000933020F490E080E00C949219885A8731BD
:1037800020F490E080E00C94A81908951F93CF9343
:10379000DF93182FEB010E94ED1A209731F4812F4F
:1037A000DF91CF911F910C94771B8FE99FE00197D8
:1037B000F1F700C000002197F0CF6AE070E0893394
:1037C00011F460E570E00C94C61B882321F00E9480
:1037D00051230C948D230895882321F00E945723B0
:1037E0000C948D230895BF92CF92DF92EF92FF92B7
:1037F0000F931F93CF93DF936C01D62FC72FFC013C
:103800001281058102950F700E944723E82E8823BC
:10381000A1F0E12E112389F08C2F807F803429F0D4
:1038200080E28D0FE12C883040F082E00E94D823A6
:103830000E94472391E0E82EE926BC2EB2949FE037
:10384000B922FBE0FB1598F1EB2DF0E0E650FD4CC2
:103850000C948D310C2F0F70C07F11F00295007FFA
:103860001123A9F0002359F080E28D0F883010F069
:10387000D11109C0802F0E9451230E948D238D2FCA
:103880000E94ED1A14C0802F0E946123F6CF8D2F65
:103890000E94771B002359F080E28D0F883010F0D2
:1038A000D1112BC0802F0E9457230E948D23EB2D16
:1038B000E850FF0B349720F40E947B190E94FC070C
:1038C000EE2009F488C10E94432380FD84C1F601E3
:1038D00012820E943D230E94C821C6010E940C1E34
:1038E0000E943D23DF91CF911F910F91FF90EF90A8
:1038F000DF90CF90BF900C94E921802F0E94672326
:10390000D4CF2C2F2F70F22EC07FC03219F0F2943A
:1039100080EFF822DD2369F0D13049F1112391F1D4
:10392000002351F1F601858180FFA9CF8F70858337
:1039300023C0112381F0011106C00E9474238F2936
:103940000E94E51BB4CF0130C1F70E9474238F2978
:103950000E947A23ACCF011106C00E9483238F2DD1
:103960000E94EC1BA4CF013009F4A1CFF6CF1123A4
:1039700029F0063008F09BCF8F2DE2CF053008F0FC
:1039800096CFEDCF002359F3D93309F01CC1FFEFD7
:1039900027EE33E0F15020403040E1F700C0000056
:1039A0008D2F0E94771B83CF8C2F869586958370F1
:1039B00069F0813009F07BCF8D2F9C2F937011110E
:1039C00002C090E080E00E94A81971CF8D2F9C2F3B
:1039D0009370111102C090E080E00E94921967CFAD
:1039E0008C2F837009F041C0111161CF4D2F42958A
:1039F00046954770440F440F0D2F0F7010E030E0D4
:103A000020E0042E04C0000F111F221F331F0A9450
:103A1000D2F760E070E0CB01D4FF0FC06FE070E040
:103A200080E090E004C0660F771F881F991F4A95B9
:103A3000D2F76095709580959095C695C695C370A0
:103A4000602B712B822B932BC23049F058F4C1307C
:103A500019F00E947A212BCF0E94682128CF0E9462
:103A60008C2125CF0E94662122CF8695112311F04B
:103A70008C2F8170882309F41ACF4D2F42954695DB
:103A80004770440F440F0D2F0F7010E030E020E01E
:103A9000042E04C0000F111F221F331F0A94D2F7F7
:103AA00060E070E0CB01D4FF0FC06FE070E080E019
:103AB00090E004C0660F771F881F991F4A95D2F7C0
:103AC0006095709580959095C695C695C370602B4E
:103AD000712B822B932BC23049F058F4C13019F06E
:103AE0000E943F22E4CE0E942D22E1CE0E9451226C
:103AF000DECE0E94A221DBCECF70112329F08C2FC5
:103B00000E94C8218D2F1CCF8D2F0E94EC1B8C2F63
:103B10000E94E921CCCED23F89F160F4D03FC9F0B8
:103B2000D13F29F1112309F442C00111A8CE8C2FF5
:103B30008F7121C0D33F39F1D43FA1F7112369F12F
:103B4000CF718C2F0E94C82163E08C2F0E94C32369
:103B5000AECE112341F0053008F0A9CE8C2F8F7125
:103B60000E940C22A4CE063008F0A1CEF7CF8C2FF5
:103B70008F71112369F20E94C82199CE8C2F8F7109
:103B80001123C9F3C5CF112329F08C2F8F710E9407
:103B9000B3218DCE0E94AE218ACE81E00E94D8232F
:103BA000023008F484CE82E00E94D82380CE002325
:103BB00079F0D93341F49FEFE7EEF3E09150E04024
:103BC000F040E1F7EBCE8FE39CE90197F1F7E6CE09
:103BD0008C2F8F719DCFDF91CF911F910F91FF900F
:103BE000EF90DF90CF90BF9008950F931F93CF93E6
:103BF000DF93EC01688179818A810E9405238C0121
:103C00000E9463220E946521B801CE01DF91CF910D
:103C10001F910F910C94F31BCF93DF93EC018B81D9
:103C20009C81892B29F08881998189238F3F59F4C0
:103C3000DF91CF910895CE010E94F51DCE01DF9155
:103C4000CF910C94B306CE010E94DA068111F3CF16
:103C50000E944723882361F38A81882349F382E005
:103C6000DF91CF910C94D82390E080E00E949219CC
:103C700090E080E00E94A8190E946E230E947123A8
:103C80000C948D230E9437230C94341E0E945E23D3
:103C90000C94421EE92FE295EF70E250EE3070F482
:103CA000F0E0EA5FFC4C0C948D31803F19F020F479
:103CB000883E20F481E00895843FE1F380E0089598
:103CC000883EC0F3813FD1F7F5CF93FB882780F979
:103CD00008950E94FB220C944A1ECF93DF9300D0DC
:103CE00000D00F92CDB7DEB70F900F900F900F90CE
:103CF0000F90DF91CF910895CF93DF9300D000D044
:103D000000D0CDB7DEB726960FB6F894DEBF0FBE53
:103D1000CDBFDF91CF9108951F93CF93DF93C091D3
:103D2000090416E080910A048C1304C0DF91CF913E
:103D30001F910895D0E01C9FF0011D9FF00D1124EC
:103D4000E55FFB4F40815181628173818481958160
:103D50000E947C1E2196C770E5CF40913B04509194
:103D60003C0460913D0470913E0480913F04909129
:103D700040040C947C1E1F93CF93DF9380914004EA
:103D8000807FA9F480913D04882389F08091090403
:103D9000C0910A0460913B0470913C04A0913E04E0
:103DA000B0913F04D62FD72316E0C81304C0DF918B
:103DB000CF911F91089590E0109711F0DF3F19F413
:103DC00001968770F2CF189F9001199F300D112432
:103DD000F901E55FFB4F41814713F2CF4081461364
:103DE000EFCF42814111ECCF438154814A1B5B0BE1
:103DF000483C510528F7809140048F708061809382
:103E00004004F901E05FFB4F80818F708061808307
:103E10008BE394E00E940C1EDF91CF911F910C94D4
:103E20008C1EAF92BF92CF92DF92EF92FF920F93D0
:103E30001F93CF93DF93CDB7DEB761970FB6F8949A
:103E4000DEBF0FBECDBF8C0185E0F801DE011D96FF
:103E500001900D928A95E1F7F80140815181E2804D
:103E60008BE3C82E84E0D82E60913E0470913F040D
:103E70006115710509F461C190913B0420913C04E6
:103E8000892F82238F3F09F458C1A380B480F0901A
:103E90003D04F501E61BF70BFF2009F4FCC08091FF
:103EA0004004382F307FE83CF10508F0B2C03111F2
:103EB00079C0FE2C251323C0941321C0E1101FC02C
:103EC0008F708061809340040E94AD1EC6010E94E5
:103ED0000C1E80914004F80185838F2D61960FB6EA
:103EE000F894DEBF0FBECDBFDF91CF911F910F9130
:103EF000FF90EF90DF90CF90BF90AF900895AB28E8
:103F000029F0842F85238F3F09F033C180E0F82FFB
:103F1000F170DF2E80FF3CC08091090420910A04DB
:103F200036E0821315C04D875E878D859E850E9481
:103F3000FB22292F22952F702230F0F0243018F523
:103F40009F70F1F0F8019581907FD1F4D12C1EC0C3
:103F500090E0389FF001399FF00D1124E55FFB4F91
:103F60006181651306C06081641303C062816E11B4
:103F70000FC001968770D5CF9F7011F0882331F361
:103F8000805E883018F3C8010E940C1EFD2CA5CF5E
:103F9000EE2009F4A2CF8091400481608093400418
:103FA000F12C9BCF251306C0941304C0F801EE201A
:103FB00009F48DC04D875E878D859E850E94691EA0
:103FC000882319F1EE2009F180914004803270F0CD
:103FD00020913B0430913C0438872F831986BB869F
:103FE000AA868C87CE0107960E940C1E86E0F801F7
:103FF000ABE3B4E001900D928A95E1F70E94BB1EFD
:104000000E94AD1EFF24F39468CFC8010E940C1ECD
:10401000F9CF311113C07A2DB98AA88A6E2D8989FA
:104020000E946D1E8BE394E00E940C1E86E0F60158
:1040300011928A95E9F70E94AD1EB2CF25130FC0E9
:1040400094130DC0E1100BC0F8018583C8010E94D4
:104050000C1E86E0F60111928A95E9F73ECF4D8756
:104060005E878D859E850E94691E882371F2EE20F1
:1040700061F280914004803208F4B8CF20913B0473
:1040800030913C043A8329831B82BD82AC828E83AB
:10409000CE010196A9CFE83CF10508F041C0FE2C05
:1040A000EE2009F4B2CF25132AC0941328C08091C2
:1040B000400480FD1BC0982F907FC1F0F8018583DC
:1040C000903F31F0982F907F905F8F70892B858380
:1040D000C8010E940C1E86E0F801ABE3B4E0019039
:1040E0000D928A95E1F70E94AD1EF7CE86E0F801A9
:1040F000ABE3B4E001900D928A95E1F7EECE4D87E7
:104100005E878D859E850E94691E81116FCF80918B
:104110004004816080934004C8010E940C1EDDCEE3
:104120007A2DB98AA88A6E2D89890E946D1E86E033
:10413000F60111928A95E9F7D6CFEE2009F465CF02
:104140004D875E878D859E850E94691EF82E882387
:1041500009F45BCF86E0F801ABE3B4E001900D9287
:104160008A95E1F78BE394E00E94E81A0E94BB1E57
:10417000BACF81E08E25CBCE1F93CF93DF93CDB7FF
:10418000DEB72C970FB6F894DEBF0FBECDBF4F83BE
:10419000588769877A878B879C87CE0107960E940C
:1041A000111F882369F08A859B85892B39F04F81FF
:1041B0005885842F85238F3F09F071C016E05FC0BA
:1041C00086E0FE013796DE01119601900D928A95E8
:1041D000E1F78A859B85892B89F38F8198858923CF
:1041E0008F3F61F320910A0430E0C9010196877086
:1041F0009927409109044817190671F40E94461E38
:1042000010920A041092090486E0EBE3F4E0DF0167
:104210001D928A95E9F7D2CF96E0929FD001939FA5
:10422000B00D1124A55FBB4FFE01319601900D9298
:104230009A95E1F780930A040E948C1EBFCF819F5C
:10424000C0011124855F9B4F0E94111F8823E9F054
:10425000E09109041E9FF0011124E55FFB4F4081AE
:10426000518162817381848195810E947C1E80913D
:10427000090490E001968770992780930904809142
:10428000090490910A048913DACF2C960FB6F8949A
:10429000DEBF0FBECDBFDF91CF911F91089569851D
:1042A0007A858B859C850E947C1E88CF08950C940E
:1042B00056210E9457216093720470937304809377
:1042C0007404909375040C94341E08950C94592131
:1042D0000F931F9300917204109173042091740442
:1042E00030917504602B712B822B932B1F910F91B2
:1042F0000C9459210F931F93009172041091730431
:1043000020917404309175046023712382239323D8
:104310001F910F910C9459210F931F9300917204D8
:1043200010917304209174043091750460277127F3
:10433000822793271F910F910C9459210C94562199
:104340000C949E210E94A02160936E0470936F04D0
:1043500080937004909371040C94341E60E070E0BC
:10436000CB010C94A2210F931F9341E050E060E039
:1043700070E08A019B0104C0000F111F221F331F30
:104380008A95D2F7C901B8011F910F910C94A2210F
:104390000F931F9341E050E060E070E004C0440FD1
:1043A000551F661F771F8A95D2F780916E049091F2
:1043B0006F04A0917004B09171048A019B01082BD5
:1043C000192B2A2B3B2BC901B8011F910F910C947B
:1043D000A2210F931F9341E050E060E070E004C021
:1043E000440F551F661F771F8A95D2F7CB01BA017C
:1043F000609570958095909500916E0410916F0472
:1044000020917004309171046023712382239323DF
:104410001F910F910C94A2210F931F9341E050E044
:1044200060E070E004C0440F551F661F771F8A9537
:10443000D2F780916E0490916F04A0917004B091B6
:1044400071048A019B01082719272A273B27C901E4
:10445000B8011F910F910C94A2210F931F9300910B
:104460006E0410916F042091700430917104602BE0
:10447000712B822B932B1F910F910C94A2210F93E0
:104480001F9300916E0410916F042091700430917D
:10449000710460237123822393231F910F910C9445
:1044A000A2210F931F9300916E0410916F0420912D
:1044B00070043091710460277127822793271F9120
:1044C0000F910C94A2210895990F990F990F890FBC
:1044D000982F977041E001C0440F9A95EAF78695AE
:1044E0008695869595E0899FF0011124EF5BFB4F3F
:1044F00030E020E070E05191DF011197CB01022EF6
:1045000002C0969587950A94E2F781708195852778
:10451000842385278C932F5F3F4F2530310559F732
:104520000895990F990F990F890F982F9770869575
:104530008695869525E0829FF0011124EF5BFB4F65
:1045400050E040E080E0219130E0092E02C0369535
:1045500027950A94E2F721703327042E01C0220F19
:104560000A94EAF7822B4F5F5F4F4530510559F7A8
:104570000895BF92CF92DF92EF92FF920F931F9315
:10458000CF93DF938C01C0906E04D0906F04E090C5
:104590007004F09071048091720490917304A09162
:1045A0007404B0917504C82AD92AEA2AFB2ACFE1FB
:1045B000D0E0BC2ED701C6010C2E04C0B695A7953D
:1045C000979587950A94D2F780FD0EC0219788F7BA
:1045D000B12C8B2DDF91CF911F910F91FF90EF9018
:1045E000DF90CF90BF900895B8018C2F0E941908DA
:1045F000019761F3EECFCF93DF93EC010E94B922D4
:10460000BE01DF91CF910C9419081F93CF93DF93D4
:10461000EB0190910804992331F0CB01DF91CF9108
:104620001F910C94FB22882379F0CB010E94B922C0
:10463000182F682FCE010E946422BE01812FDF91C6
:10464000CF911F910C941908CB010E949122182F31
:10465000F4CF682F80911701909118010C94EB24EE
:10466000682F80911701909118010C94ED2480918E
:104670001701909118010C94EF2480917604859590
:104680008595859508958091760487700895909119
:104690007604977081E009F480E0089580918204A7
:1046A000089590918204892B8093820408958095C7
:1046B000909182049823909382040895109282042A
:1046C000089590918104892B8093810408958095A9
:1046D000909181049823909381040895109281040D
:1046E00008951092800408958091770408950895A4
:1046F0000C94772390917704981721F08093770496
:104700000C947823089580917704882329F01092DF
:10471000770480E00C9478230895E0911701F091DC
:104720001801809182048083E0911701F0911801B3
:10473000808190918104892B8083E0911701F09111
:104740001801808190918004892B80839091770457
:10475000992381F0E0911701F09118018081892B54
:10476000808380911701909118010E94A3248111E8
:104770000E94832380911701909118010C9487194E
:1047800008950C94C02398E0899F90011124622B16
:10479000609376040E94C821809176048595859562
:1047A00085950C94C1231092760480E00C94C1236B
:1047B000909176048095892380937604282F277022
:1047C00071F4282F082E000C330B9217130639F0C2
:1047D0008595859585950E94E9210C94D3230895AC
:1047E00080E008956FEF7FEF90E080E00C946832F6
:1047F00090E080E00E94443221E08B3E9E4F09F021
:1048000020E0822F089582E090E00C94363283E01D
:1048100090E00C943632CF9384E090E00E943632E0
:10482000C82F81E290E00E943632982F8C2FCF91D2
:104830000895CF93C92F682F84E090E00E944A32F8
:104840006C2F81E290E0CF910C944A32AB01BC0115
:104850008FE090E00C945C32AB01BC0183E190E00E
:104860000C945C3260E070E0CB010C942C2460E08E
:1048700070E0CB010E9426240C9432246BEE7EEF74
:1048800090E080E00E94683260E082E090E00E9468
:104890004A3260E083E090E00E944A321092720453
:1048A00010927304109274041092750460E084E016
:1048B00090E00E944A3260E081E290E00E944A3239
:1048C00060E085E090E00E944A3260E086E090E09F
:1048D0000E944A326FEF87E090E00E944A3240E047
:1048E00050E0BA0188E090E00E945C3260E08DE028
:1048F00090E00E944A3240E050E0BA0188E190E046
:104900000E945C3260E087E190E00E944A3240E021
:1049100050E0BA018CE190E00E945C3260E080E2FD
:1049200090E00E944A3240E050E0BA0188E190E015
:104930000E945C320C9437240C943E24682F8EE045
:1049400090E00C944A329C012E5F3F4FAC01485FCF
:104950005F4F80E02417350709F40895F90191911C
:104960009F019923B9F38F5FF5CF662349F0FC01CE
:10497000329608962191261729F0E817F907D1F702
:1049800080E0089581E008959C01FC0132969FEF3C
:1049900080E04191461751F09F3F19F4411101C049
:1049A000982F8F5F8630A9F79F3F09F40895290F4C
:1049B000311D97FD3A95F90162830895FC01329605
:1049C00008962191261303C0DF0111971C92E81766
:1049D000F907B9F708950C94C4240C94DE240296C8
:1049E00026E0FC0111922A95E9F7089508950895AB
:1049F0000C94F72480916106843059F10E94F824C8
:104A000080E00E94FC070E943A141092840488E11E
:104A100090E020E40FB6F894A895809360000FBE54
:104A20002093600083B7817F846083BF83B78160F8
:104A300083BF7894889583B78E7F83BF0FB6F89431
:104A4000A89580916000886180936000109260005A
:104A50000FBE08950895CF930E94F6240E94300A55
:104A60000E942A25C0E08C2F0E94E509811105C013
:104A7000CF5FC930C1F7CF91089581E0FCCF089591
:104A80000C943F250E94461E0E947B190E94FC0741
:104A90000E9406150C9440251F921FB61F921124E8
:104AA0008F939F93AF93BF9380918404811113C020
:104AB00080916A0590916B05A0916C05B0916D0590
:104AC0004196A11DB11D80936A0590936B05A0933B
:104AD0006C05B0936D05BF91AF919F918F911F9021
:104AE0001FBE1F90189582E084BD93E095BD9AEF9C
:104AF00097BD80936E0008952FB7F89480916A0552
:104B000090916B05A0916C05B0916D052FBF089534
:104B10002FB7F89460916A0570916B0580916C05D0
:104B200090916D052FBF08959C014FB7F894809127
:104B30006A0590916B05A0916C05B0916D054FBF12
:104B4000821B930B089578941F921FB61F92112415
:104B50008F939F93AF93BF9380916A0590916B055C
:104B6000A0916C05B0916D050196A11DB11D8093BA
:104B70006A0590936B05A0936C05B0936D05BF918A
:104B8000AF919F918F911F901FBE1F90189581E04C
:104B90008093E00080E28093D8001092C9008FE1FA
:104BA0009EE40197F1F700C0000087E090EBDC0184
:104BB00080936A0690936B06A0936C06B0936D0683
:104BC00088E19CE00FB6F894A895809360000FBE32
:104BD00090936000FFCF9093F5018093F4010895C6
:104BE0000C94F2230E94300A8FE39CE90197F1F7BD
:104BF00000C000000E94300A80E00E94E50980FFAA
:104C000004C00E94F0250C94C72508950E94F82343
:104C1000811102C00E949C240E940324809383047B
:104C20000E940B2490936F0580936E050E940724C9
:104C3000682F70E090E080E00E94662160916E0431
:104C400070916F0480917004909171040C94A02174
:104C5000881F8827881F089591E0883F08F490E016
:104C6000892F0895982F907F903BE9F040F4903978
:104C7000D1F0903AC1F09038B1F080E00895903DC5
:104C800019F020F4903CC9F782E00895903E59F065
:104C9000903F99F7815F8F3080F7E82FF0E0EC517B
:104CA000FE4F8081089583E008950F93022F0F77C0
:104CB000242F2F776F70462F406BDC01ED91FC9114
:104CC00063E070E009950F9108950F93022F0F771D
:104CD000242F2F776F70462F4069DC01ED91FC91F6
:104CE00063E070E009950F9108950F93022F0F77FD
:104CF000242F2F776F70462F4068DC01ED91FC91D7
:104D000063E070E009950F9108950F931F9341158B
:104D100020E2520744F49A01305E4115504E2CF4C3
:104D200030E020E002C02FEF3FE38901000F012FA8
:104D3000001F110B11952F776F70462F406EDC010D
:104D4000ED91FC9163E070E009951F910F9108953A
:104D5000FC01738362830895FC01758F648F08954D
:104D6000CF93DF93EC011DA21FA21EA2BC01685DC0
:104D70007F4F40EC88519F4F0E94BB281B821A82B4
:104D80001D821C821F821E82198618861B861A8627
:104D90001D861C861F861E86198A188A1B8A1A8AF7
:104DA0001D8A1C8A1F8A1E8A198E188E1B8E1A8EC7
:104DB0001D8E1C8E1F8E1E8E19A218A2DF91CF9100
:104DC0000895EF92FF920F931F93CF93DF93EA0121
:104DD0008A01060F111D88519F4F7C01C017D10712
:104DE00039F4DF91CF911F910F91FF90EF900895CB
:104DF0006991C7010E94C228F1CFFC0171836083D1
:104E00000895FC0171A360A30895AF92BF92CF9261
:104E1000DF92EF92FF920F931F93CF93DF9300D017
:104E20000F92CDB7DEB77C016B01142FB22EA02EEE
:104E3000DC0195968C9195978430A9F55A96ED9161
:104E4000FC913097E9F1CB01019763E070E00E949B
:104E50004331CB01880F991F860F971F4983BA8270
:104E60000B834C2D481B9E012F5F3F4FBC01C70198
:104E70000995D7015E96ED91FC91309731F00A2D9E
:104E80002B2D412FB601C70109950F900F900F9060
:104E9000DF91CF911F910F91FF90EF90DF90CF9016
:104EA000BF90AF9008956230710509F455C063302A
:104EB000710599F06130710509F481C0D12CC12CC4
:104EC000D7015C96ED91FC91309799F20A2D2B2D2C
:104ED000412FB601C7010995CCCF842F807F803A3E
:104EE00011F148F48038D1F0803951F7D701149688
:104EF000ED91FC910AC0803ED9F0803FF1F0803BFB
:104F0000F9F6D7011296ED91FC913097C9F2123F54
:104F1000E9F02A2D4B2D612F6F701BC0D70116961B
:104F2000ED91FC91F2CFD7011896ED91FC91EDCF68
:104F3000D7011A96ED91FC91E8CF423F09F6D701CF
:104F40001C96ED91FC91309709F4BACF2A2D4B2D88
:104F500062EFC70109958DCF842F807F803DB1F02E
:104F6000803FC9F0803C09F0ABCFD7011E96ED9190
:104F7000FC91309709F4A4CF812F8D7F4B2D612FA9
:104F80006F70813F89F0C701099573CFD7015096A3
:104F9000ED91FC91EECF433F51F4D7015296ED9144
:104FA000FC91309709F48CCF4B2D612FECCF413F12
:104FB00009F086CFD7015496ED91FC91F2CF842F62
:104FC0000E942C26882359F0D7015696ED91FC912A
:104FD000309709F475CF612FC70109954ACF163F65
:104FE00009F06ECFD7015896ED91FC91F1CFFF9269
:104FF0000F931F93CF93DF93EC01162F862F0E9400
:105000002C26882391F0FDA081E08DA300E020E014
:10501000412F61E070E0CE010E940527FDA2DF91E3
:10502000CF911F910F91FF900895812F0E94282604
:105030004DA1882309F443C0443029F01AA381E02C
:1050400090E09FA38EA3812F0E943226813051F0E1
:105050008823A9F0823089F0833079F01DA21FA245
:105060001EA2DDCF8DA300E020E0412F61E070E0C3
:10507000CE010E9405271DA2D2CF8DA3D0CF103F15
:10508000B1F0173F59F72EA13FA1C90163E070E0CD
:105090000E944331FE01E80FF91F12A3B9016F5FAF
:1050A0007F4F7FA36EA30CA12BA14AA1E1CF84E087
:1050B0008DA31AA381E090E09FA38EA3B0CF4423D9
:1050C00009F4ADCF2EA13FA1C90163E070E00E94B9
:1050D0004331FE01E80FF91F12A3B9016F5F7F4F43
:1050E0007FA36EA38130910569F0029709F097CFF5
:1050F0000CA12BA14AA1CE010E9405278DA18430CD
:10510000C9F68DCF00E0423009F089CFF2CFCF92BF
:10511000DF92EF92FF920F931F93CF93DF93EC01F7
:10512000E8A1F9A1309709F009956E0188EEC80E43
:10513000D11CC6010E94F12810E000E0E82EF12CFD
:105140000E151F0548F0DF91CF911F910F91FF9031
:10515000EF90DF90CF90089560E0C6010E9405298E
:10516000682FCE010E94F72761E0C6010E94152931
:105170000F5F1F4FE5CFFC0142837483638311826D
:10518000108208951F93CF93DF93EC01162F0E9496
:105190002C29482F298130E0C90101966A8170E0ED
:1051A0000E94573158815817190641F4842F0E94E4
:1051B0002F2980E0DF91CF911F9108958B819C81F1
:1051C000280F391FF9011083898190E001966A81C7
:1051D00070E00E9457318983842F0E942F2981E03B
:1051E000E9CFCF93DF93EC010E942C29998128818C
:1051F000921740F0C92FC21B0E942F298C2FDF91DC
:10520000CF910895CA819C0FF5CFFC018081860F54
:105210009927991F628170E00E9457312381348160
:10522000280F391FF901808108951F93CF93DF93D1
:10523000EC01162F0E942C29282F8881810F992795
:10524000991F6A8170E00E9457318883822FDF9115
:10525000CF911F910C942F298FB7F89408958FBF89
:105260000895089508950F931F93CF93DF9300D06F
:1052700000D000D00F92CDB7DEB78C01CE010196E1
:105280000E94912B81110BC027960FB6F894DEBFB8
:105290000FBECDBFDF91CF911F910F9108958A81ED
:1052A0000E9432269A819D839B819E839C819F834D
:1052B00081110AC08981843079F0873069F08630A5
:1052C00069F08530D9F681E0AE014B5F5F4F682F02
:1052D000C8010E94E126D2CF83E0F6CF82E0F4CF6E
:1052E000DF92EF92FF920F931F93CF93DF9300D043
:1052F00000D0CDB7DEB77B01142FD22E4A832B838B
:105300000C83842F0E943226811129C082E0E81686
:10531000F10401F183E0E816F10439F0EA94EF2892
:1053200069F485E0173F21F404C087E0073F09F0E6
:1053300084E08983CE0101960E948C2B0F900F9000
:105340000F900F90DF91CF911F910F91FF90EF90F1
:10535000DF90089587EFD812EBCF86E0EACF129561
:105360001F701983E7CF0E94E20A80E795E00E9450
:10537000B02660E779E280E795E00E94FD2663E3CE
:1053800079E280E795E00E94012761E379E280E716
:1053900095E00E94AC2662E379E280E795E00C9408
:1053A000A8269B01409161064430C1F4FC01918123
:1053B0009F709093E90050E040E064E070E0C90124
:1053C0000E94572C81110BC09091E80095FD07C0F9
:1053D0009091E8009E779093E800089582E0089508
:1053E00020916106243091F4FC0181818F708093BB
:1053F000E9009091F3008091F200892B49F08091AF
:10540000E8008E778093E8000C94052E82E00895E2
:1054100080E00895FC0180916106843059F4918107
:105420009F709093E9008091E80080FF03C0CF0156
:105430000C94F02908959B0140916106443011F0CD
:1054400080E00895FC0196819F709093E90080911F
:10545000E80082FFF5CF8091E80085FFF1CF50E0B2
:1054600040E064E070E0C9010E94A62C8091E80051
:1054700085FD05C08091E8008B778093E80081E08E
:10548000089580918D0408950895CF93DF9300D0FF
:105490000F92CDB7DEB790916106943019F58983EC
:1054A0007B836A8382E08093E9008FEF9091E8002C
:1054B000815095FD06C095ED9A95F1F70000811198
:1054C000F5CF8091E80085FF0DC050E040E063E03B
:1054D00070E0CE0101960E94572C8091E8008E77F3
:1054E0008093E8000F900F900F90DF91CF91089577
:1054F000BC0184E00C94452ABC0183E00C94452A4D
:10550000CF93DF93EC0181E08093E9008FEF9091DE
:10551000E800815095FD06C095ED9A95F1F70000E1
:105520008111F5CF8091E80085FF14C050E040E084
:1055300068E070E0CE010E94572C8091E8008E77E1
:105540008093E80088E0FE01A5E8B4E001900D92A8
:105550008A95E1F7DF91CF910895809160068111DE
:1055600009C00E94362E0E94932E8091E200846032
:105570008093E200089510926006089508950895BA
:10558000089542E061EC81E00E94B22D42E261ECBC
:1055900082E00E94B22D42E361E883E00E94B22DD6
:1055A00042E361E884E00C94B22D8091630683307D
:1055B00009F45FC030F48130C1F1823009F49BC03E
:1055C00008958A3009F487C08B3009F46DC08930A2
:1055D00009F04EC080916206813209F049C0809185
:1055E000660690916706029708F042C08091E80035
:1055F000877F8093E8008091E80082FF35C090911A
:10560000F3008091F200029729F48091F1008B7FE2
:10561000813021F48091F10080938D048091E80025
:105620008B778093E8000C94E62D80916206813A96
:10563000F9F48091E800877F8093E8008091660606
:1056400090916706892B61F468E085E894E070E04A
:105650000E94F52C8091E8008B778093E8000895F4
:1056600060E090E080E0F3CF809161068111C3CFCC
:10567000089580916206813AD9F7809166069091EB
:105680006706892BA9F78091E800877F8093E8005F
:105690008091E80080FFFCCF80912F018093F10082
:1056A0008091E8008E77BDCF80916206813201F74C
:1056B0008091660690916706892BD1F68091E8006B
:1056C000877F8093E8000E94E62D80916406809396
:1056D0002F010C94461E80916206813249F680911A
:1056E000E800877F8093E8000E94E62D80916506A0
:1056F00080938E04089580916206813A09F0B8CFB4
:105700008091E800877F8093E8008091E80080FF27
:10571000FCCF80918E04C2CFBC0189E191E00C9452
:10572000D129BC0189E191E00C941B2A0E94B32984
:1057300084B7877F84BF0FB6F894A89580916000E6
:10574000886180936000109260000FBE80E890E056
:105750000FB6F89480936100909361000FBE0E9491
:10576000F1190E94362E0E94932E8091E2008460EF
:105770008093E20078940E941C310E94011A85E215
:1057800091E00E947619809161068530C9F00E94EF
:105790000D1A89E191E00E940A2A0E94FF190E94D5
:1057A000001AF1CF0E94FA2480915F06882341F00D
:1057B0000E942B25882321F00E94412C0E94461E26
:1057C00080916106853071F30E944225E0CF0C94F0
:1057D000E92B292F33272330310519F168F42130C3
:1057E000310509F444C02230310509F445C090E088
:1057F00080E030E020E025C02132310549F122323D
:105800003105A9F780E490E022EF39E061157105D8
:10581000C1F082E390E020EC39E06130710589F05D
:10582000E6CF99278130910581F0009729F0029702
:10583000F1F6E7EEF8E002C0EBE0F9E0849190E0E9
:105840009F01FA01318320830895EDEFF8E0F6CF50
:1058500089E090E021E239E06115710591F389E07A
:1058600090E02AE339E06130710559F3C0CF82E15D
:1058700090E02EEA39E0E5CF8FE990E02FE039E0C3
:10588000E0CF80E189BD82E189BD09B400FEFDCF92
:105890008091D8008F7D8093D8008091E000826055
:1058A0008093E0008091E00081FDFCCF0895AF92ED
:1058B000BF92CF92DF92FF920F931F93CF93DF930C
:1058C0006C01EB018A010E94052EF82E811123C084
:1058D0000115110539F0F80180819181C81BD90BA0
:1058E000C80ED91EB12CA12C2097A9F08091E800F8
:1058F00085FD22C08091E8008E778093E800011535
:105900001105A1F0F80180819181A80EB91EB18224
:10591000A08285E0F82E8F2DDF91CF911F910F91FE
:10592000FF90DF90CF90BF90AF9008950E94052E1A
:105930008823D1F2F82EEFCFF60181916F01809389
:10594000F1002197FFEFAF1ABF0ACECFAF92BF92FF
:10595000CF92DF92FF920F931F93CF93DF936C014F
:10596000EB018A010E94052EF82E811123C001153A
:10597000110539F0F80180819181C81BD90BC80E3F
:10598000D91EB12CA12C2097A9F08091E80085FDAB
:1059900022C08091E8008B778093E8000115110503
:1059A000A1F0F80180819181A80EB91EB182A08278
:1059B00085E0F82E8F2DDF91CF911F910F91FF90F1
:1059C000DF90CF90BF90AF9008950E94052E88235E
:1059D000D1F2F82EEFCF8091F100F60181936F01A3
:1059E0002197FFEFAF1ABF0ACECFFC018091680666
:1059F0009091690686179707A0F06115710529F443
:105A00009091E8009E779093E80090E06115710511
:105A100051F4911108C08091E80082FF34C080E009
:105A20000895BC01F2CF809161068823C1F18530D1
:105A3000C1F18091E80083FD30C08091E80082FDD3
:105A4000EACF8091E80080FFE1CF8091F3002091C0
:105A5000F200382F6115710519F02830310558F022
:105A600091E02830310509F090E02091E8002E7790
:105A70002093E800CBCF81918093F10061507109B0
:105A80002F5F3F4FE7CF80916106882341F085303B
:105A900041F08091E80083FFBECF81E0089582E06D
:105AA000089583E00895FC0180916806909169064D
:105AB00086179707A0F06115710529F48091E80019
:105AC0008E778093E80090E06115710551F4911193
:105AD00008C08091E80082FF35C080E00895BC01D5
