:100000000C943E050C9485050C9485050C9485058F
:100010000C9485050C9485050C9485050C94850538
:100020000C9485050C9485050C94BD310C9491328B
:100030000C9438280C9485050C9485050C94850542
:100040000C9485050C9485050C9485050C94850508
:100050000C9485050C948F280C9485050C948505CB
:100060000C9485050C9485050C9485050C948505E8
:100070000C9485050C9485050C9485050C948505D8
:100080000C9485050C9485050C9485050C948505C8
:100090000C9485050C9485050C9485050C948505B8
:1000A0000C9485050C9485050C948505456E636F4D
:1000B00064657220332072696768740A00456E6354
:1000C0006F6465722033206C6566740A00456E6348
:1000D0006F64657220322072696768740A00456E29
:1000E000636F6465722032206C6566740A00456E29
:1000F000636F64657220312072696768740A004515
:100100006E636F6465722031206C6566740A004D01
:10011000582053776974636820382D380A004D5889
:100120002053776974636820382D370A004D5820B2
:1001300053776974636820382D360A004D58205370
:10014000776974636820382D350A004D582053773D
:100150006974636820382D340A004D58205377693C
:1001600074636820382D330A004D58205377697422
:10017000636820382D320A004D5820537769746324
:100180006820382D310A004D582053776974636810
:1001900020372D380A004D58205377697463682042
:1001A000372D370A004D582053776974636820371C
:1001B0002D360A004D582053776974636820372D17
:1001C000350A004D582053776974636820372D3401
:1001D0000A004D582053776974636820372D330A1D
:1001E000004D582053776974636820372D320A0018
:1001F0004D582053776974636820372D310A004DBC
:10020000582053776974636820362D380A004D589A
:100210002053776974636820362D370A004D5820C3
:1002200053776974636820362D360A004D58205381
:10023000776974636820362D350A004D582053774E
:100240006974636820362D340A004D58205377694D
:1002500074636820362D330A004D58205377697433
:10026000636820362D320A004D5820537769746335
:100270006820362D310A004D582053776974636821
:1002800020352D380A004D58205377697463682053
:10029000352D370A004D582053776974636820352F
:1002A0002D360A004D582053776974636820352D28
:1002B000350A004D582053776974636820352D3412
:1002C0000A004D582053776974636820352D330A2E
:1002D000004D582053776974636820352D320A0029
:1002E0004D582053776974636820352D310A004DCD
:1002F000582053776974636820342D380A004D58AC
:100300002053776974636820342D370A004D5820D4
:1003100053776974636820342D360A004D58205392
:10032000776974636820342D350A004D582053775F
:100330006974636820342D340A004D58205377695E
:1003400074636820342D330A004D58205377697444
:10035000636820342D320A004D5820537769746346
:100360006820342D310A004D582053776974636832
:1003700020332D380A004D58205377697463682064
:10038000332D370A004D5820537769746368203342
:100390002D360A004D582053776974636820332D39
:1003A000350A004D582053776974636820332D3423
:1003B0000A004D582053776974636820332D330A3F
:1003C000004D582053776974636820332D320A003A
:1003D0004D582053776974636820332D310A004DDE
:1003E000582053776974636820322D380A004D58BD
:1003F0002053776974636820322D370A004D5820E6
:1004000053776974636820322D360A004D582053A3
:10041000776974636820322D350A004D5820537770
:100420006974636820322D340A004D58205377696F
:1004300074636820322D330A004D58205377697455
:10044000636820322D320A004D5820537769746357
:100450006820322D310A004D582053776974636843
:1004600020312D380A004D58205377697463682075
:10047000312D370A004D5820537769746368203155
:100480002D360A004D582053776974636820312D4A
:10049000350A004D582053776974636820312D3434
:1004A0000A004D582053776974636820312D330A50
:1004B000004D582053776974636820312D320A004B
:1004C0004D582053776974636820312D310A0052EA
:1004D0006F7461727920456F6E6364657220340AAF
:1004E00000526F7461727920456F6E63646572208B
:1004F000320A00526F7461727920456F6E636465D1
:100500007220310A0054616374696C652053776905
:1005100074636820340A0054616374696C65205305
:10052000776974636820330A0054616374696C6589
:100530002053776974636820320A005461637469D8
:100540006C652053776974636820310A002A5D2B3B
:100550005D2C5D2D5D00002E5D2F5D305D315D32C7
:100560005D335D345D355D365D375D385D395D3AEF
:100570005D3B5D3C5D3D5D3E5D3F5D405D415D429F
:100580005D435D445D455D465D475D485D495D4A4F
:100590005D4B5D4C5D4D5D4E5D4F5D505D515D52FF
:1005A0005D535D545D555D565D575D585D595D5AAF
:1005B0005D5B5D5C5D5D5D5E5D5F5D605D615D625F
:1005C0005D635D645D655D665D675D685D695D6A0F
:1005D0005D6B5D6C5D6D5D6E5D6F5D705D000000FF
:1005E00000000000002A2B2800000000000000008E
:1005F000000000000000000029000000002C1E3454
:1006000020212224342627252E362D3738271E1F59
:10061000202122232425263333362E37381F040584
:10062000060708090A0B0C0D0E0F101112131415F2
:10063000161718191A1B1C1D2F3130232D350405D0
:10064000060708090A0B0C0D0E0F101112131415D2
:10065000161718191A1B1C1D2F3130354C000000BD
:10066000000000000000000000000000000000008A
:10067000000000000000000000000000000000007A
:10068000007E0F00D4FFFFFFC7000000781E0F059B
:1006900000047F3F1F643214643214783C1E1E1421
:1006A0000A052223252628292A2C2D2F30323335DE
:1006B00036383A3B3D3E4042434547494A4C4E500E
:1006C00051535557595A5C5E6062646668696B6D38
:1006D0006F71737577797B7D7F81838587898A8C3C
:1006E0008E90929496989A9C9E9FA1A3A5A7A8AA43
:1006F000ACAEAFB1B3B4B6B8B9BBBCBEBFC1C2C378
:10070000C5C6C7C9CACBCCCDCED0D1D2D2D3D4D511
:10071000D6D7D7D8D9D9DADADBDBDBDCDCDCDCDC3A
:10072000DDDDDDDDDCDCDCDCDCDBDBDBDADAD9D912
:10073000D8D7D7D6D5D4D3D2D2D1D0CECDCCCBCAA0
:10074000C9C7C6C5C3C2C1BFBEBCBBB9B8B6B4B3C6
:10075000B1AFAEACAAA8A7A5A3A19F9E9C9A98965C
:100760009492908E8C8A89878583817F7D7B79772F
:100770007573716F6D6B6968666462605E5C5A590F
:1007800057555351504E4C4A4947454342403E3DD0
:100790003B3A3836353332302F2D2C2A292826255E
:1007A0002322FFAA7F554000010203040506070F1C
:1007B0000E0D0C0B0A090810111213141516171F31
:1007C0001E1D1C1B1A191820212223242526272F21
:1007D0002E2D2C2B2A292830313233343536373F11
:1007E0003E3D3C3B3A393800010101010101010164
:1007F00001020202020202020202030303030303D4
:1008000003030404040404040405050505050606A1
:10081000060606070707070708080808090909095F
:100820000A0A0A0B0B0B0C0C0C0D0D0D0E0E0E0F05
:100830000F0F101011111112121313141415151695
:10084000161717181819191A1A1B1B1C1D1D1E1E06
:100850001F20202122222324242526262728292957
:100860002A2B2C2D2D2E2F30313232333435363782
:1008700038393A3B3C3D3E3F404142434445464780
:1008800048494A4C4D4E4F50515354555658595A59
:100890005B5D5E5F616264656668696B6C6D6F70FD
:1008A00072737577787A7B7D7E8082838587888A6C
:1008B0008C8E8F91939596989A9C9EA0A2A3A5A7A3
:1008C000A9ABADAFB1B3B5B7BABCBEC0C2C4C6C99F
:1008D000CBCDCFD1D4D6D8DBDDDFE2E4E7E9EBEE58
:1008E000F0F3F5F8FAFDFF140346006500750069A2
:1008F000006C006C0065003600340000000C0379C9
:100900000079006E006D0074000000040309040902
:10091000029F00040100A0FA090400000103010184
:100920000009211101000122400007058103080090
:100930000A0904010001030000000921110100015E
:10094000227B000705820320000A080B0202010136
:100950000000090402000001010000092401000157
:100960000900010309040300020103000007240138
:1009700000014100062402010100062402020200D7
:1009800009240301030102010009240302040101F7
:1009900001000905040240000500000525010101D0
:1009A000090583024000050000052501010312012D
:1009B000100100000008D804D8E80100010200017D
:1009C00005010902A10185020901A100050919011A
:1009D00029081500250195087501810205010930D6
:1009E00009311581257F9502750881060938158121
:1009F000257F950175088106050C0A3802158125A9
:100A00007F950175088106C0C005010980A1018597
:100A10000319012AB700150126B700950175108149
:100A200000C0050C0901A101850419012AA00215C5
:100A30000126A002950175108100C005010906A1DB
:100A400001050719E029E7150025019508750181C1
:100A5000029501750881010507190029FF15002677
:100A6000FF009506750881000508190129059505FF
:100A700075019102950175039101C00011241FBEFB
:100A8000CFEFDAE0DEBFCDBF04B603FE27C0809112
:100A90007F0690918006A0918106B09182068730F2
:100AA000904BA740B04BD1F410927F061092800675
:100AB000109281061092820614BE84B7877F84BF8D
:100AC0000FB6F894A89580916000886180936000CB
:100AD000109260000FBEE0E0F8E3099511E0A0E09D
:100AE000B1E0E4E5FCE602C005900D92AC3FB10731
:100AF000D9F726E0ACEFB1E001C01D92AF37B207E5
:100B0000E1F70E94A22E0C94A9350C940000FC0180
:100B1000DB0112968C91882309F4E2C0EA52FD456C
:100B2000E734F10508F0DDC0E555FA4C0C94993432
:100B30008BE395E00E94170880E0089589E295E034
:100B4000F9CF87E195E0F6CF85E095E0F3CF83EF2D
:100B500094E0F0CF81EE94E0EDCF8FEC94E0EACF1B
:100B600080EC94E0E7CF81EB94E0E4CF82EA94E07C
:100B7000E1CF83E994E0DECF84E894E0DBCF85E742
:100B800094E0D8CF86E694E0D5CF87E594E0D2CF45
:100B900088E494E0CFCF89E394E0CCCF8AE294E07C
:100BA000C9CF8BE194E0C6CF8CE094E0C3CF8DEF4A
:100BB00093E0C0CF8EEE93E0BDCF8FED93E0BACF40
:100BC00080ED93E0B7CF81EC93E0B4CF82EB93E07C
:100BD000B1CF83EA93E0AECF84E993E0ABCF85E871
:100BE00093E0A8CF86E793E0A5CF87E693E0A2CF76
:100BF00088E593E09FCF89E493E09CCF8AE393E07C
:100C000099CF8BE293E096CF8CE193E093CF8DE088
:100C100093E090CF8EEF92E08DCF8FEE92E08ACF6F
:100C200080EE92E087CF81ED92E084CF82EC92E07B
:100C300081CF83EB92E07ECF84EA92E07BCF85E99F
:100C400092E078CF86E892E075CF87E792E072CFA6
:100C500088E692E06FCF89E592E06CCF8AE492E07B
:100C600069CF8BE392E066CF8CE292E063CF8DE1B7
:100C700092E060CF8EE092E05DCF8FEF91E05ACFAF
:100C800080EF91E057CF81EE91E054CF82ED91E07B
:100C900051CF83EC91E04ECF84EB91E04BCF85EACE
:100CA00091E048CF86E991E045CF87E891E042CFD7
:100CB00088E791E03FCF89E691E03CCF8AE591E07B
:100CC00039CF8BE491E036CF8CE391E033CF8DE2E6
:100CD00091E030CF8EE191E02DCF8FE091E02ACFEF
:100CE00081E0089581110AC08FEF90E0611102C088
:100CF0008EEE90E00E94170881E00895813039F46B
:100D00008EED90E06111F6CF8DEC90E0F3CF823064
:100D100099F78DEB90E06111EDCF8CEA90E0EACF8E
:100D20000E94771783E20C94741781E008950C9465
:100D3000870508950C9499061F93CF93DF9300D0F5
:100D400000D00F92CDB7DEB749835A836B833091C1
:100D50001D0489819A8131111DC06623B9F02223B7
:100D6000A9F00E94A525182F682F89819A810E94D9
:100D7000502569817A81812F0F900F900F900F90ED
:100D80000F90DF91CF911F910C9429080E947D252F
:100D9000182FEFCF0E94A52569817A81EDCFFC0144
:100DA000262F408151816281738184810C949C063D
:100DB000CF93DF93EC0160E00E94CF06BE01DF918C
:100DC000CF910C949A060E94DE280E94E42681119D
:100DD00002C00E9488270C94130A0C94160A0895E6
:100DE0000E9432210E94EF062FEF84E39CE0215005
:100DF00080409040E1F700C000000C94B3280F93AE
:100E00001F93CF93DF93EC0161E00E94CF068C012A
:100E1000BE010E949706882389F1BE01C8010E9485
:100E2000450B882359F1BE01C8010E94951A8823F9
:100E300029F1BE01C8010E94E71A8823F9F0BE011A
:100E4000C8010E940A1C8823C9F0BE01C8010E9483
:100E50008B18882399F08A81882339F001158CE555
:100E6000180751F00F3D1C4579F0CE01DF91CF916D
:100E70001F910F910C9495060E94F00680E0DF917F
:100E8000CF911F910F9108950E948827F7CFDF928D
:100E9000EF92FF920F931F93CF93DF93E82FF0E031
:100EA000E352FA4FD490282F26952695269530E0C8
:100EB000F901E358F94F0491877010E0082E02C041
:100EC000159507950A94E2F701701127F901E35986
:100ED000F94FE490F12C082E02C0F594E7940A949F
:100EE000E2F791E0E922FF24F901E35AF94FC491B6
:100EF000D0E002C0D595C7958A95E2F7C170DD278D
:100F00000115110519F081EE0E94BB1DE114F104D9
:100F100019F086EE0E94BB1D8D2D0E94BA1EEF288F
:100F200019F086EE0E944D1E012B19F081EE0E94F1
:100F30004D1ECD2B51F08CE2DF91CF911F910F917F
:100F4000FF90EF90DF900C94BA1EDF91CF911F912C
:100F50000F91FF90EF90DF900895EF92FF920F9323
:100F60001F93CF93DF938C01F62E8AE0E82EF801D1
:100F70008491882309F454C0813009F04DC0E80100
:100F80002196FE018491813091F42196FE01849195
:100F90000E94BA1E8E010F5F1F4F8F2D815038F3B4
:100FA000EFE9FFE03197F1F700C00000F7CF8230A2
:100FB00039F4E8012296FE0184910E94BB1DEACF1C
:100FC000833039F4E8012296FE0184910E944D1E7F
:100FD000E1CF8430F9F6E8012296FE01249190E0F9
:100FE00080E0FE0131962053330B2A30310548F062
:100FF000019780F2EFE9FFE03197F1F700C00000C0
:10100000F7CFE89EA001E99E500D1124C901840F7D
:10101000951F2491EF01E5CF0E944707E801BACF61
:10102000DF91CF911F910F91FF90EF90089560E0B5
:101030000C94AD0708950C941A0881E008950C945F
:101040001D08CF93C82F0E941B088C2FCF910C94A2
:101050001F08E72FF0E099E0899FE00DF11D1124B2
:1010600083E0EE0FFF1F8A95E1F7E60FF11DEE0F0B
:10107000FF1FE35BFA4F859194910895CF93DF931F
:101080000E9429080E943809EC01811521E5920788
:1010900008F042C0811530E5930708F09DC0883EF6
:1010A000910530F5803E910508F092C0883A91058F
:1010B00088F4853A910508F084C08130910509F4DF
:1010C00087C0009709F484C0049708F081C0D0E07D
:1010D000C0E07EC08F3B9105D0F7C85AD0E0CC0F5E
:1010E000DD1FC85CDE4F0990D881C02DD46470C06C
:1010F0008115904250F4C11581E0D80708F068C00E
:10110000CD3ED10520F3D06563C0C11590E4D90769
:10111000F0F2DF70D06A5CC0811525E5920700F51A
:10112000811534E5930708F08BC0811543E59407DA
:1011300008F073C0C11582E5D80708F469C0CE0174
:101140008370992721E030E002C0220F331F8A9577
:10115000E2F7C695C69580E2C89FE001112454C00D
:10116000C11599E5D907A8F4C11528E5D20708F0FB
:101170006CC0C11536E5D30708F0A9CF8C2F0E94AB
:10118000CF09C82FD0E0DC2FCC27CC27DF71D0626D
:101190001FC0C1154AE5D40708F45CC0CE019056C3
:1011A0008115904208F093CF8D2F8F710E94CF0947
:1011B00090E0982F882788279F719C012C2BE901AC
:1011C000E6CFC55AD0E0CA59DE4FC881D0E0D0641E
:1011D000CE01DF91CF910895E4E096958795EA9549
:1011E000E1F783702C2F26952695237040E2249FEB
:1011F00090011124382B8C2F8370C1E0D0E002C005
:10120000CC0FDD1F8A95E2F7C22BD32BDC68E0CF31
:10121000DC2FCC27C16FD06ADBCF8370992721E008
:1012200030E002C0220F331F8A95E2F7C695C695BB
:1012300090E2C99FE0011124C22BD32BDA68C8CFFA
:10124000D82FCC27C46FD06AC3CFDC2FCC27C06F78
:10125000D06ABECF8C2F8F700E94CF0934E0D69514
:10126000C7953A95E1F7CF709C2FEC01D069B0CFCC
:1012700082389105B1F1B0F48133910509F475C05C
:1012800048F48932910509F469C08A32910509F45C
:1012900073C008958533910509F459C089339105C8
:1012A00001F10895833E9105A9F138F4803E91053E
:1012B000F9F0823E910549F10895863E9105A9F124
:1012C000873E9105C9F1843E910519F52091840569
:1012D00021FF1FC08091830584FD14C087EE90E03C
:1012E0000895209183052370A1F080EE90E0089589
:1012F0002091830520FD47C03091840530FF09C04F
:1013000024FF44C090E080E004C02091830522FDCA
:10131000F7CF08952091830522FD3BC030918405CD
:1013200030FDE3CF24FFF5CFEDCF2091830523FFE0
:10133000F0CF24FDE7CFD2CF2091830523FD2CC031
:101340003091840531FFEECF84EE90E00895209136
:10135000830525FFDECF89E290E008952091830583
:1013600025FFD7CF85E390E008952091830526FFE0
:10137000D0CF8AE290E008952091830526FFC9CF5F
:1013800081E390E0089589E390E0089583EE90E092
:10139000089582EE90E0089586EE90E00895909191
:1013A000830592FF06C0282F28712830F9F4877F23
:1013B000846093FF06C0282F28712831F1F4877EBE
:1013C00084612091840520FF06C0382F38713830A1
:1013D000D9F4877F816021FF06C0282F287128312A
:1013E000D1F4877E816194FD877E0895282F247132
:1013F0002430F9F68B7F8860DCCF282F24712431CC
:1014000001F78B7E8861DDCF382F3171313019F7CC
:101410008E7F8860E0CF282F2171213121F78E7EC9
:101420008861E1CF08950C94120A08950C94150A6E
:10143000E82FF0E0E355FB4F80810895089580EA9E
:101440008A95F1F7089500C008950C941F0AF89446
:10145000E82FE295EF70F0E031A1282F2F7081E0A6
:1014600090E001C0880F2A95EAF7982F9095932372
:1014700091A392A1892B82A378940895CF93DF93AF
:10148000C1E7D1E089910E94270A81E0CA37D807D5
:10149000C9F7C9E6D1E089910E94270A81E0C137E6
:1014A000D807C9F7E4EAF4E0ADEAB4E011921D927E
:1014B00084E0ED3AF807D1F789E00E94DE0ADF9177
:1014C000CF910C94E306BF92CF92DF92EF92FF92FE
:1014D0000F931F93CF93DF9301E711E0C4EAD4E0A9
:1014E000C12CD12CEE24E394F12CF80181918F01D1
:1014F000F894E82FE295EF70F0E021A18F70A7013A
:1015000002C0440F551F8A95E2F7CA01922F982B0B
:1015100091A392A18095892382A378940E94230AA3
:10152000E9E6F1E030E020E0B12C4191A42FA29552
:10153000AF70B0E090968C9190E04F7002C095959E
:1015400087954A95E2F780FD35C08E2D022E01C0A9
:10155000880F0A94EAF7B82A2F5F3F4F28303105E9
:1015600021F7F801319780810E94270A58E0C512BF
:101570000E94250A8881B816F9F0B88281E0D82A3D
:10158000C394219689E0C812B0CF2D2D49E06DEAB1
:1015900074E084EA94E00E94DF0A0E94ED068D2D3B
:1015A000DF91CF911F910F91FF90EF90DF90CF903F
:1015B000BF90089580E0CFCF80E0E1CF0895FF9203
:1015C0000F931F93CF93DF93F82E092F162FD72F4A
:1015D000C42F222349F081E0809300020E946828F2
:1015E0009093FF018093FE01809100028823A1F077
:1015F0008091FE019091FF010E948028069760F083
:10160000EF2DF02FA12FBD2FCE0FDF2FD11DEC1707
:10161000FD0741F410920002DF91CF911F910F91CD
:10162000FF90089581918D93F2CF84E08093B6046A
:101630008FE78093B7048091B804807880648093AA
:10164000B804E5E0F2E08FEF8193DF01A95BBF4FC3
:101650001C9292E0ED34F907B9F71092040210924F
:101660000302109202021092010208959091B604B2
:10167000292F2F7095959595959595959F523CE0BE
:10168000239F900D1124890F0895EF92FF921F93CD
:10169000CF93DF93FB018F3A2CE5920708F085C0CA
:1016A0008F394CE5940708F099C180395CE59507BE
:1016B00050F583382CE5920708F04CC181384CE591
:1016C000940760F487375CE5950708F02BC18F32EB
:1016D0002CE5920708F0DFC0D1E01DC181384CE550
:1016E000940709F42CC182389C45B1F78281882384
:1016F00009F4FBC08091B604982F9F70993008F0D0
:10170000F4C09F5F25C18D392CE59207A0F5823981
:101710004CE5940708F03BC180395CE5950709F476
:1017200024C181399C45C1F68281882309F4DDC03A
:101730002091B604822F859585958595859586306F
:101740000CF0D3C091E0980F9295907F9595959568
:1017500095959595392F3295307F2F70232B2093B7
:10176000B60418160CF0C1C097FFBFC08295807FE9
:10177000922F9F70E0C08D394CE5940709F415C194
:101780008E399C4509F0A8CF8281882309F4ADC029
:101790008091B704982F9F779F3709F4A6C093379D
:1017A00008F01AC1935F9F77FEC0853B2CE5920736
:1017B00009F472C1C8F5813B5CE5950709F43EC1A7
:1017C000D8F48F3A4CE5940709F41AC1803B9C4544
:1017D00009F082CF8281882309F487C02091B70461
:1017E000322F331F3327331F9091B804892F87700E
:1017F000880F832B8F5F15C16091B7043091B804B7
:101800002281833BECE59E0709F43AC108F42CC120
:1018100021112FE7862F881F8827881F632F677065
:10182000660F682B42E41BC1883B2CE5920709F444
:1018300046C180F4863B5CE5950709F42DC1873BE2
:101840009C4509F049CF8281811137C18FEF809388
:1018500003024BC08A3B4CE5940709F466C108F4C7
:101860004FC18B3B9C4509F037CFD2816091B704C3
:10187000862F881F8827881F6091B8046770660FBD
:10188000682BDD2309F461C14FEF5FE185E895E046
:101890000E9471292AC01091B704212F221F2227EC
:1018A000221FC091B804C770CC0FC22B1F77D28102
:1018B00021ED280F30E0A9014B5F5D4F7A01DD2358
:1018C000C1F00E94360BD82F212F482F6C2F85E8AE
:1018D00095E00E945129F701E85BFF4F80818F5FFF
:1018E0008083F70180818F3F11F0D0E014C0D08356
:1018F000FCCFFA014081E85BFF4F808181508083FB
:101900008111F3CF212F6C2F85E895E00E9461298A
:101910008FEFF70180838D2FDF91CF911F91FF9083
:10192000EF9008952281222301F38757982F9F700B
:101930008091B604807F892B8093B604D6CF8281B4
:10194000882399F28091B604982F9F7071F2915F6D
:101950009F70F0CF2281222341F28958982F9295CF
:10196000907F8091B6048F70E6CF8281882309F43E
:10197000BCCF8091B604982F9595959595959595A2
:101980009B3F0CF4B2CF915F9295907FECCF228178
:10199000222309F4AACF82599CE0899F902D11241B
:1019A0009F778091B704807815C08281882309F4DD
:1019B0009CCF8091B704982F9F7709F496CF8078B9
:1019C0009F3721F485678093B7048FCF9D30D8F37C
:1019D0009D509F77892BF7CF8F67F5CF22812223E8
:1019E00009F483CF8F599091B70480FB97F99093B6
:1019F000B704869587709091B804987F892B7DC035
:101A00008281882309F471CF2091B704322F331FCC
:101A10003327331F9091B804892F8770880F832B49
:101A2000815F382F3F7080FB27F92093B704832F05
:101A30008695987F982B9093B80457CF82818823FE
:101A400009F453CF6091B704862F881F8827881F19
:101A50006091B8046770660F682B20E04BE785E85B
:101A600095E00E94412941CF21112FE7862F881F41
:101A70008827881F632F6770660F682B40E4EFCFBD
:101A800021112FE7862F881F8827881F632F6770F3
:101A9000660F682B41E4E3CF828120E081112FE7BC
:101AA0006091B704862F881F8827881F6091B8042B
:101AB0006770660F682B43E4D2CF81E0C8CE828185
:101AC000882309F412CF9091B804292F26952695E2
:101AD00026952F7081E0820F8F70880F880F880FF6
:101AE0009778892B8093B804982F987709F0FDCECA
:101AF000220F220F220F8778822B8093B804F5CE15
:101B00008281882309F4F1CE8091B804982F9877C8
:101B100009F4EBCE982F969596959695915F9F70C8
:101B2000990F990F990F877869CFD2816091B70487
:101B3000862F881F8827881F6091B8046770660FFA
:101B4000682B40E050EED111A1CE50E040E085E896
:101B500095E00E947129DFCE85E895E00E94732B05
:101B600080910102909102020E9480282091B80485
:101B70002695269526952F702817190609F0A0F5A9
:101B80000E946828909302028093010280910302D0
:101B9000882351F16091B704862F881F8827881FFA
:101BA0006091B8046770660F682B2091040241E0D1
:101BB00085E895E00E9441298091030290910402FA
:101BC00087FF0DC0482F552741950CF45095941769
:101BD00015062CF410920402109203020895890F46
:101BE00087FD03C08093040208958FE7FBCF8091A7
:101BF0009B0280FF12C06091090185E0689FB001DF
:101C00001124759567957595679560387105A8F5E8
:101C100061157105A1F1862F089581FF09C06091BA
:101C2000090185E0689FB001112475956795EDCF96
:101C30006091090182FD0AC080919A028823D1F047
:101C40009091080160910901891728F085E0689F4B
:101C5000B0011124DACF869FB001112485E0869F60
:101C60009001879F300D1124692F70E0C9010E94F7
:101C70006334CBCF65E070E0CECF8FE7089581E08D
:101C8000089580919B0280FF0CC06091050170E077
:101C900075956795759567956115710549F1862F5D
:101CA000089581FF06C06091050170E07595679504
:101CB000F3CF6091050182FD0BC0909199029923A9
:101CC000A1F06091040180910501961738F0682F0A
:101CD00070E06038710500F38FE70895899FC001B7
:101CE000112470E00E946334F4CF61E070E0D7CF3C
:101CF00081E008958D3E31F40E94F70D8195809327
:101D00009F0208958E3E19F40E94F70DF8CF8F3E82
:101D100031F40E94F70D819580939E020895803FD3
:101D200019F40E94F70DF8CF893F29F40E94410E63
:101D30008093A00208958A3F21F40E94410E81956C
:101D4000F7CF8B3F31F40E94410E81958093A10221
:101D500008958C3F19F40E94410EF8CF9FE0980F30
:101D6000983070F4815F990B21E030E001C0220FC0
:101D70008A95EAF780919D02822B80939D020895B7
:101D80008D3F31F480919B02816080939B02089586
:101D90008E3F21F480919B028260F7CF8F3FB9F78D
:101DA00080919B028460F1CF40919E028D3E59F458
:101DB00080919F0287FF0DC010929F0241110BC0BE
:101DC00010929A0208C08E3E81F480919F021816EC
:101DD0009CF3442381F08091A0029091A102892B71
:101DE00009F05AC01092990208958F3E49F447FFB6
:101DF000F0CF10929E0280919F028111ECCFE0CF34
:101E0000803F19F41416ACF3E4CF9091A002893FFF
:101E100029F41916F4F61092A002DBCF8A3F19F4C8
:101E200097FFD7CFF8CF9091A1028B3F29F497FF6E
:101E3000D0CF1092A102CDCF8C3F19F41916CCF35C
:101E4000C8CF9FE0980F983090F4815F990B21E004
:101E500030E0B90102C0660F771F8A95E2F7CB0127
:101E6000809590919D02892380939D02B2CF8D3FF2
:101E700031F480919B028E7F80939B02AACF8E3F8C
:101E800021F480919B028D7FF7CF8F3F09F0A1CF86
:101E900080919B028B7FF0CF08950E9468289C015F
:101EA00090919E0280919F02982B21F0309398028E
:101EB000209397029091A0028091A102982B21F08B
:101EC00030939602209395028CE992E00C94501C7A
:101ED000EF92FF920F931F93CF93DF9300D000D028
:101EE00000D0CDB7DEB786E0ECE9F2E0DE01119676
:101EF00001900D928A95E1F7E0909E02F0909F028A
:101F00000091A0021091A10210929E0210929F02D5
:101F10001092A0021092A1028E2D8F2991F0809133
:101F20009702909198020E948028AC0190919A02A9
:101F3000992309F43FC080910A018417150608F41B
:101F400047C0802F812B91F080919502909196024D
:101F50000E948028AC0190919902992309F477C0DE
:101F6000809106018417150608F47FC080919E02B7
:101F700090919F02892B9091A002892B9091A102B0
:101F8000892B11F00E944D0F86E0FE013196ACE9DD
:101F9000B2E001900D928A95E1F726960FB6F8947B
:101FA000DEBF0FBECDBFDF91CF911F910F91FF908C
:101FB000EF90089520910B018AE0289F9001112451
:101FC0002417350708F0BDCF9F5F90939A0202C097
:101FD0009F3FD1F7EE2059F00E94F70D9FEF1E149E
:101FE0000CF491E0899F802D112480939E02FF20A4
:101FF00059F00E94F70D9FEF1F140CF491E0899F98
:10200000802D112480939F0230919E02332309F486
:1020100098CF20919F02222309F493CF45EB3403FC
:10202000C0011124992359F090939E0245EB24039B
:1020300090011124332339F030939F0282CF81E045
:1020400080939E02F3CF81E080939F027ACF20910C
:1020500007018AE0289F900111242417350708F012
:1020600085CF9F5F9093990202C09F3FD1F70023D5
:1020700059F00E94410E9FEF10160CF491E0899FD9
:10208000802D11248093A002112359F00E94410E4B
:102090009FEF11160CF491E0899F802D11248093FD
:1020A000A1023091A002332309F460CF2091A10254
:1020B000222309F45BCF45EB3403C001112499239B
:1020C00059F09093A00245EB24039001112433238F
:1020D00039F03093A1024ACF81E08093A002F3CF80
:1020E00081E08093A10242CF86E0ECE9F2E0DF01DB
:1020F0001D928A95E9F710929A0210929902109215
:102100009B020895EF92FF920F931F93CF93DF935B
:10211000EB01E82FD11110C0442321F0F0E0E95188
:10212000F84FE4916E2F7E2F8E2FDF91CF911F916C
:102130000F91FF90EF9008950D2F10E0282F30E0C1
:10214000442329F02951384FF901249130E0F6E079
:10215000CF9FC0011124EFEFF0E0BF010E944F3488
:10216000AB018C2F90E0880F991FA5E5A49FB001CB
:10217000A59F700D1124861B970B982F990F980F10
:10218000BF01601B710B629FD001639FB00D729FF6
:10219000B00D11248B2F9D9FB0011124672F77273D
:1021A000EF01C61BD70BBE01629FE001639FD00DFC
:1021B000729FD00D11247F01E91AF108E09EB00151
:1021C000E19E700DF09E700D1124672F7727E61B9E
:1021D000F70BE29F8001E39F100DF29F100D112479
:1021E000E12F722F4230510599F048F44115510505
:1021F00069F04130510581F0EB2F8D2F07C044303D
:10220000510569F080F046305105B1F76E2F8DCF42
:10221000E22F7B2F812FFACFE22F7D2FF7CFEB2FED
:10222000822F712FF3CF7B2F822FED2FEFCF41E045
:102230000C94821008950C941711CF93DF93762F8E
:10224000E901682F842F0E941B11798368838A8398
:10225000DF91CF910895493708F048E70C941D119C
:102260008091BA04982F9E7F61F481708260809380
:10227000BA048091BD04893718F088E78093BD04C3
:1022800008958635B0F381708465F1CF88E090E0E1
:102290000C944A35CF92DF92EF92FF926B017C0152
:1022A0000E943011B701A60188E090E0FF90EF9006
:1022B000DF90CF900C946835EAEBF4E083E0808304
:1022C00011828FEF828388E783831482608171811A
:1022D000828193810C944A118091BA0480FF02C0DC
:1022E0008695089580E008959091BE04933018F487
:1022F0009F5F9093BE04882351F06091BA0470915F
:10230000BB048091BC049091BD040C944A110895C3
:1023100081E00C9474119091BE04992319F09150AE
:102320009093BE04882351F06091BA047091BB046D
:102330008091BC049091BD040C944A11089581E0F1
:102340000C948B1121E030E002C0220F331F8A95DC
:10235000E2F78091F2039091F3032823392381E07F
:10236000232B09F480E0089570E00C94FB186F9221
:102370007F928F929F92AF92BF92CF92DF92EF9215
:10238000FF920F931F93CF93DF93CDB7DEB7C05C5F
:10239000D1090FB6F894DEBF0FBECDBF709010010B
:1023A0009091BA0490FF47C0C090E503D090E60337
:1023B000C114D10409F052C0E7EAF7E09E012F5F93
:1023C0003F4FBE016F537F4FC901A4914A2F50E088
:1023D000DA01AA0FBB1FA40FB51FA154BB4FCD90AC
:1023E000DD90EC90D901CD92DD92ED929D01319678
:1023F0006A177B0751F720910F01672DB3E02B9FE0
:10240000800D911D11240E94B411C054DF4F0FB6EE
:10241000F894DEBF0FBECDBFDF91CF911F910F911A
:10242000FF90EF90DF90CF90BF90AF909F908F90F4
:102430007F906F900895809111012091120133E0F7
:10244000839FF0011124E154FB4F821708F0ACCFB9
:102450001182108212828F5F3396F7CF90FFACCF3C
:10246000F12CE12C43E0642E8E2D0E94A2118823D2
:1024700009F43CC0F701EE0FFF1FEC0DFD1DA59008
:10248000B490A114B10409F497CF45E050E0B50130
:10249000CE0101960E942C3509810F3F39F18A81C6
:1024A000800F9927991F8134910514F080E490E002
:1024B0004C01880C991C880D991DDC01A154BB4F5F
:1024C0004D01069D8001112401541B4F081519056B
:1024D00020F0B5E0AB0EB11CD8CF98014D816C81D6
:1024E0008B810E942B110D5F1F4FF0CF2FEFE21A4F
:1024F000F20A39E0E316F10409F0B6CF5DCF90910E
:10250000BA0490FF14C0909111012091120133E0A0
:10251000939FF0011124E154FB4F921710F00C949B
:10252000B7118183608342839F5F3396F6CF08950E
:10253000CF93DF9300D00F92CDB7DEB79091BA045E
:1025400090FF0AC09E012F5F3F4F0E942B114B81CD
:1025500069818A810E947F120F900F900F90DF9106
:10256000CF910895CF93DF93EC01EC81F0E0EE552D
:10257000F94F4491EAEBF4E0628181810E94981264
:102580008C818F5F8C83DF91CF910895CF93DF9300
:10259000EC01EAEBF4E0438162818C810E949812A5
:1025A0008C818F5F8C83DF91CF9108950F931F9360
:1025B000CF93DF9300D00F92CDB7DEB78C0180911F
:1025C000A20281110AC09E012F5F3F4F48E76FEFC3
:1025D0000E942B118A818093A202F80164816130EC
:1025E00069F08091A20240E0662361F040E0623031
:1025F00011F44091A20280E060E004C06091A20268
:1026000040E080E00E947F12F801848190E0019612
:1026100063E070E00E94633484830F900F900F900A
:10262000DF91CF911F910F910895AF92BF92CF92FA
:10263000DF92EF92FF920F931F93CF93DF9300D01F
:102640000F92CDB7DEB7182FF62E042FE22E909101
:10265000BA0490FF29C0E92FE695AE2FB0E0A65846
:10266000BE4F8C918093F0039E7F923059F59E016E
:102670002F5F3F4F812F0E942B114B8169818A81EF
:102680000E947F121093BB04F092BC040093BD041F
:10269000EE2051F06091BA047091BB048091BC04AB
:1026A0009091BD040E944A110F900F900F90DF91FE
:1026B000CF911F910F91FF90EF90DF90CF90BF903F
:1026C000AF900895823019F40091BD04DBCF8630BD
:1026D00019F41091BB04D6CF8930D9F3893191F622
:1026E000E9518E2F8170D82EE695F0E0EE55F84F27
:1026F000A590B490C12CBB2460911301C61618F0AC
:102700000E94B711BFCF2C2D30E0A29EC001A39E26
:10271000900DB29E900D112470E00E944F34812FD5
:10272000D11013C0860F40911101420F532F511D3C
:102730009A01220F331F240F351F21543B4F402F86
:102740006F2D0E942B11C394D7CF861BECCFEAEBE1
:10275000F4E09181282F4381628188E0890F0C94F5
:10276000151381E00C94A713EAEBF4E09181282F74
:102770004381628188EF890F0C94151381E00C94DA
:10278000B413EAEBF4E0628128E0620F08F46FEF23
:10279000282F438181810C94151381E00C94C1137F
:1027A000EAEBF4E0628128E0621B08F460E0282F85
:1027B000438181810C94151381E00C94D013EAEBD2
:1027C000F4E0438128E0420F08F44FEF282F6281A4
:1027D00081810C94151381E00C94DF13EAEBF4E093
:1027E000438128E0421B08F440E0282F6281818168
:1027F0000C94151381E00C94EE1320E00C94151347
:10280000EF92FF921F93CF93DF93EC0110E0EE2441
:10281000EA94F12C60911301161770F00E94B71121
:102820009A818C8190FF27C08F5F8C83DF91CF913D
:102830001F91FF90EF90089520911101422F410FB9
:102840005527551FCA019A01220F331F280F391F20
:1028500021543B4F70E0C7010E946334962F8C8156
:102860004091BD046091BC04199F800D11240E9409
:102870002B111F5FCFCF8150D8CFBF92CF92DF9265
:10288000EF92FF920F931F93CF93DF93FC0182810E
:102890000FEF80FF01E010E0809113011817C0F0E6
:1028A0000E94B7118091A402013009F051C081113A
:1028B00002C08091130181508093A402DF91CF91D7
:1028C0001F910F91FF90EF90DF90CF90BF900895F0
:1028D000C0911101C12ED12CCC0DDD2DD11DCE0109
:1028E000880F991FC80FD91FC154DB4F1982188256
:1028F0001A8234E0E32EF12CB12C8091A4028B0DCE
:10290000813404F18F73082E000C990BC816D90678
:1029100091F48091BD048E9DA0018F9D500D1124D6
:1029200055954795559547959E016091BC048091BA
:10293000BB040E942B11B00EF1E0EF1AF108E9F68A
:102940001F5FAACF87FFDFCF90911301890FDBCFE5
:1029500090E001966091130170E00E946334ACCF67
:102960000F931F93CF93DF938091110190911201E8
:1029700023E0829FF0011124E154FB4F891740F1BD
:10298000C0E0D3E060911301C61740F10E94B71177
:1029900020910D018091A302820F8093A302909158
:1029A0000E01920F90930E01191654F4082E000C8C
:1029B000990B409113014150550B841795071CF05A
:1029C000219520930D01DF91CF911F910F910895D3
:1029D0001182108212828F5F3396D0CF0C2F10E0BD
:1029E00070E0C8010E94633420911101820F482FCA
:1029F00050E02091A302022E000C330B02171307A4
:102A0000BCF020910E01022E000C330B2017310771
:102A10007CF08D9F9001112421543B4F4091BD04C7
:102A20006091BC048091BB040E942B11CF5FAACFA0
:102A3000FA01EE0FFF1FE40FF51FE154FB4F118267
:102A400010821282F3CF8F929F92AF92BF92CF9259
:102A5000DF92EF92FF920F931F93CF93DF93EC01DE
:102A60004C81042F10E09801D8010E94A7349B01EB
:102A7000AC010E94BD344B015C01E0E2F0E0E01BE0
:102A8000F10BA5E5B0E0AC019B010E94BD346B01E8
:102A90007C019F01DF010E949F349B01AC010E94D9
:102AA000C8349B01AC01280D391D4A1D5B1DC701AF
:102AB000B6010E947734F22E822F90E039E23F1562
:102AC00060F143E0249F9001112435952795122F42
:102AD000109500E085E5E82EEF18809113010817A6
:102AE00058F10E94B7119C8181E0992319F090322E
:102AF00019F48FEF80930C0180910C01890F8C8366
:102B0000DF91CF911F910F91FF90EF90DF90CF90C9
:102B1000BF90AF909F908F90089525E530E0B90168
:102B2000681B790B9B01220F331F260F371F37FFBE
:102B3000CCCF2F5F3F4FC9CF8E2D01FD8F2D209120
:102B40001101622F600F7727771F9B01220F331F20
:102B5000260F371F21543B4F412F6091BC040E9428
:102B60002B110F5FBACF0F931F93CF93DF93EC011D
:102B700010E000E0909113019017110609F06CF439
:102B80000E94B7118C8190E00196817099278C8307
:102B9000DF91CF911F910F91089520911101A8010C
:102BA000420F511D9A01220F331F240F351F21544C
:102BB0003B4F4C816091BC048091BB04969590176B
:102BC000110651F04CF0442349F04091BD040E949D
:102BD0002B110F5F1F4FCECF4423B9F340E0F7CF47
:102BE0004F925F926F927F928F929F92AF92BF921D
:102BF000CF92DF92EF92FF920F931F93CF93DF93C9
:102C0000FC016280448081E08483E2EAF6E0749013
:102C1000E1E2F7E0E491812C75E0972EF2E0CF2E0F
:102C2000DD24D394AA24AA94B12C55245A94E719EC
:102C30000E2F10E080911301881690F0DF91CF9154
:102C40001F910F91FF90EF90DF90CF90BF90AF90CA
:102C50009F908F907F906F905F904F900C94B711E2
:102C6000E82CF12C82E0861568F09E9CF0019F9C78
:102C7000F00D1124EB55FD4F8091BB0480838091B2
:102C8000BC048183411023C09E9CF0019F9CF00DE9
:102C90001124EB55FD4F1382128220911101C701BF
:102CA000820F911D9C01220F331F280F391F2154C1
:102CB0003B4F9E9CF0019F9CF00D1124EB55FD4F66
:102CC0004281618180810E942B118394B3CF9E9CAD
:102CD000E0019F9CD00D1124CB55DD4F8B818823C3
:102CE000E9F081508B83859DC00111246C8170E0D7
:102CF0000E944F34FB01FF27EE55F94F8491E82FD6
:102D0000E719E59DC0011124B8010E944F3480915C
:102D1000BD04689FB00111247A83BFCF0E941C3587
:102D20002091BD04269521582C9DA0012D9D500D6C
:102D30001124452F5527841795070CF0AECF82E05C
:102D4000861588F40E941C35B5010E94633488837F
:102D50000E941C352091BC042695622F70E00E94D1
:102D60006334280F29839E9CF0019F9CF00D112451
:102D7000EB55FD4F12828091BD04893C58F088ECE0
:102D80009E9CF0019F9CF00D1124EB55FD4F848318
:102D9000838383CF8431A0F784E1F2CFEAEBF4E0C0
:102DA00080818E7F808360817181828193810E9486
:102DB0004A111092F1032FEF80E792E021508040FA
:102DC0009040E1F700C000000C94B711EAEBF4E08A
:102DD00080818E7F80831092F1032FEF80E792E055
:102DE000215080409040E1F700C000000C94B711E2
:102DF0001092F1038091EE0381110AC081E080936B
:102E0000EE038091BA0481708093ED030C94E61672
:102E100008956091BA04669570E04BE050E084E15B
:102E200091E00E943535892B19F481E08093F103FC
:102E30000E9468289093E8038093E7030895909197
:102E4000BA0490FF35C09170811128C092609093B0
:102E5000BA04662351F06091BA047091BB0480916A
:102E6000BC049091BD040E944A116091BA04669519
:102E700070E04BE050E084E191E00E943535892B11
:102E8000A1F01092F10381E08093EA034091BD0428
:102E90006091BC048091BB040C94FD138B3210F044
:102EA0009465D5CF880F982BD2CF0E940917EBCF0E
:102EB0000895682F9091BA04969581E0890F8B321E
:102EC00008F081E00C941F1781E00C945917682FCB
:102ED0009091BA0496958FEF890F09F48AE20C94C9
:102EE0001F1781E00C94671761E00C941F17EAEB41
:102EF000F4E080818160808386950C9474178091C2
:102F0000BA0480FD0C94CE160C94771760E00C94F4
:102F10001F178091EF0381112EC00E94E4268111BA
:102F200004C00E9488270E945C110E944611609391
:102F3000BA047093BB048093BC049093BD046E7F6D
:102F400061F40E945C110E9446116093BA04709370
:102F5000BB048093BC049093BD040E943011109276
:102F6000F1038091BA0480FF03C086950E94861702
:102F700081E08093EF030895EAEBF4E080818160C3
:102F8000808386950C9486171092EE038091ED0352
:102F900081110E94BC170C9409170F931F93CF93B4
:102FA000DF938091F103882309F496C08091F003A8
:102FB000E091BA04E695E81BE093E903823091F5CD
:102FC000F0E0E256F94FE491CE2FD0E002EB12E1AF
:102FD0008091EA03882361F01092EA030E94682836
:102FE0009093E8038093E7031092EC031092EB03B5
:102FF0000E946828E091E703F091E8038E1B9F0B85
:103000008F3F9F4708F068C0EC0FFD1FF093E80367
:10301000E093E70387EE93E0F801DF91CF911F91F2
:103020000F910994863049F4F0E0E556F94FE491A8
:10303000CE2FD0E006EC12E1CBCF893051F4E695EB
:10304000F0E0E856F94FE491CE2FD0E000E014E133
:10305000BFCF8F3051F4E695F0E0EB56F94FE49195
:10306000CE2FD0E00DE314E1B3CF853149F4F0E089
:10307000EE56F94FE491CE2FD0E000EB14E1A8CF4B
:10308000C8E2D0E003E215E1883109F4A1CF833230
:1030900039F4E0E9F6E0C591D49106ED12E198CF5C
:1030A000C4EFD1E003EB15E1843209F491CFC0ED18
:1030B000D7E00AE111E1853209F08ACF8E2F63E073
:1030C0000E944334E92FF0E0E357F94FE491CE2F0B
:1030D000D0E000EF15E17CCFDF91CF911F910F91F0
:1030E0000895FA01811101C0FB010994CF93DF9388
:1030F000C82FD62F0E946C118C1740F00E946C11C3
:103100008D1720F4DF91CF910C9464178C2FDF91F1
:10311000CF910C9474170F931F93CF938C01FB01E5
:10312000C281CC2309F465C00E943A268272F8015C
:10313000E35CFC45E431F10538F4EE50FA4C0C94B4
:1031400099340E947F17C0E08C2FCF911F910F916F
:10315000089541E757E164E677E10E947118F3CFE3
:1031600044E657E161E777E1F8CF4EEB53E161EBDD
:1031700073E1F3CF41EB53E16EEB73E1EECF4CED36
:1031800053E16DEC73E1E9CF4DEC53E16CED73E18C
:10319000E4CF4AEF53E16BEE73E1DFCF4BEE53E147
:1031A0006AEF73E1DACF4FE951E168E871E1D5CF19
:1031B00048E851E16FE971E1D0CF81E00E947417D6
:1031C000C2CF65E082E00E947618BDCF68E086E05D
:1031D000FACF6EE089E0F7CF64E18FE0F4CF67E1EA
:1031E00085E1F1CF88E1EACF62E289E1ECCF83E2C9
:1031F000E5CFC1E0A9CF809A41B34E7F51B3516072
:10320000EFB7F8949B01220F331F260F371F280FAB
:10321000391F2817390741F4EFBF8FE594E0019774
:10322000F1F700C000000895DC016D91CD0178E058
:1032300051BB000000C067FF41BB660F000000C02B
:1032400000C000C041BB00C07A9591F7E2CF0C945A
:103250007206AF92BF92CF92DF92EF92FF920F93DE
:103260001F93CF93DF93A8EBB1E025EB31E08AEF1A
:10327000A82E83E0B82E6BEB71E041E050E00D9199
:10328000802F82958F7090E0FC01C1A10F707A01B0
:10329000002E01C0EE0C0A94EAF7FE2DF095CF2324
:1032A000FC01C1A3C2A1CE29C2A3E90119919E01CB
:1032B000E12FE295EF70F0E0F1A01F706A01012E9E
:1032C00001C0CC0C0A94EAF7EC2CE094EF20E1A2C8
:1032D000F2A0FC28F2A2EC0188A190E002C0959532
:1032E00087950A95E2F78170E0A1F0E002C0F595BC
:1032F000E7951A95E2F790E0E0FD92E0892BF50161
:1033000081935F016A177B0709F0B9CFDF91CF91F5
:103310001F910F91FF90EF90DF90CF90BF90AF90F3
:1033200008956F927F928F929F92AF92BF92CF92A9
:10333000DF92EF92FF920F931F93CF93DF930AEFE9
:1033400013E088EBC82E81E0D82E95EBE92E91E0B2
:10335000F92E27EF822E23E0922EC4EFD3E0712CBA
:10336000612C34E0A32EB12CD801EC91EE0FEE0FBE
:10337000ED938D01D6012D916D01A22FA295AF7015
:10338000B0E090968C9190E02F7002C09595879553
:103390002A95E2F781709927D7014D917D01A42FDD
:1033A000A295AF70B0E090962C9130E04F7002C0C3
:1033B000359527954A95E2F7A9014170552720FFD9
:1033C00002C042E050E0842BE82BD8011197EC9327
:1033D000EF70F0E0EB55FE4F8081F4019081890F92
:1033E000808320E0843044F088818F5F888360E0B0
:1033F000872D0E94271921E0D4018C918D3F44F440
:1034000088818150888361E0872D0E94271921E0FF
:10341000F4018081082E000C990BB5010E946334E1
:10342000D4018D934D01622A73942196B3E07B12EF
:103430009BCF862DDF91CF911F910F91FF90EF9041
:10344000DF90CF90BF90AF909F908F907F906F90C4
:1034500008950F931F93CF93DF93C42FD22FFC01B6
:1034600082818823C9F04093FF030E9468289093CB
:10347000FE038093FD0380E28C0F883008F050C07B
:10348000C77081E001C0880FCA95EAF7DF91CF913C
:103490001F910F910C94C21E1091FF03141335C09D
:1034A0008091FD039091FE030E948028883C910545
:1034B00060F5C0E2CD0F1D17B9F080E2810F8830B2
:1034C00040F4177081E001C0880F1A95EAF70E9456
:1034D000C91EC83048F481E09D2F977001C0880F45
:1034E0009A95EAF70E94C21E802F0E94BA1EC83029
:1034F000B8F4D77081E001C0880FDA95EAF7DF9160
:10350000CF911F910F910C94C91E80E28C0F8830CF
:1035100038F4C77081E001C0880FCA95EAF7EFCF91
:10352000DF91CF911F910F9108950F939C01CB01D3
:10353000243F4CE5340759F1A8F4293DFCE53F0749
:1035400001F12A3D4CE53407D1F1283D3C4591F489
:1035500006E221EE41EE68ED7CE50E94291A80E04A
:103560000F910895263FFCE53F07E9F0B0F0273FB3
:103570003C45F9F0FC018281882339F11092FF0368
:10358000EFCF07E225EE45EE69ED7CE5E6CF06E2FA
:1035900021EE40EE64EF7CE5E0CF07E225EE44EE5D
:1035A00065EF7CE5DACF06E221EE42EE66EF7CE5E0
:1035B000D4CF07E225EE46EE67EF7CE5CECF08E2FA
:1035C00021E045EE6AED7CE5C8CF81E0C9CFCF931D
:1035D000DF93EC01FB018281882309F419C1C23019
:1035E000FCE5DF07C0F1C6319CE5D90730F09E014C
:1035F0002B5F3C452930310570F50E94F7269093EA
:10360000840580938305C031ECE5DE0709F4CFC063
:1036100008F05BC0C8308CE5D80709F4B6C088F55F
:10362000C430ECE5DE0709F4A8C0C0F4C2308CE574
:10363000D80709F49CC0809183058260C330DC45C3
:1036400009F498C080918305909184050E94052714
:103650000E94322180E0DF91CF910895809183050F
:103660008061C630ECE5DE0709F484C080918305F3
:103670008860C730DC4508F47DC080918305806296
:1036800079C0CC308CE5D80709F489C070F48091FA
:1036900083058C60CA30ECE5DE0709F46BC008F4E2
:1036A00078C0809183058E7F65C0CE308CE5D807C9
:1036B00009F479C0809183058B7FCF30DC4508F415
:1036C00059C0809183058F7E55C0CC3FECE5DE0765
:1036D00009F457C030F5C3318CE5D80709F46FC041
:1036E00078F4C131ECE5DE0709F465C0C231DC4590
:1036F00009F0A8CF0E943221809183058F773AC0CC
:10370000C5318CE5D80709F462C008F476C0809111
:1037100084058160CB3FDC4509F094CF809384051C
:1037200091CFC115FDE5DF0709F44DC088F4809104
:1037300084058D7FCE3F9CE5D90781F38091840578
:103740008E7FCF3FDC4550F3809184058360E6CFC8
:10375000C230FDE5DF0709F459C008F444C080E039
:10376000C330DD4509F06ECF0E948A276BCF809170
:10377000830581608093830565CF80918305846094
:10378000F9CF809184058260C9CF809183058064E0
:10379000F1CF0E943221809183058068EBCF809128
:1037A00083058D7FE7CF80918305877FE3CF80916D
:1037B00083058F7DDFCF809183058F7BDBCF809169
:1037C0008305837FD7CF809184058C7FA7CF80919D
:1037D000830582FB992790F921E0922790FB82F9DB
:1037E00090FB83F9C7CF80918405982F90959170B5
:1037F0008E7F892B90FB81F991CF0E94322190918D
:103800008305892F97FB87F98058B4CF81E0ACCF2F
:1038100081E021CFCF93DF93EB0186319C4511F5F9
:103820000E943A269A81992399F08A7A91E009F4C4
:1038300090E090930004811109C089E20E9415264E
:103840000E94792680E0DF91CF91089585E3F6CF3D
:1038500080910004811104C089E20E941C26F0CFEF
:1038600085E3FBCF81E0EFCF9093060480930504BE
:103870000895E0910504F0910604309721F001903D
:10388000F081E02D099480E00895E0910504F09125
:103890000604309721F00280F381E02D0994089509
:1038A000E0910504F0910604309739F022E0DC0144
:1038B0002C930480F581E02D099408952091030450
:1038C000309104042817390771F090930404809311
:1038D0000304E0910504F0910604309721F006807E
:1038E000F781E02D0994089520910104309102049C
:1038F0002817390771F09093020480930104E09136
:103900000504F0910604309721F00084F185E02D44
:10391000099408950E9474286093190470931A04FE
:1039200080931B0490931C046093150470931604F9
:10393000809317049093180408950E94742860934C
:10394000190470931A0480931B0490931C046093D1
:103950001104709312048093130490931404089537
:1039600085B7806885BF85B7806885BF089508954D
:1039700008950C94B71C0C9490060E94B01C8CED1A
:1039800096E20E94D7280E94B81C0C94B91C81E0D2
:1039900008950C94C71C089508950E945F280E9402
:1039A0003E0A0E94F2280E9489170E9429190C944D
:1039B000BB1CAF92BF92CF92DF92EF92FF920F9318
:1039C0001F93CF93DF93CDB7DEB72A970FB6F89446
:1039D000DEBF0FBECDBF0E94CB1C0E94CC1C0E943C
:1039E000630A81110E948A1C88E0A82E84E0B82E08
:1039F00010E000E0C02E802F0E94180AE82EF5018A
:103A0000F1905F01F81609F457C08091980481FD88
:103A10000E941E0A8F2D8E25D12CFF24F394982FFF
:103A20009F2109F444C00E94C91C882399F0DE82BA
:103A3000CF82EF2081E009F480E088870E94682827
:103A40008160782F9A8789874E815F8168858A8512
:103A50000E94841DF801E85FFB4F8081F826F08208
:103A60000E94CD170E94911981110E949D1C0E94F5
:103A7000680F0E94AC0D0E94391C909107048917B1
:103A800091F10E94391C809307042A960FB6F8948E
:103A9000DEBF0FBECDBFDF91CF911F910F91FF9081
:103AA000EF90DF90CF90BF90AF900C942108D3940B
:103AB000FF0CF8E0DF12B3CF0F5F1F4F0930110585
:103AC00009F098CF8FEF89838A831B820E94682830
:103AD0008160782F9D838C8349815A816B818D8190
:103AE0000E94841DBDCF2A960FB6F894DEBF0FBE8C
:103AF000CDBFDF91CF911F910F91FF90EF90DF909D
:103B0000CF90BF90AF900895DF92EF92FF920F9306
:103B10001F93CF93DF93CDB7DEB72B970FB6F894F3
:103B2000DEBF0FBECDBF7A878B87F42E052F162FF1
:103B3000E72ED82E61110E945A261E821D827E2DEC
:103B4000EC82DD824F2D502F612F8D2D9E812B9683
:103B50000FB6F894DEBF0FBECDBFDF91CF911F919E
:103B60000F91FF90EF90DF900C94A823FC018081CF
:103B700091810C94E725CF93C82F882309F48BC03B
:103B80008238C1F40E94391C81FD85C089E30E94FE
:103B900015260E9479262FEF81EE94E02150804077
:103BA0009040E1F700C0000089E30E941C26CF91FD
:103BB0000C9479268338A1F40E94391C80FD6BC0D7
:103BC00083E50E9415260E9479262FEF81EE94E06E
:103BD000215080409040E1F700C0000083E5E5CF30
:103BE0008438A1F40E94391C82FD55C087E40E94EC
:103BF00015260E9479262FEF81EE94E02150804017
:103C00009040E1F700C0000087E4CFCF8CEF8C0F2D
:103C1000813A90F46C2F80911F01909120010E94B5
:103C2000A127882329F08C2F0E941C260E94792628
:103C30008C2F0E941526BBCF80E28C0F883048F471
:103C4000C77081E001C0880FCA95EAF70E943D263F
:103C5000AECFEBE5EC0FE33040F4F0E0E751FE4F80
:103C6000808190E0CF910C945E1CE8E5EC0FE73189
:103C700050F4F0E0EE0FFF1FE554FE4F808191817C
:103C8000CF910C94741CCD3E30F08C2F0E947A0E94
:103C9000CF910C944D0FCF910895882309F452C011
:103CA000823871F40E94391C81FF4CC089E30E9464
:103CB00015260E94792689E30E941C260C947926F9
:103CC000833859F40E94391C80FF3CC083E50E9470
:103CD00015260E94792683E5EFCF843859F40E9497
:103CE000391C82FF2FC087E40E9415260E94792686
:103CF00087E4E2CF9CEF980F913AF0F290E2980FB0
:103D0000983050F4877091E001C0990F8A95EAF7D6
:103D1000892F0E944326D2CF9BE5980F933020F441
:103D200090E080E00C945E1C98E5980F973120F4A9
:103D300090E080E00C94741C8D3E20F00E94D40E24
:103D40000C944D0F08951F93CF93DF93182FEB0121
:103D50000E94BB1D209731F4812FDF91CF911F91DD
:103D60000C944D1E8FE99FE00197F1F700C0000011
:103D70002197F0CF6AE070E0893311F460E570E0DC
:103D80000C94A31E882321F00E943D260C947926D2
:103D90000895882321F00E9443260C9479260895E3
:103DA000BF92CF92DF92EF92FF920F931F93CF9328
:103DB000DF936C01D62FC72FFC011281058102957C
:103DC0000F700E943326E82E8823A1F0E12E1123E4
:103DD00089F08C2F807F803429F080E28D0FE12CD8
:103DE000883040F082E00E94C4260E94332691E091
:103DF000E82EE926BC2EB2949FE0B922FBE0FB1529
:103E000098F1EB2DF0E0EA5FF94C0C9499340C2F0B
:103E10000F70C07F11F00295007F1123A9F00023DD
:103E200059F080E28D0F883010F0D11109C0802F39
:103E30000E943D260E9479268D2F0E94BB1D14C032
:103E4000802F0E944D26F6CF8D2F0E944D1E0023FD
:103E500059F080E28D0F883010F0D1112BC0802FE7
:103E60000E9443260E947926EB2DE850FF0B3497E1
:103E700020F40E94391C0E942108EE2009F493C10D
:103E80000E942F2680FD8FC1F60112820E942926F2
:103E90000E94B424C6010E94F4200E942926DF91CA
:103EA000CF911F910F91FF90EF90DF90CF90BF9037
:103EB0000C94D524802F0E945326D4CF2C2F2F7002
:103EC000F22EC07FC03219F0F29480EFF822DD2389
:103ED00069F0D13049F1112391F1002351F1F6013C
:103EE000858180FFA9CF8F70858323C0112381F046
:103EF000011106C00E9460268F290E94C21EB4CF05
:103F00000130C1F70E9460268F290E946626ACCF3F
:103F1000011106C00E946F268F2D0E94C91EA4CFDA
:103F2000013009F4A1CFF6CF112329F0063008F0B3
:103F30009BCF8F2DE2CF053008F096CFEDCF002339
:103F400059F3D93309F027C1FFEF27EE33E0F150E1
:103F500020403040E1F700C000008D2F0E944D1E30
:103F600083CF8C2F86958695837069F0813009F018
:103F70007BCF8D2F9C2F9370111102C090E080E0B9
:103F80000E94741C71CF8D2F9C2F9370111102C051
:103F900090E080E00E945E1C67CF8D2F112329F0F6
:103FA0000E947A0E0E944D0F5FCF0E94D40EFACF6E
:103FB0008C2F837009F041C0111156CF4D2F4295BF
:103FC00046954770440F440F0D2F0F7010E030E0FE
:103FD00020E0042E04C0000F111F221F331F0A947B
:103FE000D2F760E070E0CB01D4FF0FC06FE070E06B
:103FF00080E090E004C0660F771F881F991F4A95E4
:10400000D2F76095709580959095C695C695C370CA
:10401000602B712B822B932BC23049F058F4C130A6
:1040200019F00E94662420CF0E9454241DCF0E94C4
:1040300078241ACF0E94522417CF8695112311F0AD
:104040008C2F8170882309F40FCF4D2F4295469510
:104050004770440F440F0D2F0F7010E030E020E048
:10406000042E04C0000F111F221F331F0A94D2F721
:1040700060E070E0CB01D4FF0FC06FE070E080E043
:1040800090E004C0660F771F881F991F4A95D2F7EA
:104090006095709580959095C695C695C370602B78
:1040A000712B822B932BC23049F058F4C13019F098
:1040B0000E942B25D9CE0E941925D6CE0E943D25DF
:1040C000D3CE0E948E24D0CECF70112329F08C2F16
:1040D0000E94B4248D2F11CF8D2F0E94C91E8C2FCA
:1040E0000E94D524C1CED23F89F160F4D03FC9F0FF
:1040F000D13F29F1112309F442C001119DCE8C2F2B
:104100008F7121C0D33F39F1D43FA1F7112369F159
:10411000CF718C2F0E94B42463E08C2F0E94AF26B5
:10412000A3CE112341F0053008F09ECE8C2F8F7165
:104130000E94F82499CE063008F096CEF7CF8C2F47
:104140008F71112369F20E94B4248ECE8C2F8F714F
:104150001123C9F3C5CF112329F08C2F8F710E9431
:104160009F2482CE0E949A247FCE81E00E94C426A2
:10417000023008F479CE82E00E94C42675CE002376
:1041800079F0D93341F49FEFE7EEF3E09150E0404E
:10419000F040E1F7E0CE8FE39CE90197F1F7DBCE49
:1041A0008C2F8F719DCFDF91CF911F910F91FF9039
:1041B000EF90DF90CF90BF9008950F931F93CF9310
:1041C000DF93EC01688179818A810E94F1258C015D
:1041D0000E944F250E945124B801CE01DF91CF915A
:1041E0001F910F910C94D01ECF93DF93EC018B8124
:1041F0009C81892B29F08881998189238F3F59F4EB
:10420000DF91CF910895CE010E94DD20CE01DF9194
:10421000CF910C94D806CE010E94FF068111F3CFF6
:104220000E943326882361F38A81882349F382E040
:10423000DF91CF910C94C42690E080E00E945E1C38
:1042400090E080E00E94741C0E945A260E945D2625
:104250000E9479260E9474100C944D0F0E94232610
:104260000C941C210E944A260C942E21E92FE295E1
:10427000EF70E250EE3070F4F0E0EE5EF94C0C942A
:104280009934803F19F020F4883E20F481E00895AD
:10429000843FE1F380E00895883EC0F3813FD1F789
:1042A000F5CF93FB882780F908950E94E7250C94A9
:1042B0003621CF93DF9300D000D00F92CDB7DEB779
:1042C0000F900F900F900F900F90DF91CF91089566
:1042D000CF93DF9300D000D000D0CDB7DEB72696C5
:1042E0000FB6F894DEBF0FBECDBFDF91CF9108951A
:1042F0001F93CF93DF93C0911E0416E080911F049B
:104300008C1304C0DF91CF911F910895D0E01C9FC2
:10431000F0011D9FF00D1124E05EFB4F40815181A3
:1043200062817381848195810E9468212196C77082
:10433000E5CF409150045091510460915204709126
:10434000530480915404909155040C9468211F9358
:10435000CF93DF9380915504807FA9F4809152041C
:10436000882389F080911E04C0911F04609150043D
:1043700070915104A0915304B0915404D62FD723C7
:1043800016E0C81304C0DF91CF911F91089590E00B
:10439000109711F0DF3F19F401968770F2CF189F44
:1043A0009001199F300D1124F901E05EFB4F41810E
:1043B0004713F2CF40814613EFCF42814111ECCF3A
:1043C000438154814A1B5B0B483C510528F780917F
:1043D00055048F70806180935504F901EB5DFB4FAC
:1043E00080818F708061808380E594E00E94F4205A
:1043F000DF91CF911F910C947821AF92BF92CF9211
:10440000DF92EF92FF920F931F93CF93DF93CDB77D
:10441000DEB761970FB6F894DEBF0FBECDBF8C013B
:1044200085E0F801DE011D9601900D928A95E1F775
:10443000F80140815181E28080E5C82E84E0D82EC9
:1044400060915304709154046115710509F461C1C0
:104450009091500420915104892F82238F3F09F4B9
:1044600058C1A380B480F0905204F501E61BF70B0D
:10447000FF2009F4FCC080915504382F307FE83CC0
:10448000F10508F0B2C0311179C0FE2C251323C00C
:10449000941321C0E1101FC08F7080618093550478
:1044A0000E949921C6010E94F42080915504F801D0
:1044B00085838F2D61960FB6F894DEBF0FBECDBFFA
:1044C000DF91CF911F910F91FF90EF90DF90CF90F0
:1044D000BF90AF900895AB2829F0842F85238F3F9C
:1044E00009F033C180E0F82FF170DF2E80FF3CC06F
:1044F00080911E0420911F0436E0821315C04D8761
:104500005E878D859E850E94E725292F22952F7035
:104510002230F0F0243018F59F70F1F0F801958109
:10452000907FD1F4D12C1EC090E0389FF001399FCC
:10453000F00D1124E05EFB4F6181651306C06081C0
:10454000641303C062816E110FC001968770D5CFCE
:104550009F7011F0882331F3805E883018F3C80112
:104560000E94F420FD2CA5CFEE2009F4A2CF80916B
:104570005504816080935504F12C9BCF251306C010
:10458000941304C0F801EE2009F48DC04D875E87B6
:104590008D859E850E945521882319F1EE2009F111
:1045A00080915504803270F0209150043091510474
:1045B00038872F831986BB86AA868C87CE010796FB
:1045C0000E94F42086E0F801A0E5B4E001900D928D
:1045D0008A95E1F70E94A7210E949921FF24F39474
:1045E00068CFC8010E94F420F9CF311113C07A2D91
:1045F000B98AA88A6E2D89890E94592180E594E0A4
:104600000E94F42086E0F60111928A95E9F70E9453
:104610009921B2CF25130FC094130DC0E1100BC028
:10462000F8018583C8010E94F42086E0F60111920A
:104630008A95E9F73ECF4D875E878D859E850E94DE
:104640005521882371F2EE2061F280915504803269
:1046500008F4B8CF20915004309151043A83298353
:104660001B82BD82AC828E83CE010196A9CFE83C2D
:10467000F10508F041C0FE2CEE2009F4B2CF25135D
:104680002AC0941328C08091550480FD1BC0982F28
:10469000907FC1F0F8018583903F31F0982F907F93
:1046A000905F8F70892B8583C8010E94F42086E07B
:1046B000F801A0E5B4E001900D928A95E1F70E941F
:1046C0009921F7CE86E0F801A0E5B4E001900D92C3
:1046D0008A95E1F7EECE4D875E878D859E850E9497
:1046E000552181116FCF80915504816080935504CD
:1046F000C8010E94F420DDCE7A2DB98AA88A6E2DD9
:1047000089890E94592186E0F60111928A95E9F77C
:10471000D6CFEE2009F465CF4D875E878D859E85C7
:104720000E945521F82E882309F45BCF86E0F8011A
:10473000A0E5B4E001900D928A95E1F780E594E060
:104740000E94B61D0E94A721BACF81E08E25CBCE54
:104750001F93CF93DF93CDB7DEB72C970FB6F894A6
:10476000DEBF0FBECDBF4F83588769877A878B879F
:104770009C87CE0107960E94FD21882369F08A85D7
:104780009B85892B39F04F815885842F85238F3F56
:1047900009F071C016E05FC086E0FE013796DE01C9
:1047A000119601900D928A95E1F78A859B85892B58
:1047B00089F38F81988589238F3F61F320911F04AE
:1047C00030E0C90101968770992740911E0448176F
:1047D000190671F40E94322110921F0410921E04D7
:1047E00086E0E0E5F4E0DF011D928A95E9F7D2CF9B
:1047F00096E0929FD001939FB00D1124A05EBB4F15
:10480000FE01319601900D929A95E1F780931F0475
:104810000E947821BFCF819FC0011124805E9B4FF1
:104820000E94FD218823E9F0E0911E041E9FF00103
:104830001124E05EFB4F408151816281738184814C
:1048400095810E94682180911E0490E001968770F6
:10485000992780931E0480911E0490911F04891350
:10486000DACF2C960FB6F894DEBF0FBECDBFDF9126
:10487000CF911F91089569857A858B859C850E94CB
:10488000682188CF08950C9442240E9443246093A9
:104890008704709388048093890490938A040C940D
:1048A0001C2108950C9445240F931F9300918704B5
:1048B000109188042091890430918A04602B712B17
:1048C000822B932B1F910F910C9445240F931F93D0
:1048D00000918704109188042091890430918A0402
:1048E00060237123822393231F910F910C944524FD
:1048F0000F931F93009187041091880420918904DD
:1049000030918A0460277127822793271F910F9186
:104910000C9445240C9442240C948A240E948C24E8
:104920006093830470938404809385049093860439
:104930000C941C2160E070E0CB010C948E240F934A
:104940001F9341E050E060E070E08A019B0104C0E9
:10495000000F111F221F331F8A95D2F7C901B8011A
:104960001F910F910C948E240F931F9341E050E000
:1049700060E070E004C0440F551F661F771F8A95E2
:10498000D2F78091830490918404A0918504B09122
:1049900086048A019B01082B192B2A2B3B2BC9016A
:1049A000B8011F910F910C948E240F931F9341E037
:1049B00050E060E070E004C0440F551F661F771F91
:1049C0008A95D2F7CB01BA01609570958095909544
:1049D0000091830410918404209185043091860411
:1049E00060237123822393231F910F910C948E24B3
:1049F0000F931F9341E050E060E070E004C0440F6B
:104A0000551F661F771F8A95D2F780918304909176
:104A10008404A0918504B09186048A019B01082733
:104A200019272A273B27C901B8011F910F910C9420
:104A30008E240F931F93009183041091840420917E
:104A4000850430918604602B712B822B932B1F9150
:104A50000F910C948E240F931F9300918304109157
:104A6000840420918504309186046023712382237D
:104A700093231F910F910C948E240F931F930091F9
:104A8000830410918404209185043091860460276A
:104A90007127822793271F910F910C948E240895DC
:104AA000990F990F990F890F982F977041E001C0C6
:104AB000440F9A95EAF786958695869595E0899FA5
:104AC000F0011124EA5AFB4F30E020E070E05191F0
:104AD000DF011197CB01022E02C0969587950A94AB
:104AE000E2F7817081958527842385278C932F5F3A
:104AF0003F4F2530310559F70895990F990F990FB8
:104B0000890F982F977086958695869525E0829FC8
:104B1000F0011124EA5AFB4F50E040E080E021917F
:104B200030E0092E02C0369527950A94E2F72170ED
:104B30003327042E01C0220F0A94EAF7822B4F5F1D
:104B40005F4F4530510559F70895BF92CF92DF92DC
:104B5000EF92FF920F931F93CF93DF938C01C0903E
:104B60008304D0908404E0908504F09086048091C2
:104B7000870490918804A0918904B0918A04C82A7E
:104B8000D92AEA2AFB2ACFE1D0E0BC2ED701C60100
:104B90000C2E04C0B695A795979587950A94D2F7E1
:104BA00080FD0EC0219788F7B12C8B2DDF91CF911E
:104BB0001F910F91FF90EF90DF90CF90BF900895DD
:104BC000B8018C2F0E943E08019761F3EECFCF937E
:104BD000DF93EC010E94A525BE01DF91CF910C94DB
:104BE0003E081F93CF93DF93EB0190911D0499230F
:104BF00031F0CB01DF91CF911F910C94E7258823F1
:104C000079F0CB010E94A525182F682FCE010E94B4
:104C10005025BE01812FDF91CF911F910C943E084A
:104C2000CB010E947D25182FF4CF682F80911F01A2
:104C3000909120010C94D727682F80911F019091AB
:104C400020010C94D92780911F01909120010C9490
:104C5000DB2780918B0485958595859508958091B6
:104C60008B048770089590918B04977081E009F40C
:104C700080E0089580919704089590919704892B7E
:104C8000809397040895809590919704982390932A
:104C90009704089510929704089590919604892B93
:104CA000809396040895809590919604982390930C
:104CB000960408951092960408951092950408950C
:104CC00080918C04089508950C94632690918C042F
:104CD000981721F080938C040C9464260895809199
:104CE0008C04882329F010928C0480E00C946426B4
:104CF0000895E0911F01F091200180919704808335
:104D0000E0911F01F0912001808190919604892B00
:104D10008083E0911F01F0912001808190919504A2
:104D2000892B808390918C04992381F0E0911F015D
:104D3000F09120018081892B808380911F019091C7
:104D400020010E948F2781110E946F2680911F01F0
:104D5000909120010C94451C08950C94AC2698E089
:104D6000899F90011124622B60938B040E94B424CC
:104D700080918B048595859585950C94AD26109230
:104D80008B0480E00C94AD2690918B048095892350
:104D900080938B04282F277071F4282F082E000C85
:104DA000330B9217130639F08595859585950E94EA
:104DB000D5240C94BF26089580E008956FEF7FEF0F
:104DC00090E080E00C94743590E080E00E945035D3
:104DD00021E08B3E9E4F09F020E0822F089582E073
:104DE00090E00C94423583E090E00C944235CF93F0
:104DF00084E090E00E944235C82F81E290E00E945A
:104E00004235982F8C2FCF910895CF93C92F682FBB
:104E100084E090E00E9456356C2F81E290E0CF91C3
:104E20000C945635AB01BC018FE090E00C946835D2
:104E3000AB01BC0183E190E00C94683560E070E068
:104E4000CB010C94182760E070E0CB010E94122780
:104E50000C941E276BEE7EEF90E080E00E9474358C
:104E600060E082E090E00E94563560E083E090E0F0
:104E70000E9456351092870410928804109289047B
:104E800010928A0460E084E090E00E94563560E071
:104E900081E290E00E94563560E085E090E00E945B
:104EA000563560E086E090E00E9456356FEF87E06F
:104EB00090E00E94563540E050E0BA0188E090E072
:104EC0000E94683560E08DE090E00E94563540E039
:104ED00050E0BA0188E190E00E94683560E087E127
:104EE00090E00E94563540E050E0BA018CE190E03D
:104EF0000E94683560E080E290E00E94563540E014
:104F000050E0BA0188E190E00E9468350C942327B4
:104F10000C942A27682F8EE090E00C9456359C0163
:104F20002E5F3F4FAC01485F5F4F80E0241735078D
:104F300009F40895F90191919F019923B9F38F5FC5
:104F4000F5CF662349F0FC01329608962191261789
:104F500029F0E817F907D1F780E0089581E0089576
:104F60009C01FC0132969FEF80E04191461751F081
:104F70009F3F19F4411101C0982F8F5F8630A9F728
:104F80009F3F09F40895290F311D97FD3A95F901C6
:104F900062830895FC01329608962191261303C07E
:104FA000DF0111971C92E817F907B9F708950C94DF
:104FB000B0270C94CA27029626E0FC0111922A958C
:104FC000E9F70895089508950C94E32780917606F3
:104FD000843059F10E94E42780E00E9421080E9459
:104FE000F8161092990488E190E020E40FB6F89446
:104FF000A895809360000FBE2093600083B7817FE7
:10500000846083BF83B7816083BF7894889583B7BA
:105010008E7F83BF0FB6F894A89580916000886159
:1050200080936000109260000FBE08950895CF93A2
:105030000E94E2270E94630A0E941628C0E08C2F7B
:105040000E94180A811105C0CF5FC930C1F7CF9106
:10505000089581E0FCCF08950C942B280E94322102
:105060000E94391C0E9421080E94C4170C942C280D
:105070001F921FB61F9211248F939F93AF93BF93DC
:1050800080919904811113C080917F0590918005D2
:10509000A0918105B09182054196A11DB11D80931B
:1050A0007F0590938005A0938105B0938205BF9101
:1050B000AF919F918F911F901FBE1F90189582E016
:1050C00084BD93E095BD9AEF97BD80936E000895DF
:1050D0002FB7F89480917F0590918005A09181056C
:1050E000B09182052FBF08952FB7F89460917F0586
:1050F0007091800580918105909182052FBF089560
:105100009C014FB7F89480917F0590918005A09104
:105110008105B09182054FBF821B930B089578944F
:105120001F921FB61F9211248F939F93AF93BF932B
:1051300080917F0590918005A0918105B0918205B5
:105140000196A11DB11D80937F0590938005A093CA
:105150008105B0938205BF91AF919F918F911F9070
:105160001FBE1F90189581E08093E00080E280933D
:10517000D8001092C9008FE19EE40197F1F700C0BA
:10518000000087E090EBDC0180937F06909380061F
:10519000A0938106B093820688E19CE00FB6F89454
:1051A000A895809360000FBE90936000FFCF90930E
:1051B000FD018093FC0108950C94DE260E94630A91
:1051C0008FE39CE90197F1F700C000000E94630A99
:1051D00080E00E94180A80FF04C00E94DC280C9422
:1051E000B32808950E94E426811102C00E948827F6
:1051F0000E94EF26809398040E94F72690938405DE
:10520000809383050E94F326682F70E090E080E091
:105210000E945224609183047091840480918504DB
:10522000909186040C948C24881F8827881F0895E9
:1052300091E0883F08F490E0892F0895982F907F9F
:10524000903BE9F040F49039D1F0903AC1F09038B9
:10525000B1F080E00895903D19F020F4903CC9F73A
:1052600082E00895903E59F0903F99F7815F8F302A
:1052700080F7E82FF0E0E451FE4F8081089583E04D
:1052800008950F93022F0F77242F2F776F70462FDB
:10529000406BDC01ED91FC9163E070E009950F91AA
:1052A00008950F93022F0F77242F2F776F70462FBB
:1052B0004069DC01ED91FC9163E070E009950F918C
:1052C00008950F93022F0F77242F2F776F70462F9B
:1052D0004068DC01ED91FC9163E070E009950F916D
:1052E00008950F931F93411520E2520744F49A0149
:1052F000305E4115504E2CF430E020E002C02FEF1C
:105300003FE38901000F012F001F110B11952F772B
:105310006F70462F406EDC01ED91FC9163E070E010
:1053200009951F910F910895FC017383628308957D
:10533000FC01758F648F0895CF93DF93EC011DA25C
:105340001FA21EA2BC01685D7F4F40EC88519F4F99
:105350000E94A72B1B821A821D821C821F821E8222
:10536000198618861B861A861D861C861F861E8631
:10537000198A188A1B8A1A8A1D8A1C8A1F8A1E8A01
:10538000198E188E1B8E1A8E1D8E1C8E1F8E1E8ED1
:1053900019A218A2DF91CF910895EF92FF920F9377
:1053A0001F93CF93DF93EA018A01060F111D8851E5
:1053B0009F4F7C01C017D10739F4DF91CF911F9126
:1053C0000F91FF90EF9008956991C7010E94AE2B55
:1053D000F1CFFC01718360830895FC0171A360A388
:1053E0000895AF92BF92CF92DF92EF92FF920F9308
:1053F0001F93CF93DF9300D00F92CDB7DEB77C0120
:105400006B01142FB22EA02EDC0195968C919597EE
:105410008430A9F55A96ED91FC913097E9F1CB01D2
:10542000019763E070E00E944F34CB01880F991F11
:10543000860F971F4983BA820B834C2D481B9E0110
:105440002F5F3F4FBC01C7010995D7015E96ED91D3
:10545000FC91309731F00A2D2B2D412FB601C70159
:1054600009950F900F900F90DF91CF911F910F91A1
:10547000FF90EF90DF90CF90BF90AF900895623093
:10548000710509F455C06330710599F061307105FB
:1054900009F481C0D12CC12CD7015C96ED91FC910F
:1054A000309799F20A2D2B2D412FB601C70109958E
:1054B000CCCF842F807F803A11F148F48038D1F02E
:1054C000803951F7D7011496ED91FC910AC0803EC6
:1054D000D9F0803FF1F0803BF9F6D7011296ED91BB
:1054E000FC913097C9F2123FE9F02A2D4B2D612F24
:1054F0006F701BC0D7011696ED91FC91F2CFD701CA
:105500001896ED91FC91EDCFD7011A96ED91FC9193
:10551000E8CF423F09F6D7011C96ED91FC913097F8
:1055200009F4BACF2A2D4B2D62EFC70109958DCF13
:10553000842F807F803DB1F0803FC9F0803C09F02E
:10554000ABCFD7011E96ED91FC91309709F4A4CF13
:10555000812F8D7F4B2D612F6F70813F89F0C701A7
:10556000099573CFD7015096ED91FC91EECF433F53
:1055700051F4D7015296ED91FC91309709F48CCFFC
:105580004B2D612FECCF413F09F086CFD7015496C8
:10559000ED91FC91F2CF842F0E941829882359F0B5
:1055A000D7015696ED91FC91309709F475CF612F94
:1055B000C70109954ACF163F09F06ECFD70158961B
:1055C000ED91FC91F1CFFF920F931F93CF93DF9357
:1055D000EC01162F862F0E941829882391F0FDA038
:1055E00081E08DA300E020E0412F61E070E0CE017A
:1055F0000E94F129FDA2DF91CF911F910F91FF90A1
:105600000895812F0E9414294DA1882309F443C0D5
:10561000443029F01AA381E090E09FA38EA3812F4C
:105620000E941E29813051F08823A9F0823089F030
:10563000833079F01DA21FA21EA2DDCF8DA300E052
:1056400020E0412F61E070E0CE010E94F1291DA20F
:10565000D2CF8DA3D0CF103FB1F0173F59F72EA175
:105660003FA1C90163E070E00E944F34FE01E80FE2
:10567000F91F12A3B9016F5F7F4F7FA36EA30CA127
:105680002BA14AA1E1CF84E08DA31AA381E090E091
:105690009FA38EA3B0CF442309F4ADCF2EA13FA189
:1056A000C90163E070E00E944F34FE01E80FF91F6A
:1056B00012A3B9016F5F7F4F7FA36EA38130910565
:1056C00069F0029709F097CF0CA12BA14AA1CE0156
:1056D0000E94F1298DA18430C9F68DCF00E04230BF
:1056E00009F089CFF2CFCF92DF92EF92FF920F9322
:1056F0001F93CF93DF93EC01E8A1F9A1309709F054
:1057000009956E0188EEC80ED11CC6010E94DD2BE2
:1057100010E000E0E82EF12C0E151F0548F0DF9197
:10572000CF911F910F91FF90EF90DF90CF90089550
:1057300060E0C6010E94F12B682FCE010E94E32A8F
:1057400061E0C6010E94012C0F5F1F4FE5CFFC01F5
:105750004283748363831182108208951F93CF93D1
:10576000DF93EC01162F0E94182C482F298130E07E
:10577000C90101966A8170E00E946334588158170C
:10578000190641F4842F0E941B2C80E0DF91CF91F9
:105790001F9108958B819C81280F391FF901108377
:1057A000898190E001966A8170E00E946334898368
:1057B000842F0E941B2C81E0E9CFCF93DF93EC0173
:1057C0000E94182C99812881921740F0C92FC21B82
:1057D0000E941B2C8C2FDF91CF910895CA819C0FC2
:1057E000F5CFFC018081860F9927991F628170E0B7
:1057F0000E94633423813481280F391FF90180818D
:1058000008951F93CF93DF93EC01162F0E94182C5D
:10581000282F8881810F9927991F6A8170E00E9443
:1058200063348883822FDF91CF911F910C941B2CBE
:105830008FB7F89408958FBF0895089508950F9332
:105840001F93CF93DF9300D000D000D00F92CDB73D
:10585000DEB78C01CE0101960E949D2E81110BC0F6
:1058600027960FB6F894DEBF0FBECDBFDF91CF9164
:105870001F910F9108958A810E941E299A819D830C
:105880009B819E839C819F8381110AC08981843082
:1058900079F0873069F0863069F08530D9F681E09B
:1058A000AE014B5F5F4F682FC8010E94CD29D2CF58
:1058B00083E0F6CF82E0F4CFDF92EF92FF920F9376
:1058C0001F93CF93DF9300D000D0CDB7DEB77B011D
:1058D000142FD22E4A832B830C83842F0E941E29DF
:1058E000811129C082E0E816F10401F183E0E81695
:1058F000F10439F0EA94EF2869F485E0173F21F4C8
:1059000004C087E0073F09F084E08983CE01019657
:105910000E94982E0F900F900F900F90DF91CF91D3
:105920001F910F91FF90EF90DF90089587EFD812AD
:10593000EBCF86E0EACF12951F701983E7CF0E9464
:10594000150B85E895E00E949C296CE57CE285E8D2
:1059500095E00E94E9296FE17CE285E895E00E94EC
:10596000ED296DE17CE285E895E00E9498296EE1E1
:105970007CE285E895E00C9494299B0140917606A1
:105980004430C1F4FC0191819F709093E90050E094
:1059900040E064E070E0C9010E94632F81110BC0F8
:1059A0009091E80095FD07C09091E8009E77909354
:1059B000E800089582E0089520917606243091F45D
:1059C000FC0181818F708093E9009091F3008091B8
:1059D000F200892B49F08091E8008E778093E800EF
:1059E0000C94113182E0089580E00895FC018091CB
:1059F0007606843059F491819F709093E9008091EC
:105A0000E80080FF03C0CF010C94DC2C08959B01BB
:105A100040917606443011F080E00895FC019681B3
:105A20009F709093E9008091E80082FFF5CF80910C
:105A3000E80085FFF1CF50E040E064E070E0C9018C
:105A40000E94B22F8091E80085FD05C08091E8009A
:105A50008B778093E80081E008958091A2040895F7
:105A6000CF93DF9300D00F92CDB7DEB7909176063B
:105A7000943019F589837B836A8382E08093E900FF
:105A80008FEF9091E800815095FD06C095ED9A95B5
:105A9000F1F700008111F5CF8091E80085FF0DC07E
:105AA00050E040E063E070E0CE0101960E94632F79
:105AB0008091E8008E778093E8000F900F900F9010
:105AC000DF91CF910895BC0184E00C94302DBC018E
:105AD00083E00C94302D9C0182E08093E9009FEFDD
