:100000000C94E2030C9429040C9429040C94290404
:100010000C9429040C9429040C9429040C942904AC
:100020000C9429040C9429040C94C8310C949C322F
:100030000C943B280C9429040C9429040C94290456
:100040000C9429040C9429040C9429040C9429047C
:100050000C9429040C9492280C9429040C942904DF
:100060000C9429040C9429040C9429040C9429045C
:100070000C9429040C9429040C9429040C9429044C
:100080000C9429040C9429040C9429040C9429043C
:100090000C9429040C9429040C9429040C9429042C
:1000A0000C9429040C9429040C94290400000000E9
:1000B0000000000000000000000000000000000040
:1000C0000000000000000000000000000000000030
:1000D0000000000000000000000000000000000020
:1000E0000000000000000000000000000000000010
:10033000000000002A2B2800000000000000000040
:100340000000000000000029000000002C1E3420E6
:10035000212224342627252E362D3738271E1F200C
:100360002122232425263333362E37381F04050651
:100370000708090A0B0C0D0E0F1011121314151695
:100380001718191A1B1C1D2F3130232D3504050693
:100390000708090A0B0C0D0E0F1011121314151675
:1003A0001718191A1B1C1D2F3130354C0000000086
:1003B000000000000000000000000000000000003D
:1003C000000000000000000000000000000000002D
:1003D0007E0F00D4FFFFFFC7000000781E0F05004E
:1003E000047F3F1F643214643214783C1E1E140ACA
:1003F000052223252628292A2C2D2F303233353665
:10040000383A3B3D3E4042434547494A4C4E5051A5
:10041000535557595A5C5E6062646668696B6D6FCC
:1004200071737577797B7D7F81838587898A8C8ECF
:1004300090929496989A9C9E9FA1A3A5A7A8AAACD7
:10044000AEAFB1B3B4B6B8B9BBBCBEBFC1C2C3C511
:10045000C6C7C9CACBCCCDCED0D1D2D2D3D4D5D6B3
:10046000D7D7D8D9D9DADADBDBDBDCDCDCDCDCDDE6
:10047000DDDDDDDCDCDCDCDCDBDBDBDADAD9D9D8CA
:10048000D7D7D6D5D4D3D2D2D1D0CECDCCCBCAC962
:10049000C7C6C5C3C2C1BFBEBCBBB9B8B6B4B3B191
:1004A000AFAEACAAA8A7A5A3A19F9E9C9A9896942C
:1004B00092908E8C8A89878583817F7D7B79777501
:1004C00073716F6D6B6968666462605E5C5A5957E0
:1004D000555351504E4C4A4947454342403E3D3B9F
:1004E0003A3836353332302F2D2C2A292826252329
:1004F00022FFAA7F554000010203040506070F0EE4
:100500000D0C0B0A090810111213141516171F1ED3
:100510001D1C1B1A191820212223242526272F2EC3
:100520002D2C2B2A292830313233343536373F3EB3
:100530003D3C3B3A39380001010101010101010153
:100540000202020202020202020303030303030384
:100550000304040404040404050505050506060651
:100560000606070707070708080808090909090A0E
:100570000A0A0B0B0B0C0C0C0D0D0D0E0E0E0F0FB3
:100580000F10101111111212131314141515161641
:100590001717181819191A1A1B1B1C1D1D1E1E1FB0
:1005A0002020212222232424252626272829292AFF
:1005B0002B2C2D2D2E2F3031323233343536373827
:1005C000393A3B3C3D3E3F40414243444546474823
:1005D000494A4C4D4E4F50515354555658595A5BF9
:1005E0005D5E5F616264656668696B6C6D6F707299
:1005F000737577787A7B7D7E8082838587888A8C05
:100600008E8F91939596989A9C9EA0A2A3A5A7A938
:10061000ABADAFB1B3B5B7BABCBEC0C2C4C6C9CB2F
:10062000CDCFD1D4D6D8DBDDDFE2E4E7E9EBEEF0E5
:10063000F3F5F8FAFDFF1403460065007500690044
:100640006C006C0065003600340000000C0379007B
:1006500079006E006D0074000000040309040902B3
:10066000BF00050100A0FA09040000010301010018
:100670000921110100012240000705810308000A39
:1006800009040100020300000009211101000122F8
:100690002200070582032000010705030320000153
:1006A00009040200010300000009211101000122D8
:1006B00032000705840320000A080B030201010031
:1006C00000090403000001010000092401000109E0
:1006D00000010409040400020103000007240100D2
:1006E0000141000624020101000624020202000961
:1006F0002403010301020100092403020401010192
:100700000009050602400005000005250101010958
:1007100005850240000500000525010103120110B6
:100720000100000008D804D8E80100010200010619
:1007300060FF0961A1010962150026FF009520757F
:100740000881020963150026FF00952075089102B3
:10075000C005010980A101850319012AB70015010F
:1007600026B700950175108100C0050C0901A10193
:10077000850419012AA002150126A0029501751011
:100780008100C005010906A101050719E029E71547
:100790000025019508750181029501750881010503
:1007A00007190029FF150026FF009506750881002E
:1007B0000508190129059505750191029501750333
:1007C0009101C00011241FBECFEFDAE0DEBFCDBF24
:1007D00004B603FE27C08091820690918306A09103
:1007E0008406B09185068730904BA740B04BD1F47A
:1007F000109282061092830610928406109285064B
:1008000014BE84B7877F84BF0FB6F894A8958091F3
:100810006000886180936000109260000FBEE0E08D
:10082000F8E3099512E0A0E0B1E0E8EEFBE602C0D3
:1008300005900D92A430B107D9F726E0A4E0B2E00C
:1008400001C01D92A238B207E1F70E94822E0C94DB
:10085000BB350C940000CF93811111C0C0E0611131
:1008600001C0C1E08C2F99E00E9478256C2F79E0BF
:100870000E9450190E94AE0481E0CF91089581300A
:1008800029F4C2E06111EECFC3E0ECCF8230A1F7D2
:10089000C4E06111E7CFC5E0E5CFCF93DF939C01C2
:1008A0003A9521153F4168F5EC01CC27D170DC0168
:1008B000AA27B270AC01442754709C0122273870DB
:1008C00094FF11C080E1CD2B09F480E0AB2B09F03F
:1008D0008062452B09F08064232B09F08068FB01BE
:1008E000DF91CF91099481E0CD2B09F480E0AB2B0F
:1008F00009F08260452B09F08460232B81F3886026
:10090000EECFDF91CF910895CF93DF93EC01805E1E
:100910009109089720F065EE70E2209711F466E9DE
:100920007EE1CE010E944D048C2FDF91CF910C947B
:100930009E1DCF93DF93EC010E94281ECE01805EA6
:100940009109089720F06CEE70E2209711F46DE9A0
:100950007EE1CE01DF91CF910C944D04CF93DF93D4
:10096000EC010E9484048FE39CE90197F1F700C039
:100970000000CE01DF91CF910C94990481E008959D
:1009800081E008950C94C00408950C94C4041F934E
:10099000CF93DF9300D000D00F92CDB7DEB749835D
:1009A0005A836B833091190489819A8131111DC05A
:1009B0006623B9F02223A9F00E947825182F682F0A
:1009C00089819A810E94232569817A81812F0F90E4
:1009D0000F900F900F900F90DF91CF911F910C947B
:1009E00050190E945025182FEFCF0E947825698159
:1009F0007A81EDCFFC01262F408151816281738184
:100A000084810C94C704CF93DF93EC0160E00E94D3
:100A1000FA04BE01DF91CF910C94C5048F929F928E
:100A2000AF92BF92CF92DF92EF92FF920F931F93FC
:100A30006B017C0181E090E0A0E0B0E04C015D0141
:100A400004C0880C991CAA1CBB1C4A95D2F7B5019E
:100A5000A4014C015D0104C0880C991CAA1CBB1C9C
:100A60002A95D2F7482959296A297B2904C0880F79
:100A7000991FAA1FBB1F0A95D2F78A019B010C215F
:100A80001D212E213F21041715072607370789F45A
:100A90008C299D29AE29BF29BC01CD011F910F9141
:100AA000FF90EF90DF90CF90BF90AF909F908F908E
:100AB000089580959095A095B0958C219D21AE21AB
:100AC000BF21EACF0F93382F262F609184047091B5
:100AD00085048091860490918704042F432F0E94FF
:100AE0000E050F910C9461240E94AE080C94D3085B
:100AF0000C94D60808950E9405210E947A052FEFD4
:100B000084E39CE0215080409040E1F700C0000069
:100B10000C94B6280F931F93CF93DF938C0161E061
:100B20000E94FA04EC01B8010E943617882309F4E8
:100B300048C0B801CE010E94C204882309F441C014
:100B4000B801CE010E94010A8823D9F1B801CE0173
:100B50000E94871A8823A9F1B801CE010E94D91AF0
:100B6000882379F1B801CE010E94FC1B882349F14A
:100B7000B801CE010E94E414882319F1F8018281A2
:100B8000882361F0CA35FDE5DF0721F170F4C11556
:100B9000ECE5DE07A1F0CE3DDC45C9F0C801DF91F0
:100BA000CF911F910F910C94BE04CB358DE5D807E2
:100BB000A1F0CC35DD4591F70E941F26EFCF0E94B2
:100BC0007B0580E0DF91CF911F910F9108950E94E6
:100BD0008B27F7CF0E942826E1CF0E942B26DECF5D
:100BE000DF92EF92FF920F931F93CF93DF93E82F43
:100BF000F0E0E45DFC4FD490282F269526952695AD
:100C000030E0F901E453FC4F0491877010E0082EA6
:100C100002C0159507950A94E2F701701127F901B2
:100C2000E454FC4FE490F12C082E02C0F594E794B4
:100C30000A94E2F791E0E922FF24F901E455FC4F20
:100C4000C491D0E002C0D595C7958A95E2F7C170EE
:100C5000DD270115110519F081EE0E949E1DE1149A
:100C6000F10419F086EE0E949E1D8D2D0E948E1EAD
:100C7000EF2819F086EE0E94281E012B19F081EE54
:100C80000E94281ECD2B51F08CE2DF91CF911F9155
:100C90000F91FF90EF90DF900C948E1EDF91CF911B
:100CA0001F910F91FF90EF90DF900895EF92FF92C8
:100CB0000F931F93CF93DF93EC01162F0AE08881E7
:100CC000882309F454C0813009F04EC089818130F5
:100CD00099F47E0122E0E20EF11C8A810E948E1EB0
:100CE000E7012196812F815050F3EFE9FFE0319722
:100CF000F1F700C00000F7CF823041F47E0182E0BE
:100D0000E80EF11C8A810E949E1DEACF833041F4D7
:100D10007E01E2E0EE0EF11C8A810E94281EE0CFE7
:100D2000843011F02196DDCF2A81229690E080E078
:100D3000AE014F5F5F4F2053330B2A30310548F02F
:100D4000019778F2EFE9FFE03197F1F700C000007A
:100D5000F7CF089FB001099F700D1124C901860FBC
:100D6000971F2981EA01E4CF0E94F005BACFDF91F5
:100D7000CF911F910F91FF90EF90089560E00C9438
:100D8000560608950C94C10681E008950C94C4069B
:100D9000CF93C82F0E94C2068C2FCF910C94C60609
:100DA000CF93DF930E9450190E94BC07EC0181157C
:100DB00022E59207E8F5811531E5930708F0ACC00C
:100DC000883E910510F5803E910570F5883A9105B1
:100DD00070F4853A910508F078C08130910521F1D1
:100DE000009711F1049700F5D0E0C0E01DC08F3BE3
:100DF0009105D0F7C85AD0E0CC0FDD1FC05DDE4FA3
:100E00000990D881C02DD4640FC0811540E59407A6
:100E100008F066C0C11580E4D80708F05EC0CE01B6
:100E20009A9581159F4100F7CE01DF91CF910895EA
:100E3000811536E5930718F5811545E5940708F007
:100E400083C0C11584E5D80708F079C09C2F96951A
:100E500096959E0123703327C115D34508F461C0D0
:100E6000C1E0D0E002C0CC0FDD1F2A95E2F730E2EE
:100E7000939FC0011124C82BD92BDA68D5CFC11597
:100E80008AE5D80778F4C11599E5D90708F066C056
:100E9000C11528E5D20708F4A7CFDC2FCC27C06FF7
:100EA000D06AC2CFCE0190568115904208F09CCFF7
:100EB0008D2F8F710E94530890E0982F88278827E4
:100EC0009F719C012C2BE90147C0C55AD0E0C25A42
:100ED000DE4FC881D0E0D064A7CFDF70D06AA4CF46
:100EE000E4E096958795EA95E1F783702C2F269597
:100EF0002695237040E2249F90011124382B8C2FDB
:100F00008370C1E0D0E002C0CC0FDD1F8A95E2F70C
:100F1000C22BD32BDC6888CFD82FCC27C16FD06AE7
:100F200083CFC1E0D0E002C0CC0FDD1F2A95E2F7ED
:100F300020E2929FC0011124C82BD92BEBCFDC2FCC
:100F4000CC27C46FD06A70CF0E945308C82FD0E05E
:100F5000DC2FCC27CC27DF71D06266CF8C2F8F702F
:100F60000E94530834E0D695C7953A95E1F7CF70C3
:100F70009C2FEC01D06958CF82389105B1F1B0F4C3
:100F80008133910509F475C048F48932910509F45B
:100F900069C08A32910509F473C0089585339105BB
:100FA00009F459C08933910501F10895833E9105F3
:100FB000A9F138F4803E9105F9F0823E910549F19E
:100FC0000895863E9105A9F1873E9105C9F1843EB9
:100FD000910519F52091A60421FF1FC08091A50459
:100FE00084FD14C087EE90E008952091A50423703D
:100FF000A1F080EE90E008952091A50420FD47C067
:101000003091A60430FF09C024FF44C090E080E086
:1010100004C02091A50422FDF7CF08952091A504D6
:1010200022FD3BC03091A60430FDE3CF24FFF5CF75
:10103000EDCF2091A50423FFF0CF24FDE7CFD2CF41
:101040002091A50423FD2CC03091A60431FFEECFE2
:1010500084EE90E008952091A50425FFDECF89E27B
:1010600090E008952091A50425FFD7CF85E390E077
:1010700008952091A50426FFD0CF8AE290E008953C
:101080002091A50426FFC9CF81E390E0089589E36C
:1010900090E0089583EE90E0089582EE90E0089548
:1010A00086EE90E008959091A50492FF06C0282F47
:1010B00028712830F9F4877F846093FF06C0282FB9
:1010C00028712831F1F4877E84612091A60420FFE5
:1010D00006C0382F38713830D9F4877F816021FFFE
:1010E00006C0282F28712831D1F4877E816194FDB4
:1010F000877E0895282F24712430F9F68B7F88602D
:10110000DCCF282F2471243101F78B7E8861DDCF5D
:10111000382F3171313019F78E7F8860E0CF282F5A
:101120002171213121F78E7E8861E1CF0C94101757
:101130000E9423098FE39CE90197F1F700C00000AA
:101140000E94230980E00E94D80880FF04C00E940A
:1011500096080C94B62808950C9498080E94E626E8
:10116000811102C00E948B270E94F126809399046E
:101170000E94F9269093A6048093A5040E94AC08CF
:101180000E94F526682F70E090E080E00E94252400
:101190006091840470918504809186049091870405
:1011A0000C945F2408950C94D20808950C94D508EB
:1011B000E82FF0E0EF54FB4F80810895089580EA16
:1011C0008A95F1F7089500C008950C94DF08F8940B
:1011D000E82FE295EF70F0E031A1282F2F7081E029
:1011E00090E001C0880F2A95EAF7982F90959323F5
:1011F00091A392A1892B82A378940895CF93DF9332
:10120000C9E6D1E089910E94E70881E0C337D80799
:10121000C9F7C1E6D1E089910E94E70881E0C936AB
:10122000D807C9F7E7EAF4E0A1EBB4E011921D9208
:1012300084E0E13BF807D1F78AE00E949A09DF9148
:10124000CF910C947405CF92DF92EF92FF920F939F
:101250001F93CF93DF93C9E6D1E007EA14E0D12CC6
:10126000EE24E394F12C8991F894E82FE295EF7045
:10127000F0E021A18F70A70102C0440F551F8A958D
:10128000E2F7CA01922F982B91A392A1809589230E
:1012900082A378940E94E308E1E6F1E030E020E0E8
:1012A000C12C4191A42FA295AF70B0E090968C9183
:1012B00090E04F7002C0959587954A95E2F780FDC2
:1012C00035C08E2D022E01C0880F0A94EAF7C82A75
:1012D0002F5F3F4F2830310521F7FE013197808184
:1012E0000E94E7080E94E508F8018081C81601F114
:1012F000C08281E0D82A0F5F1F4FF1E0C337DF07BC
:1013000009F0B1CF2D2D4AE061EB74E087EA94E05B
:101310000E949B090E9478058D2DDF91CF911F912E
:101320000F91FF90EF90DF90CF90089580E0CFCFA6
:1013300080E0E0CF0895FF920F931F93CF93DF9348
:10134000F82E092F162FD72FC42F222349F081E022
:10135000809308020E946B289093070280930602F4
:10136000809108028823A1F08091060290910702E3
:101370000E948328069760F0EF2DF02FA12FBD2F3C
:10138000CE0FDF2FD11DEC17FD0741F4109208029C
:10139000DF91CF911F910F91FF90089581918D93CF
:1013A000F2CF84E08093BB048FE78093BC048091EC
:1013B000BD04807880648093BD04EDE0F2E08FEF9F
:1013C0008193DF01A95BBF4F1C9292E0E535F907DD
:1013D000B9F710920C0210920B0210920A021092AE
:1013E000090208959091BB04292F2F70959595952A
:1013F000959595959F523CE0239F900D1124890F60
:101400000895EF92FF921F93CF93DF93FB018E3AE3
:101410002CE5920708F085C08E394CE5940708F05A
:1014200099C180395CE5950750F583382CE5920722
:1014300008F04CC181384CE5940760F487375CE5CF
:10144000950708F02BC18F322CE5920708F0DFC01A
:10145000D1E01DC181384CE5940709F42CC18238D4
:101460009C45B1F78281882309F4FBC08091BB04BD
:10147000982F9F70993008F0F4C09F5F25C18C3978
:101480002CE59207A0F582394CE5940708F03BC1A2
:1014900080395CE5950709F424C181399C45C1F682
:1014A0008281882309F4DDC02091BB04822F8595B9
:1014B00085958595859586300CF0D3C091E0980F81
:1014C0009295907F9595959595959595392F32950F
:1014D000307F2F70232B2093BB0418160CF0C1C053
:1014E00097FFBFC08295807F922F9F70E0C08C399C
:1014F0004CE5940709F415C18D399C4509F0A8CF36
:101500008281882309F4ADC08091BC04982F9F7715
:101510009F3709F4A6C0933708F01AC1935F9F77ED
:10152000FEC0843B2CE5920709F472C1C8F5803BEC
:101530005CE5950709F43EC1D8F48E3A4CE5940772
:1015400009F41AC18F3A9C4509F082CF8281882321
:1015500009F487C02091BC04322F331F3327331F77
:101560009091BD04892F8770880F832B8F5F15C1E1
:101570006091BC043091BD042281823BECE59E0762
:1015800009F43AC108F42CC121112FE7862F881FD6
:101590008827881F632F6770660F682B42E41BC182
:1015A000873B2CE5920709F446C180F4853B5CE556
:1015B000950709F42DC1863B9C4509F049CF8281EE
:1015C000811137C18FEF80930B024BC0893B4CE5F3
:1015D000940709F466C108F44FC18A3B9C4509F0A1
:1015E00037CFD2816091BC04862F881F8827881F3F
:1015F0006091BD046770660F682BDD2309F461C13B
:101600004FEF5FE188E895E00E943C292AC01091E5
:10161000BC04212F221F2227221FC091BD04C770A6
:10162000CC0FC22B1F77D28121ED280F30E0A9010A
:10163000435F5D4F7A01DD23C1F00E94F209D82F8C
:10164000212F482F6C2F88E895E00E941C29F70174
:10165000E85BFF4F80818F5F8083F70180818F3F40
:1016600011F0D0E014C0D083FCCFFA014081E85BD8
:10167000FF4F8081815080838111F3CF212F6C2F08
:1016800088E895E00E942C298FEFF70180838D2F49
:10169000DF91CF911F91FF90EF9008952281222337
:1016A00001F38757982F9F708091BB04807F892B0F
:1016B0008093BB04D6CF8281882399F28091BB04AA
:1016C000982F9F7071F2915F9F70F0CF228122233B
:1016D00041F28958982F9295907F8091BB048F702A
:1016E000E6CF8281882309F4BCCF8091BB04982F78
:1016F00095959595959595959B3F0CF4B2CF915FF7
:101700009295907FECCF2281222309F4AACF8259AF
:101710009EE0899F902D11249F778091BC04807852
:1017200015C08281882309F49CCF8091BC04982F36
:101730009F7709F496CF80789F3721F4856780934F
:10174000BC048FCF9D30D8F39D509F77892BF7CF66
:101750008F67F5CF2281222309F483CF8E59909190
:10176000BC0480FB97F99093BC0486958770909198
:10177000BD04987F892B7DC08281882309F471CFB5
:101780002091BC04322F331F3327331F9091BD04A7
:10179000892F8770880F832B815F382F3F7080FBE4
:1017A00027F92093BC04832F8695987F982B9093DC
:1017B000BD0457CF8281882309F453CF6091BC04C4
:1017C000862F881F8827881F6091BD046770660F69
:1017D000682B20E04BE788E895E00E940C2941CF78
:1017E00021112FE7862F881F8827881F632F677096
:1017F000660F682B40E4EFCF21112FE7862F881F5B
:101800008827881F632F6770660F682B41E4E3CF3A
:10181000828120E081112FE76091BC04862F881F10
:101820008827881F6091BD046770660F682B43E4AA
:10183000D2CF81E0C8CE8281882309F412CF909163
:10184000BD04292F2695269526952F7081E0820FBD
:101850008F70880F880F880F9778892B8093BD042D
:10186000982F987709F0FDCE220F220F220F87784C
:10187000822B8093BD04F5CE8281882309F4F1CEBA
:101880008091BD04982F987709F4EBCE982F969508
:1018900096959695915F9F70990F990F990F8778FC
:1018A00069CFD2816091BC04862F881F8827881F4A
:1018B0006091BD046770660F682B40E050EED11157
:1018C000A1CE50E040E088E895E00E943C29DFCEC0
:1018D00088E895E00E943E2B8091090290910A02CF
:1018E0000E9483282091BD042695269526952F7069
:1018F0002817190609F0A0F50E946B2890930A0298
:101900008093090280910B02882351F16091BC04FD
:10191000862F881F8827881F6091BD046770660F17
:10192000682B20910C0241E088E895E00E940C2988
:1019300080910B0290910C0287FF0DC0482F552714
:1019400041950CF45095941715062CF410920C0246
:1019500010920B020895890F87FD03C080930C023B
:1019600008958FE7FBCFEF92FF920F931F93CF93D2
:10197000DF93EB01E82FD11110C0442321F0F0E0F8
:10198000EA5CFA4FE4916E2F7E2F8E2FDF91CF917C
:101990001F910F91FF90EF9008950D2F10E0282FC9
:1019A00030E0442329F02A5C3A4FF901249130E0D9
:1019B000F6E0CF9FC0011124EFEFF0E0BF010E94DD
:1019C0005A34AB018C2F90E0880F991FA5E5A49F96
:1019D000B001A59F700D1124861B970B982F990FAE
:1019E000980FBF01601B710B629FD001639FB00D08
:1019F000729FB00D11248B2F9D9FB0011124672F72
:101A00007727EF01C61BD70BBE01629FE001639FE2
:101A1000D00D729FD00D11247F01E91AF108E09ECC
:101A2000B001E19E700DF09E700D1124672F772795
:101A3000E61BF70BE29F8001E39F100DF29F100D54
:101A40001124E12F722F4230510599F048F44115CD
:101A5000510569F04130510581F0EB2F8D2F07C002
:101A60004430510569F080F046305105B1F76E2FD2
:101A70008DCFE22F7B2F812FFACFE22F7D2FF7CF53
:101A8000EB2F822F712FF3CF7B2F822FED2FEFCFF4
:101A900041E00C94B30C08950C94480DCF93DF9360
:101AA000762FE901682F842F0E944C0D798368837B
:101AB0008A83DF91CF910895493708F048E70C9465
:101AC0004E0D8091BF04982F9E7F61F481708260DB
:101AD0008093BF048091C204893718F088E780930F
:101AE000C20408958635B0F381708465F1CF88E033
:101AF00090E00C945C35CF92DF92EF92FF926B01F5
:101B00007C010E94610DB701A60188E090E0FF9082
:101B1000EF90DF90CF900C947A356091BF04709174
:101B2000C0048091C1049091C2040C947B0DEFEB32
:101B3000F4E083E0808311828FEF828388E78383E0
:101B4000148260817181828193810C947B0D8091DC
:101B5000BF0480FF02C08695089580E008959091AB
:101B6000C304933018F49F5F9093C304882351F00B
:101B70006091BF047091C0048091C1049091C2042F
:101B80000C947B0D089581E00C94AF0D9091C304EB
:101B9000992319F091509093C304882351F06091D8
:101BA000BF047091C0048091C1049091C2040C9450
:101BB0007B0D089581E00C94C60D8091C3040895B7
:101BC0008093C304662351F06091BF047091C004F8
:101BD0008091C1049091C2040C947B0D089560E043
:101BE0000C94E00D8091C00408958091C104089583
:101BF0008091C204089521E030E002C0220F331F1B
:101C00008A95E2F78091ED039091EE032823392322
:101C100081E0232B09F480E0089570E00C94B11565
:101C20006F927F928F929F92AF92BF92CF92DF92EC
:101C3000EF92FF920F931F93CF93DF93CDB7DEB751
:101C4000C05CD1090FB6F894DEBF0FBECDBF709057
:101C500008019091BF0490FF47C0C090E003D0906E
:101C6000E103C114D10409F052C0E6EFF4E09E0193
:101C70002F5F3F4FBE016F537F4FC901A4914A2F81
:101C800050E0DA01AA0FBB1FA40FB51FAC53BB4F26
:101C9000CD90DD90EC90D901CD92DD92ED929D0139
:101CA00031966A177B0751F720910701672DB3E042
:101CB0002B9F800D911D11240E940D0EC054DF4FEB
:101CC0000FB6F894DEBF0FBECDBFDF91CF911F914D
:101CD0000F91FF90EF90DF90CF90BF90AF909F90CB
:101CE0008F907F906F9008958091090120910A0153
:101CF00033E0839FF0011124EC53FB4F821708F06F
:101D0000ACCF1182108212828F5F3396F7CF90FF93
:101D1000ACCFF12CE12C43E0642E8E2D0E94FB0D04
:101D2000882309F43CC0F701EE0FFF1FEC0DFD1DE9
:101D3000A590B490A114B10409F497CF45E050E008
:101D4000B501CE0101960E943E3509810F3F39F160
:101D50008A81800F9927991F8134910514F080E4BE
:101D600090E04C01880C991C880D991DDC01AC5346
:101D7000BB4F4D01069D800111240C531B4F0815CC
:101D8000190520F0B5E0AB0EB11CD8CF98014D81FC
:101D90006C818B810E945C0D0D5F1F4FF0CF2FEF88
:101DA000E21AF20A39E0E316F10409F0B6CF5DCF8A
:101DB0009091BF0490FF14C09091090120910A01F5
:101DC00033E0939FF0011124EC53FB4F921710F076
:101DD0000C94100E8183608342839F5F3396F6CF0D
:101DE0000895CF93DF9300D00F92CDB7DEB79091D7
:101DF000BF0490FF0AC09E012F5F3F4F0E945C0D01
:101E00004B8169818A810E94D80E0F900F900F90AC
:101E1000DF91CF910895CF93DF93EC01EC81F0E057
:101E2000EF50FC4F4491EFEBF4E0628181810E941E
:101E3000F10E8C818F5F8C83DF91CF910895CF93CA
:101E4000DF93EC01EFEBF4E0438162818C810E942F
:101E5000F10E8C818F5F8C83DF91CF9108950F936A
:101E60001F93CF93DF9300D00F92CDB7DEB78C01D5
:101E700080919D0281110AC09E012F5F3F4F48E76C
:101E80006FEF0E945C0D8A8180939D02F80164814E
:101E9000613069F080919D0240E0662361F040E08E
:101EA000623011F440919D0280E060E004C06091D6
:101EB0009D0240E080E00E94D80EF801848190E00D
:101EC000019663E070E00E946E3484830F900F905F
:101ED0000F90DF91CF911F910F910895AF92BF9214
:101EE000CF92DF92EF92FF920F931F93CF93DF93E6
:101EF00000D00F92CDB7DEB7182FF62E042FE22EAA
:101F00009091BF0490FF29C0E92FE695AE2FB0E075
:101F1000AD58BE4F8C918093EB039E7F923059F564
:101F20009E012F5F3F4F812F0E945C0D4B81698185
:101F30008A810E94D80E1093C004F092C1040093CD
:101F4000C204EE2051F06091BF047091C0048091F2
:101F5000C1049091C2040E947B0D0F900F900F90CE
:101F6000DF91CF911F910F91FF90EF90DF90CF9075
:101F7000BF90AF900895823019F40091C204DBCF76
:101F8000863019F41091C004D6CF8930D9F3893145
:101F900091F6E9518E2F8170D82EE695F0E0EF5042
:101FA000FB4FA590B490C12CBB2460910B01C616C9
:101FB00018F00E94100EBFCF2C2D30E0A29EC00161
:101FC000A39E900DB29E900D112470E00E945A3491
:101FD000812FD11013C0860F40910901420F532F5A
:101FE000511D9A01220F331F240F351F2C533B4FD5
:101FF000402F6F2D0E945C0DC394D7CF861BECCF72
:10200000EFEBF4E09181282F4381628188E0890F12
:102010000C946E0F81E00C940010EFEBF4E09181D2
:10202000282F4381628188EF890F0C946E0F81E025
:102030000C940D10EFEBF4E0628128E0620F08F4DD
:102040006FEF282F438181810C946E0F81E00C94F7
:102050001A10EFEBF4E0628128E0621B08F460E004
:10206000282F438181810C946E0F81E00C942910FC
:10207000EFEBF4E0438128E0420F08F44FEF282F04
:10208000628181810C946E0F81E00C943810EFEB2B
:10209000F4E0438128E0421B08F440E0282F6281ED
:1020A00081810C946E0F81E00C94471020E00C9419
:1020B0006E0FEF92FF921F93CF93DF93EC0110E02E
:1020C000EE24EA94F12C60910B01161770F00E9437
:1020D000100E9A818C8190FF27C08F5F8C83DF91D7
:1020E000CF911F91FF90EF90089520910901422F09
:1020F000410F5527551FCA019A01220F331F280F80
:10210000391F2C533B4F70E0C7010E946E34962F4D
:102110008C814091C2046091C104199F800D1124EB
:102120000E945C0D1F5FCFCF8150D8CFBF92CF925E
:10213000DF92EF92FF920F931F93CF93DF93FC01F7
:1021400082810FEF80FF01E010E080910B011817F2
:10215000C0F00E94100E80919F02013009F051C022
:10216000811102C080910B01815080939F02DF9109
:10217000CF911F910F91FF90EF90DF90CF90BF9084
:102180000895C0910901C12ED12CCC0DDD2DD11D9A
:10219000CE01880F991FC80FD91FCC53DB4F19826E
:1021A00018821A8234E0E32EF12CB12C80919F0228
:1021B0008B0D813404F18F73082E000C990BC81617
:1021C000D90691F48091C2048E9DA0018F9D500D7F
:1021D000112455954795559547959E016091C104E9
:1021E0008091C0040E945C0DB00EF1E0EF1AF1087E
:1021F000E9F61F5FAACF87FFDFCF90910B01890F10
:10220000DBCF90E0019660910B0170E00E946E348C
:10221000ACCF0F931F93CF93DF93809109019091DF
:102220000A0123E0829FF0011124EC53FB4F891730
:1022300040F1C0E0D3E060910B01C61740F10E946D
:10224000100E2091050180919E02820F80939E02C4
:1022500090910601920F90930601191654F4082EDE
:10226000000C990B40910B014150550B84179507B9
:102270001CF0219520930501DF91CF911F910F91C3
:1022800008951182108212828F5F3396D0CF0C2F67
:1022900010E070E0C8010E946E3420910901820FA5
:1022A000482F50E020919E02022E000C330B0217A3
:1022B0001307BCF020910601022E000C330B2017EF
:1022C00031077CF08D9F900111242C533B4F40919E
:1022D000C2046091C1048091C0040E945C0DCF5F74
:1022E000AACFFA01EE0FFF1FE40FF51FEC53FB4FCF
:1022F000118210821282F3CF8F929F92AF92BF927F
:10230000CF92DF92EF92FF920F931F93CF93DF93C1
:10231000EC014C81042F10E09801D8010E94B934DF
:102320009B01AC010E94CF344B015C01E0E2F0E084
:10233000E01BF10BA5E5B0E0AC019B010E94CF349E
:102340006B017C019F01DF010E94B1349B01AC0154
:102350000E94DA349B01AC01280D391D4A1D5B1D1A
:10236000C701B6010E948234F22E822F90E039E23A
:102370003F1560F143E0249F900111243595279586
:10238000122F109500E085E5E82EEF1880910B01E3
:10239000081758F10E94100E9C8181E0992319F0D2
:1023A000903219F48FEF8093040180910401890F1A
:1023B0008C83DF91CF911F910F91FF90EF90DF9071
:1023C000CF90BF90AF909F908F90089525E530E01B
:1023D000B901681B790B9B01220F331F260F371F92
:1023E00037FFCCCF2F5F3F4FC9CF8E2D01FD8F2DF3
:1023F00020910901622F600F7727771F9B01220F21
:10240000331F260F371F2C533B4F412F6091C104C0
:102410000E945C0D0F5FBACF0F931F93CF93DF9392
:10242000EC0110E000E090910B019017110609F00B
:102430006CF40E94100E8C8190E0019681709927B7
:102440008C83DF91CF911F910F9108952091090105
:10245000A801420F511D9A01220F331F240F351F6F
:102460002C533B4F4C816091C1048091C0049695E0
:102470009017110651F04CF0442349F04091C204EA
:102480000E945C0D0F5F1F4FCECF4423B9F340E095
:10249000F7CF4F925F926F927F928F929F92AF92FF
:1024A000BF92CF92DF92EF92FF920F931F93CF9341
:1024B000DF93FC016280448081E08483E1EFF3E0FC
:1024C0007490E0E7F4E0E491812C75E0972EF2E05F
:1024D000CF2EDD24D394AA24AA94B12C55245A9447
:1024E000E7190E2F10E080910B01881690F0DF9114
:1024F000CF911F910F91FF90EF90DF90CF90BF9001
:10250000AF909F908F907F906F905F904F900C94C2
:10251000100EE82CF12C82E0861568F09E9CF001EC
:102520009F9CF00D1124E056FD4F8091C0048083E4
:102530008091C1048183411023C09E9CF0019F9C27
:10254000F00D1124E056FD4F1382128220910901F3
:10255000C701820F911D9C01220F331F280F391FC5
:102560002C533B4F9E9CF0019F9CF00D1124E05694
:10257000FD4F4281618180810E945C0D8394B3CFC5
:102580009E9CE0019F9CD00D1124C056DD4F8B8195
:102590008823E9F081508B83859DC00111246C81D3
:1025A00070E00E945A34FB01FF27EF50FC4F8491EA
:1025B000E82FE719E59DC0011124B8010E945A34A3
:1025C0008091C204689FB00111247A83BFCF0E941A
:1025D0002E352091C204269521582C9DA0012D9DB9
:1025E000500D1124452F5527841795070CF0AECFB9
:1025F00082E0861588F40E942E35B5010E946E3463
:1026000088830E942E352091C1042695622F70E0A8
:102610000E946E34280F29839E9CF0019F9CF00D30
:102620001124E056FD4F12828091C204893C58F07B
:1026300088EC9E9CF0019F9CF00D1124E056FD4F0C
:102640008483838383CF8431A0F784E1F2CFEFEBDF
:10265000F4E080818E7F80836081718182819381AB
:102660000E947B0D1092EC032FEF80E792E0215047
:1026700080409040E1F700C000000C94100EEFEB9A
:10268000F4E080818E7F80831092EC032FEF80E74F
:1026900092E0215080409040E1F700C000000C948F
:1026A000100E1092EC038091E90381110AC081E0C1
:1026B0008093E9038091BF0481708093E8030C94B8
:1026C0003F1308956091BF04669570E04BE050E0C1
:1026D0008CE091E00E944735892B19F481E08093CA
:1026E000EC030E946B289093E3038093E203089528
:1026F0009091BF0490FF35C09170811128C0926005
:102700009093BF04662351F06091BF047091C004A0
:102710008091C1049091C2040E947B0D6091BF041E
:10272000669570E04BE050E08CE091E00E94473508
:10273000892BA1F01092EC0381E08093E503409196
:10274000C2046091C1048091C0040C9456108B3275
:1027500010F09465D5CF880F982BD2CF0E946213CA
:10276000EBCF0895682F9091BF04969581E0890F73
:102770008B3208F081E00C94781381E00C94B21352
:10278000682F9091BF0496958FEF890F09F48AE224
:102790000C94781381E00C94C01361E00C947813CE
:1027A000EFEBF4E080818160808386950C94CD13FB
:1027B0008091BF0480FD0C9427130C94D01360E02B
:1027C0000C9478138091EA0381112EC00E94E626B2
:1027D000811104C00E948B270E94970D0E94770DE3
:1027E0006093BF047093C0048093C1049093C204AB
:1027F0006E7F61F40E94970D0E94770D6093BF0475
:102800007093C0048093C1049093C2040E94610D30
:102810001092EC038091BF0480FF03C086950E9454
:10282000DF1381E08093EA030895EFEBF4E0808109
:102830008160808386950C94DF131092E903809168
:10284000E80381110E9415140C9462130F931F93D7
:10285000CF93DF938091EC03882309F496C0809195
:10286000EB03E091BF04E695E81BE093E4038230BC
:1028700091F5F0E0E351FC4FE491CE2FD0E00BE076
:102880001FE08091E503882361F01092E5030E9428
:102890006B289093E3038093E2031092E703109276
:1028A000E6030E946B28E091E203F091E3038E1BA4
:1028B0009F0B8F3F9F4708F068C0EC0FFD1FF09300
:1028C000E303E093E20382EE93E0F801DF91CF911E
:1028D0001F910F910994863049F4F0E0E651FC4FC6
:1028E000E491CE2FD0E00FE11FE0CBCF893051F43F
:1028F000E695F0E0E951FC4FE491CE2FD0E009E5F8
:1029000010E1BFCF8F3051F4E695F0E0EC51FC4F71
:10291000E491CE2FD0E006E910E1B3CF853149F440
:10292000F0E0EF51FC4FE491CE2FD0E009E011E14F
:10293000A8CFC8E2D0E00CE711E1883109F4A1CFBB
:10294000833239F4EFEDF3E0C591D4910FE21FE04B
:1029500098CFC4EFD1E00CE012E1843209F491CFBA
:10296000C0EDD7E00BE41DE0853209F08ACF8E2F51
:1029700063E00E944E34E92FF0E0E452FC4FE49112
:10298000CE2FD0E009E412E17CCFDF91CF911F91EF
:102990000F910895FA01811101C0FB010994CF93B1
:1029A000DF93C82FD62F0E94A70D8C1740F00E94EE
:1029B000A70D8D1720F4DF91CF910C94BD138C2FB0
:1029C000DF91CF910C94CD131F93CF93DF93EC0144
:1029D000FB011281112309F4C2C00E942E268272CB
:1029E000CC3CFCE5DF0709F4A0C008F044C0C63CBD
:1029F000ECE5DE0709F485C0F0F4C33C9CE5D9079B
:102A000009F475C048F4C23CDC4509F46CC0812F60
:102A1000DF91CF911F910895C43C9CE5D90709F43B
:102A20006BC047E150E16AE070E1C53CDC4579F7F5
:102A30000E94CA145AC0C93CFCE5DF0709F46BC008
:102A400068F4C73CECE5DE0709F460C046E250E1FB
:102A500065E370E1C83CDC4559F3D9CFCA3C9CE53D
:102A6000D90709F45DC04AED5DE063EC7DE0CB3C45
:102A7000DC45F1F2CCCFC13DFCE5DF0709F464C0D1
:102A800098F4CE3C9CE5D90709F458C008F452C02C
:102A9000CF3CFCE5DF0709F454C0C03DDC4509F03C
:102AA000B6CF6EE089E01CC0C43D9CE5D90709F4AF
:102AB00051C058F4C23DFCE5DF0709F448C0C33DEE
:102AC000DC4509F0A4CF88E136C0C53D9CE5D907B7
:102AD00009F443C06AE285E2CD35DD4509F097CFC0
:102AE0000E94CF1402C00E94D81310E090CF4AEC8D
:102AF00053E16DEB73E19CCF4DEB53E16AEC73E175
:102B000097CF4AE050E167E170E192CF45E350E1B1
:102B100066E270E18DCF43E550E164E470E188CF77
:102B200044E450E163E570E183CF43EC5DE06AED9E
:102B30007DE07ECF81E00E94CD13D7CF65E082E0BB
:102B4000CFCF68E086E0CCCF64E18FE0C9CF67E10A
:102B500085E1C6CF62E289E1C3CF83E2ECCF11E029
:102B600056CF809A41B34E7F51B35160EFB7F8947E
:102B70009B01220F331F260F371F280F391F2817DD
:102B8000390741F4EFBF8FE594E00197F1F700C0FA
:102B900000000895DC016D91CD0178E051BB00008B
:102BA00000C067FF41BB660F000000C000C000C04E
:102BB00041BB00C07A9591F7E2CF0C942B04AF9201
:102BC000BF92CF92DF92EF92FF920F931F93CF931A
:102BD000DF93A1EBB1E02EEA31E085EFA82E83E090
:102BE000B82E64EB71E041E050E00D91802F8295AA
:102BF0008F7090E0FC01C1A10F707A01002E01C01E
:102C0000EE0C0A94EAF7FE2DF095CF23FC01C1A348
:102C1000C2A1CE29C2A3E90119919E01E12FE2953B
:102C2000EF70F0E0F1A01F706A01012E01C0CC0C22
:102C30000A94EAF7EC2CE094EF20E1A2F2A0FC2841
:102C4000F2A2EC0188A190E002C0959587950A95C3
:102C5000E2F78170E0A1F0E002C0F595E7951A95E2
:102C6000E2F790E0E0FD92E0892BF50181935F01AE
:102C70006A177B0709F0B9CFDF91CF911F910F91B0
:102C8000FF90EF90DF90CF90BF90AF9008956F923C
:102C90007F928F929F92AF92BF92CF92DF92EF92EC
:102CA000FF920F931F93CF93DF9305EF13E081EB18
:102CB000C82E81E0D82E9EEAE92E91E0F92E22EF6F
:102CC000822E23E0922ECFEED3E0712C612C34E0E3
:102CD000A32EB12CD801EC91EE0FEE0FED938D01E8
:102CE000D6012D916D01A22FA295AF70B0E0909604
:102CF0008C9190E02F7002C0959587952A95E2F708
:102D000081709927D7014D917D01A42FA295AF70B5
:102D1000B0E090962C9130E04F7002C03595279529
:102D20004A95E2F7A9014170552720FF02C042E011
:102D300050E0842BE82BD8011197EC93EF70F0E072
:102D4000E256FE4F8081F4019081890F808320E05C
:102D5000843044F088818F5F888360E0872D0E94F3
:102D6000DD1521E0D4018C918D3F44F488818150A0
:102D7000888361E0872D0E94DD1521E0F4018081C8
:102D8000082E000C990BB5010E946E34D4018D936E
:102D90004D01622A73942196B3E07B129BCF862D5E
:102DA000DF91CF911F910F91FF90EF90DF90CF9027
:102DB000BF90AF909F908F907F906F90089583E227
:102DC00090E00E945435813289F484E290E00E94C0
:102DD0005435813159F485E290E00E94543591E0F8
:102DE000803209F090E0892F8170089580E0FCCF57
:102DF000CF93C82F6FEF811161E283E290E00E94D0
:102E000068356FEFC11161E184E290E00E9468359E
:102E10006FEFC11160E285E290E0CF910C946835CC
:102E200080E00E94F8160C94E026089586E290E077
:102E30000E945435682F70E090E080E0089586E2AB
:102E400090E00C9468350E9415170E94DF168111DE
:102E50000CC060E070E0CB010E941F170E94C818F0
:102E60000E94B41981E00C94F8160895CF93FB01E9
:102E7000C281CC2309F19C0122513F45203131050B
:102E800020F582510E94C419C0E08C2FCF91089583
:102E900081E00E94872443E062E081E00E946205B5
:102EA000F3CF81E00E94A82443E062E081E00E9429
:102EB0006205EBCF82E0F6CF8031FFE59F0789F313
:102EC00081319F45B9F3C1E0E0CF8031EFE59E0746
:102ED000F9F281319F45C9F682E0DBCF2FEFFC018B
:102EE00020830895CF93DF93EC0188818138A9F086
:102EF00028F4803871F0DF91CF910895823881F005
:102F00008338C9F70E94F20D89830E94F50D8A83E8
:102F1000F2CF0E94F80D8983EECF0E94A70DFBCF60
:102F20000E94DD0DF8CFCF93DF93EC0188818138CB
:102F3000E1F028F4803869F0DF91CF91089582386C
:102F400011F18338C9F70E94F80D482F6A818981F1
:102F500008C0D9810E94F50DC82F0E94F20D4D2F97
:102F60006C2FDF91CF910C94561089810E94DF1352
:102F70008981811104C0DF91CF910C943F13DF91BF
:102F8000CF910C9415148981DF91CF910C94EF0DA2
:102F9000EF92FF920F931F93CF93DF93EC01062FD5
:102FA000DC01ED91CD01E150E33108F0ADC0F0E07E
:102FB000E354FA4C0C94A434198289E08A83602F7C
:102FC000CE01DF91CF911F910F91FF90EF900C9464
:102FD000632D8981823069F0833071F08130D9F4BA
:102FE0000E9477280E94AA346A837B838C839D8306
:102FF000E6CF0E941617F6CF7E01B2E0EB0EF11C71
:1030000010E0812F0E94D808F70181937F011F5F94
:103010001A30B9F7D4CF602FCE010E946E17CFCFF0
:1030200089818230C1F76A817B818C819D810E9478
:10303000AA340E941F17C3CF4B816A8189810E94E5
:103040009A189827892798279D838C83B8CF2C813D
:103050003D813227232732274B816A8189810E9453
:10306000B318ADCF0E94C818AACF0E949317A7CF5C
:103070000E947217A4CF0E948D0DA1CF0E945D19EE
:1030800089839DCF0E945F199827892798279A8363
:10309000898395CF6B8170E089819A81AE014C5F05
:1030A0005F4F9827892798270E94621988CF6B81E4
:1030B00070E089819A81AE014C5F5F4F9827892724
:1030C00098270E9489197BCF0E94B41978CF0E945B
:1030D0008718D6CF6B8170E089819A81AE014C5FF1
:1030E0005F4F9827892798270E94001968CF6B8126
:1030F00070E089819A81AE014C5F5F4F98278927E4
:1031000098270E9426195BCF8FEF888358CF84E0E1
:10311000089590E1699FB001112450E0440F551FBC
:10312000640F751F90EA899F600D711D1124CB01FA
:10313000879608950F931F93CF93DF930E9489186A
:103140008C010E945435C82FD0E0DC2FCC27C80159
:1031500001960E9454359E01282BC901DF91CF9121
:103160001F910F9108950F931F93CF93DF93122F09
:10317000032F0E948918EC01602F0E946835612F8F
:10318000CE010196DF91CF911F910F910C9468357C
:10319000AF92BF92CF92DF92EF92FF921F93CF93A5
:1031A000DF938CEAC82E80E0D82ED0E07601C0E014
:1031B00014C0F50125913491412F6C2F8D2F0E9461
:1031C000B31882E0A80EB11C1F5F183091F780E1A0
:1031D000E80EF11CCF5FCA3019F0570110E0E9CFBB
:1031E000DF5F80EAC80ED11CD43001F7DF91CF91A8
:1031F0001F91FF90EF90DF90CF90BF90AF90089518
:10320000EF92FF920F931F93CF93DF93EC018A010C
:103210007C01E60EF71ECE018796CE15DF0539F448
:10322000DF91CF911F910F91FF90EF900895C038DB
:1032300022E0D20740F40E945435F80180830F5FEA
:103240001F4F2196E8CFF8011082F9CFCF92DF927D
:10325000EF92FF920F931F93CF93DF937C016A014C
:103260008C01060F171FEC01CE018796C017D107FE
:1032700049F4DF91CF911F910F91FF90EF90DF9074
:10328000CF900895C03822E0D20740F4FE01EE1935
:10329000FF09EC0DFD1D60810E9468352196E4CF89
:1032A000462F843038F47A3028F4683018F4672FC9
:1032B0000C949A1890E080E0089580E1089589E5E3
:1032C00091E00895EF92FF920F931F93CF93DF93B6
:1032D000EC018A017C01E60EF71ECE0189559D4F57
:1032E000CE15DF0539F4DF91CF911F910F91FF903B
:1032F000EF900895C93521E0D20740F40E9454357B
:10330000F80180830F5F1F4F2196E7CFF8011082ED
:10331000F9CFCF92DF92EF92FF920F931F93CF934B
:10332000DF937C016A018C01060F171FEC01CE01AF
:1033300089559D4FC017D10749F4DF91CF911F9157
:103340000F91FF90EF90DF90CF900895C93521E065
:10335000D20740F4FE01EE19FF09EC0DFD1D60815E
:103360000E9468352196E3CFCF93DF93C7EAD2E07E
:1033700060E0CE010E9468352196C11584E0D8072F
:10338000B9F7DF91CF910895DF92EF92FF920F93FB
:103390001F93CF93DF9300D000D0CDB7DEB7F82EC8
:1033A0008FE08F1540F08FEF93E00E94543507EACD
:1033B00012E08823C1F00F900F900F900F90DF91D3
:1033C000CF911F910F91FF90EF90DF90089501151D
:1033D00084E0180781F3C8010E945435811101C0AF
:1033E000FA940F5F1F4FF110F2CF19821A821B82DD
:1033F0001C82DD24D39478018FEFE81AF80AC80103
:103400000E94543589831A828823A9F29FEF980F6E
:10341000933078F48A83D9820E5F1F4FC7010E94D0
:1034200054358B83882339F2CE0101960E94BE0663
:10343000E2CF8701F9CF0F931F93CF93DF93C42F70
:10344000D22FFC0182818823C9F04093FA030E94A5
:103450006B289093F9038093F80380E28C0F8830F7
:1034600008F050C0C77081E001C0880FCA95EAF724
:10347000DF91CF911F910F910C94961E1091FA033A
:10348000141335C08091F8039091F9030E948328AA
:10349000883C910560F5C0E2CD0F1D17B9F080E2C0
:1034A000810F883040F4177081E001C0880F1A95B1
:1034B000EAF70E949D1EC83048F481E09D2F977066
:1034C00001C0880F9A95EAF70E94961E802F0E94ED
:1034D0008E1EC830B8F4D77081E001C0880FDA952D
:1034E000EAF7DF91CF911F910F910C949D1E80E21E
:1034F0008C0F883038F4C77081E001C0880FCA95FE
:10350000EAF7EFCFDF91CF911F910F9108950F93BD
:103510009C01CB01233F4CE5340759F1A8F4283D29
:10352000FCE53F0701F1293D4CE53407D1F1273D8A
:103530003C4591F406E221EE41EE67ED7CE50E9408
:103540001B1A80E00F910895253FFCE53F07E9F045
:10355000B0F0263F3C45F9F0FC018281882339F127
:103560001092FA03EFCF07E225EE45EE68ED7CE519
:10357000E6CF06E221EE40EE63EF7CE5E0CF07E226
:1035800025EE44EE64EF7CE5DACF06E221EE42EE72
:1035900065EF7CE5D4CF07E225EE46EE66EF7CE5ED
:1035A000CECF08E221E045EE69ED7CE5C8CF81E0B1
:1035B000C9CFCF93DF93EC01FB018281882309F40B
:1035C00019C1C230FCE5DF07C0F1C6319CE5D9075F
:1035D00030F09E012A5F3C452930310570F50E948C
:1035E000F9269093A6048093A504C031ECE5DE078C
:1035F00009F4CFC008F05BC0C8308CE5D80709F4E7
:10360000B6C088F5C430ECE5DE0709F4A8C0C0F404
:10361000C2308CE5D80709F49CC08091A504826073
:10362000C330DC4509F498C08091A5049091A604AC
:103630000E9407270E94052180E0DF91CF91089525
:103640008091A5048061C630ECE5DE0709F484C0F2
:103650008091A5048860C730DC4508F47DC0809166
:10366000A504806279C0CC308CE5D80709F489C004
:1036700070F48091A5048C60CA30ECE5DE0709F493
:103680006BC008F478C08091A5048E7F65C0CE30F1
:103690008CE5D80709F479C08091A5048B7FCF30E1
:1036A000DC4508F459C08091A5048F7E55C0CB3FFE
:1036B000ECE5DE0709F457C030F5C3318CE5D807D7
:1036C00009F46FC078F4C131ECE5DE0709F465C098
:1036D000C231DC4509F0A8CF0E9405218091A504E4
:1036E0008F773AC0C5318CE5D80709F462C008F479
:1036F00076C08091A6048160CA3FDC4509F094CF72
:103700008093A60491CFCF3FFCE5DF0709F44DC0BD
:1037100088F48091A6048D7FCD3F9CE5D90781F385
:103720008091A6048E7FCE3FDC4550F38091A604A5
:103730008360E6CFC130FDE5DF0709F459C008F426
:1037400044C080E0C230DD4509F06ECF0E948D2775
:103750006BCF8091A50481608093A50465CF809193
:10376000A5048460F9CF8091A6048260C9CF8091BE
:10377000A5048064F1CF0E9405218091A504806892
:10378000EBCF8091A5048D7FE7CF8091A504877F43
:10379000E3CF8091A5048F7DDFCF8091A5048F7B3F
:1037A000DBCF8091A504837FD7CF8091A6048C7F47
:1037B000A7CF8091A50482FB992790F921E0922759
:1037C00090FB82F990FB83F9C7CF8091A604982FD4
:1037D000909591708E7F892B90FB81F991CF0E94FB
:1037E00005219091A504892F97FB87F98058B4CFC4
:1037F00081E0ACCF81E021CFCF93DF93EB01863125
:103800009C4511F50E942E269A81992399F08A7A77
:1038100091E009F490E09093FB03811109C089E2E3
:103820000E94E8250E94712680E0DF91CF910895E3
:1038300085E3F6CF8091FB03811104C089E20E94E9
:10384000EF25F0CF85E3FBCF81E0EFCF909301042C
:10385000809300040895E0910004F09101043097F2
:1038600021F00190F081E02D099480E00895E0912D
:103870000004F0910104309721F00280F381E02DE3
:10388000099408952091FE033091FF03281739070A
:1038900071F09093FF038093FE03E0910004F09198
:1038A0000104309721F00680F781E02D09940895F6
:1038B0002091FC033091FD032817390771F0909394
:1038C000FD038093FC03E0910004F0910104309724
:1038D00021F00084F185E02D099408950E94772855
:1038E0006093150470931604809317049093180442
:1038F0006093110470931204809313049093140442
:1039000008950E947728609315047093160480939D
:1039100017049093180460930D0470930E04809321
:103920000F0490931004089585B7806885BF85B70C
:10393000806885BF0895089508950C949B1C089590
:103940000C949F1C0E94941C8EED96E20E94DA2833
:103950000E949C1C0C949D1C81E008950C94AC1C4E
:10396000089508950E94B01C0C94B11C0E94622816
:103970000E94FE080E9423170E94E2130E94DF1596
:103980000C94A01CAF92BF92CF92DF92EF92FF9265
:103990000F931F93CF93DF93CDB7DEB72A970FB660
:1039A000F894DEBF0FBECDBF0E94230981110E9493
:1039B0006E1C83E0A82E84E0B82E10E000E0C02E3C
:1039C000802F0E94D808E82EF501F1905F01F816CB
:1039D00009F455C08091990481FD0E94DE088F2D65
:1039E0008E25D12CFF24F394982F9F2109F442C0F7
:1039F0000E94AE1C882399F0DE82CF82EF2081E006
:103A000009F480E088870E946B288160782F9A876C
:103A100089874E815F8168858A850E94671DF801CC
:103A2000ED5FFB4F8081F826F0820E9426140E94F1
:103A3000471681110E94811C0E94680C0E942B1C59
:103A400090910204891791F10E942B1C809302042B
:103A50002A960FB6F894DEBF0FBECDBFDF91CF918F
:103A60001F910F91FF90EF90DF90CF90BF90AF909C
:103A70000C94C806D394FF0CF8E0DF12B5CF0F5FAB
:103A80001F4F0A30110509F09ACF8FEF89838A837F
:103A90001B820E946B288160782F9D838C834981D3
:103AA0005A816B818D810E94671DBFCF2A960FB608
:103AB000F894DEBF0FBECDBFDF91CF911F910F9164
:103AC000FF90EF90DF90CF90BF90AF900895DF927E
:103AD000EF92FF920F931F93CF93DF93CDB7DEB793
:103AE0002B970FB6F894DEBF0FBECDBF7A878B87BA
:103AF000F42E052F162FE72ED82E61110E944E2688
:103B00001E821D827E2DEC82DD824F2D502F612F73
:103B10008D2D9E812B960FB6F894DEBF0FBECDBFC4
:103B2000DF91CF911F910F91FF90EF90DF900C9458
:103B30007B23FC01808191810C94BA25CF93C82FFF
:103B4000882309F483C08238C1F40E942B1C81FDB4
:103B50007DC089E30E94E8250E9471262FEF81EE47
:103B600094E0215080409040E1F700C0000089E3DC
:103B70000E94EF25CF910C9471268338A1F40E9406
:103B80002B1C80FD63C083E50E94E8250E947126FE
:103B90002FEF81EE94E0215080409040E1F700C08B
:103BA000000083E5E5CF8438A1F40E942B1C82FD40
:103BB0004DC087E40E94E8250E9471262FEF81EE18
:103BC00094E0215080409040E1F700C0000087E47D
:103BD000CFCF8CEF8C0F813A90F46C2F809117012E
:103BE000909118010E94A427882329F08C2F0E940D
:103BF000EF250E9471268C2F0E94E825BBCF80E222
:103C00008C0F883048F4C77081E001C0880FCA95D6
:103C1000EAF70E943126AECFEBE5EC0FE33040F43B
:103C2000F0E0EE51FE4F808190E0CF910C94421C69
:103C3000C85AC73158F4EC2FF0E0EE0FFF1FEC54D8
:103C4000FE4F80819181CF910C94581CCF910895A3
:103C5000882309F44BC0823871F40E942B1C81FF29
:103C600045C089E30E94E8250E94712689E30E94ED
:103C7000EF250C947126833859F40E942B1C80FF89
:103C800035C083E50E94E8250E94712683E5EFCFC9
:103C9000843859F40E942B1C82FF28C087E40E94BC
:103CA000E8250E94712687E4E2CF9CEF980F913AB5
:103CB000F0F290E2980F983050F4877091E001C0D4
:103CC000990F8A95EAF7892F0E943726D2CF9BE574
:103CD000980F933020F490E080E00C94421C885AB6
:103CE000873120F490E080E00C94581C08951F93D5
:103CF000CF93DF93182FEB010E949E1D209731F484
:103D0000812FDF91CF911F910C94281E8FE99FE0A6
:103D10000197F1F700C000002197F0CF6AE070E052
:103D2000893311F460E570E00C94771E882321F04C
:103D30000E9431260C9471260895882321F00E9458
:103D400037260C9471260895BF92CF92DF92EF929E
:103D5000FF920F931F93CF93DF936C01D62FC72F42
:103D6000FC011281058102950F700E940626E82E43
:103D70008823A1F0E12E112389F08C2F807F8034DD
:103D800029F080E28D0FE12C883040F082E00E9423
:103D9000C2260E94062691E0E82EE926BC2EB294A7
:103DA0009FE0B922FBE0FB1598F1EB2DF0E0E0532A
:103DB000FA4C0C94A4340C2F0F70C07F11F00295B4
:103DC000007F1123A9F0002359F080E28D0F883085
:103DD00010F0D11109C0802F0E9431260E94712657
:103DE0008D2F0E949E1D14C0802F0E944126F6CF69
:103DF0008D2F0E94281E002359F080E28D0F8830FD
:103E000010F0D1112BC0802F0E9437260E947126FE
:103E1000EB2DE850FF0B349720F40E942B1C0E94DE
:103E2000C806EE2009F488C10E94022680FD84C1E4
:103E3000F60112820E94FC250E948724C6010E947E
:103E4000BD200E94FC25DF91CF911F910F91FF9023
:103E5000EF90DF90CF90BF900C94A824802F0E9409
:103E60004726D4CF2C2F2F70F22EC07FC03219F0EE
:103E7000F29480EFF822DD2369F0D13049F111236B
:103E800091F1002351F1F601858180FFA9CF8F7058
:103E9000858323C0112381F0011106C00E9454269E
:103EA0008F290E94961EB4CF0130C1F70E9454267C
:103EB0008F290E945A26ACCF011106C00E946726A6
:103EC0008F2D0E949D1EA4CF013009F4A1CFF6CF03
:103ED000112329F0063008F09BCF8F2DE2CF05305B
:103EE00008F096CFEDCF002359F3D93309F01CC168
:103EF000FFEF27EE33E0F15020403040E1F700C003
:103F000000008D2F0E94281E83CF8C2F86958695CA
:103F1000837069F0813009F07BCF8D2F9C2F9370D7
:103F2000111102C090E080E00E94581C71CF8D2FCB
:103F30009C2F9370111102C090E080E00E94421CFF
:103F400067CF8C2F837009F041C0111161CF4D2FC5
:103F5000429546954770440F440F0D2F0F7010E0A7
:103F600030E020E0042E04C0000F111F221F331F79
:103F70000A94D2F760E070E0CB01D4FF0FC06FE08D
:103F800070E080E090E004C0660F771F881F991FE3
:103F90004A95D2F76095709580959095C695C6958F
:103FA000C370602B712B822B932BC23049F058F4D5
:103FB000C13019F00E9439242BCF0E94272428CF2A
:103FC0000E944B2425CF0E94252422CF86951123C1
:103FD00011F08C2F8170882309F41ACF4D2F429550
:103FE00046954770440F440F0D2F0F7010E030E0DE
:103FF00020E0042E04C0000F111F221F331F0A945B
:10400000D2F760E070E0CB01D4FF0FC06FE070E04A
:1040100080E090E004C0660F771F881F991F4A95C3
:10402000D2F76095709580959095C695C695C370AA
:10403000602B712B822B932BC23049F058F4C13086
:1040400019F00E94FE24E4CE0E94EC24E1CE0E94EE
:104050001025DECE0E946124DBCECF70112329F023
:104060008C2F0E9487248D2F1CCF8D2F0E949D1E88
:104070008C2F0E94A824CCCED23F89F160F4D03F8F
:10408000C9F0D13F29F1112309F442C00111A8CE92
:104090008C2F8F7121C0D33F39F1D43FA1F7112369
:1040A00069F1CF718C2F0E94872463E08C2F0E94CE
:1040B000A726AECE112341F0053008F0A9CE8C2FF3
:1040C0008F710E94CB24A4CE063008F0A1CEF7CF8A
:1040D0008C2F8F71112369F20E94872499CE8C2F27
:1040E0008F711123C9F3C5CF112329F08C2F8F7144
:1040F0000E9472248DCE0E946D248ACE81E00E949F
:10410000C226023008F484CE82E00E94C22680CE0D
:10411000002379F0D93341F49FEFE7EEF3E09150BB
:10412000E040F040E1F7EBCE8FE39CE90197F1F737
:10413000E6CE8C2F8F719DCFDF91CF911F910F9184
:10414000FF90EF90DF90CF90BF9008950F931F9353
:10415000CF93DF93EC01688179818A810E94C42525
:104160008C010E9422250E942424B801CE01DF91F7
:10417000CF911F910F910C94A41ECF93DF93EC016C
:104180008B819C81892B29F08881998189238F3F9C
:1041900059F4DF91CF910895CE010E94A620CE015F
:1041A000DF91CF910C940305CE010E948A05811105
:1041B000F3CF0E940626882361F38A81882349F37E
:1041C00082E0DF91CF910C94C226882321F00E94D7
:1041D00041260C9471260895882321F00E944726D9
:1041E0000C947126089590E080E00E94421C90E0BB
:1041F00080E00E94581C0E944E260E9451260C947A
:1042000071260E94F6250C94F3200E943E260C9401
:104210000121E92FE295EF70E250EE3070F4F0E00A
:10422000E452FA4C0C94A434803F19F020F4883EF8
:1042300020F481E00895843FE1F380E00895883E12
:10424000C0F3813FD1F7F5CF93FB882780F908951C
:104250000E94BA250C940921CF93DF9300D000D09F
:104260000F92CDB7DEB70F900F900F900F900F9079
:10427000DF91CF910895CF93DF9300D000D000D08D
:10428000CDB7DEB726960FB6F894DEBF0FBECDBF12
:10429000DF91CF9108951F93CF93DF93C0911A04BC
:1042A00016E080911B048C1304C0DF91CF911F9105
:1042B0000895D0E01C9FF0011D9FF00D1124E45ED5
:1042C000FB4F4081518162817381848195810E947D
:1042D0003B212196C770E5CF40914C0450914D048D
:1042E00060914E0470914F0480915004909151045C
:1042F0000C943B211F93CF93DF9380915104807FD7
:10430000A9F480914E04882389F080911A04C09109
:104310001B0460914C0470914D04A0914F04B09126
:104320005004D62FD72316E0C81304C0DF91CF91D5
:104330001F91089590E0109711F0DF3F19F4019656
:104340008770F2CF189F9001199F300D1124F90149
:10435000E45EFB4F41814713F2CF40814613EFCF1C
:1043600042814111ECCF438154814A1B5B0B483C95
:10437000510528F7809151048F708061809351041A
:10438000F901EF5DFB4F80818F70806180838CE449
:1043900094E00E94BD20DF91CF911F910C944B219E
:1043A000AF92BF92CF92DF92EF92FF920F931F9343
:1043B000CF93DF93CDB7DEB761970FB6F894DEBF2A
:1043C0000FBECDBF8C0185E0F801DE011D96019086
:1043D0000D928A95E1F7F80140815181E2808CE4E9
:1043E000C82E84E0D82E60914F047091500461155E
:1043F000710509F461C190914C0420914D04892FFD
:1044000082238F3F09F458C1A380B480F0904E04FA
:10441000F501E61BF70BFF2009F4FCC08091510465
:10442000382F307FE83CF10508F0B2C0311179C077
:10443000FE2C251323C0941321C0E1101FC08F70E0
:104440008061809351040E946C21C6010E94BD20AE
:1044500080915104F80185838F2D61960FB6F894F1
:10446000DEBF0FBECDBFDF91CF911F910F91FF90A7
:10447000EF90DF90CF90BF90AF900895AB2829F0D8
:10448000842F85238F3F09F033C180E0F82FF1702E
:10449000DF2E80FF3CC080911A0420911B0436E07F
:1044A000821315C04D875E878D859E850E94BA2533
:1044B000292F22952F702230F0F0243018F59F70AC
:1044C000F1F0F8019581907FD1F4D12C1EC090E0DD
:1044D000389FF001399FF00D1124E45EFB4F61819C
:1044E000651306C06081641303C062816E110FC042
:1044F00001968770D5CF9F7011F0882331F3805ECD
:10450000883018F3C8010E94BD20FD2CA5CFEE20F5
:1045100009F4A2CF80915104816080935104F12C61
:104520009BCF251306C0941304C0F801EE2009F4B4
:104530008DC04D875E878D859E850E9428218823AA
:1045400019F1EE2009F180915104803270F0209130
:104550004C0430914D0438872F831986BB86AA8678
:104560008C87CE0107960E94BD2086E0F801ACE45E
:10457000B4E001900D928A95E1F70E947A210E94A1
:104580006C21FF24F39468CFC8010E94BD20F9CFAD
:10459000311113C07A2DB98AA88A6E2D89890E949B
:1045A0002C218CE494E00E94BD2086E0F60111925B
:1045B0008A95E9F70E946C21B2CF25130FC094139E
:1045C0000DC0E1100BC0F8018583C8010E94BD2019
:1045D00086E0F60111928A95E9F73ECF4D875E8716
:1045E0008D859E850E942821882371F2EE2061F23C
:1045F00080915104803208F4B8CF20914C0430915E
:104600004D043A8329831B82BD82AC828E83CE0106
:104610000196A9CFE83CF10508F041C0FE2CEE2040
:1046200009F4B2CF25132AC0941328C080915104F5
:1046300080FD1BC0982F907FC1F0F8018583903FCB
:1046400031F0982F907F905F8F70892B8583C80100
:104650000E94BD2086E0F801ACE4B4E001900D9228
:104660008A95E1F70E946C21F7CE86E0F801ACE470
:10467000B4E001900D928A95E1F7EECE4D875E870A
:104680008D859E850E94282181116FCF80915104D4
:10469000816080935104C8010E94BD20DDCE7A2D37
:1046A000B98AA88A6E2D89890E942C2186E0F6019C
:1046B00011928A95E9F7D6CFEE2009F465CF4D87A0
:1046C0005E878D859E850E942821F82E882309F417
:1046D0005BCF86E0F801ACE4B4E001900D928A95DE
:1046E000E1F78CE494E00E94991D0E947A21BACFF0
:1046F00081E08E25CBCE1F93CF93DF93CDB7DEB76E
:104700002C970FB6F894DEBF0FBECDBF4F835887EE
:1047100069877A878B879C87CE0107960E94D02174
:10472000882369F08A859B85892B39F04F815885CC
:10473000842F85238F3F09F071C016E05FC086E0AB
:10474000FE013796DE01119601900D928A95E1F7F0
:104750008A859B85892B89F38F81988589238F3F53
:1047600061F320911B0430E0C901019687709927FD
:1047700040911A044817190671F40E9405211092FD
:104780001B0410921A0486E0ECE4F4E0DF011D92B1
:104790008A95E9F7D2CF96E0929FD001939FB00D12
:1047A0001124A45EBB4FFE01319601900D929A95A3
:1047B000E1F780931B040E944B21BFCF819FC00172
:1047C0001124845E9B4F0E94D0218823E9F0E09160
:1047D0001A041E9FF0011124E45EFB4F40815181B9
:1047E00062817381848195810E943B2180911A04AA
:1047F00090E001968770992780931A0480911A049B
:1048000090911B048913DACF2C960FB6F894DEBF73
:104810000FBECDBFDF91CF911F91089569857A8535
:104820008B859C850E943B2188CF08950C9415248C
:104830000E941624609388047093890480938A04EC
:1048400090938B040C94F32008950C9418240F93E8
:104850001F93009188041091890420918A0430915B
:104860008B04602B712B822B932B1F910F910C9437
:1048700018240F931F9300918804109189042091AC
:104880008A0430918B0460237123822393231F9128
:104890000F910C9418240F931F930091880410918A
:1048A000890420918A0430918B0460277127822724
:1048B00093271F910F910C9418240C9415240C9499
:1048C0005D240E945F246093840470938504809328
:1048D0008604909387040C94F32060E070E0CB0191
:1048E0000C9461240F931F9341E050E060E070E06E
:1048F0008A019B0104C0000F111F221F331F8A95DC
:10490000D2F7C901B8011F910F910C9461240F9344
:104910001F9341E050E060E070E004C0440F551F79
:10492000661F771F8A95D2F7809184049091850441
:10493000A0918604B09187048A019B01082B192B52
:104940002A2B3B2BC901B8011F910F910C946124B4
:104950000F931F9341E050E060E070E004C0440F0B
:10496000551F661F771F8A95D2F7CB01BA01609554
:104970007095809590950091840410918504209104
:1049800086043091870460237123822393231F912F
:104990000F910C9461240F931F9341E050E060E06D
:1049A00070E004C0440F551F661F771F8A95D2F729
:1049B0008091840490918504A0918604B09187042D
:1049C0008A019B01082719272A273B27C901B8011B
:1049D0001F910F910C9461240F931F9300918404F5
:1049E000109185042091860430918704602B712BEF
:1049F000822B932B1F910F910C9461240F931F9383
:104A000000918404109185042091860430918704DC
:104A100060237123822393231F910F910C946124AF
:104A20000F931F93009184041091850420918604B4
:104A30003091870460277127822793271F910F9158
:104A40000C9461240895990F990F990F890F982F4D
:104A5000977041E001C0440F9A95EAF786958695D4
:104A6000869595E0899FF0011124EE5AFB4F30E0C6
:104A700020E070E05191DF011197CB01022E02C0BE
:104A8000969587950A94E2F781708195852784230E
:104A900085278C932F5F3F4F2530310559F70895B7
:104AA000990F990F990F890F982F97708695869572
:104AB000869525E0829FF0011124EE5AFB4F50E0CD
:104AC00040E080E0219130E0092E02C03695279524
:104AD0000A94E2F721703327042E01C0220F0A94B2
:104AE000EAF7822B4F5F5F4F4530510559F7089524
:104AF000BF92CF92DF92EF92FF920F931F93CF93CB
:104B0000DF938C01C0908404D0908504E0908604EB
:104B1000F09087048091880490918904A0918A0480
:104B2000B0918B04C82AD92AEA2AFB2ACFE1D0E027
:104B3000BC2ED701C6010C2E04C0B695A79597953B
:104B400087950A94D2F780FD0EC0219788F7B12C83
:104B50008B2DDF91CF911F910F91FF90EF90DF9000
:104B6000CF90BF900895B8018C2F0E94D006019776
:104B700061F3EECFCF93DF93EC010E947825BE0165
:104B8000DF91CF910C94D0061F93CF93DF93EB016D
:104B900090911904992331F0CB01DF91CF911F91AE
:104BA0000C94BA25882379F0CB010E947825182F20
:104BB000682FCE010E942325BE01812FDF91CF9166
:104BC0001F910C94D006CB010E945025182FF4CFD2
:104BD000682F80911701909118010C94DA27682FA3
:104BE00080911701909118010C94DC278091170196
:104BF000909118010C94DE2780918C048595859501
:104C00008595089580918C048770089590918C0407
:104C1000977081E009F480E008959091A60492FBDA
:104C2000222720F9281751F080FB92F99093A604CF
:104C30008091A5049091A6040C9407270895809173
:104C4000A60482FB882780F991E089270C940D2621
:104C500081E00C940D2680E00C940D268091980440
:104C6000089590919804892B8093980408958095D5
:104C70009091980498239093980408951092980422
:104C8000089590919704892B8093970408958095B7
:104C90009091970498239093970408951092970405
:104CA000089510929604089580918D0408950895B2
:104CB0000C9457269091A60492FD08C090918D0403
:104CC000981721F080938D040C94582608958091B4
:104CD0008D04882329F010928D0480E00C945826CE
:104CE0000895E0911701F091180180919804808354
:104CF000E0911701F0911801808190919704892B20
:104D00008083E0911701F0911801808190919604C1
:104D1000892B808390918D04992381F0E091170174
:104D2000F09118018081892B8083809117019091E7
:104D300018010E94922781110E9467268091170115
:104D4000909118010C94371C08950C94A42690910E
:104D5000A60492FD10C098E0899F90011124622B57
:104D600060938C040E94872480918C04859585959E
:104D700085950C94A5260C94872410928C0480E0D1
:104D80000C94A52690918C048095892380938C04A3
:104D9000282F277039F4282F082E000C330B921778
:104DA000130621F49091A60492FF07C0859585957E
:104DB00085950E94A8240C94BD26089580E008954E
:104DC0006FEF7FEF90E080E00C94863590E080E01C
:104DD0000E94623521E08A3E9E4F09F020E0822F3A
:104DE000089582E090E00C94543583E090E00C94B8
:104DF0005435CF9384E090E00E945435C82F82E26E
:104E000090E00E945435982F8C2FCF910895CF9326
:104E1000C92F682F84E090E00E9468356C2F82E2F1
:104E200090E0CF910C946835AB01BC018FE090E02D
:104E30000C947A35AB01BC0183E190E00C947A3597
:104E400060E070E0CB010C941A2760E070E0CB01C9
:104E50000E9414270C9420276AEE7EEF90E080E0F9
:104E60000E94863560E082E090E00E94683560E054
:104E700083E090E00E9468351092880410928904C3
:104E800010928A0410928B0460E084E090E00E940B
:104E9000683560E082E290E00E94683560E085E07D
:104EA00090E00E94683560E086E090E00E946835FE
:104EB0006FEF87E090E00E94683540E050E0BA0173
:104EC00088E090E00E947A3560E08DE090E00E94FA
:104ED000683540E050E0BA0188E190E00E947A3500
:104EE00060E087E190E00E94683540E050E0BA0160
:104EF0008CE190E00E947A3570E060E080E290E022
:104F00000E94863540E050E0BA0188E190E00E94BE
:104F10007A350C9425270C942C27682F8EE090E08E
:104F20000C9468359C012E5F3F4FAC01485F5F4F8A
:104F300080E02417350709F40895F90191919F0144
:104F40009923B9F38F5FF5CF662349F0FC013296C0
:104F500008962191261729F0E817F907D1F780E084
:104F6000089581E008959C01FC0132969FEF80E056
:104F70004191461751F09F3F19F4411101C0982FFC
:104F80008F5F8630A9F79F3F09F40895290F311DDF
:104F900097FD3A95F90162830895FC0132960896CF
:104FA0002191261303C0DF0111971C92E817F9071E
:104FB000B9F708950C94B3270C94CD27029626E0F8
:104FC000FC0111922A95E9F70895089508950C942B
:104FD000E62780917906843059F10E94E72780E026
:104FE0000E94C8060E94511310929A0488E190E032
:104FF00020E40FB6F894A895809360000FBE20932C
:10500000600083B7817F846083BF83B7816083BF83
:105010007894889583B78E7F83BF0FB6F894A89550
:1050200080916000886180936000109260000FBEE4
:1050300008950895CF930E94E5270E9423090E94B6
:105040001928C0E08C2F0E94D808811105C0CF5FBD
:10505000CA30C1F7CF91089581E0FCCF08950C9438
:105060002E280E9405210E942B1C0E94C8060E9427
:105070001D140C942F281F921FB61F9211248F937A
:105080009F93AF93BF9380919A04811113C0809135
:10509000840590918505A0918605B091870541967C
:1050A000A11DB11D8093840590938505A09386056D
:1050B000B0938705BF91AF919F918F911F901FBEB5
:1050C0001F90189582E084BD93E095BD9AEF97BD3F
:1050D00080936E0008952FB7F89480918405909185
:1050E0008505A0918605B09187052FBF08952FB73C
:1050F000F894609184057091850580918605909162
:1051000087052FBF08959C014FB7F89480918405BF
:1051100090918505A0918605B09187054FBF821BB0
:10512000930B089578941F921FB61F9211248F93AA
:105130009F93AF93BF938091840590918505A09133
:105140008605B09187050196A11DB11D8093840548
:1051500090938505A0938605B0938705BF91AF9185
:105160009F918F911F901FBE1F90189581E0809393
:10517000E00080E28093D8001092C9008FE19EE4A5
:105180000197F1F700C0000087E090EBDC0180930D
:10519000820690938306A0938406B093850688E1E7
:1051A0009CE00FB6F894A895809360000FBE909392
:1051B0006000FFCF90930502809304020895881F3A
:1051C0008827881F089591E0883F08F490E0892F90
:1051D0000895982F907F903BE9F040F49039D1F0FA
:1051E000903AC1F09038B1F080E00895903D19F008
:1051F00020F4903CC9F782E00895903E59F0903F2A
:1052000099F7815F8F3080F7E82FF0E0EB51FE4F88
:105210008081089583E008950F93022F0F77242F44
:105220002F776F70462F406BDC01ED91FC9163E0AE
:1052300070E009950F9108950F93022F0F77242F97
:105240002F776F70462F4069DC01ED91FC9163E090
:1052500070E009950F9108950F93022F0F77242F77
:105260002F776F70462F4068DC01ED91FC9163E071
:1052700070E009950F9108950F931F93411520E257
:10528000520744F49A01305E4115504E2CF430E040
:1052900020E002C02FEF3FE38901000F012F001F24
:1052A000110B11952F776F70462F406EDC01ED9139
:1052B000FC9163E070E009951F910F910895FC0146
:1052C000738362830895FC01758F648F0895CF9373
:1052D000DF93EC011DA21FA21EA2BC01685D7F4FDF
:1052E00040EC88519F4F0E94722B1B821A821D82B4
:1052F0001C821F821E82198618861B861A861D86AE
:105300001C861F861E86198A188A1B8A1A8A1D8A7D
:105310001C8A1F8A1E8A198E188E1B8E1A8E1D8E4D
:105320001C8E1F8E1E8E19A218A2DF91CF91089598
:10533000EF92FF920F931F93CF93DF93EA018A01BD
:10534000060F111D88519F4F7C01C017D10739F4FA
:10535000DF91CF911F910F91FF90EF900895699188
:10536000C7010E94792BF1CFFC01718360830895FE
:10537000FC0171A360A30895AF92BF92CF92DF9218
:10538000EF92FF920F931F93CF93DF9300D00F9272
:10539000CDB7DEB77C016B01142FB22EA02EDC013D
:1053A00095968C9195978430A9F55A96ED91FC913C
:1053B0003097E9F1CB01019763E070E00E945A3425
:1053C000CB01880F991F860F971F4983BA820B83E1
:1053D0004C2D481B9E012F5F3F4FBC01C701099513
:1053E000D7015E96ED91FC91309731F00A2D2B2D6F
:1053F000412FB601C70109950F900F900F90DF91D3
:10540000CF911F910F91FF90EF90DF90CF90BF90C1
:10541000AF9008956230710509F455C0633071058D
:1054200099F06130710509F481C0D12CC12CD701EC
:105430005C96ED91FC91309799F20A2D2B2D412F1E
:10544000B601C7010995CCCF842F807F803A11F136
:1054500048F48038D1F0803951F7D7011496ED9196
:10546000FC910AC0803ED9F0803FF1F0803BF9F614
:10547000D7011296ED91FC913097C9F2123FE9F0F5
:105480002A2D4B2D612F6F701BC0D7011696ED9101
:10549000FC91F2CFD7011896ED91FC91EDCFD70199
:1054A0001A96ED91FC91E8CF423F09F6D7011C9680
:1054B000ED91FC91309709F4BACF2A2D4B2D62EF74
:1054C000C70109958DCF842F807F803DB1F0803F4B
:1054D000C9F0803C09F0ABCFD7011E96ED91FC914D
:1054E000309709F4A4CF812F8D7F4B2D612F6F70E2
:1054F000813F89F0C701099573CFD7015096ED918F
:10550000FC91EECF433F51F4D7015296ED91FC91BF
:10551000309709F48CCF4B2D612FECCF413F09F030
:1055200086CFD7015496ED91FC91F2CF842F0E9443
:10553000E328882359F0D7015696ED91FC913097D6
:1055400009F475CF612FC70109954ACF163F09F0BD
:105550006ECFD7015896ED91FC91F1CFFF920F934A
:105560001F93CF93DF93EC01162F862F0E94E32821
:10557000882391F0FDA081E08DA300E020E0412F81
:1055800061E070E0CE010E94BC29FDA2DF91CF91C5
:105590001F910F91FF900895812F0E94DF284DA148
:1055A000882309F443C0443029F01AA381E090E035
:1055B0009FA38EA3812F0E94E928813051F0882378
:1055C000A9F0823089F0833079F01DA21FA21EA2BB
:1055D000DDCF8DA300E020E0412F61E070E0CE013F
:1055E0000E94BC291DA2D2CF8DA3D0CF103FB1F015
:1055F000173F59F72EA13FA1C90163E070E00E9457
:105600005A34FE01E80FF91F12A3B9016F5F7F4FF3
:105610007FA36EA30CA12BA14AA1E1CF84E08DA3AF
:105620001AA381E090E09FA38EA3B0CF442309F496
:10563000ADCF2EA13FA1C90163E070E00E945A34B2
:10564000FE01E80FF91F12A3B9016F5F7F4F7FA31F
:105650006EA38130910569F0029709F097CF0CA1F4
:105660002BA14AA1CE010E94BC298DA18430C9F68C
:105670008DCF00E0423009F089CFF2CFCF92DF9298
:10568000EF92FF920F931F93CF93DF93EC01E8A16A
:10569000F9A1309709F009956E0188EEC80ED11C6A
:1056A000C6010E94A82B10E000E0E82EF12C0E1598
:1056B0001F0548F0DF91CF911F910F91FF90EF9060
:1056C000DF90CF90089560E0C6010E94BC2B682F48
:1056D000CE010E94AE2A61E0C6010E94CC2B0F5F72
:1056E0001F4FE5CFFC0142837483638311821082D4
:1056F00008951F93CF93DF93EC01162F0E94E32BA5
:10570000482F298130E0C90101966A8170E00E942A
:105710006E3458815817190641F4842F0E94E62BE5
:1057200080E0DF91CF911F9108958B819C81280F9C
:10573000391FF9011083898190E001966A8170E038
:105740000E946E348983842F0E94E62B81E0E9CF8A
:10575000CF93DF93EC010E94E32B9981288192176C
:1057600040F0C92FC21B0E94E62B8C2FDF91CF91F6
:105770000895CA819C0FF5CFFC018081860F99277F
:10578000991F628170E00E946E3423813481280F5A
:10579000391FF901808108951F93CF93DF93EC01A6
:1057A000162F0E94E32B282F8881810F9927991F9C
:1057B0006A8170E00E946E348883822FDF91CF91DE
:1057C0001F910C94E62B8FB7F89408958FBF08951E
:1057D000089508950F931F93CF93DF9300D000D0C7
:1057E00000D00F92CDB7DEB78C01CE0101960E949A
:1057F0007D2E81110BC027960FB6F894DEBF0FBE29
:10580000CDBFDF91CF911F910F9108958A810E94A2
:10581000E9289A819D839B819E839C819F8381112E
:105820000AC08981843079F0873069F0863069F068
:105830008530D9F681E0AE014B5F5F4F682FC8011C
:105840000E949829D2CF83E0F6CF82E0F4CFDF9296
:10585000EF92FF920F931F93CF93DF9300D000D06E
:10586000CDB7DEB77B01142FD22E4A832B830C8356
:10587000842F0E94E928811129C082E0E816F104F2
:1058800001F183E0E816F10439F0EA94EF2869F4B5
:1058900085E0173F21F404C087E0073F09F084E06A
:1058A0008983CE0101960E94782E0F900F900F9061
:1058B0000F90DF91CF911F910F91FF90EF90DF90AC
:1058C000089587EFD812EBCF86E0EACF12951F70CC
:1058D0001983E7CF0E94D10988E895E00E946729E3
:1058E00067E27CE288E895E00E94B4296AEE7BE2F8
:1058F00088E895E00E94B82968EE7BE288E895E0A8
:105900000E94632969EE7BE288E895E00C945F29A8
:105910009B01409179064430C1F4FC0191819F7054
:105920009093E90050E040E064E070E0C9010E941B
:105930006E2F81110BC09091E80095FD07C09091EA
:10594000E8009E779093E800089582E00895209102
:105950007906243091F4FC0181818F708093E900F5
:105960009091F3008091F200892B49F08091E8003A
:105970008E778093E8000C941C3182E0089580E0DB
:105980000895FC0180917906843059F491819F70CB
:105990009093E9008091E80080FF03C0CF010C9450
:1059A000A72C08959B0140917906443011F080E0C6
:1059B0000895FC0196819F709093E9008091E80022
:1059C00082FFF5CF8091E80085FFF1CF50E040E005
:1059D00064E070E0C9010E94BD2F8091E80085FD60
:1059E00005C08091E8008B778093E80081E00895FE
:1059F0008091A30408950895CF93DF9300D00F9270
:105A0000CDB7DEB790917906943011F589837B8309
:105A10006A839093E9008FEF9091E800815095FDA3
:105A200006C095ED9A95F1F700008111F5CF8091B0
:105A3000E80085FF0DC050E040E063E070E0CE017B
:105A400001960E946E2F8091E8008E778093E80087
:105A50000F900F900F90DF91CF910895BC0184E0DB
:105A60000C94FC2CBC0183E00C94FC2CCF93DF93B2
:105A7000EC0181E08093E9008FEF9091E800815084
:105A800095FD06C095ED9A95F1F700008111F5CFCF
:105A90008091E80085FF14C050E040E068E070E0CD
:105AA000CE010E946E2F8091E8008E778093E800EF
:105AB00088E0FE01ABE9B4E001900D928A95E1F730
:105AC000DF91CF910895CF93FC01603221F5809151
:105AD0007906843001F5C091E900CF702091EC0087
:105AE000922F917020FD90E8C92B82E08093E9000D
:105AF0008091E80080FF0CC050E040E060E270E080
:105B0000CF010E946E2F8091E8008E778093E8008D
:105B1000CF70C093E900CF910895809178068111EC
:105B200009C00E944D310E94AA318091E200846038
:105B30008093E200089510927806089508950895DC
:105B4000089542E061EC81E00E94C93042E261ECDC
:105B500084E00E94C93042E261EC82E00E94C930D8
:105B600042E260EC83E00E94C93042E361E885E0F4
:105B70000E94C93042E361E886E00C94C93080910C
:105B80007B06833009F461C030F48130D1F182307A
:105B900009F49DC008958A3009F489C08B3009F456
:105BA0006FC0893009F050C080917A06813209F0C7
:105BB0004BC080917E0690917F06009719F0029766
:105BC00009F042C08091E800877F8093E8008091CF
:105BD000E80082FF35C09091F3008091F2000297B7
:105BE00029F48091F1008B7F813021F48091F100C4
:105BF0008093A3048091E8008B778093E8000C9455
:105C0000FD3080917A06813AF9F48091E800877F2F
:105C10008093E80080917E0690917F06892B61F445
:105C200068E08BE994E070E00E940C308091E8001D
:105C30008B778093E800089560E090E080E0F3CFF8
:105C4000809179068111C3CF089580917A06813AB7
:105C5000D9F780917E0690917F06892BA9F78091D4
:105C6000E800877F8093E8008091E80080FFFCCF08
:105C700080912F018093F1008091E8008E77BDCF55
:105C800080917A06813201F780917E0690917F069D
:105C9000892BD1F68091E800877F8093E8000E94ED
:105CA000FD3080917C0680932F010C94052180911A
:105CB0007A06813249F68091E800877F8093E80078
:105CC0000E94FD3080917D068093A4040895809108
:105CD0007A06813A09F0B8CF8091E800877F8093F7
:105CE000E8008091E80080FFFCCF8091A404C2CF3F
:105CF000BC0189E191E00C94882CBC0189E191E020
:105D00000C94D22CCDB7DEB7A0970FB6F894DEBFB7
:105D10000FBECDBF0E946A2C84B7877F84BF0FB6A9
