:100000000C9423050C945B050C945B050C945B0528
:100010000C945B050C945B050C945B050C945B05E0
:100020000C945B050C945B050C948F250C944B256C
:100030000C948C260C945B050C945B050C945B056E
:100040000C945B050C945B050C945B050C945B05B0
:100050000C945B050C9468260C945B050C945B0572
:100060000C945B050C945B050C945B050C945B0590
:100070000C945B050C945B050C945B050C945B0580
:100080000C945B050C945B050C945B050C945B0570
:100090000C945B050C945B050C945B050C945B0560
:1000A0000C945B050C945B050C945B054D58205338
:1000B000776974636820382D380A004D58205377CB
:1000C0006974636820382D370A004D5820537769CA
:1000D00074636820382D360A004D582053776974B0
:1000E000636820382D350A004D58205377697463B2
:1000F0006820382D340A004D58205377697463689E
:1001000020382D330A004D582053776974636820D6
:10011000382D320A004D58205377697463682038AF
:100120002D310A004D582053776974636820372DAC
:10013000380A004D582053776974636820372D378B
:100140000A004D582053776974636820372D360AAA
:10015000004D582053776974636820372D350A00A5
:100160004D582053776974636820372D340A004D49
:10017000582053776974636820372D330A004D582F
:100180002053776974636820372D320A004D582058
:1001900053776974636820372D310A004D58205316
:1001A000776974636820362D380A004D58205377DC
:1001B0006974636820362D370A004D5820537769DB
:1001C00074636820362D360A004D582053776974C1
:1001D000636820362D350A004D58205377697463C3
:1001E0006820362D340A004D5820537769746368AF
:1001F00020362D330A004D582053776974636820E8
:10020000362D320A004D58205377697463682036C2
:100210002D310A004D582053776974636820352DBD
:10022000380A004D582053776974636820352D379C
:100230000A004D582053776974636820352D360ABB
:10024000004D582053776974636820352D350A00B6
:100250004D582053776974636820352D340A004D5A
:10026000582053776974636820352D330A004D5840
:100270002053776974636820352D320A004D582069
:1002800053776974636820352D310A004D58205327
:10029000776974636820342D380A004D58205377ED
:1002A0006974636820342D370A004D5820537769EC
:1002B00074636820342D360A004D582053776974D2
:1002C000636820342D350A004D58205377697463D4
:1002D0006820342D340A004D5820537769746368C0
:1002E00020342D330A004D582053776974636820F9
:1002F000342D320A004D58205377697463682034D6
:100300002D310A004D582053776974636820332DCE
:10031000380A004D582053776974636820332D37AD
:100320000A004D582053776974636820332D360ACC
:10033000004D582053776974636820332D350A00C7
:100340004D582053776974636820332D340A004D6B
:10035000582053776974636820332D330A004D5851
:100360002053776974636820332D320A004D58207A
:1003700053776974636820332D310A004D58205338
:10038000776974636820322D380A004D58205377FE
:100390006974636820322D370A004D5820537769FD
:1003A00074636820322D360A004D582053776974E3
:1003B000636820322D350A004D58205377697463E5
:1003C0006820322D340A004D5820537769746368D1
:1003D00020322D330A004D5820537769746368200A
:1003E000322D320A004D58205377697463682032E9
:1003F0002D310A004D582053776974636820312DE0
:10040000380A004D582053776974636820312D37BE
:100410000A004D582053776974636820312D360ADD
:10042000004D582053776974636820312D350A00D8
:100430004D582053776974636820312D340A004D7C
:10044000582053776974636820312D330A004D5862
:100450002053776974636820312D320A004D58208B
:1004600053776974636820312D310A00526F7461CB
:10047000727920456E636F64657220330A00526F93
:100480007461727920456E636F64657220320A0070
:10049000526F7461727920456E636F6465722031AA
:1004A0000A0054616374696C6520537769746368EA
:1004B00020340A0054616374696C65205377697451
:1004C000636820330A0054616374696C6520537754
:1004D0006974636820320A0054616374696C652032
:1004E00053776974636820310A00417E427E437EFF
:1004F000447E0000457E467E477E487E497E4A7E99
:100500004B7E4C7E4D7E4E7E4F7E507E517E527E87
:10051000537E547E557E567E577E587E597E5A7E37
:100520005B7E5C7E5D7E5E7E5F7E607E617E627EE7
:10053000637E647E657E667E677E687E697E6A7E97
:100540006B7E6C7E6D7E6E7E6F7E707E717E727E47
:10055000737E747E757E767E777E787E797E7A7EF7
:100560007B7E7C7E7D7E7E7E7F7E807E817E827EA7
:10057000837E847E857E867E877E0000000000006C
:10058000000000000000000000001E0F0500047FB6
:100590003F1F643214643214783C1E1E140A054551
:1005A0006E636F64657220332072696768740A0035
:1005B000456E636F6465722033206C6566740A0053
:1005C000456E636F64657220322072696768740AD1
:1005D00000456E636F6465722032206C6566740A34
:1005E00000456E636F6465722031207269676874BC
:1005F0000A00456E636F6465722031206C65667415
:100600000A000001010101010101010102020202CF
:1006100002020202020303030303030303040404AC
:100620000404040405050505050606060606070775
:1006300007070708080808090909090A0A0A0B0B2D
:100640000B0C0C0C0D0D0D0E0E0E0F0F0F101011CC
:100650001111121213131414151516161717181852
:1006600019191A1A1B1B1C1D1D1E1E1F20202122BA
:1006700022232424252626272829292A2B2C2D2D00
:100680002E2F30313232333435363738393A3B3C1D
:100690003D3E3F404142434445464748494A4C4D10
:1006A0004E4F50515354555658595A5B5D5E5F61D9
:1006B0006264656668696B6C6D6F7072737577786C
:1006C0007A7B7D7E8082838587888A8C8E8F9193CA
:1006D0009596989A9C9EA0A2A3A5A7A9ABADAFB1F1
:1006E000B3B5B7BABCBEC0C2C4C6C9CBCDCFD1D4D6
:1006F000D6D8DBDDDFE2E4E7E9EBEEF0F3F5F8FA7C
:10070000FDFFFFAA7F554000010203040506070F05
:100710000E0D0C0B0A090810111213141516171FD1
:100720001E1D1C1B1A191820212223242526272FC1
:100730002E2D2C2B2A292830313233343536373FB1
:100740003E3D3C3B3A39382223252628292A2C2DA8
:100750002F3032333536383A3B3D3E4042434547F1
:10076000494A4C4E5051535557595A5C5E60626429
:100770006668696B6D6F71737577797B7D7F818337
:100780008587898A8C8E90929496989A9C9E9FA138
:10079000A3A5A7A8AAACAEAFB1B3B4B6B8B9BBBC59
:1007A000BEBFC1C2C3C5C6C7C9CACBCCCDCED0D1CE
:1007B000D2D2D3D4D5D6D7D7D8D9D9DADADBDBDBC6
:1007C000DCDCDCDCDCDDDDDDDDDCDCDCDCDCDBDB67
:1007D000DBDADAD9D9D8D7D7D6D5D4D3D2D2D1D0BB
:1007E000CECDCCCBCAC9C7C6C5C3C2C1BFBEBCBBB8
:1007F000B9B8B6B4B3B1AFAEACAAA8A7A5A3A19F30
:100800009E9C9A98969492908E8C8A8987858381F3
:100810007F7D7B79777573716F6D6B6968666462D4
:10082000605E5C5A5957555351504E4C4A494745A2
:100830004342403E3D3B3A3836353332302F2D2C43
:100840002A29282625232205010980A101850319CB
:10085000012AB700150126B700950175108100C067
:10086000050C0901A101850419012AA00215012620
:10087000A002950175108100C005010906A10105BE
:100880000719E029E71500250195087501810295F2
:1008900001750881010507190029FF150026FF00D1
:1008A000950675088100050819012905150025011F
:1008B000950575019102950175039101C009029F8B
:1008C00000040100A0FA090400000103010100096D
:1008D00021110100012244000705810308000109DC
:1008E000040100010300000009211101000122326E
:1008F0000007058203200001080B0202010100002D
:10090000090402000001010000092401000109009E
:100910000103090403000201030000072401000190
:1009200041000624020101000624020202000924FB
:100930000301030102010009240302040101010073
:100940000905040240000500000525010101090513
:100950008302400005000005250101031201000289
:1009600000000008D804D8E80001010200011403C7
:1009700046006500750069006C006C00650036007B
:10098000340000000C03790079006E006D007400E3
:100990000000040309040000000000000000000043
:1009A0000000000000000000000000000000000047
:1009B000000000000000000000007E0F00D4FFFFD8
:1009C000FFC70000007800000000000000002A2B94
:1009D00028000000000000000000000000000000EF
:1009E0000029000000002C1E342021222434262758
:1009F000252E362D3738271E1F2021222324252679
:100A00003333362E37381F0405060708090A0B0C46
:100A10000D0E0F101112131415161718191A1B1C8E
:100A20001D2F3130232D350405060708090A0B0C4C
:100A30000D0E0F101112131415161718191A1B1C6E
:100A40001D2F3130354C11241FBECFEFDAE0DEBF51
:100A5000CDBF04B603FE18C080913B0690913C06C2
:100A6000A0913D06B0913E068730904BA740B04B19
:100A700059F410923B0610923C0610923D061092DB
:100A80003E06E0E0F8E3099526E0A2ECB1E001C003
:100A90001D92AB33B207E1F711E0A0E0B1E0E6EC64
:100AA000FDE502C005900D92A23CB107D9F70E9466
:100AB000B3260C94462E0C9400000F931F939B01B9
:100AC000305E8901000F012F001F110B11952F7748
:100AD000482F406EE0914B05F0914C0563E070E0CB
:100AE0008BE495E009951F910F9108950F93262FA0
:100AF000042F0F77482F406BE0914B05F0914C0588
:100B000063E070E08BE495E009950F910895482F1C
:100B100020914A059091110557E0291302C080E009
:100B2000089530E0529FF001539FF00D1124EE5EC6
:100B3000FA4F8181681306C08081481303C0858104
:100B40008111EECF2F5F3F4F2770E7CFA3E0B0E0DA
:100B5000ECEAF5E00C94B22C7C01162FD42EC22EB8
:100B600080917005843071F5E0916505F09166051E
:100B70003097C1F1C701019763E070E00E946B2CD0
:100B8000CB01880F991F860F971F19834A83CB8249
:100B90004E2D481B9E012F5F3F4FBC018BE495E01B
:100BA0000995E0916905F0916A05309739F00C2DAF
:100BB0002D2D412FB7018BE495E009952396E8E0B0
:100BC0000C94CE2C82E0E816F10409F45AC083E0BC
:100BD000E816F104A9F081E0E816F10409F484C0F4
:100BE000F12CE12CE0916705F09168053097C9F28E
:100BF0000C2D2D2D412FB7018BE495E00995D1CF18
:100C0000862F807F803A11F188F48038D1F0E0910E
:100C10004F05F0915005803929F7309719F3123FAD
:100C200049F12C2D4D2D612F6F7027C0803E99F01A
:100C3000803FB1F0E0914D05F0914E05803B91F67B
:100C4000ECCFE0915105F0915205E7CFE0915305CB
:100C5000F0915405E2CFE0915505F0915605DDCFB6
:100C6000623F09F0BFCFE0915705F09158053097EA
:100C700009F4B8CF2C2D4D2D62EF8BE495E009954A
:100C800090CF862F807F803DB9F0803FD1F0E091FA
:100C90005905F0915A05803C09F0A4CF309709F42A
:100CA000A1CF812F8D7F4D2D612F6F70813FC9F0B6
:100CB0008BE495E0099575CFE0915B05F0915C05BB
:100CC000EDCFE0915D05F0915E05633F39F0613F46
:100CD00009F088CFE0915F05F0916005309709F445
:100CE00081CF4D2D612FE4CFE0916105F091620538
:100CF000683F38F4663F09F075CFE0916305F091E5
:100D00006405309709F46ECF612F8BE495E0099567
:100D100048CFE8EDF0E080818E7F80831092E20082
:100D20001092DA001092E100A0EEB0E08C918160A8
:100D30008C9380818F77808319BCA7EDB0E08C9174
:100D40008E7F8C9380818F7E80831092FA04089529
:100D50002091E4003091E50095E6A9012091EC0096
:100D6000822F817020FF06C08091E80080FF06C0BE
:100D700080E008952091E80022FD1AC080910705C7
:100D8000882389F0853089F08091EB0085FD0FC0C4
:100D90002091E4003091E50042175307F9F2915099
:100DA000E1F684E0089582E0089583E0089581E00B
:100DB0000895EF92FF920F931F93CF937C018B01C5
:100DC0000E94A806C82F811117C08091E80085FDF8
:100DD0000BC08091E8008E778093E8000E94A806FF
:100DE000882399F3C82F08C0F70181917F01809370
:100DF000F1000150110949F78C2FCF911F910F91EC
:100E0000FF90EF9008958091090587FF13C08091AE
:100E1000E80082FF06C08091E8008B778093E800AD
:100E200004C0809107058111F2CF089580910705D4
:100E30008823D9F38091E80080FFF8CF8091E80003
:100E40008E77ECCF982F9093E900242F762F50E0E7
:100E5000891731F07091EC002091ED005091F00075
:100E600021FD07C09F5F973071F78093E90081E013
:100E700008953091EB003E7F3093EB003091ED0010
:100E80003D7F3093ED003091EB0031603093EB000B
:100E90007093EC002093ED005093F0002091EE0051
:100EA00027FDE0CF80E00895B0E0A0E0EAE5F7E0BC
:100EB0000C94B22CC8EDD0E088818F7E8883E7ED5A
:100EC000F0E080818160808384E082BF81E0809354
:100ED000FA0488818E7F888302EE10E0F801108288
:100EE0001092DA0081EEC82ED12CF6011082888192
:100EF0008F77888388818068888388818F7D8883C5
:100F000019BC109207051092080510920605109260
:100F1000050590EEE92EF12CF70180818B7F80830F
:100F200088818160888342E060E080E00E9422073F
:100F3000F60180818E7F8083F801808181608083CB
:100F4000808188608083F70180818E7F80838881A3
:100F500080618883CDB7DEB7E8E00C94CE2CFC012D
:100F600080910F059091100586179707A0F06115E5
:100F7000710529F49091E8009E779093E80090E045
:100F80006115710551F4911108C08091E80082FF4C
:100F900034C080E00895BC01F2CF8091070588231A
:100FA000C1F18530C1F18091E80083FD30C08091AE
:100FB000E80082FDEACF8091E80080FFE1CF8091D8
:100FC000F3002091F200382F6115710519F02830D7
:100FD000310558F091E02830310509F090E020917A
:100FE000E8002E772093E800CBCF81918093F10029
:100FF000615071092F5F3F4FE7CF8091070588232C
:1010000041F0853041F08091E80083FFBECF81E060
:10101000089582E0089583E00895089508958091E9
:10102000FC0408959C014FB7F8948091F6049091C8
:10103000F704A091F804B091F9044FBF821B930B01
:1010400008952FB7F8948091F6049091F704A09139
:10105000F804B091F9042FBF0895A3E0B0E0E3E3F2
:10106000F8E00C94B82C2091F3043091F404281784
:101070003907A1F09093F4048093F304E091F10414
:10108000F091F204309751F024E029839B838A8306
:101090000680F781E02DCE01019609952396E2E0C6
:1010A0000C94D42CA3E0B0E0E8E5F8E00C94B82C64
:1010B0002091EF043091F00428173907A1F09093A4
:1010C000F0048093EF04E091F104F091F204309782
:1010D00051F023E029839B838A830680F781E02DEA
:1010E000CE01019609952396E2E00C94D42CE09170
:1010F000F104F091F204309729F00190F081E02D95
:101100000995089580E00895FA01811101C0FB015D
:10111000099508958091E704982F9E7F61F481706E
:1011200082608093E7048091EA04893718F088E7A9
:101130008093EA0408958635B0F381708465F1CF19
:10114000AF92BF92DF92EF92FF920F931F93CF93D4
:10115000DF93182F062FE901493708F048E7E42FFD
:10116000F0E0EE5FF94F011110C0E4915E2F4E2FB9
:101170004983E8835A83DF91CF911F910F91FF90AC
:10118000EF90DF90BF90AF900895202F30E0449112
:10119000D42EE42EF12C56E0159FC0011124EFEF60
:1011A000F0E0BF010E946B2C812F90E0880F991F07
:1011B00055E5569FD001579FB00D11248A1B9B0BFC
:1011C000982F990F890F5F01A21AB30AAE9CD00124
:1011D000AF9CB00DBE9CB00D11245B2F089F800109
:1011E0001124012F11275F01A01AB10AAE9C8001C2
:1011F000AF9C100DBE9C100D11245F01A81AB10800
:10120000A29EC001A39E900DB29E900D1124892F25
:101210009927E81BF90BEE9DC001EF9D900DFE9DF7
:10122000900D1124E92F62307105A1F050F4611581
:10123000710509F49DCF6130710581F0EB2F512FBD
:1012400097CF6430710569F080F06630710509F45C
:101250008FCFF4CFE42F4B2F592F8ACFE42F412F7C
:1012600087CFEB2F542F492F83CF4B2F5D2DE12FAD
:101270007FCF08950895982F907F903BE9F040F438
:101280009039D1F0903AC1F09038B1F080E00895F3
:10129000903D19F020F4903CC9F782E00895903E0B
:1012A00059F0903F99F7815F8F3080F7E82FF0E099
:1012B000E857FE4F8081089583E00895A7E0B0E0ED
:1012C000E4E6F9E00C94B22C8C0108511F4F809198
:1012D0000705843009F087C0809112018F708093D8
:1012E000E9008091E80082FF7EC08091E80085FFE0
:1012F0007AC00E94A806811113C084E0E82EF12C68
:10130000CE0101966C018091E80085FD61C080915D
:10131000E8008B778093E8000E94A806882399F361
:101320008091E80085FD05C08091E8008B7780936F
:10133000E800FA808F2D0E943B09282FFD828B81C7
:101340008E838C818F8321110BC08981843041F180
:10135000873031F1863031F121E0853009F0B7CFA7
:1013600030E0E5E0F0E0EC0FFD1FE30FF11DF08051
:101370004FB7F894D8011196EC911197F0E0CF0196
:10138000019612966C9170E00E947F2CD8015C91BE
:101390005817190649F44FBF3F5F321710F397CF24
:1013A00023E0DECF22E0DCCF13968D919C91149741
:1013B000E80FF91FF08211968C91119790E0019639
:1013C00012966C9170E00E947F2CF8018183E3CF2C
:1013D0008091F100D6018D936D01B1E0EB1AF10817
:1013E00009F091CF9DCF2796E8E00C94CE2CA4E095
:1013F000B0E0EDEFF9E00C94B32C7B01142FD22E6A
:101400004A832B830C83842F0E943B0981113AC0AD
:1014100082E0E816F10489F183E0E816F10441F076
:1014200081E0E816F10429F5173F29F485E004C0AE
:1014300087E0073F09F084E08983809107058430C5
:10144000C1F480910D018F708093E90050E040E07D
:1014500064E070E0CE0101960E94D906811109C0B6
:101460008091E80085FD05C08091E8008E7780932B
:10147000E8002496E7E00C94CF2C87EFD812DBCF5E
:1014800086E0DACF12951F701983D7CF80E00895D8
:10149000F894E82FE295EF70F0E031A1282F2F703B
:1014A00081E090E001C0880F2A95EAF7982F909587
:1014B000932391A392A1892B82A37894089590916C
:1014C000AC0292FF10C041E0282F2471243009F0B3
:1014D00040E031E0282F2871283009F030E0431730
:1014E00011F02CE0822793FF10C041E0282F2471D7
:1014F000243109F040E031E0282F2871283109F02B
:1015000030E0431711F02CE082273091AD0230FF1C
:1015100010C051E0282F2171213009F050E041E046
:10152000282F2871283009F040E0541711F029E0E5
:10153000822731FF10C041E0282F2171213109F0AD
:1015400040E031E0282F2871283109F030E04317BE
:1015500011F029E0822794FD877E08958238910555
:10156000B9F1B0F48133910509F47DC048F48932B2
:10157000910509F46DC08A32910509F47BC0089584
:101580008533910509F45FC08933910509F1089508
:10159000833E9105D9F138F4803E910529F1823ED0
:1015A000910579F10895863E9105D9F1873E91051F
:1015B00009F43EC0843E910541F52091AD0221FF22
:1015C00024C08091AC0284FD19C087EE90E008959C
:1015D0002091AC02237009F05AC02091AD0223FF84
:1015E00014C089E290E008952091AC0220FD38C03B
:1015F0003091AD0230FF09C024FF43C090E080E08D
:1016000008952091AC0222FDF7CF08952091AC02FD
:1016100022FD3AC03091AD0230FD39C024FFF5CF34
:10162000EDCF2091AC0223FFF0CF24FDE7CFCDCF4B
:101630002091AC0223FD2EC03091AD0231FFEECFE0
:1016400084EE90E008952091AC0225FFDECFC9CF53
:101650002091AC0225FD21C02091AD0223FFD5CF02
:1016600089E390E0D2CF2091AC0226FFCECF8AE270
:1016700090E008952091AC0226FFC7CF81E390E06F
:10168000089583EE90E0089582EE90E0089580EE54
:1016900090E0089586EE90E0089585E390E0089547
:1016A0007A3088F4683078F4811110C088E0789F2F
:1016B000F0011124E60FF11DEE0FFF1FE651FB4F65
:1016C00085919491089580E090E0089581E0FCCFA9
:1016D0001F93CF93DF930E94AE0AEC01C11580E502
:1016E000D807F0F5C11580E4D80708F09CC0C03ECB
:1016F000D10520F5CD3CD10508F082C0C83AD1050E
:1017000078F4C53AD10508F073C0C130D10519F19C
:10171000209709F1C430D105F0F4D0E0C0E01BC03F
:10172000C33CD105D0F7C85AD0E0CC0FDD1FC65D51
:10173000DE4F0990D881C02DD4640DC0C11580E260
:10174000D80708F0D1C0C11581E0D80708F05AC009
:10175000C83ED10510F7CE01DF91CF911F910895BA
:10176000C03682E5D80718F5C03482E5D80708F0FE
:101770006BC0C03282E5D80708F05FC0C11582E5B2
:10178000D80708F497C02C2F2695269580E2289F2D
:10179000900111248C2F8370C1E0D0E002C0CC0FE7
:1017A000DD1F8A95E2F7C22BD32BDD68D4CFC03A78
:1017B00082E5D80760F4C03882E5D80708F459C03C
:1017C000CF71D0E0DC2FCC27C46FD06AC4CFC03C2F
:1017D00082E5D80708F462C0C03E82E5D80708F069
:1017E0009CCFDC2FCC27CC27DF71C06FD06AB3CF62
:1017F000C55AD0E0C95DDE4FC881D0E0D064ABCF20
:10180000D065A9CF8D2F0E945F0A182FCE0199278E
:101810000E94AE0AC12FD0E0DC2FCC27CC27DF718D
:10182000C82BD92B98CFCE0199270E94AE0ACC277E
:10183000DF70C82BD92BD06A8ECFCF71D0E0DC2FD0
:10184000CC27C16FD06A87CF2C2F2695269527707D
:1018500080E2289F900111248C2F8370C1E0D0E09A
:1018600002C0CC0FDD1F8A95E2F7C22BD32BDC68B8
:1018700072CF2C2F26952695277080E2289F900105
:1018800011248C2F8370C1E0D0E002C0CC0FDD1F8B
:101890008A95E2F7C22BD32BDA685DCF8C2F8F713C
:1018A0000E945F0AC82FD0E0DC2FCC27CC27DF7145
:1018B000D06251CF8C2F8F710E945F0A55E0D69570
:1018C000C7955A95E1F7CF70D0E0DC2FCC27282FB1
:1018D00030E084FF05C044E0220F331F4A95E1F752
:1018E000C22BD32BD06937CF8D2F8F710E945F0A07
:1018F000182FCE0199270E94AE0AC12FD0E0DC2F0D
:10190000CC27CC27DF71C82BD92BD2CF80959091D3
:1019100008029823909308020895E6ECF1E0919173
:10192000891303C0DF0111971C9291E0EC3CF90789
:10193000B1F70895A6ECB1E0EFEF90E02D9182179A
:1019400051F0EF3F19F4211101C0E92F9F5F96304C
:10195000A9F7EF3F09F408950E2E000CFF0BEC538E
:10196000FE4F8283089580914A0590911105981346
:1019700001C008958F5F8770FACFB0E0A0E0E3EC7C
:10198000FCE00C94B12C7C010091AA021091AB02F6
:101990008091090290910A02082B192BCFE0D0E028
:1019A000CC24C394D12CBC2EC6010C2E02C0880FAF
:1019B000991F0A94E2F780239123892B49F42197F8
:1019C00090F7B12C8B2DCDB7DEB7E9E00C94CD2C80
:1019D000B7018C2F0E94500B0E94680B019779F37E
:1019E000F1CFCF93DF93EC010E94BD0CBE010E94AA
:1019F000500B0E94680BDF91CF9108959A3070F5DB
:101A0000883060F528E0929FF0011124E80FF11D65
:101A10006E2F677083E0F695E7958A95E1F7EE0FF4
:101A2000FF1FEE0FFF1FE253FE4F50E040E080E04B
:101A3000219130E0062E02C0369527950A94E2F7F0
:101A400021703327042E01C0220F0A94EAF7822B5B
:101A50004F5F5F4F4430510559F7089580E0089576
:101A60009A3090F5883080F528E0929FF00111249B
:101A7000E80FF11D2E2F277041E001C0440F2A9579
:101A8000EAF783E0F695E7958A95E1F7EE0FFF1FF9
:101A9000EE0FFF1FE253FE4F30E020E070E0519167
:101AA000DF011197CB01022E02C0969587950A940B
:101AB000E2F7817081958527842385278C932F5F9A
:101AC0003F4F2430310559F708959093AB0280932E
:101AD000AA02089521E030E002C0220F331F8A9548
:101AE000E2F7209530958091AA029091AB02822373
:101AF00093230E94650D08959091FD01809589239F
:101B00008093FD01282F277069F4891759F090916F
:101B1000AD0292FF07C08695869586950E946A0D54
:101B20001092FD01089521E030E002C0220F331F22
:101B30008A95E2F78091AA029091AB02822B932BB7
:101B40000E94650D089590930A02809309020895FA
:101B5000FC0124812223C1F0808191810E94F10C3B
:101B600092959F70963091F058F4925F9F709230EA
:101B700058F4803F19F030F4883E30F481E0089545
:101B80009A5FF4CF843FD1F380E00895883EB0F3AC
:101B9000813FD1F7F3CFA6E0B0E0E1EDFDE00C949A
:101BA000B72C49835A8349815A819923A1F0222372
:101BB00091F0CA010E94BD0C182F682F89819A816B
:101BC0000E94300D69817A81812F0E94500B2696E8
:101BD000E3E00C94D32CCA010E94FE0C182FF2CF24
:101BE0009B01BA01909107059430E1F48093E900DC
:101BF0009FEF8091E800915085FD06C085ED8A95A4
:101C0000F1F700009111F5CF8091E80085FF0AC03F
:101C100050E040E0C9010E94D9068091E8008E772B
:101C20008093E800089543E050E0BC0182E00E9408
:101C3000F00D0895CF93DF93EC0148E050E0BC0134
:101C400081E00E94F00D88E0FE01ADEFB4E001906C
:101C50000D928A95E1F7DF91CF9108956091E704A5
:101C6000669570E04BE050E088E191E00E94712DB4
:101C7000892B19F481E08093E1020E94210890935E
:101C8000DB028093DA020895AF92BF92CF92DF9287
:101C9000EF921F93CF93DF93CDB7DEB7C05CD1092E
:101CA0000FB6F894DEBF0FBECDBF8091E70480FD74
:101CB0000AC0E7EEF2E0118210821282339683E0CE
:101CC000E73AF807C1F777E0A72E77E0B72EDE01F5
:101CD0001196AE014F535F4F1A2F7B2FF501849160
:101CE000282F30E0C901880F991F820F931F895157
:101CF0009D4FFC01C080D180E280CD92DD92ED92BB
:101D0000FFEFAF1ABF0AA417B50741F7809A31B3A6
:101D10003E7F21B321606FB7F894812F972FFC018C
:101D20007191CF01E8E021BB000000C077FF31BB1B
:101D3000770F000000C000C000C031BB00C0EA95B2
:101D400091F78417950759F76FBF8FE594E00197D6
:101D5000F1F700C00000C054DF4F0FB6F894DEBFAB
:101D60000FBECDBFDF91CF911F91EF90DF90CF904D
:101D7000BF90AF900895B0E0A0E0E1ECFEE00C94DD
:101D8000AA2CFC016280448081E08483E7E4F7E0D0
:101D90007490E6ECF7E0E4910091EA0406950158AE
:101DA00010E0000F111F012F1127C7EAD3E027EE23
:101DB000C22E22E0D22E37EE832E34E0932EAA24B8
:101DC000AA94B12C55245A94E719EE2EF12C82E0F6
:101DD000861530F08091E80488838091E904898336
:101DE000411016C01B821A8296014A81698188813E
:101DF0000E94A008259683E0C80ED11C8C169D0673
:101E000031F70E94440ECDB7DEB7E0E10C94C62C4A
:101E10008B818823E9F081508B83859DC00111243B
:101E20006C8170E00E946B2CFB01FF27E95BF84F8F
:101E30008491E82FE719E59DC0011124B7010E94A4
:101E40006B2C8091EA04689FB00111247A83CCCF77
:101E50000E94612DB5010E947F2C8017910724F606
:101E600082E0861588F40E94612DB5010E947F2CC6
:101E700088830E94612D2091E9042695622F70E0ED
:101E80000E947F2C280F29831A828091EA04893CC2
:101E900020F088EC8C838B83A7CF8431D8F784E142
:101EA000F9CFEF92FF920F931F93CF93DF938C01A3
:101EB000C7EED2E0F12CE12CF80194816091E904A5
:101EC0008091E804F0E2EF16F104ECF49923E9F0D4
:101ED0009E014091EA040E94A0082FEFE21AF20A44
:101EE000239680E4E816F10439F70E94440EF801C5
:101EF000848190E00196817099278483CDB7DEB705
:101F0000E6E00C94D02C992319F39E0140E0E3CF36
:101F1000B0E0A0E0EEE8FFE00C94AE2CEC014C81C8
:101F2000042F10E09801D8010E94372E9B01AC01CC
:101F30000E94022E4B015C01E0E2F0E0E01BF10B9D
:101F4000A5E5B0E0AC019B010E94022E6B017C0173
:101F50009F01DF010E94992C9B01AC010E940D2E74
:101F60009B01AC01280D391D4A1D5B1DC701B6013F
:101F70000E94152EF22E822F90E039E23F1598F143
:101F800043E0249F9001112435952795122F109539
:101F900097EEC92E92E0D92E00E085E5E82EEF18E5
:101FA0008E2D01FD8F2D9601412F6091E9040E9435
:101FB000A0080F5F53E0C50ED11C003489F70E94C2
:101FC000440E9C8181E0992319F0903219F48FEF2F
:101FD0008093250180912501890F8C83CDB7DEB7D1
:101FE000ECE00C94CA2C25E530E0A901481B590B04
:101FF000CA019A01220F331F280F391F37FFC4CFA0
:102000002F5F3F4FC1CF0F931F93CF93DF93C7EE47
:10201000D2E0FE01118210821282339683E0E73A09
:10202000F807C1F710E000E08091E502082E000CEF
:10203000990B081719078CF180912401082E000CC8
:10204000990B801791074CF19E014091EA04609131
:10205000E9048091E8040E94A0080F5F1F4F2396B7
:102060000034110509F70E94440E809123019091DC
:10207000E502980F9093E50220912401280F209308
:102080002401121614F49F331CF0819580932301D0
:10209000DF91CF911F910F910895198218821A82B2
:1020A000DCCFB0E0A0E0E7E5F0E10C94B22CFC015D
:1020B0008281DD24DA9480FD02C0DD24D394C7EE52
:1020C000D2E010E000E0198218821A8294E0E92E32
:1020D000F12CC12C8091E4028C0D8134ACF18F7312
:1020E000082E000C990B8017910791F48091EA0457
:1020F0008E9DA0018F9D500D1124559547955595A6
:1021000047959E016091E9048091E8040E94A0082F
:10211000CD0CF1E0EF1AF108E9F60F5F1F4F23969F
:102120000034110581F60E94440E8091E40291E092
:10213000D91210C081110CC08FE38093E402CDB797
:10214000DEB7E8E00C94CE2C87FFCACF805CC8CF06
:102150008150F3CF90E001968F739927EECFEF92E5
:10216000FF921F93CF93DF93EC0187EEE82E82E07E
:10217000F82E10E08C8197014091EA046091E90407
:10218000810F0E94A0081D5F83E0E80EF11C103C47
:1021900089F70E94440E9A818C8190FF08C08F5F5E
:1021A0008C83DF91CF911F91FF90EF900895815024
:1021B000F7CF9091E70490FF0CC0E7EEF2E0818347
:1021C00060834283339693E0E73AF907C1F70E94B0
:1021D000440E0895A3E0B0E0E0EFF0E10C94B62CDB
:1021E0008C018091E60281110AC09E012F5F3F4F52
:1021F00048E76FEF0E94A0088A818093E602F80109
:102200006481613069F08091E60240E0662361F00C
:1022100040E0623011F44091E60280E060E004C0EA
:102220006091E60240E080E00E94D910F8018481CC
:1022300090E0019663E070E00E947F2C84832396F7
:10224000E4E00C94D22CA3E0B0E0E9E2F1E10C94DC
:10225000B82C9091E70490FF0AC09E012F5F3F4F7A
:102260000E94A0084B8169818A810E94D91023961F
:10227000E2E00C94D42CCF93DF93EC01E7EEF4E092
:10228000438162818C810E9423118C818F5F8C83BA
:10229000DF91CF910895CF93DF93EC01EC81F0E0D3
:1022A000E95BF84F4491E7EEF4E0628181810E949E
:1022B00023118C818F5F8C83DF91CF910895B0E0E3
:1022C000A0E0E5E6F1E10C94AE2C49015A016B0166
:1022D0007C010E948A088401A4016A2D7B2D88E07C
:1022E00090E00E94C12D94014A2D5B2DB601C701DB
:1022F00000E20E94FA2C622F84E290E00E94AF2D4F
:10230000CDB7DEB7ECE00C94CA2CA3E0B0E0EBE86C
:10231000F1E10C94AD2CF82ED62EE42EC22E909125
:10232000E70490FF2EC0E92FE695AE2FB0E0A95646
:10233000BE4F8C918093E0029E7F923031F59E01DA
:102340002F5F3F4F8F2D0E94A0084B8169818A81AA
:102350000E94D910F092E804D092E904E092EA04D5
:10236000CC2079F02091E7046091EB047091EC04AB
:102370003F2D4D2D5E2D8091ED049091EE040E9435
:102380005F112396EDE00C94C92C823019F4E09093
:10239000EA04E0CF863019F4F090E804DBCF89300E
:1023A000D9F38931B9F6E9512E2F2170722EE695B5
:1023B000F0E0EE5FF84FE4910E2F10E037EEA32E21
:1023C00032E0B32E912C812CC40126E0969587959E
:1023D0002A95E1F7711013C08F0D95014E2D6D2DCB
:1023E0000E94A008800E911E83E0A80EB11C27EA6F
:1023F000A21623E0B20641F70E94440EABCF2F2D68
:10240000281B822FEACFE7EEF4E0438128E0421B4D
:1024100008F440E021E0628181810E9485110895E5
:10242000E7EEF4E0438128E0420F08F44FEF21E0AB
:10243000628181810E9485110895E7EEF4E0628156
:1024400028E0621B08F460E021E0438181810E9462
:1024500085110895E7EEF4E0628128E0620F08F448
:102460006FEF21E0438181810E9485110895E7EE9D
:10247000F4E0818121E04381628188500E948511CE
:102480000895E7EEF4E0818121E043816281885F75
:102490000E94851108958091EB04882319F08150E2
:1024A0008093EB042091E7043091E8044091E90423
:1024B0005091EA046091EB047091EC048091ED047A
:1024C0009091EE040E945F1108958091EB04833097
:1024D00018F48F5F8093EB042091E7043091E804B7
:1024E0004091E9045091EA046091EB047091EC048E
:1024F0008091ED049091EE040E945F1108959091F7
:10250000E70490FF34C09170811132C092609093C3
:10251000E704662391F02091E7043091E8044091AC
:10252000E9045091EA046091EB047091EC0480910D
:10253000ED049091EE040E945F116091E7046695AE
:1025400070E04BE050E088E191E00E94712D892B12
:10255000B1F01092E10281E08093DD0220E0409131
:10256000EA046091E9048091E8040E9485110895CD
:102570008B3210F09465CBCF880F982BC8CF0E9478
:102580002E0EE9CF61E00E947F1208958091E7044A
:102590008695815009F48AE261E00E947F120895D5
:1025A0008091E70486958F5F8B3208F081E061E0CF
:1025B0000E947F1208959091E70490FF08C09695BD
:1025C000981728F0961718F40E94D01208950E94C8
:1025D000C2120895E7EEF4E083E0808311828FEF6A
:1025E000828388E783831482758123E030E04FEF94
:1025F00058E760E0868197810E945F11089580917D
:10260000080290910702892B8093C40190910602E1
:10261000992391F0892B8093C40120E086EC91E00E
:10262000FC013191CF0131112F5FF1E08C3C9F070C
:10263000B9F721111092060248E050E06EEF71E008
:1026400084EC91E00E947E2D892BA9F088E0E4ECD7
:10265000F1E0AEEFB1E001900D928A95E1F7E091E3
:10266000F104F091F204309731F00280F381E02D13
:1026700084EC91E00995089510920802E6ECF1E0EF
:1026800086E0DF011D928A95E9F790E080E00E94E4
:10269000520890E080E00E942D08109207020E94EC
:1026A000FF120895AAE2B0E0E8E5F3E10C94B72C3C
:1026B00089E095E02091F100FC012193CF01F5E044
:1026C00081319F07B9F780910A05833009F470C002
:1026D000B8F4813009F447C0823009F4B1C0809168
:1026E000E80083FF88C28091090590910A059A301D
:1026F00008F081C2E92FF0E0E85BF14D0C94932CD7
:102700008A3009F48CC08B3009F46FC0893039F7F6
:1027100080910905813219F780910D0590910E0580
:102720000297E8F68091E800877F8093E800809127
:10273000E80082FF38C09091F3008091F200029788
:1027400031F48091F100813011F0863021F48091D4
:10275000F1008093FC048091E8008B778093E8007F
:102760000E940307BCCF80910905813A09F0B7CFD9
:102770008091E800877F8093E80080910D0590911B
:102780000E05892B61F468E08DEF94E070E00E9403
:10279000AF078091E8008B778093E800A0CF60E0DE
:1027A00090E080E0F3CF809107058111C0CF97CFF3
:1027B00080910905813A09F092CF80910D059091A1
:1027C0000E05892B09F08BCF8091E800877F8093DD
:1027D000E8008091E80080FFFCCF80912601809383
:1027E000F1008091E8008E77B9CF809109058132A0
:1027F00009F075CF80910D0590910E05892B09F098
:102800006ECF8091E800877F8093E8000E940307E5
:1028100080910B05809326010E943C1360CF80912C
:102820000905813209F05BCF8091E800877F8093B2
:10283000E8000E94030780910C058093FB044FCFB2
:1028400080910905813A09F04ACF8091E800877F9D
:102850008093E8008091E80080FFFCCF8091FB042A
:10286000BECF803899F0823809F0C5C180910D053E
:102870008F70873008F0BFC18093E9008091EB0032
:1028800085FB882780F91092E90006C08091050534
:1028900090910605911182609091E800977F909346
:1028A000E8008093F1001092F1008091E8008E77AB
:1028B0009EC1882309F48CC1823009F09CC18091AB
:1028C0000B0581118FC180910D058F702FEF280F9F
:1028D000263008F090C18093E9002091EB0020FFA2
:1028E00081C1933031F48091EB0080628093EB00E2
:1028F00079C19091EB0090619093EB0021E030E082
:1029000001C0220F8A95EAF72093EA001092EA00AC
:102910008091EB008860EACF81116DC110910B05A9
:102920001F778091E3008078812B8093E300809172
:10293000E800877F8093E8000E9403078091E80009
:1029400080FFFCCF8091E30080688093E30082E009
:10295000111183E0809307054EC18058823008F042
:102960004AC180910B0590910C058C3D23E09207A4
:10297000A1F583E08A838AE289834FB7F894DE0168
:10298000139620E03EE051E2E32FF0E05093570031
:10299000E49120FF03C0E295EF703F5FEF708E2F50
:1029A00090E0EA30C0F0C7968D939D932F5F24315D
:1029B00059F74FBF8091E800877F8093E8006AE273
:1029C00070E0CE0101960E94AF078091E8008B77FE
:1029D0008093E80010C1C096E7CF40910D0550915B
:1029E0000E05292F33272330310509F444C078F52B
:1029F0002130310509F46FC08FE990E0EDEBF8E08C
:102A00002230310509F0F7C02091E800277F20939C
:102A1000E80020910F05309110058217930708F404
:102A20009C0140E02115310509F064C0411162C0EC
:102A30008091E80082FDC9CF80910705882329F2A3
:102A4000853019F28091E80083FFF2CFBECF2132AA
:102A50003105A9F12232310509F0CDC041155105EA
:102A600009F443C04130510509F0C5C082E390E04C
:102A7000E7E4F8E0C9CF992781309105C1F00097CC
:102A800059F0029709F0B7C0EEE6F9E0E4918E2F15
:102A900090E0EEE6F9E007C0E2E9F9E0E4918E2F7C
:102AA00090E0E2E9F9E0009709F4A5C0ADCFE4E8D1
:102AB000F9E0E4918E2F90E0E4E8F9E0F4CF4115DD
:102AC000510571F04130510509F095C089E090E061
:102AD000E8EEF8E099CF82E190E0ECE5F9E094CF00
:102AE00089E090E0EFECF8E08FCF84E490E0E9E754
:102AF000F8E08ACF80910705882309F466CF8530F6
:102B000009F463CF8091E80083FD5FCF8091E800F6
:102B100082FD8ECF8091E80080FF84CF9091F300FA
:102B20008091F2002115310519F08830910550F09F
:102B300041E0089709F040E08091E8008E778093AB
:102B4000E80070CF44914093F10031962150310953
:102B50000196E8CF803809F04EC08091E800877F69
:102B60008093E800809108058093F1009ECE81114A
:102B700042C010910B051230F0F58091E800877F7C
:102B80008093E800109308050E940307112311F0B9
:102B900084E005C08091E30087FDFACF81E0809357
:102BA000070542E061EC81E00E94220742E261EC0D
:102BB00082E00E94220742E361E883E00E9422074C
:102BC00042E360E884E00E9422078091070513C079
:102BD00080910B05813079F481E0933009F080E039
:102BE000809306051092E9008091E800877F80932A
:102BF000E8000E9403078091E80083FF0AC08091EB
:102C0000E800877F8093E8008091EB0080628093EA
:102C1000EB00AA96E3E00C94D32C0E943C132FEF18
:102C200084E39CE0215080409040E1F700C0000028
:102C300088E19CE00FB6F894A895809360000FBEE1
:102C400090936000FFCF882321F00E94860C0E94A1
:102C5000FF120895882339F090910802982B9093E1
:102C600008020E94FF120895882309F44DC082389B
:102C700079F40E94770881FF47C089E30E949A0C8B
:102C80000E94FF1289E30E948D0C0E94FF1208959A
:102C9000833859F40E94770880FF36C083E50E948C
:102CA0009A0C0E94FF1283E5EECF843859F40E94FB
:102CB000770882FF29C087E40E949A0C0E94FF12C5
:102CC00087E4E1CF9CEF980F913AE8F290E2980FF9
:102CD000983050F4877091E001C0990F8A95EAF717
:102CE000892F0E94860CD1CF9BE5980F933028F452
:102CF00090E080E00E9452080895885A8B3120F4B9
:102D000090E080E00E942D080895CF93C82F88237B
:102D1000C9F08238C9F40E94770881FD13C089E3A5
:102D20000E949A0C0E94FF122FEF87EE93E0215031
:102D300080409040E1F700C0000089E30E948D0CC4
:102D40000E94FF12CF9108958338A1F40E94770862
:102D500080FDF8CF83E50E949A0C0E94FF122FEFAE
:102D600081EE94E0215080409040E1F700C00000E7
:102D700083E5E4CF8438A1F40E94770882FDE2CF96
:102D800087E40E949A0C0E94FF122FEF81EE94E0DC
:102D9000215080409040E1F700C0000087E4CECF92
:102DA0008CEF8C0F813A70F4E6ECF1E08CEC91E062
:102DB0002191C21799F18E179F07D1F78C2F0E948E
:102DC0009A0CBECF80E28C0F883068F4C77021E087
:102DD00030E001C0220FCA95EAF780910802822BE9
:102DE00080930802ADCFEBE5EC0FE33040F4F0E068
:102DF000E95DFE4F808190E00E945208A3CFC85A3F
:102E0000CB3108F09FCFEC2FF0E0EE0FFF1FE65D17
:102E1000FE4F808191810E942D0894CF8C2F0E94BB
:102E20008D0C0E94FF12CACF1F93CF93DF93182FF0
:102E3000EB010E9485168FE99FE00197F1F700C032
:102E400000002197C1F7812F0E943416DF91CF91A6
:102E50001F9108956AE070E0893311F460E570E035
:102E60000E9414170895B0E0A0E0E9E3F7E10C94A4
:102E7000B02CEC018AE0A82EFE012491222309F453
:102E800097C0213009F03EC031968491813031F4F1
:102E90002296FE0184910E942A1707C0823039F4DD
:102EA0002296FE0184910E9485162196E5CF8330FB
:102EB00031F42296FE0184910E943416F6CF8430BC
:102EC00009F074C02296FE01249190E080E0FE019A
:102ED00031962053330B2A30310548F0019728F3FF
:102EE000EFE9FFE03197F1F700C00000F7CFA89EAF
:102EF000A001A99E500D1124C901840F951F249192
:102F0000EF01E5CFE22FF0E0EA53F64FB490822FC5
:102F100086958695869590E0FC01EA54F64FE490FC
:102F20002770F12C022E02C0F594E7940A94E2F780
:102F300031E0E322FF24FC01EA55F64FC490D12C86
:102F4000022E02C0D594C7940A94E2F7E1E0CE22A3
:102F5000DD24FC01EA56F64F049110E002C01595FD
:102F600007952A95E2F701701127E114F10419F091
:102F700081EE0E948516C114D10419F086EE0E94DC
:102F800085168B2D0E942A17C114D10419F086EEE4
:102F90000E943416E114F10419F081EE0E943416F7
:102FA0000115110509F481CF8CE275CFEF017DCFBA
:102FB000CDB7DEB7EAE00C94CC2C0F931F93CF93E0
:102FC000DF93C62FD42F022FFC0185818823A9F01F
:102FD00060933A060E942108909339068093380640
:102FE000C77081E001C0880FCA95EAF70E942A16CF
:102FF000DF91CF911F910F91089580913A06681348
:1030000032C080913806909139060E941208883C9F
:10301000910548F510E21D0FCD17B9F080E28C0F35
:10302000883040F4C77081E001C0880FCA95EAF784
:103030000E942316183048F481E09D2F977001C03C
:10304000880F9A95EAF70E942A16802F0E942A1765
:10305000183070F6D77081E001C0880FDA95EAF772
:103060000E942316C5CFC77081E001C0880FCA95A2
:10307000EAF7F6CFAAE0B0E0E0E4F8E10C94AF2C78
:103080008E010F5F1F4F8AE0F80111928A95E9F7D0
:1030900080E6C82E81E0D82EF12CE12CAA24A3943E
:1030A000B12CF60181916F018F3F09F443C0F89470
:1030B000E82FE295EF70F0E021A18F70A50102C02A
:1030C000440F551F8A95E2F7CA01922F982B91A3BE
:1030D00092A18095892382A3789400C0EAE6F1E06A
:1030E000912C31E021912F3F09F465C0A22FA295C8
:1030F000AF70B0E090968C9190E02F7002C09595E3
:1031000087952A95E2F780FD56C0832F982A330FC2
:1031100051E0E237F50731F7F601319780818F3FB3
:1031200011F00E94480A80EA8A95F1F7F801EE0D45
:10313000FF1D9082EFEFEE1AFE0AFAE0EF16F1049F
:1031400009F0AFCF4AE050E0B80180EA92E00E9477
:103150007E2D892B91F18AE0F801A0EAB2E001907E
:103160000D928A95E1F781E080930F020E94210879
:1031700090930E0280930D0280910D0290910E02A9
:103180000E9412080597E8F04AE050E060EA72E019
:1031900081EB92E00E947E2D892BC1F08AE0E0EA6B
:1031A000F2E0A1EBB2E001900D928A95E1F781E0A7
:1031B00010920F0207C080E0A9CF80910F02811109
:1031C000DBCF80E02A96EBE00C94CB2C80E0F0CFB4
:1031D000A8E0B0E0EEEEF8E10C94B82C66EE7EEFDD
:1031E00090E080E00E94CD2D60E082E090E00E94BF
:1031F000AF2D60E083E090E00E94AF2D10920A02B4
:103200001092090260E074E184E090E00E94CD2D0C
:1032100060E086E090E00E94AF2D6FEF87E090E0E5
:103220000E94AF2D40E050E0BA0188E090E00E949B
:10323000C12D60E084E290E00E94AF2D60E087E164
:1032400090E00E94AF2D60E08CE090E00E94AF2DF6
:1032500060E08DE090E00E94AF2D19821A821B82FF
:103260001C821D821E821F82188648E050E068E1A1
:1032700070E0CE0101960E949F2D40E050E0BA011F
:1032800080E290E00E94C12D40E050E0BA018FE062
:1032900090E00E94C12D40E050E0BA0183E190E04F
:1032A0000E94C12D2896E2E00C94D42C9091AD029E
:1032B00092FB222720F9281779F080FB92F990934E
:1032C000AD026091AC027091AD0284E090E00E948A
:1032D000CD2D82E00E947C0D0895B0E0A0E0E3E7F0
:1032E000F9E10C94B02C7C01FC018481882369F104
:1032F00021E0408151816281738195810E94CB0DD3
:10330000EC01F7019581992311F40C94D421FE016D
:10331000E154FE47E734F10508F07AC1EE5AF14D69
:103320000C94932C88ED94E00E9433178091FD015A
:10333000877059F0F7018581882339F08091AD02BB
:1033400082FF03C082E00E947C0DCDB7DEB7EAE0C9
:103350000C94CC2C86EC94E00E943317E7CF84EBDE
:1033600094E00E943317E2CF82EA94E00E94331780
:10337000DDCF80E994E00E943317D8CF8EE794E048
:103380000E943317D3CF8CE694E00E943317CECF40
:103390008DE594E00E943317C9CF8EE494E00E943B
:1033A0003317C4CF8FE394E00E943317BFCF80E37D
:1033B00094E00E943317BACF81E294E00E94331761
:1033C000B5CF82E194E00E943317B0CF83E094E060
:1033D0000E943317ABCF84EF93E00E943317A6CF40
:1033E00085EE93E00E943317A1CF86ED93E00E9413
:1033F00033179CCF87EC93E00E94331797CF88EB6D
:1034000093E00E94331792CF89EA93E00E9433172A
:103410008DCF8AE993E00E94331788CF8BE893E041
:103420000E94331783CF8CE793E00E9433177ECF3F
:103430008DE693E00E94331779CF8EE593E00E94EA
:10344000331774CF8FE493E00E9433176FCF80E47B
:1034500093E00E9433176ACF81E393E00E94331711
:1034600065CF82E293E00E94331760CF83E193E05F
:103470000E9433175BCF84E093E00E94331756CF4E
:1034800085EF92E00E94331751CF86EE92E00E94C2
:1034900033174CCF87ED92E00E94331747CF88EC6B
:1034A00092E00E94331742CF89EB92E00E943317DB
:1034B0003DCF8AEA92E00E94331738CF8BE992E041
:1034C0000E94331733CF8CE892E00E9433172ECF3F
:1034D0008DE792E00E94331729CF8EE692E00E949A
:1034E000331724CF8FE592E00E9433171FCF80E57A
:1034F00092E00E9433171ACF81E492E00E943317C2
:1035000015CF82E392E00E94331710CF83E292E05E
:103510000E9433170BCF84E192E00E94331706CF4D
:1035200085E092E00E94331701CF86EF91E00E9480
:103530003317FCCE87EE91E00E943317F7CE88ED6B
:1035400091E00E943317F2CE89EC91E00E9433178C
:10355000EDCE8AEB91E00E943317E8CE8BEA91E042
:103560000E943317E3CE8CE991E00E943317DECE40
:103570008DE891E00E943317D9CE8EE791E00E944A
:103580003317D4CE8FE691E00E943317CFCE80E67A
:1035900091E00E943317CACE81E591E00E94331773
:1035A000C5CE82E491E00E943317C0CE83E391E060
:1035B0000E943317BBCE84E291E00E943317B6CE4F
:1035C00085E191E00E943317B1CE86E091E00E9440
:1035D0003317ACCE87EF90E00E943317A7CE88EE6A
:1035E00090E00E943317A2CE89ED90E00E9433173D
:1035F0009DCE8AEC90E00E94331798CE8BEB90E042
:103600000E94331793CE8CEA90E00E9433178ECE3F
:10361000C338F1E7DF0708F095C0C33721E7D207C9
:1036200008F088C1C43631E7D307C0F5C73561E774
:10363000D60708F039C1C53571E7D707A8F4CB34F0
:1036400081E7D80708F019C1C330E1E7DE0708F0C9
:10365000D1C6FE01E851FC47E730F10508F069C228
:10366000E756F14D0C94932CC535F1E7DF0709F4CB
:103670000EC1C63521E7D20761F7992309F456CE6A
:103680008091D302982F9F70993008F04FCE9F5FA2
:103690009F70807F892B8093D30248CEC13731E75A
:1036A000D307B0F5C63661E7D60708F01AC1C436AD
:1036B00071E7D70709F403C1C53681E7D80749F692
:1036C000992309F433CE8091D302982F959595953F
:1036D0009595959596300CF029CE21E0290F2295ED
:1036E000207F2595259525952595322F3295307F7C
:1036F0008F70832B8093D30219160CF017CE27FFFF
:1037000015CE9295907F8F70892B8093D3020ECE29
:10371000C137DC0709F4F2C0C237F1E7DF0709F06F
:1037200098CF8091D402982F9F779F3709F4FECDD0
:10373000933708F0FBC0935F9F778078892B809345
:10374000D402F4CDC93821E7D20709F45EC108F0EC
:1037500046C0C53861E7D60709F416C138F5C33845
:1037600081E7D80709F4F6C0C438E1E7DE0709F0BD
:1037700070CF992309F4DACD2091D402322F331F70
:103780003327331F9091D502892F8770880F832BA1
:103790008F5F382F3F7080FB27F92093D402832F4F
:1037A0008695987F982B9093D502C0CDC738F1E7C6
:1037B000DF0709F419C108F4F6C04FE7911101C001
:1037C00040E09091D402991F9927991F8091D502CA
:1037D0008770880F62E4892B0E947605A7CDCC38CC
:1037E00031E7D30709F424C188F4CA3871E7D70751
:1037F00009F41CC1CB3881E7D80709F02ACF81E052
:10380000911101C08FEF8093D20290CDCE38E1E7C5
:10381000DE0709F441C108F428C1CF3821E7D207F7
:1038200009F017CF8091D402282F221F2227221FB0
:103830008091D5028770880F822B992309F443C1A8
:103840006FEF7FE10E945D0571CDFB012081E85B98
:10385000FF4F808181508083811168CD2F77406830
:10386000E0914B05F0914C0563E070E08BE495E04E
:1038700009958FEFF601808359CDCB54EC2FEF7073
:10388000C091D302C07FCE2BC093D3024FCD809185
:10389000D302982F9F7009F449CD915F9F70807F6C
:1038A000892B8093D30242CDCD55EC2FE295E07F5A
:1038B000C091D302CF70CE2BC093D30237CD80916D
:1038C000D302982F95959595959595959B3F0CF4DA
:1038D0002DCD915F9295907F8F70892B8093D3022D
:1038E00025CDC656ECE0CE9FE02D1124EF77C09198
:1038F000D402C078CE2BC093D40218CD8091D402CC
:10390000982F9F7709F412CD80789F3721F485672F
:103910008093D4020BCD9D3030F09D509F77892B42
:103920008093D40203CD8093D40200CD8F6780931F
:10393000D402FCCCC3578091D402C0FB87F980939A
:10394000D402C695C7708091D502887FC82BC093DA
:10395000D502ECCC2091D402322F331F3327331FF2
:103960009091D502892F8770880F832B815F382F24
:103970003F7080FB27F92093D402832F8695987F90
:10398000982B9093D502D2CC9091D402991F99276D
:10399000991F8091D5028770880F40E06BE7892BD3
:1039A0000E947605C3CC4FE7911101C040E0909191
:1039B000D402991F9927991F8091D5028770880F8B
:1039C00060E4892B0E947605B1CC40E09091D4024E
:1039D000991F9927991F8091D5028770880F61E4FC
:1039E000892B0E947605A2CC4FE7F0CF40E0909162
:1039F000D402991F9927991F8091D5028770880F4B
:103A000063E4892B0E94760591CC4FE7F0CF40E02C
:103A10009091D402991F9927991F8091D5028770A0
:103A2000880F64E4892B0E94760580CC4FE7F0CFA5
:103A30009091D502292F2695269526952F7081E005
:103A4000820F8F70880F880F880F9778892B80934B
:103A5000D502982F987709F069CC220F220F220FF8
:103A60008778822B8093D50261CC992309F45ECCB0
:103A70008091D502982F987709F458CC982F969575
:103A800096959695915F9F70990F990F990F8778EA
:103A9000892B8093D5024ACC8091D402282F221FF3
:103AA0002227221F8091D5028770880F822B9923AD
:103AB00029F060E070EE0E945D0538CC70E060E0B7
:103AC0000E945D0533CC70E060E00E945D052ECC65
:103AD00026E241EE61EEC7010E94DD1727CC27E206
:103AE00045EE65EEC7010E94DD1720CC26E241EECF
:103AF00060EEC7010E94DD1719CC27E245EE64EEA7
:103B0000C7010E94DD1712CC26E241EE62EEC7012A
:103B10000E94DD170BCC27E245EE66EEC7010E943E
:103B2000DD1704CC28E241E065EEC7010E94DD17F5
:103B3000FDCB992309F42BC410923A06CE0190577D
:103B4000839708F00EC484E090E00E94992D909332
:103B5000AD028093AC02FE01E150F047E232F10584
:103B600020F4E056F14D0C94932C8091AC028160CE
:103B70008093AC0295C08091AD0288608093AD02C5
:103B80008FC08091AC028260F3CF8091AC028460E0
:103B9000EFCF8091AC028860EBCF8091AD02816065
:103BA000EDCF8091AD028260E9CF8091AC0280615F
:103BB000DFCF8091AC028062DBCF8091AC02806469
:103BC000D7CF0E943C138091AC028068D1CF809106
:103BD000AC028C60CDCF8091AD028360CFCF80915D
:103BE000AC028E7FC5CF8091AD02877FC7CF809119
:103BF000AC028D7FBDCF8091AC028B7FB9CF80911D
:103C0000AC02877FB5CF8091AD028E7FB7CF809118
:103C1000AD028D7FB3CF8091AC028F7EA9CF809112
:103C2000AC028F7DA5CF8091AC028F7BA1CF0E948B
:103C30003C138091AC028F779BCF8091AC02837F45
:103C400097CF8091AD028C7F99CF8091AC0282FB9F
:103C5000992790F921E0922790FB82F990FB83F954
:103C600087CF8091AD02982F909591708E7F892B90
:103C700090FB81F983CF9091AC02892F8F7B96FFC7
:103C8000806476CF0E943C139091AC02892F97FB01
:103C900087F980586DCF61E08EE090E00E94AF2DF3
:103CA0006091AC027091AD0284E090E00E94CD2D55
:103CB0000E943C133BCB60E0EFCF9091AC02892F88
:103CC0008F7E94FF806154CF9091AC02892F8E7FBC
:103CD00090FF81604DCF9091AD02892F877F93FF38
:103CE00088604CCF85E34DC385E35BC32091E70437
:103CF00020FF18C02E7F2093E7043091E804409104
:103D0000E9045091EA046091EB047091EC04809115
:103D1000ED049091EE040E945F111092E1020E9466
:103D2000440E04CB822F81608093E70486950E9425
:103D3000C212FCCA46EC52E160ED72E10E948408B6
:103D4000F5CA40ED52E166EC72E10E948408EECAC9
:103D500047E352E161E472E10E948408E7CA41E46A
:103D600052E167E372E10E948408E0CA4DE152E14A
:103D70006AE272E10E948408D9CA4AE252E16DE126
:103D800072E10E948408D2CA43E052E160E172E12C
:103D90000E948408CBCA40E152E163E072E10E94D4
:103DA0008408C4CA4BE452E165E672E10E948408CB
:103DB000BDCA45E652E16BE472E10E948408B6CACE
:103DC00081E00E94C212B2CA65E082E00E94DB126A
:103DD000ADCA68E086E00E94DB12A8CA6EE089E006
:103DE0000E94DB12A3CA64E18FE00E94DB129ECA2C
:103DF00067E185E10E94DB1299CA88E10E94C21244
:103E000095CA62E289E10E94DB1290CA83E20E94B5
:103E1000C2128CCA6AE285E20E94DB1287CA0E9443
:103E20003C13FFEF24E33CE0F15020403040E1F749
:103E300000C0000081E08093E00080E28093D80021
:103E40001092C9008FE19EE40197F1F700C00000D5
:103E500087E090EBDC0180933B0690933C06A093B7
:103E60003D06B0933E0688E19CE00FB6F894A89515
:103E7000809360000FBE90936000FFCF6FEF7FEFE5
:103E800090E080E00E94CD2D0E940D168091AD0241
:103E900082FB882780F991E089270E945619F70153
:103EA0008581C081D181882309F449C0CE010E9457
:103EB000BD0C182F682FCE010E94300DBE01812F3E
:103EC0000E94500B0E94680BD82FC92FA82EF70113
:103ED000C580B680B2949FE0B9228091FD018770C1
:103EE000E9F00C2DCC20D9F08C2F807F803451F05C
:103EF00080E28D0F883090F0B11004C08C2F807E4E
:103F0000803261F08091AD0282FF08C082E00E94A1
:103F10007C0D8091FD01877001E009F000E0DC2E4E
:103F2000D2948FE0D822FBE0FD1508F469C0ED2D96
:103F3000F0E0EE53F14D0C94932C80E0AECFCE0127
:103F40000E94FE0C182FBACF1C2F1F70C07F11F0DB
:103F50001295107FCC20B9F0112369F080E28D0F0B
:103F6000883010F0A11009C080910802182B10931E
:103F700008020E94FF128D2F41C080910702182B6A
:103F800010930702F6CF8D2F0E9434161123C1F132
:103F9000D05ED83010F0A11004C0812F0E94860C92
:103FA00006C01095809107021823109307020E9403
:103FB000FF1226C01C2F1F70C07FC03211F0129557
:103FC000107FAA2059F021E0A21609F478C0CC2075
:103FD00009F484C0BB2009F446C0CDCF8091AD0266
:103FE00082FD3DC0CC20A9F1112339F08091080257
:103FF000182B109308020E94FF1280E00E94851681
:10400000ED2DE850FF0B349710F40E947708002341
:10401000A9F08091FD0180FD11C0F7011582869500
:10402000869586950E94930DC7010E946D19809117
:10403000FD018695869586950E946A0D20E0F70120
:104040004081518162817381848195810E94CB0D71
:104050007CC980E00E943416112391F29ECFCC20BF
:10406000A1F0B11004C0812F0E942A16C9CF31E0FF
:10407000B312C6CF80910602912F9823191709F425
:10408000BFCF182B10930602BBCFB110B9CF812F31
:104090000E94231690910602812F892329F0812FF7
:1040A00080958923809306028091CD01912F9823DA
:1040B00009F4A6CF109518231093CD01A1CFCC20E1
:1040C00029F065E06B1508F49BCFCDCF74E07B152C
:1040D00008F496CF812F0E94231692CFBB20D1F3F4
:1040E00089E3A81236C19FEFE7EEF3E09150E0407C
:1040F000F040E1F700C000008D2F0E94341680CF01
:104100008C2F86958695837069F0813009F078CF81
:104110008D2F9C2F9370C11002C080E090E00E9410
:104120002D086ECF8D2F9C2F9370C11002C080E0A0
:1041300090E00E94520864CF8C2F837009F03FC03A
:10414000C1105ECF4D2F429546954770440F440FE6
:104150002D2F2F7030E0042E02C0220F331F0A943F
:10416000E2F790E080E0D4FF09C08FE090E002C069
:10417000880F991F4A95E2F780959095C695C69548
:10418000C370C23099F078F44091090250910A024C
:10419000C13039F0822B932B842395230E94A30DE9
:1041A0002FCF242B352B822B932BF8CF822B932BC5
:1041B0002091090230910A0282279327EFCF86953A
:1041C000CC2011F08C2F8170882309F419CF4D2F4A
:1041D000429546954770440F440F2D2F2F7030E0C5
:1041E000042E02C0220F331F0A94E2F790E080E011
:1041F000D4FF09C08FE090E002C0880F991F4A9554
:10420000E2F780959095C695C695C370C23099F037
:1042100078F44091AA025091AB02C13039F0822B60
:10422000932B842395230E94650DEACE242B352BF6
:10423000822B932BF8CF822B932B2091AA023091C3
:10424000AB0282279327EFCFCF70CC2029F08C2FA1
:104250000E94930D8D2F08CF8D2F0E9423168C2F37
:104260000E946A0DCDCE8D2F92EFA91699F19A1565
:1042700070F0E0EFAE16D1F0F1EFAF1691F0CC2078
:1042800009F45BC0B11077CE8C2F8F7127C023EF5C
:10429000A21639F134EFA312F2CF8091AD0282FD64
:1042A0002EC08C2F8F71CC20D9F218C0CC2069F091
:1042B00064E06B1508F4A4CECF7181E090E002C0F9
:1042C000880F991FCA95E2F7B8CF75E07B1508F4FF
:1042D00097CEF2CF8C2F8F71C110C2CF0E94930D59
:1042E0008FCE90E080E0CC2009F49DCFCF7181E0AB
:1042F00090E002C0880F991FCA95E2F794CFCC20B6
:1043000089F0CF718C2F0E94930D8091AD0282FFB6
:1043100007C0E8E0CE9FC001112483608093FD01B7
:104320008C2FDCCF81E00E947C0DF1E0FB1508F0C2
:1043300067CE82E00E947C0D63CEBB2079F089338A
:1043400041F42FEF37EE63E0215030406040E1F759
:10435000D1CE8FE39CE90197F1F7CCCE8C2F8F71F2
:104360007FCFC631FCE7DF0709F0F5C08091080276
:104370008A7A91E009F490E09093CC018111B2CC5B
:1043800089E20E949A0C0E94FF120C949619C63181
:104390002CE7D20709F0FFC08091CC018111A4CC99
:1043A00089E20E948D0CEFCFC33831E7D30708F0C4
:1043B00090C0C33761E7D60710F00C949619C43645
:1043C00071E7D70708F062C0C73581E7D80710F05A
:1043D0000C949619C535E1E7DE0708F04AC0CB34E6
:1043E000F1E7DF0710F00C949619C33021E7D207EC
:1043F00008F42FC90091D402802F881F8827881FB6
:104400004091D5024770440F482B0F772C2F235033
:1044100030E0B901605F7D4F6B01992309F415CA43
:104420008091D302982F9F70859585958595859568
:1044300083507CE0979F800D1124C80F2C2F2F777D
:104440004069E0914B05F0914C0563E070E08BE42E
:1044500095E00995F601E85BFF4F80818F5F8083CF
:10446000F60180818F3F11F00C949619C0830C9453
:104470009619C53531E7D30711F40C949619C63552
:1044800061E7D60711F40C949619E3C8C13771E7B8
:10449000D70798F4C63681E7D80710F00C94961920
:1044A000C436E1E7DE0711F40C949619C536F1E73E
:1044B000DF0711F40C949619CCC8C137DC0711F44E
:1044C0000C949619C23731E7D30711F40C9496195E
:1044D000C0C8C93861E7D60709F488CAE0F4C5380E
:1044E00081E7D80711F40C94961968F4C338F1E702
:1044F000DF0711F40C949619C43821E7D20711F4A0
:104500000C949619A6C8C73831E7D30709F45DCAD9
:1045100008F44CCA55C9CC3871E7D70711F40C948C
:10452000961958F4CA38E1E7DE0709F470CACB38A7
:10453000F1E7DF0709F466C98CC8CE3821E7D20756
:1045400009F4AACA10F40C949619CF3861E7D6077B
:1045500009F468C97EC8C3307CE7D70709F48ECC5C
:1045600050F4C1159CE7D90709F459CCC130DC4798
:1045700009F48ACC94CCCB35FCE7DF0709F4DDCC19
:10458000CC352CE7D20709F481CCCA35DC4709F0D9
:1045900086CC81E082CC809108028272FE01E052DA
:1045A000F847E531F10508F07ACCE253F14D0C946F
:1045B000932CCF93DF938091FC01807F09F04DC055
:1045C0008091FB01882309F448C0E0914A0550918D
:1045D0001105C091F701D091F6016091F801709139
:1045E000F90147E05E17C9F18E2F90E0E49FF001DA
:1045F0001124EE5EFA4F2481222391F1489FF001AD
:10460000499FF00D1124DF01AE5EBA4F11962C9137
:1046100011972C1325C02C912D1322C015962C9187
:10462000159721111DC012962D913C91261B370B19
:10463000283C3105A8F48091FC018F708061809343
:10464000FC01E85EFA4F80818F708061808386EF85
:1046500091E00E946D190E94B30CDF91CF910895F3
:10466000FC013196E770BECFA4E1B0E0EAE3F3E2EB
:104670000C94AE2C8C0186E0F801DE011F960190AF
:104680000D928A95E1F7F8018481E58096EFA92ED5
:1046900091E0B92E9091FA01911128C0882319F167
:1046A000EE20F1F0C8010E94A80DF82E8823C1F079
:1046B00087E0F801D50101900D928A95E1F780918C
:1046C000FA01813031F48091F6019091F7010E9456
:1046D000F10C0E94D9228F2D6496ECE00C94CA2C28
:1046E000C8010E946D19FF24F394F5CFD080C180DA
:1046F00082809380F090FB012091F8013091F901C4
:10470000A401421B530BFF2009F4D9C0483C5105BA
:1047100008F092C08823F9F29091F7018091FC0192
:10472000282F207F09F056C0C91214C09091F601BD
:10473000D91210C0E11048C08F7080618093FC01D5
:1047400086EF91E00E946D198091FC01F80186834B
:10475000F12CC1CFE11038C06C2D8D2D0E94870542
:104760006C2D8D2D0E948705E82E8111F1CFDF86FB
:10477000C88A8F8598890E94F10C292F22952F7065
:10478000243058F49F70223088F0992399F0F80172
:104790009681907F79F4FE2C9ECF2A5F2F70223075
:1047A00068F0C8010E946D19EF2CF5CF992311F024
:1047B000882389F3805E883070F3F3CF803F58F30D
:1047C000815F833070F7E7CF8091FC018160809337
:1047D000FC01BECFC91207C09091F601D91203C0E7
:1047E000EE2009F48DC0C8010E94A80D882309F4A9
:1047F00077CFEE2009F474CF8091FC01803288F0ED
:104800002091F6013091F701398728879B868A86A7
:104810009091FA019C871D868E87CE0108960E9492
:104820006D1987E0F801A6EFB1E001900D928A952D
:10483000E1F70E94D92257CF9091FC01292F207FC8
:1048400051F486EF91E00E946D1987E0F501119215
:104850008A95E9F77DCF882309F43DCF8091F70150
:104860008C1110C08091F601D8120CC0E1100AC062
:104870009683C8010E946D1987E0F50111928A950F
:10488000E9F729CFC8010E94A80D882309F428CF91
:10489000EE2009F425CF8091FC01803210F22091A6
:1048A000F6013091F7013A8329839C828B829091A3
:1048B000FA019D831E828F83CE010196B0CF483CC2
:1048C0005105D0F6882309F40ECFFE2CEE2009F412
:1048D00007CF8091F7018C1120C08091F601D8128A
:1048E0001CC08091FC0180FD0FC0982F907F61F06B
:1048F0008683903F31F0982F907F905F8F70892B47
:104900008683C8010E946D1987E0F801A6EFB1E027
:1049100001900D928A95E1F7DECEC8010E94A80DA4
:1049200081117FCF8091FC0181608093FC01C801DF
:104930000E946D19D0CEABE1B0E0E1EAF4E20C9454
:10494000B62C4E8B5F8B688F798F8A8F9B8F192F38
:104950009111109207021D8A86E0FE017696DE0113
:104960001F9601900D928A95E1F70A8D002341F080
:1049700021E04F85588969897A89C8010E94CB0D49
:104980000B8B1C8B87E0FE013F96DE011896019091
:104990000D928A95E1F7CE0108960E943423811189
:1049A0000CC087E0FE013896DE01119601900D9251
:1049B0008A95E1F78C8581110BC017E080914A053B
:1049C00090911105891331C06B96E4E00C94D22CC0
:1049D0002091110530E0C901019687709927409117
:1049E0004A054817190699F097E0929FD001939FC6
:1049F000B00D1124AE5EBA4FFE01319601900D92BA
:104A00009A95E1F7809311050E94B30CD6CF0E94CE
:104A10003C131092110510924A0587E0E6EFF1E091
:104A2000DF011D928A95E9F7C8CF819FC00111244B
:104A30008E5E9A4F0E943423882331F280914A057A
:104A400090E001968770992780934A05B7CFA6E03A
:104A5000B0E0EDE2F5E20C94B62C0E9421088C0146
:104A600080910B0290910C028017910781F01982BE
:104A70001A820E942108682F49815A81792F80E08B
:104A800090E00E949B2410930C0200930B02269648
:104A9000E4E00C94D22C1F920F920FB60F921124C7
:104AA0002F933F934F935F936F937F938F939F9336
:104AB000AF93BF93CF93DF93EF93FF93D091E90030
:104AC000DF708091EC00C82FC17080FDC0E81092AB
:104AD000E9008091F000877F8093F00078940E9435
:104AE00052131092E9008091F00088608093F000EA
:104AF000CD2BCF70C093E900FF91EF91DF91CF9163
:104B0000BF91AF919F918F917F916F915F914F91E5
:104B10003F912F910F900FBE0F901F9018951F92ED
:104B20000F920FB60F9211242F933F934F935F93E1
:104B30006F937F938F939F93AF93BF93EF93FF9365
:104B40008091E10082FF09C08091E20082FF05C0F0
:104B50008091E1008B7F8093E1008091DA0080FFFB
:104B600024C08091D80080FF20C08091DA008E7F21
:104B70008093DA008091D90080FF9DC080E189BDDB
:104B800082E189BD09B400FEFDCF81E08093070575
:104B90008091FA04811109C00E9489060E9454077D
:104BA0008091E20084608093E2008091E10080FFC8
:104BB00017C08091E20080FF13C08091E2008E7FD9
:104BC0008093E2008091E20080618093E200809116
:104BD000D80080628093D80019BC85E080930705D7
:104BE0008091E10084FF2BC08091E20084FF27C008
:104BF00080E189BD82E189BD89B5982F917080FFE0
:104C0000FBCF8091D8008F7D8093D8008091E10008
:104C10008F7E8093E1008091E2008F7E8093E2009E
:104C20008091E20081608093E200809108058823F2
:104C300009F447C084E080930705809107058091BF
:104C4000E10083FF27C08091E20083FF23C08091B1
:104C5000E100877F8093E10082E080930705109256
:104C600008058091E1008E7F8093E1008091E20051
:104C70008E7F8093E2008091E20080618093E20069
:104C800042E060E080E00E9422078091F0008860AE
:104C90008093F000FF91EF91BF91AF919F918F9121
:104CA0007F916F915F914F913F912F910F900FBE28
:104CB0000F901F90189519BC109207051092FA04D6
:104CC00074CF8091E30087FD93E090930705B5CF03
:104CD00078941F921FB61F9211248F939F93AF93C6
:104CE000BF938091F6049091F704A091F804B091DD
:104CF000F9040196A11DB11D8093F6049093F70469
:104D0000A093F804B093F904BF91AF919F918F9154
:104D10001F901FBE1F9018951F921FB61F9211243F
:104D20008F939F93AF93BF938091F504811113C02C
:104D30008091F6049091F704A091F804B091F904E1
:104D40004196A11DB11D8093F6049093F704A093A2
:104D5000F804B093F904BF91AF919F918F911F9088
:104D60001FBE1F90189500D000D000D0CDB7DEB781
:104D700085B7806885BF85B7806885BF84E08093EC
:104D8000D3028FE78093D4028091D502807880642B
:104D90008093D502E0E1F2E088E592E02FEF2193E5
:104DA000DF01A95BBF4F1C928E179F07C1F71092BE
:104DB000D1021092D2021092D8021092D702109211
:104DC0007005109272051092710580EC8093350683
:104DD00083E795E090933706809336061092340669
:104DE000109233061092500510924F051092520502
:104DF00010925105109254051092530510925605C9
:104E000010925505109258051092570510925A05A8
:104E10001092590510925C0510925B0510925E0588
:104E200010925D051092600510925F051092620568
:104E30001092610510926405109263051092660548
:104E40001092650510926A051092690587EF99E046
:104E500090934C0580934B058EE599E090936C05FB
:104E600080936B058AE399E09093680580936705CA
:104E700089E399E090934E0580934D0584B7877F31
:104E800084BF0FB6F894A8958091600088618093E4
:104E90006000109260000FBE80E890E00FB6F894BA
:104EA00080936100909361000FBE86E49AE0909336
:104EB000C3018093C2010E9489060E945407809119
:104EC000E20084608093E200789480910705882353
:104ED000A1F01091E9001F709091EC00892F817072
:104EE00090FD80E8182B1092E9008091E80083FD86
:104EF0000E9452131F701093E90092E094BD83E06A
:104F000085BD2AEF27BD90936E008093CD0245E8C2
:104F100051E062E8862E61E0962E78E8E72E71E097
:104F2000F72E84019A0161E070E0D9018D919D0115
:104F3000E82FE295EF70F0E0B1A08F706B0101C037
:104F4000CC0C8A95EAF79C2D90959B2191A382A188
:104F50008C2982A3F80181918F01E82FE295EF70EF
:104F6000F0E0B1A08F706B0101C0CC0C8A95EAF71C
:104F70009C2D90959B2191A382A18C2982A3EA1656
:104F8000FB0699F68FE891E00197F1F700C0000069
:104F90001091CD026EEC72E0FB018E2F861B811703
:104FA00008F43CC100E611E05AE6E52E51E0F52E8A
:104FB000F80181918F018F3F11F00E94480AE0169D
:104FC000F106B1F70AE611E042E7E42E41E0F42EE3
:104FD000D8018D918D018F3F11F00E94480AE01693
:104FE000F106B1F78AE0E1EBF2E0DF01282F1D9234
:104FF0002A95E9F7E0EAF2E0DF011D928A95E9F7E8
:1050000090E080E00E94992D863E9E4F11F00E9414
:10501000E81882E090E00E948B2D8093BB0284E030
:1050200090E00E94992D9093AD028093AC0283E0B2
:1050300090E00E948B2D90E00E94A30D8091AE0223
:10504000811176C090E080E00E94992D863E9E4FAF
:1050500021F00E94E8180E94EA1288E090E00E9485
:10506000932D4B015C0184E290E00E948B2D282F50
:1050700030E040E050E060E070E080E090E000E28E
:105080000E94DF2C282939294A295B292093E7042B
:105090003093E8044093E9045093EA046093EB04EE
:1050A0007093EC048093ED049093EE042E7F89F5C9
:1050B0000E94EA1288E090E00E94932D6B017C012F
:1050C00084E290E00E948B2D282F30E040E050E0F9
:1050D00060E070E080E090E00E94DF2CB22FA32F10
:1050E000F42FE52F5B0197018601BC29A12BFE2936
:1050F000E32BB093E704A093E804F093E904E09372
:10510000EA046093EB04B092EC048093ED04909376
:10511000EE040E948A081092E1028091E70480FF69
:1051200004C060E086950E947F1281E08093AE0209
:105130008091E70481608093E70486950E94C21203
:1051400083E20E94C21284E091E09093F204809383
:10515000F10498E1492E512C2BEB622E22E0722EA5
:1051600034E0832E912C80910705FF24F39400E115
:1051700012E1853009F4C3C00E943A180CEB12E02A
:1051800081EBE82E82E0F82E26EC32E0D701F80120
:1051900091918D912E173F0709F4CCC09817C1F358
:1051A000D12C22242394D701CD907D01F801319098
:1051B0008F013C1419F13C24B12CAA24A394832D13
:1051C0008A21A1F0B982DA820E9421089C838B8314
:1051D0002D8291E08C2D8A2109F490E09E834981F3
:1051E0005A816B817C818D810E949B24B394AA0C8F
:1051F000F8E0BF12E4CFF8013197C082D3942AE0DF
:10520000D212D1CF8FB7F8944091F6045091F704A1
:105210006091F8047091F9048FBF90C0DA012D916C
:10522000AD01822F82958F7090E0DC0190968C9179
:1052300090E02F7002C0959587952A95E2F78170CE
:10524000D4019D914D01292F22952F7030E0D90175
:1052500090962C9130E09F7002C0359527959A95D5
:10526000E2F790E020FD92E0892B819396CE809129
:105270000705843009F435C01092E1028091B00234
:1052800081110DC0F092B0028091E704982F9170C7
:105290009093AF028E7F8093E7040E94440E109299
:1052A000F504F0E40FB6F894A895409260000FBEA4
:1052B000F093600083B7817F846083BF83B7816090
:1052C00083BF7894889583B78E7F83BF0FB6F89499
:1052D000A8958091600088618093600010926000C2
:1052E0000FBE80910605882351F00E943A18E1EB29
:1052F000F2E081918111CDC26E167F06D1F78091C7
:105300000705853009F4B3CF0E943C130E9477084B
:105310001092B0028091AF02882349F08091E70497
:1053200081608093E70460E086950E947F120E946E
:105330002E0E22CF981334CF0E9427258091E102B0
:105340008823D1F18091E002E091E704E695E81B23
:10535000E093DC02823009F0E7C0F0E0E556FA4F56
:10536000E4910E2F10E0BBE4EB2EB1E1FB2E809117
:10537000DD02882361F01092DD020E9421089093E3
:10538000DB028093DA021092DF021092DE020E94AA
:105390002108E091DA02F091DB028E1B9F0B8F3F18
:1053A0009F4750F4E00FF11FF093DB02E093DA0225
:1053B0008AED92E0F70109958091C602882361F099
:1053C0001092C6028091E102811106C08091E7042B
:1053D00060E086950E947F12D12CC12C8091CD0275
:1053E000D81608F40DC1CC2059F08FB7F89440912D
:1053F000F6045091F7046091F8047091F9048FBF9E
:10540000E0916B05F0916C05309719F08BE495E015
:1054100009959FB7F89400913406809133060817D8
:1054200008F474C1081B9FBFF12CE12C10E083E04D
:10543000A82EB12CCC24C394D12CE016F10608F48C
:1054400069C18091D7029091D8020E9412082091E0
:10545000D5022695269526952F702817190609F04E
:1054600060F50E9421089093D8028093D702809122
:10547000D202882311F19091D402991F9927991F84
:105480008091D5028770880F4091D10261E0892B0D
:105490000E9476058091D2029091D10287FFF1C1DE
:1054A000E82FFF27E1950CF4F0959E171F060CF0EE
:1054B000E8C11092D1021092D2020E947708909116
:1054C000D902891769F08093D9028FB7F894409177
:1054D000F6045091F7046091F8047091F9048FBFBD
:1054E00080910705843009F03ECE80910D018F70C8
:1054F0008093E9009091E80090FF35CE90910705E8
:10550000943009F030CE8093E9009091F3008091BF
:10551000F200892B09F427CE8091E8008E778093E2
:10552000E8000E94A8061FCE863059F4F0E0E85645
:10553000FA4FE4910E2F10E0ABE3EA2EA1E1FA2E30
:1055400016CF893061F4E695F0E0EB56FA4FE4911E
:105550000E2F10E0FFEAEF2EF0E1FF2E08CF8F3084
:1055600061F4E695F0E0EE56FA4FE4910E2F10E06C
:10557000E1E5EE2EE0E1FE2EFACE853159F4F0E0C1
:10558000E157FA4FE4910E2F10E073E0E72E70E13F
:10559000F72EEDCE08E210E048E8E42E4FE0F42EBE
:1055A000883109F4E4CE833249F4EDE8F5E0059161
:1055B00014916AEEE62E60E1F62ED9CE04EF11E0EA
:1055C00031E5E32E3FE0F32E843209F4D0CE00ED36
:1055D00017E02DE0E22E28E0F22E853209F0C7CE4A
:1055E0008E2F63E00E945F2CE92FF0E0E657FA4F20
:1055F000E4910E2F10E05BEBE52E5EE0F52EB7CECA
:105600000D2D10E0F801EB57FE4F8081E82FE29559
:10561000EF70F0E0E0A1F0E08F7002C0F595E79543
:105620008A95E2F7E170D801AE57BE4F2C91A22FB8
:10563000A295AF70B0E090968C9190E02F7002C070
:10564000959587952A95E2F780FD5EC080E08E2BC8
:10565000D801A253BD4FEC919E2F9370891709F486
:1056600051C0EE0FEE0FE82BEC93EF70F0E0EE5828
:10567000FE4FA80146535D4F7A018081DA019C916B
:10568000890F8C9320E08430BCF0F801E953FD4F82
:1056900080818F5F808381EE95E0DD2051F0B1E065
:1056A00080EC95E0DB1629F0E2E0DE1204C08FE921
:1056B00095E00E94331721E0D7018C918D3FBCF417
:1056C000F801E953FD4F80818150808382EF95E09E
:1056D000DD2051F0B1E081ED95E0DB1629F0E2E04C
:1056E000DE1204C080EB95E00E94331721E0D70161
:1056F0008C91082E000C990BB4010E947F2CF701AD
:105700008083C22AD3946ACE82E0A1CF209135064D
:10571000020F88CE8091330690E06091350670E0EC
:105720000E947F2C2091360630913706280F391FB2
:10573000D9013C9020907005B7EFB315F0F4E1E08B
:10574000E093700520E040E0632D81E090E00E944E
:10575000A605209270052FB7F8948091330690E04B
:1057600001966091350670E00E947F2C809333068D
:105770002FBFBFEFEB1AFB0A60CE37FE53C0F4E039
:105780002F1631F030926D05D0927205C0927105DE
:10579000832D0E943B09813069F08823D1F082304B
:1057A000A9F0833099F01092700510927205109252
:1057B0007105D1CF8093700520E040E0632D81E03A
:1057C00090E00E94A60510927005C5CF80937005E9
:1057D000C2CF20EF3216E1F047EF3412E4CF209130
:1057E000710530917205C901B5010E946B2CFC0155
:1057F000E55BFA4F32A2C90101969093720580933E
:10580000710520916F0540916E0560916D05D9CFAE
:1058100054E05093700530926D05D0927205C0929D
:10582000710599CF222009F496CF2091710530910E
:105830007205C901B5010E946B2CAC01FC01E55B4E
:10584000FA4F32A2C90101969093720580937105B7
:105850004130510589F04230510509F07CCF20914B
:105860006F0540916E0560916D050E94A6058091BF
:105870007005843091F66FCFA2E020E02A126BCF42
:10588000F0CF890F87FD03C08093D10216CE8FE73A
:10589000FBCF09BD19BD09B400FEFDCF8091D80032
:1058A0008F7D8093D8008091E00082608093E0003B
:1058B0008091E00081FDFCCF0E943C1320CD991B1C
:1058C00079E004C0991F961708F0961B881F7A95F7
:1058D000C9F780950895AA1BBB1B51E107C0AA1FF9
:1058E000BB1FA617B70710F0A61BB70B881F991F81
:1058F0005A95A9F780959095BC01CD01089597FB25
:10590000072E16F4009407D077FD09D00E946B2C67
:1059100007FC05D03EF4909581959F4F08957095B2
:1059200061957F4F0895EE0FFF1F0590F491E02DD4
:1059300009940E94372E332312F48A1B9B0B0C947C
:10594000A32C0E94372EB7FF0895821B930B089556
:105950002F923F924F925F926F927F928F929F927F
:10596000AF92BF92CF92DF92EF92FF920F931F936D
:10597000CF93DF93CDB7DEB7CA1BDB0B0FB6F8941E
:10598000DEBF0FBECDBF09942A88398848885F845E
:105990006E847D848C849B84AA84B984C884DF80CF
:1059A000EE80FD800C811B81AA81B981CE0FD11DB3
:1059B0000FB6F894DEBF0FBECDBFED010895002EE7
:1059C000083090F0982F872F762F652F542F432F74
:1059D000322F22270850F4CF220F331F441F551FA8
:1059E000661F771F881F991F0A95B2F7002D08952B
:1059F00097FD1094002E083098F00850232F342F74
:105A0000452F562F672F782F892F912DF4CF15947E
:105A100097958795779567955795479537952795E6
:105A20000A95AAF71124002D08958F929F92AF92A4
:105A3000BF92CF92DF92EF92FF92CF93DF93EC0170
:105A4000688179818A819B81611571058105910544
:105A500021F464E279ED8BE597E02DE133EF41E04D
:105A600050E00E94E32D49015A019B01AC01A7EAD5
:105A7000B1E40E94022E6B017C01ACEEB4EFA501F3
:105A800094010E94102EDC01CB018C0D9D1DAE1DDA
:105A9000BF1DB7FF03C00197A109B0488883998350
:105AA000AA83BB839F77DF91CF91FF90EF90DF9028
:105AB000CF90BF90AF909F908F9008950E94152D2A
:105AC000089580E091E00E94152D0895B0E0A0E0D7
:105AD0008093000190930101A0930201B093030110
